{
	"myNFT.sol": {
		"MyNFT": {
			"abi": [
				{
					"inputs": [
						{
							"internalType": "string",
							"name": "_name",
							"type": "string"
						},
						{
							"internalType": "string",
							"name": "_symbol",
							"type": "string"
						}
					],
					"stateMutability": "nonpayable",
					"type": "constructor"
				},
				{
					"inputs": [
						{
							"internalType": "address",
							"name": "sender",
							"type": "address"
						},
						{
							"internalType": "uint256",
							"name": "tokenId",
							"type": "uint256"
						},
						{
							"internalType": "address",
							"name": "owner",
							"type": "address"
						}
					],
					"name": "ERC721IncorrectOwner",
					"type": "error"
				},
				{
					"inputs": [
						{
							"internalType": "address",
							"name": "operator",
							"type": "address"
						},
						{
							"internalType": "uint256",
							"name": "tokenId",
							"type": "uint256"
						}
					],
					"name": "ERC721InsufficientApproval",
					"type": "error"
				},
				{
					"inputs": [
						{
							"internalType": "address",
							"name": "approver",
							"type": "address"
						}
					],
					"name": "ERC721InvalidApprover",
					"type": "error"
				},
				{
					"inputs": [
						{
							"internalType": "address",
							"name": "operator",
							"type": "address"
						}
					],
					"name": "ERC721InvalidOperator",
					"type": "error"
				},
				{
					"inputs": [
						{
							"internalType": "address",
							"name": "owner",
							"type": "address"
						}
					],
					"name": "ERC721InvalidOwner",
					"type": "error"
				},
				{
					"inputs": [
						{
							"internalType": "address",
							"name": "receiver",
							"type": "address"
						}
					],
					"name": "ERC721InvalidReceiver",
					"type": "error"
				},
				{
					"inputs": [
						{
							"internalType": "address",
							"name": "sender",
							"type": "address"
						}
					],
					"name": "ERC721InvalidSender",
					"type": "error"
				},
				{
					"inputs": [
						{
							"internalType": "uint256",
							"name": "tokenId",
							"type": "uint256"
						}
					],
					"name": "ERC721NonexistentToken",
					"type": "error"
				},
				{
					"anonymous": false,
					"inputs": [
						{
							"indexed": true,
							"internalType": "address",
							"name": "owner",
							"type": "address"
						},
						{
							"indexed": true,
							"internalType": "address",
							"name": "approved",
							"type": "address"
						},
						{
							"indexed": true,
							"internalType": "uint256",
							"name": "tokenId",
							"type": "uint256"
						}
					],
					"name": "Approval",
					"type": "event"
				},
				{
					"anonymous": false,
					"inputs": [
						{
							"indexed": true,
							"internalType": "address",
							"name": "owner",
							"type": "address"
						},
						{
							"indexed": true,
							"internalType": "address",
							"name": "operator",
							"type": "address"
						},
						{
							"indexed": false,
							"internalType": "bool",
							"name": "approved",
							"type": "bool"
						}
					],
					"name": "ApprovalForAll",
					"type": "event"
				},
				{
					"anonymous": false,
					"inputs": [
						{
							"indexed": true,
							"internalType": "address",
							"name": "from",
							"type": "address"
						},
						{
							"indexed": true,
							"internalType": "address",
							"name": "to",
							"type": "address"
						},
						{
							"indexed": true,
							"internalType": "uint256",
							"name": "tokenId",
							"type": "uint256"
						}
					],
					"name": "Transfer",
					"type": "event"
				},
				{
					"inputs": [
						{
							"internalType": "uint256",
							"name": "tokenId",
							"type": "uint256"
						},
						{
							"internalType": "uint256",
							"name": "price",
							"type": "uint256"
						}
					],
					"name": "NftsaleSumbit",
					"outputs": [
						{
							"internalType": "uint256[]",
							"name": "",
							"type": "uint256[]"
						}
					],
					"stateMutability": "nonpayable",
					"type": "function"
				},
				{
					"inputs": [
						{
							"internalType": "address",
							"name": "to",
							"type": "address"
						},
						{
							"internalType": "uint256",
							"name": "tokenId",
							"type": "uint256"
						}
					],
					"name": "approve",
					"outputs": [],
					"stateMutability": "nonpayable",
					"type": "function"
				},
				{
					"inputs": [
						{
							"internalType": "address",
							"name": "owner",
							"type": "address"
						}
					],
					"name": "balanceOf",
					"outputs": [
						{
							"internalType": "uint256",
							"name": "",
							"type": "uint256"
						}
					],
					"stateMutability": "view",
					"type": "function"
				},
				{
					"inputs": [],
					"name": "getAllTokenURIs",
					"outputs": [
						{
							"internalType": "string[]",
							"name": "",
							"type": "string[]"
						}
					],
					"stateMutability": "view",
					"type": "function"
				},
				{
					"inputs": [
						{
							"internalType": "uint256",
							"name": "tokenId",
							"type": "uint256"
						}
					],
					"name": "getApproved",
					"outputs": [
						{
							"internalType": "address",
							"name": "",
							"type": "address"
						}
					],
					"stateMutability": "view",
					"type": "function"
				},
				{
					"inputs": [],
					"name": "getMyNftTokenId",
					"outputs": [
						{
							"components": [
								{
									"internalType": "string",
									"name": "hashStr",
									"type": "string"
								},
								{
									"internalType": "uint256",
									"name": "tokenId",
									"type": "uint256"
								}
							],
							"internalType": "struct MyNFT.MyNftInfo[]",
							"name": "",
							"type": "tuple[]"
						}
					],
					"stateMutability": "view",
					"type": "function"
				},
				{
					"inputs": [],
					"name": "getPrice",
					"outputs": [
						{
							"internalType": "uint256[]",
							"name": "",
							"type": "uint256[]"
						},
						{
							"internalType": "uint256[]",
							"name": "",
							"type": "uint256[]"
						}
					],
					"stateMutability": "view",
					"type": "function"
				},
				{
					"inputs": [],
					"name": "getSaleTokenId",
					"outputs": [
						{
							"internalType": "uint256[]",
							"name": "",
							"type": "uint256[]"
						}
					],
					"stateMutability": "view",
					"type": "function"
				},
				{
					"inputs": [],
					"name": "getTotalSupply",
					"outputs": [
						{
							"internalType": "uint256",
							"name": "",
							"type": "uint256"
						}
					],
					"stateMutability": "view",
					"type": "function"
				},
				{
					"inputs": [
						{
							"internalType": "address",
							"name": "owner",
							"type": "address"
						},
						{
							"internalType": "address",
							"name": "operator",
							"type": "address"
						}
					],
					"name": "isApprovedForAll",
					"outputs": [
						{
							"internalType": "bool",
							"name": "",
							"type": "bool"
						}
					],
					"stateMutability": "view",
					"type": "function"
				},
				{
					"inputs": [
						{
							"internalType": "string",
							"name": "tokenURI",
							"type": "string"
						}
					],
					"name": "minting",
					"outputs": [],
					"stateMutability": "nonpayable",
					"type": "function"
				},
				{
					"inputs": [],
					"name": "name",
					"outputs": [
						{
							"internalType": "string",
							"name": "",
							"type": "string"
						}
					],
					"stateMutability": "view",
					"type": "function"
				},
				{
					"inputs": [
						{
							"internalType": "uint256",
							"name": "tokenId",
							"type": "uint256"
						}
					],
					"name": "ownerOf",
					"outputs": [
						{
							"internalType": "address",
							"name": "",
							"type": "address"
						}
					],
					"stateMutability": "view",
					"type": "function"
				},
				{
					"inputs": [
						{
							"internalType": "address",
							"name": "from",
							"type": "address"
						},
						{
							"internalType": "address",
							"name": "to",
							"type": "address"
						},
						{
							"internalType": "uint256",
							"name": "tokenId",
							"type": "uint256"
						}
					],
					"name": "safeTransferFrom",
					"outputs": [],
					"stateMutability": "nonpayable",
					"type": "function"
				},
				{
					"inputs": [
						{
							"internalType": "address",
							"name": "from",
							"type": "address"
						},
						{
							"internalType": "address",
							"name": "to",
							"type": "address"
						},
						{
							"internalType": "uint256",
							"name": "tokenId",
							"type": "uint256"
						},
						{
							"internalType": "bytes",
							"name": "data",
							"type": "bytes"
						}
					],
					"name": "safeTransferFrom",
					"outputs": [],
					"stateMutability": "nonpayable",
					"type": "function"
				},
				{
					"inputs": [
						{
							"internalType": "address",
							"name": "owner",
							"type": "address"
						},
						{
							"internalType": "address",
							"name": "operator",
							"type": "address"
						},
						{
							"internalType": "bool",
							"name": "approved",
							"type": "bool"
						}
					],
					"name": "setAppAll",
					"outputs": [],
					"stateMutability": "nonpayable",
					"type": "function"
				},
				{
					"inputs": [
						{
							"internalType": "address",
							"name": "operator",
							"type": "address"
						},
						{
							"internalType": "bool",
							"name": "approved",
							"type": "bool"
						}
					],
					"name": "setApprovalForAll",
					"outputs": [],
					"stateMutability": "nonpayable",
					"type": "function"
				},
				{
					"inputs": [
						{
							"internalType": "bytes4",
							"name": "interfaceId",
							"type": "bytes4"
						}
					],
					"name": "supportsInterface",
					"outputs": [
						{
							"internalType": "bool",
							"name": "",
							"type": "bool"
						}
					],
					"stateMutability": "view",
					"type": "function"
				},
				{
					"inputs": [],
					"name": "symbol",
					"outputs": [
						{
							"internalType": "string",
							"name": "",
							"type": "string"
						}
					],
					"stateMutability": "view",
					"type": "function"
				},
				{
					"inputs": [
						{
							"internalType": "uint256",
							"name": "_tokenId",
							"type": "uint256"
						}
					],
					"name": "tokenURI",
					"outputs": [
						{
							"internalType": "string",
							"name": "",
							"type": "string"
						}
					],
					"stateMutability": "view",
					"type": "function"
				},
				{
					"inputs": [
						{
							"internalType": "address",
							"name": "from",
							"type": "address"
						},
						{
							"internalType": "address",
							"name": "to",
							"type": "address"
						},
						{
							"internalType": "uint256",
							"name": "tokenId",
							"type": "uint256"
						}
					],
					"name": "transferFrom",
					"outputs": [],
					"stateMutability": "nonpayable",
					"type": "function"
				}
			],
			"devdoc": {
				"errors": {
					"ERC721IncorrectOwner(address,uint256,address)": [
						{
							"details": "Indicates an error related to the ownership over a particular token. Used in transfers.",
							"params": {
								"owner": "Address of the current owner of a token.",
								"sender": "Address whose tokens are being transferred.",
								"tokenId": "Identifier number of a token."
							}
						}
					],
					"ERC721InsufficientApproval(address,uint256)": [
						{
							"details": "Indicates a failure with the `operator`’s approval. Used in transfers.",
							"params": {
								"operator": "Address that may be allowed to operate on tokens without being their owner.",
								"tokenId": "Identifier number of a token."
							}
						}
					],
					"ERC721InvalidApprover(address)": [
						{
							"details": "Indicates a failure with the `approver` of a token to be approved. Used in approvals.",
							"params": {
								"approver": "Address initiating an approval operation."
							}
						}
					],
					"ERC721InvalidOperator(address)": [
						{
							"details": "Indicates a failure with the `operator` to be approved. Used in approvals.",
							"params": {
								"operator": "Address that may be allowed to operate on tokens without being their owner."
							}
						}
					],
					"ERC721InvalidOwner(address)": [
						{
							"details": "Indicates that an address can't be an owner. For example, `address(0)` is a forbidden owner in EIP-20. Used in balance queries.",
							"params": {
								"owner": "Address of the current owner of a token."
							}
						}
					],
					"ERC721InvalidReceiver(address)": [
						{
							"details": "Indicates a failure with the token `receiver`. Used in transfers.",
							"params": {
								"receiver": "Address to which tokens are being transferred."
							}
						}
					],
					"ERC721InvalidSender(address)": [
						{
							"details": "Indicates a failure with the token `sender`. Used in transfers.",
							"params": {
								"sender": "Address whose tokens are being transferred."
							}
						}
					],
					"ERC721NonexistentToken(uint256)": [
						{
							"details": "Indicates a `tokenId` whose `owner` is the zero address.",
							"params": {
								"tokenId": "Identifier number of a token."
							}
						}
					]
				},
				"events": {
					"Approval(address,address,uint256)": {
						"details": "Emitted when `owner` enables `approved` to manage the `tokenId` token."
					},
					"ApprovalForAll(address,address,bool)": {
						"details": "Emitted when `owner` enables or disables (`approved`) `operator` to manage all of its assets."
					},
					"Transfer(address,address,uint256)": {
						"details": "Emitted when `tokenId` token is transferred from `from` to `to`."
					}
				},
				"kind": "dev",
				"methods": {
					"approve(address,uint256)": {
						"details": "See {IERC721-approve}."
					},
					"balanceOf(address)": {
						"details": "See {IERC721-balanceOf}."
					},
					"getApproved(uint256)": {
						"details": "See {IERC721-getApproved}."
					},
					"isApprovedForAll(address,address)": {
						"details": "See {IERC721-isApprovedForAll}."
					},
					"name()": {
						"details": "See {IERC721Metadata-name}."
					},
					"ownerOf(uint256)": {
						"details": "See {IERC721-ownerOf}."
					},
					"safeTransferFrom(address,address,uint256)": {
						"details": "See {IERC721-safeTransferFrom}."
					},
					"safeTransferFrom(address,address,uint256,bytes)": {
						"details": "See {IERC721-safeTransferFrom}."
					},
					"setApprovalForAll(address,bool)": {
						"details": "See {IERC721-setApprovalForAll}."
					},
					"supportsInterface(bytes4)": {
						"details": "See {IERC165-supportsInterface}."
					},
					"symbol()": {
						"details": "See {IERC721Metadata-symbol}."
					},
					"transferFrom(address,address,uint256)": {
						"details": "See {IERC721-transferFrom}."
					}
				},
				"version": 1
			},
			"evm": {
				"assembly": "    /* \"myNFT.sol\":145:4907  contract MyNFT is ERC721 {... */\n  mstore(0x40, 0x80)\n    /* \"myNFT.sol\":344:345  0 */\n  0x00\n    /* \"myNFT.sol\":322:345  uint256 totalSupply = 0 */\n  0x07\n  sstore\n    /* \"myNFT.sol\":3138:3139  0 */\n  0x00\n    /* \"myNFT.sol\":3120:3139  uint256 salecnt = 0 */\n  0x0a\n  sstore\n    /* \"myNFT.sol\":177:262  constructor(string memory _name, string memory _symbol) ERC721(_name,_symbol){... */\n  callvalue\n  dup1\n  iszero\n  tag_1\n  jumpi\n  0x00\n  dup1\n  revert\ntag_1:\n  pop\n  mload(0x40)\n  sub(codesize, bytecodeSize)\n  dup1\n  bytecodeSize\n  dup4\n  codecopy\n  dup2\n  dup2\n  add\n  0x40\n  mstore\n  dup2\n  add\n  swap1\n  tag_2\n  swap2\n  swap1\n  tag_3\n  jump\t// in\ntag_2:\n    /* \"myNFT.sol\":240:245  _name */\n  dup2\n    /* \"myNFT.sol\":246:253  _symbol */\n  dup2\n    /* \"front/node_modules/@openzeppelin/contracts/token/ERC721/ERC721.sol\":1455:1460  name_ */\n  dup2\n    /* \"front/node_modules/@openzeppelin/contracts/token/ERC721/ERC721.sol\":1447:1452  _name */\n  0x00\n    /* \"front/node_modules/@openzeppelin/contracts/token/ERC721/ERC721.sol\":1447:1460  _name = name_ */\n  swap1\n  dup2\n  tag_7\n  swap2\n  swap1\n  tag_8\n  jump\t// in\ntag_7:\n  pop\n    /* \"front/node_modules/@openzeppelin/contracts/token/ERC721/ERC721.sol\":1480:1487  symbol_ */\n  dup1\n    /* \"front/node_modules/@openzeppelin/contracts/token/ERC721/ERC721.sol\":1470:1477  _symbol */\n  0x01\n    /* \"front/node_modules/@openzeppelin/contracts/token/ERC721/ERC721.sol\":1470:1487  _symbol = symbol_ */\n  swap1\n  dup2\n  tag_9\n  swap2\n  swap1\n  tag_8\n  jump\t// in\ntag_9:\n  pop\n    /* \"front/node_modules/@openzeppelin/contracts/token/ERC721/ERC721.sol\":1381:1494  constructor(string memory name_, string memory symbol_) {... */\n  pop\n  pop\n    /* \"myNFT.sol\":177:262  constructor(string memory _name, string memory _symbol) ERC721(_name,_symbol){... */\n  pop\n  pop\n    /* \"myNFT.sol\":145:4907  contract MyNFT is ERC721 {... */\n  jump(tag_11)\n    /* \"#utility.yul\":7:82   */\ntag_12:\n    /* \"#utility.yul\":40:46   */\n  0x00\n    /* \"#utility.yul\":73:75   */\n  0x40\n    /* \"#utility.yul\":67:76   */\n  mload\n    /* \"#utility.yul\":57:76   */\n  swap1\n  pop\n    /* \"#utility.yul\":7:82   */\n  swap1\n  jump\t// out\n    /* \"#utility.yul\":88:205   */\ntag_13:\n    /* \"#utility.yul\":197:198   */\n  0x00\n    /* \"#utility.yul\":194:195   */\n  dup1\n    /* \"#utility.yul\":187:199   */\n  revert\n    /* \"#utility.yul\":211:328   */\ntag_14:\n    /* \"#utility.yul\":320:321   */\n  0x00\n    /* \"#utility.yul\":317:318   */\n  dup1\n    /* \"#utility.yul\":310:322   */\n  revert\n    /* \"#utility.yul\":334:451   */\ntag_15:\n    /* \"#utility.yul\":443:444   */\n  0x00\n    /* \"#utility.yul\":440:441   */\n  dup1\n    /* \"#utility.yul\":433:445   */\n  revert\n    /* \"#utility.yul\":457:574   */\ntag_16:\n    /* \"#utility.yul\":566:567   */\n  0x00\n    /* \"#utility.yul\":563:564   */\n  dup1\n    /* \"#utility.yul\":556:568   */\n  revert\n    /* \"#utility.yul\":580:682   */\ntag_17:\n    /* \"#utility.yul\":621:627   */\n  0x00\n    /* \"#utility.yul\":672:674   */\n  0x1f\n    /* \"#utility.yul\":668:675   */\n  not\n    /* \"#utility.yul\":663:665   */\n  0x1f\n    /* \"#utility.yul\":656:661   */\n  dup4\n    /* \"#utility.yul\":652:666   */\n  add\n    /* \"#utility.yul\":648:676   */\n  and\n    /* \"#utility.yul\":638:676   */\n  swap1\n  pop\n    /* \"#utility.yul\":580:682   */\n  swap2\n  swap1\n  pop\n  jump\t// out\n    /* \"#utility.yul\":688:868   */\ntag_18:\n    /* \"#utility.yul\":736:813   */\n  0x4e487b7100000000000000000000000000000000000000000000000000000000\n    /* \"#utility.yul\":733:734   */\n  0x00\n    /* \"#utility.yul\":726:814   */\n  mstore\n    /* \"#utility.yul\":833:837   */\n  0x41\n    /* \"#utility.yul\":830:831   */\n  0x04\n    /* \"#utility.yul\":823:838   */\n  mstore\n    /* \"#utility.yul\":857:861   */\n  0x24\n    /* \"#utility.yul\":854:855   */\n  0x00\n    /* \"#utility.yul\":847:862   */\n  revert\n    /* \"#utility.yul\":874:1155   */\ntag_19:\n    /* \"#utility.yul\":957:984   */\n  tag_53\n    /* \"#utility.yul\":979:983   */\n  dup3\n    /* \"#utility.yul\":957:984   */\n  tag_17\n  jump\t// in\ntag_53:\n    /* \"#utility.yul\":949:955   */\n  dup2\n    /* \"#utility.yul\":945:985   */\n  add\n    /* \"#utility.yul\":1087:1093   */\n  dup2\n    /* \"#utility.yul\":1075:1085   */\n  dup2\n    /* \"#utility.yul\":1072:1094   */\n  lt\n    /* \"#utility.yul\":1051:1069   */\n  0xffffffffffffffff\n    /* \"#utility.yul\":1039:1049   */\n  dup3\n    /* \"#utility.yul\":1036:1070   */\n  gt\n    /* \"#utility.yul\":1033:1095   */\n  or\n    /* \"#utility.yul\":1030:1118   */\n  iszero\n  tag_54\n  jumpi\n    /* \"#utility.yul\":1098:1116   */\n  tag_55\n  tag_18\n  jump\t// in\ntag_55:\n    /* \"#utility.yul\":1030:1118   */\ntag_54:\n    /* \"#utility.yul\":1138:1148   */\n  dup1\n    /* \"#utility.yul\":1134:1136   */\n  0x40\n    /* \"#utility.yul\":1127:1149   */\n  mstore\n    /* \"#utility.yul\":917:1155   */\n  pop\n    /* \"#utility.yul\":874:1155   */\n  pop\n  pop\n  jump\t// out\n    /* \"#utility.yul\":1161:1290   */\ntag_20:\n    /* \"#utility.yul\":1195:1201   */\n  0x00\n    /* \"#utility.yul\":1222:1242   */\n  tag_57\n  tag_12\n  jump\t// in\ntag_57:\n    /* \"#utility.yul\":1212:1242   */\n  swap1\n  pop\n    /* \"#utility.yul\":1251:1284   */\n  tag_58\n    /* \"#utility.yul\":1279:1283   */\n  dup3\n    /* \"#utility.yul\":1271:1277   */\n  dup3\n    /* \"#utility.yul\":1251:1284   */\n  tag_19\n  jump\t// in\ntag_58:\n    /* \"#utility.yul\":1161:1290   */\n  swap2\n  swap1\n  pop\n  jump\t// out\n    /* \"#utility.yul\":1296:1604   */\ntag_21:\n    /* \"#utility.yul\":1358:1362   */\n  0x00\n    /* \"#utility.yul\":1448:1466   */\n  0xffffffffffffffff\n    /* \"#utility.yul\":1440:1446   */\n  dup3\n    /* \"#utility.yul\":1437:1467   */\n  gt\n    /* \"#utility.yul\":1434:1490   */\n  iszero\n  tag_60\n  jumpi\n    /* \"#utility.yul\":1470:1488   */\n  tag_61\n  tag_18\n  jump\t// in\ntag_61:\n    /* \"#utility.yul\":1434:1490   */\ntag_60:\n    /* \"#utility.yul\":1508:1537   */\n  tag_62\n    /* \"#utility.yul\":1530:1536   */\n  dup3\n    /* \"#utility.yul\":1508:1537   */\n  tag_17\n  jump\t// in\ntag_62:\n    /* \"#utility.yul\":1500:1537   */\n  swap1\n  pop\n    /* \"#utility.yul\":1592:1596   */\n  0x20\n    /* \"#utility.yul\":1586:1590   */\n  dup2\n    /* \"#utility.yul\":1582:1597   */\n  add\n    /* \"#utility.yul\":1574:1597   */\n  swap1\n  pop\n    /* \"#utility.yul\":1296:1604   */\n  swap2\n  swap1\n  pop\n  jump\t// out\n    /* \"#utility.yul\":1610:1856   */\ntag_22:\n    /* \"#utility.yul\":1691:1692   */\n  0x00\n    /* \"#utility.yul\":1701:1814   */\ntag_64:\n    /* \"#utility.yul\":1715:1721   */\n  dup4\n    /* \"#utility.yul\":1712:1713   */\n  dup2\n    /* \"#utility.yul\":1709:1722   */\n  lt\n    /* \"#utility.yul\":1701:1814   */\n  iszero\n  tag_66\n  jumpi\n    /* \"#utility.yul\":1800:1801   */\n  dup1\n    /* \"#utility.yul\":1795:1798   */\n  dup3\n    /* \"#utility.yul\":1791:1802   */\n  add\n    /* \"#utility.yul\":1785:1803   */\n  mload\n    /* \"#utility.yul\":1781:1782   */\n  dup2\n    /* \"#utility.yul\":1776:1779   */\n  dup5\n    /* \"#utility.yul\":1772:1783   */\n  add\n    /* \"#utility.yul\":1765:1804   */\n  mstore\n    /* \"#utility.yul\":1737:1739   */\n  0x20\n    /* \"#utility.yul\":1734:1735   */\n  dup2\n    /* \"#utility.yul\":1730:1740   */\n  add\n    /* \"#utility.yul\":1725:1740   */\n  swap1\n  pop\n    /* \"#utility.yul\":1701:1814   */\n  jump(tag_64)\ntag_66:\n    /* \"#utility.yul\":1848:1849   */\n  0x00\n    /* \"#utility.yul\":1839:1845   */\n  dup5\n    /* \"#utility.yul\":1834:1837   */\n  dup5\n    /* \"#utility.yul\":1830:1846   */\n  add\n    /* \"#utility.yul\":1823:1850   */\n  mstore\n    /* \"#utility.yul\":1672:1856   */\n  pop\n    /* \"#utility.yul\":1610:1856   */\n  pop\n  pop\n  pop\n  jump\t// out\n    /* \"#utility.yul\":1862:2296   */\ntag_23:\n    /* \"#utility.yul\":1951:1956   */\n  0x00\n    /* \"#utility.yul\":1976:2042   */\n  tag_68\n    /* \"#utility.yul\":1992:2041   */\n  tag_69\n    /* \"#utility.yul\":2034:2040   */\n  dup5\n    /* \"#utility.yul\":1992:2041   */\n  tag_21\n  jump\t// in\ntag_69:\n    /* \"#utility.yul\":1976:2042   */\n  tag_20\n  jump\t// in\ntag_68:\n    /* \"#utility.yul\":1967:2042   */\n  swap1\n  pop\n    /* \"#utility.yul\":2065:2071   */\n  dup3\n    /* \"#utility.yul\":2058:2063   */\n  dup2\n    /* \"#utility.yul\":2051:2072   */\n  mstore\n    /* \"#utility.yul\":2103:2107   */\n  0x20\n    /* \"#utility.yul\":2096:2101   */\n  dup2\n    /* \"#utility.yul\":2092:2108   */\n  add\n    /* \"#utility.yul\":2141:2144   */\n  dup5\n    /* \"#utility.yul\":2132:2138   */\n  dup5\n    /* \"#utility.yul\":2127:2130   */\n  dup5\n    /* \"#utility.yul\":2123:2139   */\n  add\n    /* \"#utility.yul\":2120:2145   */\n  gt\n    /* \"#utility.yul\":2117:2229   */\n  iszero\n  tag_70\n  jumpi\n    /* \"#utility.yul\":2148:2227   */\n  tag_71\n  tag_16\n  jump\t// in\ntag_71:\n    /* \"#utility.yul\":2117:2229   */\ntag_70:\n    /* \"#utility.yul\":2238:2290   */\n  tag_72\n    /* \"#utility.yul\":2283:2289   */\n  dup5\n    /* \"#utility.yul\":2278:2281   */\n  dup3\n    /* \"#utility.yul\":2273:2276   */\n  dup6\n    /* \"#utility.yul\":2238:2290   */\n  tag_22\n  jump\t// in\ntag_72:\n    /* \"#utility.yul\":1957:2296   */\n  pop\n    /* \"#utility.yul\":1862:2296   */\n  swap4\n  swap3\n  pop\n  pop\n  pop\n  jump\t// out\n    /* \"#utility.yul\":2316:2671   */\ntag_24:\n    /* \"#utility.yul\":2383:2388   */\n  0x00\n    /* \"#utility.yul\":2432:2435   */\n  dup3\n    /* \"#utility.yul\":2425:2429   */\n  0x1f\n    /* \"#utility.yul\":2417:2423   */\n  dup4\n    /* \"#utility.yul\":2413:2430   */\n  add\n    /* \"#utility.yul\":2409:2436   */\n  slt\n    /* \"#utility.yul\":2399:2521   */\n  tag_74\n  jumpi\n    /* \"#utility.yul\":2440:2519   */\n  tag_75\n  tag_15\n  jump\t// in\ntag_75:\n    /* \"#utility.yul\":2399:2521   */\ntag_74:\n    /* \"#utility.yul\":2550:2556   */\n  dup2\n    /* \"#utility.yul\":2544:2557   */\n  mload\n    /* \"#utility.yul\":2575:2665   */\n  tag_76\n    /* \"#utility.yul\":2661:2664   */\n  dup5\n    /* \"#utility.yul\":2653:2659   */\n  dup3\n    /* \"#utility.yul\":2646:2650   */\n  0x20\n    /* \"#utility.yul\":2638:2644   */\n  dup7\n    /* \"#utility.yul\":2634:2651   */\n  add\n    /* \"#utility.yul\":2575:2665   */\n  tag_23\n  jump\t// in\ntag_76:\n    /* \"#utility.yul\":2566:2665   */\n  swap2\n  pop\n    /* \"#utility.yul\":2389:2671   */\n  pop\n    /* \"#utility.yul\":2316:2671   */\n  swap3\n  swap2\n  pop\n  pop\n  jump\t// out\n    /* \"#utility.yul\":2677:3530   */\ntag_3:\n    /* \"#utility.yul\":2776:2782   */\n  0x00\n    /* \"#utility.yul\":2784:2790   */\n  dup1\n    /* \"#utility.yul\":2833:2835   */\n  0x40\n    /* \"#utility.yul\":2821:2830   */\n  dup4\n    /* \"#utility.yul\":2812:2819   */\n  dup6\n    /* \"#utility.yul\":2808:2831   */\n  sub\n    /* \"#utility.yul\":2804:2836   */\n  slt\n    /* \"#utility.yul\":2801:2920   */\n  iszero\n  tag_78\n  jumpi\n    /* \"#utility.yul\":2839:2918   */\n  tag_79\n  tag_13\n  jump\t// in\ntag_79:\n    /* \"#utility.yul\":2801:2920   */\ntag_78:\n    /* \"#utility.yul\":2980:2981   */\n  0x00\n    /* \"#utility.yul\":2969:2978   */\n  dup4\n    /* \"#utility.yul\":2965:2982   */\n  add\n    /* \"#utility.yul\":2959:2983   */\n  mload\n    /* \"#utility.yul\":3010:3028   */\n  0xffffffffffffffff\n    /* \"#utility.yul\":3002:3008   */\n  dup2\n    /* \"#utility.yul\":2999:3029   */\n  gt\n    /* \"#utility.yul\":2996:3113   */\n  iszero\n  tag_80\n  jumpi\n    /* \"#utility.yul\":3032:3111   */\n  tag_81\n  tag_14\n  jump\t// in\ntag_81:\n    /* \"#utility.yul\":2996:3113   */\ntag_80:\n    /* \"#utility.yul\":3137:3211   */\n  tag_82\n    /* \"#utility.yul\":3203:3210   */\n  dup6\n    /* \"#utility.yul\":3194:3200   */\n  dup3\n    /* \"#utility.yul\":3183:3192   */\n  dup7\n    /* \"#utility.yul\":3179:3201   */\n  add\n    /* \"#utility.yul\":3137:3211   */\n  tag_24\n  jump\t// in\ntag_82:\n    /* \"#utility.yul\":3127:3211   */\n  swap3\n  pop\n    /* \"#utility.yul\":2930:3221   */\n  pop\n    /* \"#utility.yul\":3281:3283   */\n  0x20\n    /* \"#utility.yul\":3270:3279   */\n  dup4\n    /* \"#utility.yul\":3266:3284   */\n  add\n    /* \"#utility.yul\":3260:3285   */\n  mload\n    /* \"#utility.yul\":3312:3330   */\n  0xffffffffffffffff\n    /* \"#utility.yul\":3304:3310   */\n  dup2\n    /* \"#utility.yul\":3301:3331   */\n  gt\n    /* \"#utility.yul\":3298:3415   */\n  iszero\n  tag_83\n  jumpi\n    /* \"#utility.yul\":3334:3413   */\n  tag_84\n  tag_14\n  jump\t// in\ntag_84:\n    /* \"#utility.yul\":3298:3415   */\ntag_83:\n    /* \"#utility.yul\":3439:3513   */\n  tag_85\n    /* \"#utility.yul\":3505:3512   */\n  dup6\n    /* \"#utility.yul\":3496:3502   */\n  dup3\n    /* \"#utility.yul\":3485:3494   */\n  dup7\n    /* \"#utility.yul\":3481:3503   */\n  add\n    /* \"#utility.yul\":3439:3513   */\n  tag_24\n  jump\t// in\ntag_85:\n    /* \"#utility.yul\":3429:3513   */\n  swap2\n  pop\n    /* \"#utility.yul\":3231:3523   */\n  pop\n    /* \"#utility.yul\":2677:3530   */\n  swap3\n  pop\n  swap3\n  swap1\n  pop\n  jump\t// out\n    /* \"#utility.yul\":3536:3635   */\ntag_25:\n    /* \"#utility.yul\":3588:3594   */\n  0x00\n    /* \"#utility.yul\":3622:3627   */\n  dup2\n    /* \"#utility.yul\":3616:3628   */\n  mload\n    /* \"#utility.yul\":3606:3628   */\n  swap1\n  pop\n    /* \"#utility.yul\":3536:3635   */\n  swap2\n  swap1\n  pop\n  jump\t// out\n    /* \"#utility.yul\":3641:3821   */\ntag_26:\n    /* \"#utility.yul\":3689:3766   */\n  0x4e487b7100000000000000000000000000000000000000000000000000000000\n    /* \"#utility.yul\":3686:3687   */\n  0x00\n    /* \"#utility.yul\":3679:3767   */\n  mstore\n    /* \"#utility.yul\":3786:3790   */\n  0x22\n    /* \"#utility.yul\":3783:3784   */\n  0x04\n    /* \"#utility.yul\":3776:3791   */\n  mstore\n    /* \"#utility.yul\":3810:3814   */\n  0x24\n    /* \"#utility.yul\":3807:3808   */\n  0x00\n    /* \"#utility.yul\":3800:3815   */\n  revert\n    /* \"#utility.yul\":3827:4147   */\ntag_27:\n    /* \"#utility.yul\":3871:3877   */\n  0x00\n    /* \"#utility.yul\":3908:3909   */\n  0x02\n    /* \"#utility.yul\":3902:3906   */\n  dup3\n    /* \"#utility.yul\":3898:3910   */\n  div\n    /* \"#utility.yul\":3888:3910   */\n  swap1\n  pop\n    /* \"#utility.yul\":3955:3956   */\n  0x01\n    /* \"#utility.yul\":3949:3953   */\n  dup3\n    /* \"#utility.yul\":3945:3957   */\n  and\n    /* \"#utility.yul\":3976:3994   */\n  dup1\n    /* \"#utility.yul\":3966:4047   */\n  tag_89\n  jumpi\n    /* \"#utility.yul\":4032:4036   */\n  0x7f\n    /* \"#utility.yul\":4024:4030   */\n  dup3\n    /* \"#utility.yul\":4020:4037   */\n  and\n    /* \"#utility.yul\":4010:4037   */\n  swap2\n  pop\n    /* \"#utility.yul\":3966:4047   */\ntag_89:\n    /* \"#utility.yul\":4094:4096   */\n  0x20\n    /* \"#utility.yul\":4086:4092   */\n  dup3\n    /* \"#utility.yul\":4083:4097   */\n  lt\n    /* \"#utility.yul\":4063:4081   */\n  dup2\n    /* \"#utility.yul\":4060:4098   */\n  sub\n    /* \"#utility.yul\":4057:4141   */\n  tag_90\n  jumpi\n    /* \"#utility.yul\":4113:4131   */\n  tag_91\n  tag_26\n  jump\t// in\ntag_91:\n    /* \"#utility.yul\":4057:4141   */\ntag_90:\n    /* \"#utility.yul\":3878:4147   */\n  pop\n    /* \"#utility.yul\":3827:4147   */\n  swap2\n  swap1\n  pop\n  jump\t// out\n    /* \"#utility.yul\":4153:4294   */\ntag_28:\n    /* \"#utility.yul\":4202:4206   */\n  0x00\n    /* \"#utility.yul\":4225:4228   */\n  dup2\n    /* \"#utility.yul\":4217:4228   */\n  swap1\n  pop\n    /* \"#utility.yul\":4248:4251   */\n  dup2\n    /* \"#utility.yul\":4245:4246   */\n  0x00\n    /* \"#utility.yul\":4238:4252   */\n  mstore\n    /* \"#utility.yul\":4282:4286   */\n  0x20\n    /* \"#utility.yul\":4279:4280   */\n  0x00\n    /* \"#utility.yul\":4269:4287   */\n  keccak256\n    /* \"#utility.yul\":4261:4287   */\n  swap1\n  pop\n    /* \"#utility.yul\":4153:4294   */\n  swap2\n  swap1\n  pop\n  jump\t// out\n    /* \"#utility.yul\":4300:4393   */\ntag_29:\n    /* \"#utility.yul\":4337:4343   */\n  0x00\n    /* \"#utility.yul\":4384:4386   */\n  0x20\n    /* \"#utility.yul\":4379:4381   */\n  0x1f\n    /* \"#utility.yul\":4372:4377   */\n  dup4\n    /* \"#utility.yul\":4368:4382   */\n  add\n    /* \"#utility.yul\":4364:4387   */\n  div\n    /* \"#utility.yul\":4354:4387   */\n  swap1\n  pop\n    /* \"#utility.yul\":4300:4393   */\n  swap2\n  swap1\n  pop\n  jump\t// out\n    /* \"#utility.yul\":4399:4506   */\ntag_30:\n    /* \"#utility.yul\":4443:4451   */\n  0x00\n    /* \"#utility.yul\":4493:4498   */\n  dup3\n    /* \"#utility.yul\":4487:4491   */\n  dup3\n    /* \"#utility.yul\":4483:4499   */\n  shl\n    /* \"#utility.yul\":4462:4499   */\n  swap1\n  pop\n    /* \"#utility.yul\":4399:4506   */\n  swap3\n  swap2\n  pop\n  pop\n  jump\t// out\n    /* \"#utility.yul\":4512:4905   */\ntag_31:\n    /* \"#utility.yul\":4581:4587   */\n  0x00\n    /* \"#utility.yul\":4631:4632   */\n  0x08\n    /* \"#utility.yul\":4619:4629   */\n  dup4\n    /* \"#utility.yul\":4615:4633   */\n  mul\n    /* \"#utility.yul\":4654:4751   */\n  tag_96\n    /* \"#utility.yul\":4684:4750   */\n  0xffffffffffffffffffffffffffffffffffffffffffffffffffffffffffffffff\n    /* \"#utility.yul\":4673:4682   */\n  dup3\n    /* \"#utility.yul\":4654:4751   */\n  tag_30\n  jump\t// in\ntag_96:\n    /* \"#utility.yul\":4772:4811   */\n  tag_97\n    /* \"#utility.yul\":4802:4810   */\n  dup7\n    /* \"#utility.yul\":4791:4800   */\n  dup4\n    /* \"#utility.yul\":4772:4811   */\n  tag_30\n  jump\t// in\ntag_97:\n    /* \"#utility.yul\":4760:4811   */\n  swap6\n  pop\n    /* \"#utility.yul\":4844:4848   */\n  dup1\n    /* \"#utility.yul\":4840:4849   */\n  not\n    /* \"#utility.yul\":4833:4838   */\n  dup5\n    /* \"#utility.yul\":4829:4850   */\n  and\n    /* \"#utility.yul\":4820:4850   */\n  swap4\n  pop\n    /* \"#utility.yul\":4893:4897   */\n  dup1\n    /* \"#utility.yul\":4883:4891   */\n  dup7\n    /* \"#utility.yul\":4879:4898   */\n  and\n    /* \"#utility.yul\":4872:4877   */\n  dup5\n    /* \"#utility.yul\":4869:4899   */\n  or\n    /* \"#utility.yul\":4859:4899   */\n  swap3\n  pop\n    /* \"#utility.yul\":4588:4905   */\n  pop\n  pop\n    /* \"#utility.yul\":4512:4905   */\n  swap4\n  swap3\n  pop\n  pop\n  pop\n  jump\t// out\n    /* \"#utility.yul\":4911:4988   */\ntag_32:\n    /* \"#utility.yul\":4948:4955   */\n  0x00\n    /* \"#utility.yul\":4977:4982   */\n  dup2\n    /* \"#utility.yul\":4966:4982   */\n  swap1\n  pop\n    /* \"#utility.yul\":4911:4988   */\n  swap2\n  swap1\n  pop\n  jump\t// out\n    /* \"#utility.yul\":4994:5054   */\ntag_33:\n    /* \"#utility.yul\":5022:5025   */\n  0x00\n    /* \"#utility.yul\":5043:5048   */\n  dup2\n    /* \"#utility.yul\":5036:5048   */\n  swap1\n  pop\n    /* \"#utility.yul\":4994:5054   */\n  swap2\n  swap1\n  pop\n  jump\t// out\n    /* \"#utility.yul\":5060:5202   */\ntag_34:\n    /* \"#utility.yul\":5110:5119   */\n  0x00\n    /* \"#utility.yul\":5143:5196   */\n  tag_101\n    /* \"#utility.yul\":5161:5195   */\n  tag_102\n    /* \"#utility.yul\":5170:5194   */\n  tag_103\n    /* \"#utility.yul\":5188:5193   */\n  dup5\n    /* \"#utility.yul\":5170:5194   */\n  tag_32\n  jump\t// in\ntag_103:\n    /* \"#utility.yul\":5161:5195   */\n  tag_33\n  jump\t// in\ntag_102:\n    /* \"#utility.yul\":5143:5196   */\n  tag_32\n  jump\t// in\ntag_101:\n    /* \"#utility.yul\":5130:5196   */\n  swap1\n  pop\n    /* \"#utility.yul\":5060:5202   */\n  swap2\n  swap1\n  pop\n  jump\t// out\n    /* \"#utility.yul\":5208:5283   */\ntag_35:\n    /* \"#utility.yul\":5251:5254   */\n  0x00\n    /* \"#utility.yul\":5272:5277   */\n  dup2\n    /* \"#utility.yul\":5265:5277   */\n  swap1\n  pop\n    /* \"#utility.yul\":5208:5283   */\n  swap2\n  swap1\n  pop\n  jump\t// out\n    /* \"#utility.yul\":5289:5558   */\ntag_36:\n    /* \"#utility.yul\":5399:5438   */\n  tag_106\n    /* \"#utility.yul\":5430:5437   */\n  dup4\n    /* \"#utility.yul\":5399:5438   */\n  tag_34\n  jump\t// in\ntag_106:\n    /* \"#utility.yul\":5460:5551   */\n  tag_107\n    /* \"#utility.yul\":5509:5550   */\n  tag_108\n    /* \"#utility.yul\":5533:5549   */\n  dup3\n    /* \"#utility.yul\":5509:5550   */\n  tag_35\n  jump\t// in\ntag_108:\n    /* \"#utility.yul\":5501:5507   */\n  dup5\n    /* \"#utility.yul\":5494:5498   */\n  dup5\n    /* \"#utility.yul\":5488:5499   */\n  sload\n    /* \"#utility.yul\":5460:5551   */\n  tag_31\n  jump\t// in\ntag_107:\n    /* \"#utility.yul\":5454:5458   */\n  dup3\n    /* \"#utility.yul\":5447:5552   */\n  sstore\n    /* \"#utility.yul\":5365:5558   */\n  pop\n    /* \"#utility.yul\":5289:5558   */\n  pop\n  pop\n  pop\n  jump\t// out\n    /* \"#utility.yul\":5564:5637   */\ntag_37:\n    /* \"#utility.yul\":5609:5612   */\n  0x00\n    /* \"#utility.yul\":5564:5637   */\n  swap1\n  jump\t// out\n    /* \"#utility.yul\":5643:5832   */\ntag_38:\n    /* \"#utility.yul\":5720:5752   */\n  tag_111\n  tag_37\n  jump\t// in\ntag_111:\n    /* \"#utility.yul\":5761:5826   */\n  tag_112\n    /* \"#utility.yul\":5819:5825   */\n  dup2\n    /* \"#utility.yul\":5811:5817   */\n  dup5\n    /* \"#utility.yul\":5805:5809   */\n  dup5\n    /* \"#utility.yul\":5761:5826   */\n  tag_36\n  jump\t// in\ntag_112:\n    /* \"#utility.yul\":5696:5832   */\n  pop\n    /* \"#utility.yul\":5643:5832   */\n  pop\n  pop\n  jump\t// out\n    /* \"#utility.yul\":5838:6024   */\ntag_39:\n    /* \"#utility.yul\":5898:6018   */\ntag_114:\n    /* \"#utility.yul\":5915:5918   */\n  dup2\n    /* \"#utility.yul\":5908:5913   */\n  dup2\n    /* \"#utility.yul\":5905:5919   */\n  lt\n    /* \"#utility.yul\":5898:6018   */\n  iszero\n  tag_116\n  jumpi\n    /* \"#utility.yul\":5969:6008   */\n  tag_117\n    /* \"#utility.yul\":6006:6007   */\n  0x00\n    /* \"#utility.yul\":5999:6004   */\n  dup3\n    /* \"#utility.yul\":5969:6008   */\n  tag_38\n  jump\t// in\ntag_117:\n    /* \"#utility.yul\":5942:5943   */\n  0x01\n    /* \"#utility.yul\":5935:5940   */\n  dup2\n    /* \"#utility.yul\":5931:5944   */\n  add\n    /* \"#utility.yul\":5922:5944   */\n  swap1\n  pop\n    /* \"#utility.yul\":5898:6018   */\n  jump(tag_114)\ntag_116:\n    /* \"#utility.yul\":5838:6024   */\n  pop\n  pop\n  jump\t// out\n    /* \"#utility.yul\":6030:6573   */\ntag_40:\n    /* \"#utility.yul\":6131:6133   */\n  0x1f\n    /* \"#utility.yul\":6126:6129   */\n  dup3\n    /* \"#utility.yul\":6123:6134   */\n  gt\n    /* \"#utility.yul\":6120:6566   */\n  iszero\n  tag_119\n  jumpi\n    /* \"#utility.yul\":6165:6203   */\n  tag_120\n    /* \"#utility.yul\":6197:6202   */\n  dup2\n    /* \"#utility.yul\":6165:6203   */\n  tag_28\n  jump\t// in\ntag_120:\n    /* \"#utility.yul\":6249:6278   */\n  tag_121\n    /* \"#utility.yul\":6267:6277   */\n  dup5\n    /* \"#utility.yul\":6249:6278   */\n  tag_29\n  jump\t// in\ntag_121:\n    /* \"#utility.yul\":6239:6247   */\n  dup2\n    /* \"#utility.yul\":6235:6279   */\n  add\n    /* \"#utility.yul\":6432:6434   */\n  0x20\n    /* \"#utility.yul\":6420:6430   */\n  dup6\n    /* \"#utility.yul\":6417:6435   */\n  lt\n    /* \"#utility.yul\":6414:6463   */\n  iszero\n  tag_122\n  jumpi\n    /* \"#utility.yul\":6453:6461   */\n  dup2\n    /* \"#utility.yul\":6438:6461   */\n  swap1\n  pop\n    /* \"#utility.yul\":6414:6463   */\ntag_122:\n    /* \"#utility.yul\":6476:6556   */\n  tag_123\n    /* \"#utility.yul\":6532:6554   */\n  tag_124\n    /* \"#utility.yul\":6550:6553   */\n  dup6\n    /* \"#utility.yul\":6532:6554   */\n  tag_29\n  jump\t// in\ntag_124:\n    /* \"#utility.yul\":6522:6530   */\n  dup4\n    /* \"#utility.yul\":6518:6555   */\n  add\n    /* \"#utility.yul\":6505:6516   */\n  dup3\n    /* \"#utility.yul\":6476:6556   */\n  tag_39\n  jump\t// in\ntag_123:\n    /* \"#utility.yul\":6135:6566   */\n  pop\n  pop\n    /* \"#utility.yul\":6120:6566   */\ntag_119:\n    /* \"#utility.yul\":6030:6573   */\n  pop\n  pop\n  pop\n  jump\t// out\n    /* \"#utility.yul\":6579:6696   */\ntag_41:\n    /* \"#utility.yul\":6633:6641   */\n  0x00\n    /* \"#utility.yul\":6683:6688   */\n  dup3\n    /* \"#utility.yul\":6677:6681   */\n  dup3\n    /* \"#utility.yul\":6673:6689   */\n  shr\n    /* \"#utility.yul\":6652:6689   */\n  swap1\n  pop\n    /* \"#utility.yul\":6579:6696   */\n  swap3\n  swap2\n  pop\n  pop\n  jump\t// out\n    /* \"#utility.yul\":6702:6871   */\ntag_42:\n    /* \"#utility.yul\":6746:6752   */\n  0x00\n    /* \"#utility.yul\":6779:6830   */\n  tag_127\n    /* \"#utility.yul\":6827:6828   */\n  0x00\n    /* \"#utility.yul\":6823:6829   */\n  not\n    /* \"#utility.yul\":6815:6820   */\n  dup5\n    /* \"#utility.yul\":6812:6813   */\n  0x08\n    /* \"#utility.yul\":6808:6821   */\n  mul\n    /* \"#utility.yul\":6779:6830   */\n  tag_41\n  jump\t// in\ntag_127:\n    /* \"#utility.yul\":6775:6831   */\n  not\n    /* \"#utility.yul\":6860:6864   */\n  dup1\n    /* \"#utility.yul\":6854:6858   */\n  dup4\n    /* \"#utility.yul\":6850:6865   */\n  and\n    /* \"#utility.yul\":6840:6865   */\n  swap2\n  pop\n    /* \"#utility.yul\":6753:6871   */\n  pop\n    /* \"#utility.yul\":6702:6871   */\n  swap3\n  swap2\n  pop\n  pop\n  jump\t// out\n    /* \"#utility.yul\":6876:7171   */\ntag_43:\n    /* \"#utility.yul\":6952:6956   */\n  0x00\n    /* \"#utility.yul\":7098:7127   */\n  tag_129\n    /* \"#utility.yul\":7123:7126   */\n  dup4\n    /* \"#utility.yul\":7117:7121   */\n  dup4\n    /* \"#utility.yul\":7098:7127   */\n  tag_42\n  jump\t// in\ntag_129:\n    /* \"#utility.yul\":7090:7127   */\n  swap2\n  pop\n    /* \"#utility.yul\":7160:7163   */\n  dup3\n    /* \"#utility.yul\":7157:7158   */\n  0x02\n    /* \"#utility.yul\":7153:7164   */\n  mul\n    /* \"#utility.yul\":7147:7151   */\n  dup3\n    /* \"#utility.yul\":7144:7165   */\n  or\n    /* \"#utility.yul\":7136:7165   */\n  swap1\n  pop\n    /* \"#utility.yul\":6876:7171   */\n  swap3\n  swap2\n  pop\n  pop\n  jump\t// out\n    /* \"#utility.yul\":7176:8571   */\ntag_8:\n    /* \"#utility.yul\":7293:7330   */\n  tag_131\n    /* \"#utility.yul\":7326:7329   */\n  dup3\n    /* \"#utility.yul\":7293:7330   */\n  tag_25\n  jump\t// in\ntag_131:\n    /* \"#utility.yul\":7395:7413   */\n  0xffffffffffffffff\n    /* \"#utility.yul\":7387:7393   */\n  dup2\n    /* \"#utility.yul\":7384:7414   */\n  gt\n    /* \"#utility.yul\":7381:7437   */\n  iszero\n  tag_132\n  jumpi\n    /* \"#utility.yul\":7417:7435   */\n  tag_133\n  tag_18\n  jump\t// in\ntag_133:\n    /* \"#utility.yul\":7381:7437   */\ntag_132:\n    /* \"#utility.yul\":7461:7499   */\n  tag_134\n    /* \"#utility.yul\":7493:7497   */\n  dup3\n    /* \"#utility.yul\":7487:7498   */\n  sload\n    /* \"#utility.yul\":7461:7499   */\n  tag_27\n  jump\t// in\ntag_134:\n    /* \"#utility.yul\":7546:7613   */\n  tag_135\n    /* \"#utility.yul\":7606:7612   */\n  dup3\n    /* \"#utility.yul\":7598:7604   */\n  dup3\n    /* \"#utility.yul\":7592:7596   */\n  dup6\n    /* \"#utility.yul\":7546:7613   */\n  tag_40\n  jump\t// in\ntag_135:\n    /* \"#utility.yul\":7640:7641   */\n  0x00\n    /* \"#utility.yul\":7664:7668   */\n  0x20\n    /* \"#utility.yul\":7651:7668   */\n  swap1\n  pop\n    /* \"#utility.yul\":7696:7698   */\n  0x1f\n    /* \"#utility.yul\":7688:7694   */\n  dup4\n    /* \"#utility.yul\":7685:7699   */\n  gt\n    /* \"#utility.yul\":7713:7714   */\n  0x01\n    /* \"#utility.yul\":7708:8326   */\n  dup2\n  eq\n  tag_137\n  jumpi\n    /* \"#utility.yul\":8370:8371   */\n  0x00\n    /* \"#utility.yul\":8387:8393   */\n  dup5\n    /* \"#utility.yul\":8384:8461   */\n  iszero\n  tag_138\n  jumpi\n    /* \"#utility.yul\":8436:8445   */\n  dup3\n    /* \"#utility.yul\":8431:8434   */\n  dup8\n    /* \"#utility.yul\":8427:8446   */\n  add\n    /* \"#utility.yul\":8421:8447   */\n  mload\n    /* \"#utility.yul\":8412:8447   */\n  swap1\n  pop\n    /* \"#utility.yul\":8384:8461   */\ntag_138:\n    /* \"#utility.yul\":8487:8554   */\n  tag_139\n    /* \"#utility.yul\":8547:8553   */\n  dup6\n    /* \"#utility.yul\":8540:8545   */\n  dup3\n    /* \"#utility.yul\":8487:8554   */\n  tag_43\n  jump\t// in\ntag_139:\n    /* \"#utility.yul\":8481:8485   */\n  dup7\n    /* \"#utility.yul\":8474:8555   */\n  sstore\n    /* \"#utility.yul\":8343:8565   */\n  pop\n    /* \"#utility.yul\":7678:8565   */\n  jump(tag_136)\n    /* \"#utility.yul\":7708:8326   */\ntag_137:\n    /* \"#utility.yul\":7760:7764   */\n  0x1f\n    /* \"#utility.yul\":7756:7765   */\n  not\n    /* \"#utility.yul\":7748:7754   */\n  dup5\n    /* \"#utility.yul\":7744:7766   */\n  and\n    /* \"#utility.yul\":7794:7831   */\n  tag_140\n    /* \"#utility.yul\":7826:7830   */\n  dup7\n    /* \"#utility.yul\":7794:7831   */\n  tag_28\n  jump\t// in\ntag_140:\n    /* \"#utility.yul\":7853:7854   */\n  0x00\n    /* \"#utility.yul\":7867:8075   */\ntag_141:\n    /* \"#utility.yul\":7881:7888   */\n  dup3\n    /* \"#utility.yul\":7878:7879   */\n  dup2\n    /* \"#utility.yul\":7875:7889   */\n  lt\n    /* \"#utility.yul\":7867:8075   */\n  iszero\n  tag_143\n  jumpi\n    /* \"#utility.yul\":7960:7969   */\n  dup5\n    /* \"#utility.yul\":7955:7958   */\n  dup10\n    /* \"#utility.yul\":7951:7970   */\n  add\n    /* \"#utility.yul\":7945:7971   */\n  mload\n    /* \"#utility.yul\":7937:7943   */\n  dup3\n    /* \"#utility.yul\":7930:7972   */\n  sstore\n    /* \"#utility.yul\":8011:8012   */\n  0x01\n    /* \"#utility.yul\":8003:8009   */\n  dup3\n    /* \"#utility.yul\":7999:8013   */\n  add\n    /* \"#utility.yul\":7989:8013   */\n  swap2\n  pop\n    /* \"#utility.yul\":8058:8060   */\n  0x20\n    /* \"#utility.yul\":8047:8056   */\n  dup6\n    /* \"#utility.yul\":8043:8061   */\n  add\n    /* \"#utility.yul\":8030:8061   */\n  swap5\n  pop\n    /* \"#utility.yul\":7904:7908   */\n  0x20\n    /* \"#utility.yul\":7901:7902   */\n  dup2\n    /* \"#utility.yul\":7897:7909   */\n  add\n    /* \"#utility.yul\":7892:7909   */\n  swap1\n  pop\n    /* \"#utility.yul\":7867:8075   */\n  jump(tag_141)\ntag_143:\n    /* \"#utility.yul\":8103:8109   */\n  dup7\n    /* \"#utility.yul\":8094:8101   */\n  dup4\n    /* \"#utility.yul\":8091:8110   */\n  lt\n    /* \"#utility.yul\":8088:8267   */\n  iszero\n  tag_144\n  jumpi\n    /* \"#utility.yul\":8161:8170   */\n  dup5\n    /* \"#utility.yul\":8156:8159   */\n  dup10\n    /* \"#utility.yul\":8152:8171   */\n  add\n    /* \"#utility.yul\":8146:8172   */\n  mload\n    /* \"#utility.yul\":8204:8252   */\n  tag_145\n    /* \"#utility.yul\":8246:8250   */\n  0x1f\n    /* \"#utility.yul\":8238:8244   */\n  dup10\n    /* \"#utility.yul\":8234:8251   */\n  and\n    /* \"#utility.yul\":8223:8232   */\n  dup3\n    /* \"#utility.yul\":8204:8252   */\n  tag_42\n  jump\t// in\ntag_145:\n    /* \"#utility.yul\":8196:8202   */\n  dup4\n    /* \"#utility.yul\":8189:8253   */\n  sstore\n    /* \"#utility.yul\":8111:8267   */\n  pop\n    /* \"#utility.yul\":8088:8267   */\ntag_144:\n    /* \"#utility.yul\":8313:8314   */\n  0x01\n    /* \"#utility.yul\":8309:8310   */\n  0x02\n    /* \"#utility.yul\":8301:8307   */\n  dup9\n    /* \"#utility.yul\":8297:8311   */\n  mul\n    /* \"#utility.yul\":8293:8315   */\n  add\n    /* \"#utility.yul\":8287:8291   */\n  dup9\n    /* \"#utility.yul\":8280:8316   */\n  sstore\n    /* \"#utility.yul\":7715:8326   */\n  pop\n  pop\n  pop\n    /* \"#utility.yul\":7678:8565   */\ntag_136:\n  pop\n    /* \"#utility.yul\":7268:8571   */\n  pop\n  pop\n  pop\n    /* \"#utility.yul\":7176:8571   */\n  pop\n  pop\n  jump\t// out\n    /* \"myNFT.sol\":145:4907  contract MyNFT is ERC721 {... */\ntag_11:\n  dataSize(sub_0)\n  dup1\n  dataOffset(sub_0)\n  0x00\n  codecopy\n  0x00\n  return\nstop\n\nsub_0: assembly {\n        /* \"myNFT.sol\":145:4907  contract MyNFT is ERC721 {... */\n      mstore(0x40, 0x80)\n      callvalue\n      dup1\n      iszero\n      tag_1\n      jumpi\n      0x00\n      dup1\n      revert\n    tag_1:\n      pop\n      jumpi(tag_2, lt(calldatasize, 0x04))\n      shr(0xe0, calldataload(0x00))\n      dup1\n      0x6352211e\n      gt\n      tag_24\n      jumpi\n      dup1\n      0x98d5fdca\n      gt\n      tag_25\n      jumpi\n      dup1\n      0x98d5fdca\n      eq\n      tag_18\n      jumpi\n      dup1\n      0xa22cb465\n      eq\n      tag_19\n      jumpi\n      dup1\n      0xb88d4fde\n      eq\n      tag_20\n      jumpi\n      dup1\n      0xc4e41b22\n      eq\n      tag_21\n      jumpi\n      dup1\n      0xc87b56dd\n      eq\n      tag_22\n      jumpi\n      dup1\n      0xe985e9c5\n      eq\n      tag_23\n      jumpi\n      jump(tag_2)\n    tag_25:\n      dup1\n      0x6352211e\n      eq\n      tag_13\n      jumpi\n      dup1\n      0x70a08231\n      eq\n      tag_14\n      jumpi\n      dup1\n      0x89fde7af\n      eq\n      tag_15\n      jumpi\n      dup1\n      0x91679017\n      eq\n      tag_16\n      jumpi\n      dup1\n      0x95d89b41\n      eq\n      tag_17\n      jumpi\n      jump(tag_2)\n    tag_24:\n      dup1\n      0x23b872dd\n      gt\n      tag_26\n      jumpi\n      dup1\n      0x23b872dd\n      eq\n      tag_8\n      jumpi\n      dup1\n      0x29d6724e\n      eq\n      tag_9\n      jumpi\n      dup1\n      0x304a7a4b\n      eq\n      tag_10\n      jumpi\n      dup1\n      0x42842e0e\n      eq\n      tag_11\n      jumpi\n      dup1\n      0x62a464d8\n      eq\n      tag_12\n      jumpi\n      jump(tag_2)\n    tag_26:\n      dup1\n      0x01ffc9a7\n      eq\n      tag_3\n      jumpi\n      dup1\n      0x06fdde03\n      eq\n      tag_4\n      jumpi\n      dup1\n      0x081812fc\n      eq\n      tag_5\n      jumpi\n      dup1\n      0x095ea7b3\n      eq\n      tag_6\n      jumpi\n      dup1\n      0x0bdc9008\n      eq\n      tag_7\n      jumpi\n    tag_2:\n      0x00\n      dup1\n      revert\n        /* \"front/node_modules/@openzeppelin/contracts/token/ERC721/ERC721.sol\":1561:1861  function supportsInterface(bytes4 interfaceId) public view virtual override(ERC165, IERC165) returns (bool) {... */\n    tag_3:\n      tag_27\n      0x04\n      dup1\n      calldatasize\n      sub\n      dup2\n      add\n      swap1\n      tag_28\n      swap2\n      swap1\n      tag_29\n      jump\t// in\n    tag_28:\n      tag_30\n      jump\t// in\n    tag_27:\n      mload(0x40)\n      tag_31\n      swap2\n      swap1\n      tag_32\n      jump\t// in\n    tag_31:\n      mload(0x40)\n      dup1\n      swap2\n      sub\n      swap1\n      return\n        /* \"front/node_modules/@openzeppelin/contracts/token/ERC721/ERC721.sol\":2365:2454  function name() public view virtual returns (string memory) {... */\n    tag_4:\n      tag_33\n      tag_34\n      jump\t// in\n    tag_33:\n      mload(0x40)\n      tag_35\n      swap2\n      swap1\n      tag_36\n      jump\t// in\n    tag_35:\n      mload(0x40)\n      dup1\n      swap2\n      sub\n      swap1\n      return\n        /* \"front/node_modules/@openzeppelin/contracts/token/ERC721/ERC721.sol\":3497:3651  function getApproved(uint256 tokenId) public view virtual returns (address) {... */\n    tag_5:\n      tag_37\n      0x04\n      dup1\n      calldatasize\n      sub\n      dup2\n      add\n      swap1\n      tag_38\n      swap2\n      swap1\n      tag_39\n      jump\t// in\n    tag_38:\n      tag_40\n      jump\t// in\n    tag_37:\n      mload(0x40)\n      tag_41\n      swap2\n      swap1\n      tag_42\n      jump\t// in\n    tag_41:\n      mload(0x40)\n      dup1\n      swap2\n      sub\n      swap1\n      return\n        /* \"front/node_modules/@openzeppelin/contracts/token/ERC721/ERC721.sol\":3323:3436  function approve(address to, uint256 tokenId) public virtual {... */\n    tag_6:\n      tag_43\n      0x04\n      dup1\n      calldatasize\n      sub\n      dup2\n      add\n      swap1\n      tag_44\n      swap2\n      swap1\n      tag_45\n      jump\t// in\n    tag_44:\n      tag_46\n      jump\t// in\n    tag_43:\n      stop\n        /* \"myNFT.sol\":354:521  function minting(string memory tokenURI) public{... */\n    tag_7:\n      tag_47\n      0x04\n      dup1\n      calldatasize\n      sub\n      dup2\n      add\n      swap1\n      tag_48\n      swap2\n      swap1\n      tag_49\n      jump\t// in\n    tag_48:\n      tag_50\n      jump\t// in\n    tag_47:\n      stop\n        /* \"front/node_modules/@openzeppelin/contracts/token/ERC721/ERC721.sol\":4143:4721  function transferFrom(address from, address to, uint256 tokenId) public virtual {... */\n    tag_8:\n      tag_51\n      0x04\n      dup1\n      calldatasize\n      sub\n      dup2\n      add\n      swap1\n      tag_52\n      swap2\n      swap1\n      tag_53\n      jump\t// in\n    tag_52:\n      tag_54\n      jump\t// in\n    tag_51:\n      stop\n        /* \"myNFT.sol\":4766:4904  function setAppAll(address owner, address operator, bool approved) public {... */\n    tag_9:\n      tag_55\n      0x04\n      dup1\n      calldatasize\n      sub\n      dup2\n      add\n      swap1\n      tag_56\n      swap2\n      swap1\n      tag_57\n      jump\t// in\n    tag_56:\n      tag_58\n      jump\t// in\n    tag_55:\n      stop\n        /* \"myNFT.sol\":1536:2905  function getMyNftTokenId () public view returns (MyNftInfo[] memory){... */\n    tag_10:\n      tag_59\n      tag_60\n      jump\t// in\n    tag_59:\n      mload(0x40)\n      tag_61\n      swap2\n      swap1\n      tag_62\n      jump\t// in\n    tag_61:\n      mload(0x40)\n      dup1\n      swap2\n      sub\n      swap1\n      return\n        /* \"front/node_modules/@openzeppelin/contracts/token/ERC721/ERC721.sol\":4787:4919  function safeTransferFrom(address from, address to, uint256 tokenId) public {... */\n    tag_11:\n      tag_63\n      0x04\n      dup1\n      calldatasize\n      sub\n      dup2\n      add\n      swap1\n      tag_64\n      swap2\n      swap1\n      tag_53\n      jump\t// in\n    tag_64:\n      tag_65\n      jump\t// in\n    tag_63:\n      stop\n        /* \"myNFT.sol\":3308:3560  function NftsaleSumbit(uint256 tokenId, uint256 price) public returns(uint256[] memory){... */\n    tag_12:\n      tag_66\n      0x04\n      dup1\n      calldatasize\n      sub\n      dup2\n      add\n      swap1\n      tag_67\n      swap2\n      swap1\n      tag_68\n      jump\t// in\n    tag_67:\n      tag_69\n      jump\t// in\n    tag_66:\n      mload(0x40)\n      tag_70\n      swap2\n      swap1\n      tag_71\n      jump\t// in\n    tag_70:\n      mload(0x40)\n      dup1\n      swap2\n      sub\n      swap1\n      return\n        /* \"front/node_modules/@openzeppelin/contracts/token/ERC721/ERC721.sol\":2185:2303  function ownerOf(uint256 tokenId) public view virtual returns (address) {... */\n    tag_13:\n      tag_72\n      0x04\n      dup1\n      calldatasize\n      sub\n      dup2\n      add\n      swap1\n      tag_73\n      swap2\n      swap1\n      tag_39\n      jump\t// in\n    tag_73:\n      tag_74\n      jump\t// in\n    tag_72:\n      mload(0x40)\n      tag_75\n      swap2\n      swap1\n      tag_42\n      jump\t// in\n    tag_75:\n      mload(0x40)\n      dup1\n      swap2\n      sub\n      swap1\n      return\n        /* \"front/node_modules/@openzeppelin/contracts/token/ERC721/ERC721.sol\":1920:2128  function balanceOf(address owner) public view virtual returns (uint256) {... */\n    tag_14:\n      tag_76\n      0x04\n      dup1\n      calldatasize\n      sub\n      dup2\n      add\n      swap1\n      tag_77\n      swap2\n      swap1\n      tag_78\n      jump\t// in\n    tag_77:\n      tag_79\n      jump\t// in\n    tag_76:\n      mload(0x40)\n      tag_80\n      swap2\n      swap1\n      tag_81\n      jump\t// in\n    tag_80:\n      mload(0x40)\n      dup1\n      swap2\n      sub\n      swap1\n      return\n        /* \"myNFT.sol\":890:1255  function getAllTokenURIs () public view returns(string[] memory){... */\n    tag_15:\n      tag_82\n      tag_83\n      jump\t// in\n    tag_82:\n      mload(0x40)\n      tag_84\n      swap2\n      swap1\n      tag_85\n      jump\t// in\n    tag_84:\n      mload(0x40)\n      dup1\n      swap2\n      sub\n      swap1\n      return\n        /* \"myNFT.sol\":3639:3969  function getSaleTokenId() public view returns(uint256[] memory){... */\n    tag_16:\n      tag_86\n      tag_87\n      jump\t// in\n    tag_86:\n      mload(0x40)\n      tag_88\n      swap2\n      swap1\n      tag_71\n      jump\t// in\n    tag_88:\n      mload(0x40)\n      dup1\n      swap2\n      sub\n      swap1\n      return\n        /* \"front/node_modules/@openzeppelin/contracts/token/ERC721/ERC721.sol\":2518:2611  function symbol() public view virtual returns (string memory) {... */\n    tag_17:\n      tag_89\n      tag_90\n      jump\t// in\n    tag_89:\n      mload(0x40)\n      tag_91\n      swap2\n      swap1\n      tag_36\n      jump\t// in\n    tag_91:\n      mload(0x40)\n      dup1\n      swap2\n      sub\n      swap1\n      return\n        /* \"myNFT.sol\":4032:4631  function getPrice() public view returns(uint256[] memory, uint256[] memory){... */\n    tag_18:\n      tag_92\n      tag_93\n      jump\t// in\n    tag_92:\n      mload(0x40)\n      tag_94\n      swap3\n      swap2\n      swap1\n      tag_95\n      jump\t// in\n    tag_94:\n      mload(0x40)\n      dup1\n      swap2\n      sub\n      swap1\n      return\n        /* \"front/node_modules/@openzeppelin/contracts/token/ERC721/ERC721.sol\":3718:3862  function setApprovalForAll(address operator, bool approved) public virtual {... */\n    tag_19:\n      tag_96\n      0x04\n      dup1\n      calldatasize\n      sub\n      dup2\n      add\n      swap1\n      tag_97\n      swap2\n      swap1\n      tag_98\n      jump\t// in\n    tag_97:\n      tag_99\n      jump\t// in\n    tag_96:\n      stop\n        /* \"front/node_modules/@openzeppelin/contracts/token/ERC721/ERC721.sol\":4985:5193  function safeTransferFrom(address from, address to, uint256 tokenId, bytes memory data) public virtual {... */\n    tag_20:\n      tag_100\n      0x04\n      dup1\n      calldatasize\n      sub\n      dup2\n      add\n      swap1\n      tag_101\n      swap2\n      swap1\n      tag_102\n      jump\t// in\n    tag_101:\n      tag_103\n      jump\t// in\n    tag_100:\n      stop\n        /* \"myNFT.sol\":1302:1396  function getTotalSupply () public view returns(uint256){... */\n    tag_21:\n      tag_104\n      tag_105\n      jump\t// in\n    tag_104:\n      mload(0x40)\n      tag_106\n      swap2\n      swap1\n      tag_81\n      jump\t// in\n    tag_106:\n      mload(0x40)\n      dup1\n      swap2\n      sub\n      swap1\n      return\n        /* \"myNFT.sol\":529:724  function tokenURI(uint256 _tokenId) public view override returns (string memory){... */\n    tag_22:\n      tag_107\n      0x04\n      dup1\n      calldatasize\n      sub\n      dup2\n      add\n      swap1\n      tag_108\n      swap2\n      swap1\n      tag_39\n      jump\t// in\n    tag_108:\n      tag_109\n      jump\t// in\n    tag_107:\n      mload(0x40)\n      tag_110\n      swap2\n      swap1\n      tag_36\n      jump\t// in\n    tag_110:\n      mload(0x40)\n      dup1\n      swap2\n      sub\n      swap1\n      return\n        /* \"front/node_modules/@openzeppelin/contracts/token/ERC721/ERC721.sol\":3928:4081  function isApprovedForAll(address owner, address operator) public view virtual returns (bool) {... */\n    tag_23:\n      tag_111\n      0x04\n      dup1\n      calldatasize\n      sub\n      dup2\n      add\n      swap1\n      tag_112\n      swap2\n      swap1\n      tag_113\n      jump\t// in\n    tag_112:\n      tag_114\n      jump\t// in\n    tag_111:\n      mload(0x40)\n      tag_115\n      swap2\n      swap1\n      tag_32\n      jump\t// in\n    tag_115:\n      mload(0x40)\n      dup1\n      swap2\n      sub\n      swap1\n      return\n        /* \"front/node_modules/@openzeppelin/contracts/token/ERC721/ERC721.sol\":1561:1861  function supportsInterface(bytes4 interfaceId) public view virtual override(ERC165, IERC165) returns (bool) {... */\n    tag_30:\n        /* \"front/node_modules/@openzeppelin/contracts/token/ERC721/ERC721.sol\":1663:1667  bool */\n      0x00\n        /* \"front/node_modules/@openzeppelin/contracts/token/ERC721/ERC721.sol\":1713:1738  type(IERC721).interfaceId */\n      0x80ac58cd00000000000000000000000000000000000000000000000000000000\n        /* \"front/node_modules/@openzeppelin/contracts/token/ERC721/ERC721.sol\":1698:1738  interfaceId == type(IERC721).interfaceId */\n      not(0xffffffffffffffffffffffffffffffffffffffffffffffffffffffff)\n      and\n        /* \"front/node_modules/@openzeppelin/contracts/token/ERC721/ERC721.sol\":1698:1709  interfaceId */\n      dup3\n        /* \"front/node_modules/@openzeppelin/contracts/token/ERC721/ERC721.sol\":1698:1738  interfaceId == type(IERC721).interfaceId */\n      not(0xffffffffffffffffffffffffffffffffffffffffffffffffffffffff)\n      and\n      eq\n        /* \"front/node_modules/@openzeppelin/contracts/token/ERC721/ERC721.sol\":1698:1802  interfaceId == type(IERC721).interfaceId ||... */\n      dup1\n      tag_117\n      jumpi\n      pop\n        /* \"front/node_modules/@openzeppelin/contracts/token/ERC721/ERC721.sol\":1769:1802  type(IERC721Metadata).interfaceId */\n      0x5b5e139f00000000000000000000000000000000000000000000000000000000\n        /* \"front/node_modules/@openzeppelin/contracts/token/ERC721/ERC721.sol\":1754:1802  interfaceId == type(IERC721Metadata).interfaceId */\n      not(0xffffffffffffffffffffffffffffffffffffffffffffffffffffffff)\n      and\n        /* \"front/node_modules/@openzeppelin/contracts/token/ERC721/ERC721.sol\":1754:1765  interfaceId */\n      dup3\n        /* \"front/node_modules/@openzeppelin/contracts/token/ERC721/ERC721.sol\":1754:1802  interfaceId == type(IERC721Metadata).interfaceId */\n      not(0xffffffffffffffffffffffffffffffffffffffffffffffffffffffff)\n      and\n      eq\n        /* \"front/node_modules/@openzeppelin/contracts/token/ERC721/ERC721.sol\":1698:1802  interfaceId == type(IERC721).interfaceId ||... */\n    tag_117:\n        /* \"front/node_modules/@openzeppelin/contracts/token/ERC721/ERC721.sol\":1698:1854  interfaceId == type(IERC721).interfaceId ||... */\n      dup1\n      tag_118\n      jumpi\n      pop\n        /* \"front/node_modules/@openzeppelin/contracts/token/ERC721/ERC721.sol\":1818:1854  super.supportsInterface(interfaceId) */\n      tag_119\n        /* \"front/node_modules/@openzeppelin/contracts/token/ERC721/ERC721.sol\":1842:1853  interfaceId */\n      dup3\n        /* \"front/node_modules/@openzeppelin/contracts/token/ERC721/ERC721.sol\":1818:1841  super.supportsInterface */\n      tag_120\n        /* \"front/node_modules/@openzeppelin/contracts/token/ERC721/ERC721.sol\":1818:1854  super.supportsInterface(interfaceId) */\n      jump\t// in\n    tag_119:\n        /* \"front/node_modules/@openzeppelin/contracts/token/ERC721/ERC721.sol\":1698:1854  interfaceId == type(IERC721).interfaceId ||... */\n    tag_118:\n        /* \"front/node_modules/@openzeppelin/contracts/token/ERC721/ERC721.sol\":1679:1854  return... */\n      swap1\n      pop\n        /* \"front/node_modules/@openzeppelin/contracts/token/ERC721/ERC721.sol\":1561:1861  function supportsInterface(bytes4 interfaceId) public view virtual override(ERC165, IERC165) returns (bool) {... */\n      swap2\n      swap1\n      pop\n      jump\t// out\n        /* \"front/node_modules/@openzeppelin/contracts/token/ERC721/ERC721.sol\":2365:2454  function name() public view virtual returns (string memory) {... */\n    tag_34:\n        /* \"front/node_modules/@openzeppelin/contracts/token/ERC721/ERC721.sol\":2410:2423  string memory */\n      0x60\n        /* \"front/node_modules/@openzeppelin/contracts/token/ERC721/ERC721.sol\":2442:2447  _name */\n      0x00\n        /* \"front/node_modules/@openzeppelin/contracts/token/ERC721/ERC721.sol\":2435:2447  return _name */\n      dup1\n      sload\n      tag_122\n      swap1\n      tag_123\n      jump\t// in\n    tag_122:\n      dup1\n      0x1f\n      add\n      0x20\n      dup1\n      swap2\n      div\n      mul\n      0x20\n      add\n      mload(0x40)\n      swap1\n      dup2\n      add\n      0x40\n      mstore\n      dup1\n      swap3\n      swap2\n      swap1\n      dup2\n      dup2\n      mstore\n      0x20\n      add\n      dup3\n      dup1\n      sload\n      tag_124\n      swap1\n      tag_123\n      jump\t// in\n    tag_124:\n      dup1\n      iszero\n      tag_125\n      jumpi\n      dup1\n      0x1f\n      lt\n      tag_126\n      jumpi\n      0x0100\n      dup1\n      dup4\n      sload\n      div\n      mul\n      dup4\n      mstore\n      swap2\n      0x20\n      add\n      swap2\n      jump(tag_125)\n    tag_126:\n      dup3\n      add\n      swap2\n      swap1\n      0x00\n      mstore\n      keccak256(0x00, 0x20)\n      swap1\n    tag_127:\n      dup2\n      sload\n      dup2\n      mstore\n      swap1\n      0x01\n      add\n      swap1\n      0x20\n      add\n      dup1\n      dup4\n      gt\n      tag_127\n      jumpi\n      dup3\n      swap1\n      sub\n      0x1f\n      and\n      dup3\n      add\n      swap2\n    tag_125:\n      pop\n      pop\n      pop\n      pop\n      pop\n      swap1\n      pop\n        /* \"front/node_modules/@openzeppelin/contracts/token/ERC721/ERC721.sol\":2365:2454  function name() public view virtual returns (string memory) {... */\n      swap1\n      jump\t// out\n        /* \"front/node_modules/@openzeppelin/contracts/token/ERC721/ERC721.sol\":3497:3651  function getApproved(uint256 tokenId) public view virtual returns (address) {... */\n    tag_40:\n        /* \"front/node_modules/@openzeppelin/contracts/token/ERC721/ERC721.sol\":3564:3571  address */\n      0x00\n        /* \"front/node_modules/@openzeppelin/contracts/token/ERC721/ERC721.sol\":3583:3605  _requireOwned(tokenId) */\n      tag_129\n        /* \"front/node_modules/@openzeppelin/contracts/token/ERC721/ERC721.sol\":3597:3604  tokenId */\n      dup3\n        /* \"front/node_modules/@openzeppelin/contracts/token/ERC721/ERC721.sol\":3583:3596  _requireOwned */\n      tag_130\n        /* \"front/node_modules/@openzeppelin/contracts/token/ERC721/ERC721.sol\":3583:3605  _requireOwned(tokenId) */\n      jump\t// in\n    tag_129:\n      pop\n        /* \"front/node_modules/@openzeppelin/contracts/token/ERC721/ERC721.sol\":3623:3644  _getApproved(tokenId) */\n      tag_131\n        /* \"front/node_modules/@openzeppelin/contracts/token/ERC721/ERC721.sol\":3636:3643  tokenId */\n      dup3\n        /* \"front/node_modules/@openzeppelin/contracts/token/ERC721/ERC721.sol\":3623:3635  _getApproved */\n      tag_132\n        /* \"front/node_modules/@openzeppelin/contracts/token/ERC721/ERC721.sol\":3623:3644  _getApproved(tokenId) */\n      jump\t// in\n    tag_131:\n        /* \"front/node_modules/@openzeppelin/contracts/token/ERC721/ERC721.sol\":3616:3644  return _getApproved(tokenId) */\n      swap1\n      pop\n        /* \"front/node_modules/@openzeppelin/contracts/token/ERC721/ERC721.sol\":3497:3651  function getApproved(uint256 tokenId) public view virtual returns (address) {... */\n      swap2\n      swap1\n      pop\n      jump\t// out\n        /* \"front/node_modules/@openzeppelin/contracts/token/ERC721/ERC721.sol\":3323:3436  function approve(address to, uint256 tokenId) public virtual {... */\n    tag_46:\n        /* \"front/node_modules/@openzeppelin/contracts/token/ERC721/ERC721.sol\":3394:3429  _approve(to, tokenId, _msgSender()) */\n      tag_134\n        /* \"front/node_modules/@openzeppelin/contracts/token/ERC721/ERC721.sol\":3403:3405  to */\n      dup3\n        /* \"front/node_modules/@openzeppelin/contracts/token/ERC721/ERC721.sol\":3407:3414  tokenId */\n      dup3\n        /* \"front/node_modules/@openzeppelin/contracts/token/ERC721/ERC721.sol\":3416:3428  _msgSender() */\n      tag_135\n        /* \"front/node_modules/@openzeppelin/contracts/token/ERC721/ERC721.sol\":3416:3426  _msgSender */\n      tag_136\n        /* \"front/node_modules/@openzeppelin/contracts/token/ERC721/ERC721.sol\":3416:3428  _msgSender() */\n      jump\t// in\n    tag_135:\n        /* \"front/node_modules/@openzeppelin/contracts/token/ERC721/ERC721.sol\":3394:3402  _approve */\n      tag_137\n        /* \"front/node_modules/@openzeppelin/contracts/token/ERC721/ERC721.sol\":3394:3429  _approve(to, tokenId, _msgSender()) */\n      jump\t// in\n    tag_134:\n        /* \"front/node_modules/@openzeppelin/contracts/token/ERC721/ERC721.sol\":3323:3436  function approve(address to, uint256 tokenId) public virtual {... */\n      pop\n      pop\n      jump\t// out\n        /* \"myNFT.sol\":354:521  function minting(string memory tokenURI) public{... */\n    tag_50:\n        /* \"myNFT.sol\":438:446  tokenURI */\n      dup1\n        /* \"myNFT.sol\":412:422  _tokenURIs */\n      0x06\n        /* \"myNFT.sol\":412:435  _tokenURIs[totalSupply] */\n      0x00\n        /* \"myNFT.sol\":423:434  totalSupply */\n      sload(0x07)\n        /* \"myNFT.sol\":412:435  _tokenURIs[totalSupply] */\n      dup2\n      mstore\n      0x20\n      add\n      swap1\n      dup2\n      mstore\n      0x20\n      add\n      0x00\n      keccak256\n        /* \"myNFT.sol\":412:446  _tokenURIs[totalSupply] = tokenURI */\n      swap1\n      dup2\n      tag_139\n      swap2\n      swap1\n      tag_140\n      jump\t// in\n    tag_139:\n      pop\n        /* \"myNFT.sol\":457:487  _mint(msg.sender, totalSupply) */\n      tag_141\n        /* \"myNFT.sol\":463:473  msg.sender */\n      caller\n        /* \"myNFT.sol\":475:486  totalSupply */\n      sload(0x07)\n        /* \"myNFT.sol\":457:462  _mint */\n      tag_142\n        /* \"myNFT.sol\":457:487  _mint(msg.sender, totalSupply) */\n      jump\t// in\n    tag_141:\n        /* \"myNFT.sol\":512:513  1 */\n      0x01\n        /* \"myNFT.sol\":498:509  totalSupply */\n      0x07\n      0x00\n        /* \"myNFT.sol\":498:513  totalSupply +=1 */\n      dup3\n      dup3\n      sload\n      tag_143\n      swap2\n      swap1\n      tag_144\n      jump\t// in\n    tag_143:\n      swap3\n      pop\n      pop\n      dup2\n      swap1\n      sstore\n      pop\n        /* \"myNFT.sol\":354:521  function minting(string memory tokenURI) public{... */\n      pop\n      jump\t// out\n        /* \"front/node_modules/@openzeppelin/contracts/token/ERC721/ERC721.sol\":4143:4721  function transferFrom(address from, address to, uint256 tokenId) public virtual {... */\n    tag_54:\n        /* \"front/node_modules/@openzeppelin/contracts/token/ERC721/ERC721.sol\":4251:4252  0 */\n      0x00\n        /* \"front/node_modules/@openzeppelin/contracts/token/ERC721/ERC721.sol\":4237:4253  to == address(0) */\n      0xffffffffffffffffffffffffffffffffffffffff\n      and\n        /* \"front/node_modules/@openzeppelin/contracts/token/ERC721/ERC721.sol\":4237:4239  to */\n      dup3\n        /* \"front/node_modules/@openzeppelin/contracts/token/ERC721/ERC721.sol\":4237:4253  to == address(0) */\n      0xffffffffffffffffffffffffffffffffffffffff\n      and\n      sub\n        /* \"front/node_modules/@openzeppelin/contracts/token/ERC721/ERC721.sol\":4233:4320  if (to == address(0)) {... */\n      tag_146\n      jumpi\n        /* \"front/node_modules/@openzeppelin/contracts/token/ERC721/ERC721.sol\":4306:4307  0 */\n      0x00\n        /* \"front/node_modules/@openzeppelin/contracts/token/ERC721/ERC721.sol\":4276:4309  ERC721InvalidReceiver(address(0)) */\n      mload(0x40)\n      0x64a0ae9200000000000000000000000000000000000000000000000000000000\n      dup2\n      mstore\n      0x04\n      add\n      tag_147\n      swap2\n      swap1\n      tag_42\n      jump\t// in\n    tag_147:\n      mload(0x40)\n      dup1\n      swap2\n      sub\n      swap1\n      revert\n        /* \"front/node_modules/@openzeppelin/contracts/token/ERC721/ERC721.sol\":4233:4320  if (to == address(0)) {... */\n    tag_146:\n        /* \"front/node_modules/@openzeppelin/contracts/token/ERC721/ERC721.sol\":4538:4559  address previousOwner */\n      0x00\n        /* \"front/node_modules/@openzeppelin/contracts/token/ERC721/ERC721.sol\":4562:4596  _update(to, tokenId, _msgSender()) */\n      tag_148\n        /* \"front/node_modules/@openzeppelin/contracts/token/ERC721/ERC721.sol\":4570:4572  to */\n      dup4\n        /* \"front/node_modules/@openzeppelin/contracts/token/ERC721/ERC721.sol\":4574:4581  tokenId */\n      dup4\n        /* \"front/node_modules/@openzeppelin/contracts/token/ERC721/ERC721.sol\":4583:4595  _msgSender() */\n      tag_149\n        /* \"front/node_modules/@openzeppelin/contracts/token/ERC721/ERC721.sol\":4583:4593  _msgSender */\n      tag_136\n        /* \"front/node_modules/@openzeppelin/contracts/token/ERC721/ERC721.sol\":4583:4595  _msgSender() */\n      jump\t// in\n    tag_149:\n        /* \"front/node_modules/@openzeppelin/contracts/token/ERC721/ERC721.sol\":4562:4569  _update */\n      tag_150\n        /* \"front/node_modules/@openzeppelin/contracts/token/ERC721/ERC721.sol\":4562:4596  _update(to, tokenId, _msgSender()) */\n      jump\t// in\n    tag_148:\n        /* \"front/node_modules/@openzeppelin/contracts/token/ERC721/ERC721.sol\":4538:4596  address previousOwner = _update(to, tokenId, _msgSender()) */\n      swap1\n      pop\n        /* \"front/node_modules/@openzeppelin/contracts/token/ERC721/ERC721.sol\":4627:4631  from */\n      dup4\n        /* \"front/node_modules/@openzeppelin/contracts/token/ERC721/ERC721.sol\":4610:4631  previousOwner != from */\n      0xffffffffffffffffffffffffffffffffffffffff\n      and\n        /* \"front/node_modules/@openzeppelin/contracts/token/ERC721/ERC721.sol\":4610:4623  previousOwner */\n      dup2\n        /* \"front/node_modules/@openzeppelin/contracts/token/ERC721/ERC721.sol\":4610:4631  previousOwner != from */\n      0xffffffffffffffffffffffffffffffffffffffff\n      and\n      eq\n        /* \"front/node_modules/@openzeppelin/contracts/token/ERC721/ERC721.sol\":4606:4715  if (previousOwner != from) {... */\n      tag_151\n      jumpi\n        /* \"front/node_modules/@openzeppelin/contracts/token/ERC721/ERC721.sol\":4675:4679  from */\n      dup4\n        /* \"front/node_modules/@openzeppelin/contracts/token/ERC721/ERC721.sol\":4681:4688  tokenId */\n      dup3\n        /* \"front/node_modules/@openzeppelin/contracts/token/ERC721/ERC721.sol\":4690:4703  previousOwner */\n      dup3\n        /* \"front/node_modules/@openzeppelin/contracts/token/ERC721/ERC721.sol\":4654:4704  ERC721IncorrectOwner(from, tokenId, previousOwner) */\n      mload(0x40)\n      0x64283d7b00000000000000000000000000000000000000000000000000000000\n      dup2\n      mstore\n      0x04\n      add\n      tag_152\n      swap4\n      swap3\n      swap2\n      swap1\n      tag_153\n      jump\t// in\n    tag_152:\n      mload(0x40)\n      dup1\n      swap2\n      sub\n      swap1\n      revert\n        /* \"front/node_modules/@openzeppelin/contracts/token/ERC721/ERC721.sol\":4606:4715  if (previousOwner != from) {... */\n    tag_151:\n        /* \"front/node_modules/@openzeppelin/contracts/token/ERC721/ERC721.sol\":4223:4721  {... */\n      pop\n        /* \"front/node_modules/@openzeppelin/contracts/token/ERC721/ERC721.sol\":4143:4721  function transferFrom(address from, address to, uint256 tokenId) public virtual {... */\n      pop\n      pop\n      pop\n      jump\t// out\n        /* \"myNFT.sol\":4766:4904  function setAppAll(address owner, address operator, bool approved) public {... */\n    tag_58:\n        /* \"myNFT.sol\":4851:4896  _setApprovalForAll(owner, operator, approved) */\n      tag_155\n        /* \"myNFT.sol\":4870:4875  owner */\n      dup4\n        /* \"myNFT.sol\":4877:4885  operator */\n      dup4\n        /* \"myNFT.sol\":4887:4895  approved */\n      dup4\n        /* \"myNFT.sol\":4851:4869  _setApprovalForAll */\n      tag_156\n        /* \"myNFT.sol\":4851:4896  _setApprovalForAll(owner, operator, approved) */\n      jump\t// in\n    tag_155:\n        /* \"myNFT.sol\":4766:4904  function setAppAll(address owner, address operator, bool approved) public {... */\n      pop\n      pop\n      pop\n      jump\t// out\n        /* \"myNFT.sol\":1536:2905  function getMyNftTokenId () public view returns (MyNftInfo[] memory){... */\n    tag_60:\n        /* \"myNFT.sol\":1585:1603  MyNftInfo[] memory */\n      0x60\n        /* \"myNFT.sol\":1615:1645  uint256[] memory myNftTokenIds */\n      0x00\n        /* \"myNFT.sol\":1662:1673  totalSupply */\n      sload(0x07)\n        /* \"myNFT.sol\":1648:1674  new uint256[](totalSupply) */\n      0xffffffffffffffff\n      dup2\n      gt\n      iszero\n      tag_158\n      jumpi\n      tag_159\n      tag_160\n      jump\t// in\n    tag_159:\n    tag_158:\n      mload(0x40)\n      swap1\n      dup1\n      dup3\n      mstore\n      dup1\n      0x20\n      mul\n      0x20\n      add\n      dup3\n      add\n      0x40\n      mstore\n      dup1\n      iszero\n      tag_161\n      jumpi\n      dup2\n      0x20\n      add\n      0x20\n      dup3\n      mul\n      dup1\n      calldatasize\n      dup4\n      calldatacopy\n      dup1\n      dup3\n      add\n      swap2\n      pop\n      pop\n      swap1\n      pop\n    tag_161:\n      pop\n        /* \"myNFT.sol\":1615:1674  uint256[] memory myNftTokenIds = new uint256[](totalSupply) */\n      swap1\n      pop\n        /* \"myNFT.sol\":1685:1696  uint256 cnt */\n      0x00\n        /* \"myNFT.sol\":1718:1731  uint256 index */\n      dup1\n        /* \"myNFT.sol\":1713:2170  for (uint256 index = 0; index < totalSupply; index++) {... */\n    tag_162:\n        /* \"myNFT.sol\":1745:1756  totalSupply */\n      sload(0x07)\n        /* \"myNFT.sol\":1737:1742  index */\n      dup2\n        /* \"myNFT.sol\":1737:1756  index < totalSupply */\n      lt\n        /* \"myNFT.sol\":1713:2170  for (uint256 index = 0; index < totalSupply; index++) {... */\n      iszero\n      tag_163\n      jumpi\n        /* \"myNFT.sol\":1853:1863  msg.sender */\n      caller\n        /* \"myNFT.sol\":1834:1863  _ownerOf(index) == msg.sender */\n      0xffffffffffffffffffffffffffffffffffffffff\n      and\n        /* \"myNFT.sol\":1834:1849  _ownerOf(index) */\n      tag_165\n        /* \"myNFT.sol\":1843:1848  index */\n      dup3\n        /* \"myNFT.sol\":1834:1842  _ownerOf */\n      tag_166\n        /* \"myNFT.sol\":1834:1849  _ownerOf(index) */\n      jump\t// in\n    tag_165:\n        /* \"myNFT.sol\":1834:1863  _ownerOf(index) == msg.sender */\n      0xffffffffffffffffffffffffffffffffffffffff\n      and\n      sub\n        /* \"myNFT.sol\":1831:2159  if(_ownerOf(index) == msg.sender){... */\n      tag_167\n      jumpi\n        /* \"myNFT.sol\":1953:1954  0 */\n      0x00\n        /* \"myNFT.sol\":1946:1951  index */\n      dup2\n        /* \"myNFT.sol\":1946:1954  index==0 */\n      sub\n        /* \"myNFT.sol\":1943:2120  if(index==0) {... */\n      tag_168\n      jumpi\n        /* \"myNFT.sol\":2002:2005  999 */\n      0x03e7\n        /* \"myNFT.sol\":1979:1992  myNftTokenIds */\n      dup4\n        /* \"myNFT.sol\":1993:1998  index */\n      dup3\n        /* \"myNFT.sol\":1979:1999  myNftTokenIds[index] */\n      dup2\n      mload\n      dup2\n      lt\n      tag_169\n      jumpi\n      tag_170\n      tag_171\n      jump\t// in\n    tag_170:\n    tag_169:\n      0x20\n      mul\n      0x20\n      add\n      add\n        /* \"myNFT.sol\":1979:2005  myNftTokenIds[index] = 999 */\n      dup2\n      dup2\n      mstore\n      pop\n      pop\n        /* \"myNFT.sol\":1943:2120  if(index==0) {... */\n      jump(tag_172)\n    tag_168:\n        /* \"myNFT.sol\":2095:2100  index */\n      dup1\n        /* \"myNFT.sol\":2072:2085  myNftTokenIds */\n      dup4\n        /* \"myNFT.sol\":2086:2091  index */\n      dup3\n        /* \"myNFT.sol\":2072:2092  myNftTokenIds[index] */\n      dup2\n      mload\n      dup2\n      lt\n      tag_173\n      jumpi\n      tag_174\n      tag_171\n      jump\t// in\n    tag_174:\n    tag_173:\n      0x20\n      mul\n      0x20\n      add\n      add\n        /* \"myNFT.sol\":2072:2100  myNftTokenIds[index] = index */\n      dup2\n      dup2\n      mstore\n      pop\n      pop\n        /* \"myNFT.sol\":1943:2120  if(index==0) {... */\n    tag_172:\n        /* \"myNFT.sol\":2138:2143  cnt++ */\n      dup2\n      dup1\n      tag_175\n      swap1\n      tag_176\n      jump\t// in\n    tag_175:\n      swap3\n      pop\n      pop\n        /* \"myNFT.sol\":1831:2159  if(_ownerOf(index) == msg.sender){... */\n    tag_167:\n        /* \"myNFT.sol\":1758:1765  index++ */\n      dup1\n      dup1\n      tag_177\n      swap1\n      tag_176\n      jump\t// in\n    tag_177:\n      swap2\n      pop\n      pop\n        /* \"myNFT.sol\":1713:2170  for (uint256 index = 0; index < totalSupply; index++) {... */\n      jump(tag_162)\n    tag_163:\n      pop\n        /* \"myNFT.sol\":2180:2211  MyNftInfo[] memory myNftURIsArr */\n      0x00\n        /* \"myNFT.sol\":2230:2241  totalSupply */\n      sload(0x07)\n        /* \"myNFT.sol\":2214:2242  new MyNftInfo[](totalSupply) */\n      0xffffffffffffffff\n      dup2\n      gt\n      iszero\n      tag_178\n      jumpi\n      tag_179\n      tag_160\n      jump\t// in\n    tag_179:\n    tag_178:\n      mload(0x40)\n      swap1\n      dup1\n      dup3\n      mstore\n      dup1\n      0x20\n      mul\n      0x20\n      add\n      dup3\n      add\n      0x40\n      mstore\n      dup1\n      iszero\n      tag_180\n      jumpi\n      dup2\n      0x20\n      add\n    tag_181:\n      tag_182\n      tag_183\n      jump\t// in\n    tag_182:\n      dup2\n      mstore\n      0x20\n      add\n      swap1\n      0x01\n      swap1\n      sub\n      swap1\n      dup2\n      tag_181\n      jumpi\n      swap1\n      pop\n    tag_180:\n      pop\n        /* \"myNFT.sol\":2180:2242  MyNftInfo[] memory myNftURIsArr = new MyNftInfo[](totalSupply) */\n      swap1\n      pop\n        /* \"myNFT.sol\":2260:2273  uint256 index */\n      0x00\n        /* \"myNFT.sol\":2255:2866  for (uint256 index = 0; index < totalSupply; index++) {... */\n    tag_184:\n        /* \"myNFT.sol\":2287:2298  totalSupply */\n      sload(0x07)\n        /* \"myNFT.sol\":2279:2284  index */\n      dup2\n        /* \"myNFT.sol\":2279:2298  index < totalSupply */\n      lt\n        /* \"myNFT.sol\":2255:2866  for (uint256 index = 0; index < totalSupply; index++) {... */\n      iszero\n      tag_185\n      jumpi\n        /* \"myNFT.sol\":2352:2353  0 */\n      0x00\n        /* \"myNFT.sol\":2329:2342  myNftTokenIds */\n      dup5\n        /* \"myNFT.sol\":2343:2348  index */\n      dup3\n        /* \"myNFT.sol\":2329:2349  myNftTokenIds[index] */\n      dup2\n      mload\n      dup2\n      lt\n      tag_187\n      jumpi\n      tag_188\n      tag_171\n      jump\t// in\n    tag_188:\n    tag_187:\n      0x20\n      mul\n      0x20\n      add\n      add\n      mload\n        /* \"myNFT.sol\":2329:2353  myNftTokenIds[index] !=0 */\n      eq\n        /* \"myNFT.sol\":2326:2855  if(myNftTokenIds[index] !=0){... */\n      tag_189\n      jumpi\n        /* \"myNFT.sol\":2400:2403  999 */\n      0x03e7\n        /* \"myNFT.sol\":2376:2389  myNftTokenIds */\n      dup5\n        /* \"myNFT.sol\":2390:2395  index */\n      dup3\n        /* \"myNFT.sol\":2376:2396  myNftTokenIds[index] */\n      dup2\n      mload\n      dup2\n      lt\n      tag_190\n      jumpi\n      tag_191\n      tag_171\n      jump\t// in\n    tag_191:\n    tag_190:\n      0x20\n      mul\n      0x20\n      add\n      add\n      mload\n        /* \"myNFT.sol\":2376:2403  myNftTokenIds[index] == 999 */\n      sub\n        /* \"myNFT.sol\":2373:2822  if(myNftTokenIds[index] == 999 ){... */\n      tag_192\n      jumpi\n        /* \"myNFT.sol\":2452:2545  MyNftInfo({ ... */\n      mload(0x40)\n      dup1\n      0x40\n      add\n      0x40\n      mstore\n      dup1\n        /* \"myNFT.sol\":2496:2506  _tokenURIs */\n      0x06\n        /* \"myNFT.sol\":2496:2509  _tokenURIs[0] */\n      0x00\n        /* \"myNFT.sol\":2507:2508  0 */\n      dup1\n        /* \"myNFT.sol\":2496:2509  _tokenURIs[0] */\n      dup2\n      mstore\n      0x20\n      add\n      swap1\n      dup2\n      mstore\n      0x20\n      add\n      0x00\n      keccak256\n        /* \"myNFT.sol\":2452:2545  MyNftInfo({ ... */\n      dup1\n      sload\n      tag_193\n      swap1\n      tag_123\n      jump\t// in\n    tag_193:\n      dup1\n      0x1f\n      add\n      0x20\n      dup1\n      swap2\n      div\n      mul\n      0x20\n      add\n      mload(0x40)\n      swap1\n      dup2\n      add\n      0x40\n      mstore\n      dup1\n      swap3\n      swap2\n      swap1\n      dup2\n      dup2\n      mstore\n      0x20\n      add\n      dup3\n      dup1\n      sload\n      tag_194\n      swap1\n      tag_123\n      jump\t// in\n    tag_194:\n      dup1\n      iszero\n      tag_195\n      jumpi\n      dup1\n      0x1f\n      lt\n      tag_196\n      jumpi\n      0x0100\n      dup1\n      dup4\n      sload\n      div\n      mul\n      dup4\n      mstore\n      swap2\n      0x20\n      add\n      swap2\n      jump(tag_195)\n    tag_196:\n      dup3\n      add\n      swap2\n      swap1\n      0x00\n      mstore\n      keccak256(0x00, 0x20)\n      swap1\n    tag_197:\n      dup2\n      sload\n      dup2\n      mstore\n      swap1\n      0x01\n      add\n      swap1\n      0x20\n      add\n      dup1\n      dup4\n      gt\n      tag_197\n      jumpi\n      dup3\n      swap1\n      sub\n      0x1f\n      and\n      dup3\n      add\n      swap2\n    tag_195:\n      pop\n      pop\n      pop\n      pop\n      pop\n      dup2\n      mstore\n      0x20\n      add\n        /* \"myNFT.sol\":2542:2543  0 */\n      0x00\n        /* \"myNFT.sol\":2452:2545  MyNftInfo({ ... */\n      dup2\n      mstore\n      pop\n        /* \"myNFT.sol\":2430:2442  myNftURIsArr */\n      dup3\n        /* \"myNFT.sol\":2443:2448  index */\n      dup3\n        /* \"myNFT.sol\":2430:2449  myNftURIsArr[index] */\n      dup2\n      mload\n      dup2\n      lt\n      tag_198\n      jumpi\n      tag_199\n      tag_171\n      jump\t// in\n    tag_199:\n    tag_198:\n      0x20\n      mul\n      0x20\n      add\n      add\n        /* \"myNFT.sol\":2430:2545  myNftURIsArr[index] = MyNftInfo({ ... */\n      dup2\n      swap1\n      mstore\n      pop\n        /* \"myNFT.sol\":2373:2822  if(myNftTokenIds[index] == 999 ){... */\n      jump(tag_200)\n    tag_192:\n        /* \"myNFT.sol\":2670:2801  MyNftInfo({ ... */\n      mload(0x40)\n      dup1\n      0x40\n      add\n      0x40\n      mstore\n      dup1\n        /* \"myNFT.sol\":2714:2724  _tokenURIs */\n      0x06\n        /* \"myNFT.sol\":2714:2746  _tokenURIs[myNftTokenIds[index]] */\n      0x00\n        /* \"myNFT.sol\":2725:2738  myNftTokenIds */\n      dup8\n        /* \"myNFT.sol\":2739:2744  index */\n      dup6\n        /* \"myNFT.sol\":2725:2745  myNftTokenIds[index] */\n      dup2\n      mload\n      dup2\n      lt\n      tag_201\n      jumpi\n      tag_202\n      tag_171\n      jump\t// in\n    tag_202:\n    tag_201:\n      0x20\n      mul\n      0x20\n      add\n      add\n      mload\n        /* \"myNFT.sol\":2714:2746  _tokenURIs[myNftTokenIds[index]] */\n      dup2\n      mstore\n      0x20\n      add\n      swap1\n      dup2\n      mstore\n      0x20\n      add\n      0x00\n      keccak256\n        /* \"myNFT.sol\":2670:2801  MyNftInfo({ ... */\n      dup1\n      sload\n      tag_203\n      swap1\n      tag_123\n      jump\t// in\n    tag_203:\n      dup1\n      0x1f\n      add\n      0x20\n      dup1\n      swap2\n      div\n      mul\n      0x20\n      add\n      mload(0x40)\n      swap1\n      dup2\n      add\n      0x40\n      mstore\n      dup1\n      swap3\n      swap2\n      swap1\n      dup2\n      dup2\n      mstore\n      0x20\n      add\n      dup3\n      dup1\n      sload\n      tag_204\n      swap1\n      tag_123\n      jump\t// in\n    tag_204:\n      dup1\n      iszero\n      tag_205\n      jumpi\n      dup1\n      0x1f\n      lt\n      tag_206\n      jumpi\n      0x0100\n      dup1\n      dup4\n      sload\n      div\n      mul\n      dup4\n      mstore\n      swap2\n      0x20\n      add\n      swap2\n      jump(tag_205)\n    tag_206:\n      dup3\n      add\n      swap2\n      swap1\n      0x00\n      mstore\n      keccak256(0x00, 0x20)\n      swap1\n    tag_207:\n      dup2\n      sload\n      dup2\n      mstore\n      swap1\n      0x01\n      add\n      swap1\n      0x20\n      add\n      dup1\n      dup4\n      gt\n      tag_207\n      jumpi\n      dup3\n      swap1\n      sub\n      0x1f\n      and\n      dup3\n      add\n      swap2\n    tag_205:\n      pop\n      pop\n      pop\n      pop\n      pop\n      dup2\n      mstore\n      0x20\n      add\n        /* \"myNFT.sol\":2779:2792  myNftTokenIds */\n      dup6\n        /* \"myNFT.sol\":2793:2798  index */\n      dup4\n        /* \"myNFT.sol\":2779:2799  myNftTokenIds[index] */\n      dup2\n      mload\n      dup2\n      lt\n      tag_208\n      jumpi\n      tag_209\n      tag_171\n      jump\t// in\n    tag_209:\n    tag_208:\n      0x20\n      mul\n      0x20\n      add\n      add\n      mload\n        /* \"myNFT.sol\":2670:2801  MyNftInfo({ ... */\n      dup2\n      mstore\n      pop\n        /* \"myNFT.sol\":2648:2660  myNftURIsArr */\n      dup3\n        /* \"myNFT.sol\":2661:2666  index */\n      dup3\n        /* \"myNFT.sol\":2648:2667  myNftURIsArr[index] */\n      dup2\n      mload\n      dup2\n      lt\n      tag_210\n      jumpi\n      tag_211\n      tag_171\n      jump\t// in\n    tag_211:\n    tag_210:\n      0x20\n      mul\n      0x20\n      add\n      add\n        /* \"myNFT.sol\":2648:2801  myNftURIsArr[index] = MyNftInfo({ ... */\n      dup2\n      swap1\n      mstore\n      pop\n        /* \"myNFT.sol\":2373:2822  if(myNftTokenIds[index] == 999 ){... */\n    tag_200:\n        /* \"myNFT.sol\":2326:2855  if(myNftTokenIds[index] !=0){... */\n    tag_189:\n        /* \"myNFT.sol\":2300:2307  index++ */\n      dup1\n      dup1\n      tag_212\n      swap1\n      tag_176\n      jump\t// in\n    tag_212:\n      swap2\n      pop\n      pop\n        /* \"myNFT.sol\":2255:2866  for (uint256 index = 0; index < totalSupply; index++) {... */\n      jump(tag_184)\n    tag_185:\n      pop\n        /* \"myNFT.sol\":2884:2896  myNftURIsArr */\n      dup1\n        /* \"myNFT.sol\":2876:2897  return (myNftURIsArr) */\n      swap4\n      pop\n      pop\n      pop\n      pop\n        /* \"myNFT.sol\":1536:2905  function getMyNftTokenId () public view returns (MyNftInfo[] memory){... */\n      swap1\n      jump\t// out\n        /* \"front/node_modules/@openzeppelin/contracts/token/ERC721/ERC721.sol\":4787:4919  function safeTransferFrom(address from, address to, uint256 tokenId) public {... */\n    tag_65:\n        /* \"front/node_modules/@openzeppelin/contracts/token/ERC721/ERC721.sol\":4873:4912  safeTransferFrom(from, to, tokenId, \"\") */\n      tag_214\n        /* \"front/node_modules/@openzeppelin/contracts/token/ERC721/ERC721.sol\":4890:4894  from */\n      dup4\n        /* \"front/node_modules/@openzeppelin/contracts/token/ERC721/ERC721.sol\":4896:4898  to */\n      dup4\n        /* \"front/node_modules/@openzeppelin/contracts/token/ERC721/ERC721.sol\":4900:4907  tokenId */\n      dup4\n        /* \"front/node_modules/@openzeppelin/contracts/token/ERC721/ERC721.sol\":4873:4912  safeTransferFrom(from, to, tokenId, \"\") */\n      mload(0x40)\n      dup1\n      0x20\n      add\n      0x40\n      mstore\n      dup1\n      0x00\n      dup2\n      mstore\n      pop\n        /* \"front/node_modules/@openzeppelin/contracts/token/ERC721/ERC721.sol\":4873:4889  safeTransferFrom */\n      tag_103\n        /* \"front/node_modules/@openzeppelin/contracts/token/ERC721/ERC721.sol\":4873:4912  safeTransferFrom(from, to, tokenId, \"\") */\n      jump\t// in\n    tag_214:\n        /* \"front/node_modules/@openzeppelin/contracts/token/ERC721/ERC721.sol\":4787:4919  function safeTransferFrom(address from, address to, uint256 tokenId) public {... */\n      pop\n      pop\n      pop\n      jump\t// out\n        /* \"myNFT.sol\":3308:3560  function NftsaleSumbit(uint256 tokenId, uint256 price) public returns(uint256[] memory){... */\n    tag_69:\n        /* \"myNFT.sol\":3378:3394  uint256[] memory */\n      0x60\n        /* \"myNFT.sol\":3430:3435  price */\n      dup2\n        /* \"myNFT.sol\":3406:3418  _tokenPrices */\n      0x08\n        /* \"myNFT.sol\":3406:3427  _tokenPrices[tokenId] */\n      0x00\n        /* \"myNFT.sol\":3419:3426  tokenId */\n      dup6\n        /* \"myNFT.sol\":3406:3427  _tokenPrices[tokenId] */\n      dup2\n      mstore\n      0x20\n      add\n      swap1\n      dup2\n      mstore\n      0x20\n      add\n      0x00\n      keccak256\n        /* \"myNFT.sol\":3406:3435  _tokenPrices[tokenId] = price */\n      dup2\n      swap1\n      sstore\n      pop\n        /* \"myNFT.sol\":3448:3463  sellingTokenIds */\n      0x09\n        /* \"myNFT.sol\":3469:3476  tokenId */\n      dup4\n        /* \"myNFT.sol\":3448:3477  sellingTokenIds.push(tokenId) */\n      swap1\n      dup1\n      0x01\n      dup2\n      sload\n      add\n      dup1\n      dup3\n      sstore\n      dup1\n      swap2\n      pop\n      pop\n      0x01\n      swap1\n      sub\n      swap1\n      0x00\n      mstore\n      keccak256(0x00, 0x20)\n      add\n      0x00\n      swap1\n      swap2\n      swap1\n      swap2\n      swap1\n      swap2\n      pop\n      sstore\n        /* \"myNFT.sol\":3542:3549  salecnt */\n      0x0a\n      0x00\n        /* \"myNFT.sol\":3542:3552  salecnt ++ */\n      dup2\n      sload\n      dup1\n      swap3\n      swap2\n      swap1\n      tag_217\n      swap1\n      tag_176\n      jump\t// in\n    tag_217:\n      swap2\n      swap1\n      pop\n      sstore\n      pop\n        /* \"myNFT.sol\":3308:3560  function NftsaleSumbit(uint256 tokenId, uint256 price) public returns(uint256[] memory){... */\n      swap3\n      swap2\n      pop\n      pop\n      jump\t// out\n        /* \"front/node_modules/@openzeppelin/contracts/token/ERC721/ERC721.sol\":2185:2303  function ownerOf(uint256 tokenId) public view virtual returns (address) {... */\n    tag_74:\n        /* \"front/node_modules/@openzeppelin/contracts/token/ERC721/ERC721.sol\":2248:2255  address */\n      0x00\n        /* \"front/node_modules/@openzeppelin/contracts/token/ERC721/ERC721.sol\":2274:2296  _requireOwned(tokenId) */\n      tag_219\n        /* \"front/node_modules/@openzeppelin/contracts/token/ERC721/ERC721.sol\":2288:2295  tokenId */\n      dup3\n        /* \"front/node_modules/@openzeppelin/contracts/token/ERC721/ERC721.sol\":2274:2287  _requireOwned */\n      tag_130\n        /* \"front/node_modules/@openzeppelin/contracts/token/ERC721/ERC721.sol\":2274:2296  _requireOwned(tokenId) */\n      jump\t// in\n    tag_219:\n        /* \"front/node_modules/@openzeppelin/contracts/token/ERC721/ERC721.sol\":2267:2296  return _requireOwned(tokenId) */\n      swap1\n      pop\n        /* \"front/node_modules/@openzeppelin/contracts/token/ERC721/ERC721.sol\":2185:2303  function ownerOf(uint256 tokenId) public view virtual returns (address) {... */\n      swap2\n      swap1\n      pop\n      jump\t// out\n        /* \"front/node_modules/@openzeppelin/contracts/token/ERC721/ERC721.sol\":1920:2128  function balanceOf(address owner) public view virtual returns (uint256) {... */\n    tag_79:\n        /* \"front/node_modules/@openzeppelin/contracts/token/ERC721/ERC721.sol\":1983:1990  uint256 */\n      0x00\n        /* \"front/node_modules/@openzeppelin/contracts/token/ERC721/ERC721.sol\":2023:2024  0 */\n      dup1\n        /* \"front/node_modules/@openzeppelin/contracts/token/ERC721/ERC721.sol\":2006:2025  owner == address(0) */\n      0xffffffffffffffffffffffffffffffffffffffff\n      and\n        /* \"front/node_modules/@openzeppelin/contracts/token/ERC721/ERC721.sol\":2006:2011  owner */\n      dup3\n        /* \"front/node_modules/@openzeppelin/contracts/token/ERC721/ERC721.sol\":2006:2025  owner == address(0) */\n      0xffffffffffffffffffffffffffffffffffffffff\n      and\n      sub\n        /* \"front/node_modules/@openzeppelin/contracts/token/ERC721/ERC721.sol\":2002:2089  if (owner == address(0)) {... */\n      tag_221\n      jumpi\n        /* \"front/node_modules/@openzeppelin/contracts/token/ERC721/ERC721.sol\":2075:2076  0 */\n      0x00\n        /* \"front/node_modules/@openzeppelin/contracts/token/ERC721/ERC721.sol\":2048:2078  ERC721InvalidOwner(address(0)) */\n      mload(0x40)\n      0x89c62b6400000000000000000000000000000000000000000000000000000000\n      dup2\n      mstore\n      0x04\n      add\n      tag_222\n      swap2\n      swap1\n      tag_42\n      jump\t// in\n    tag_222:\n      mload(0x40)\n      dup1\n      swap2\n      sub\n      swap1\n      revert\n        /* \"front/node_modules/@openzeppelin/contracts/token/ERC721/ERC721.sol\":2002:2089  if (owner == address(0)) {... */\n    tag_221:\n        /* \"front/node_modules/@openzeppelin/contracts/token/ERC721/ERC721.sol\":2105:2114  _balances */\n      0x03\n        /* \"front/node_modules/@openzeppelin/contracts/token/ERC721/ERC721.sol\":2105:2121  _balances[owner] */\n      0x00\n        /* \"front/node_modules/@openzeppelin/contracts/token/ERC721/ERC721.sol\":2115:2120  owner */\n      dup4\n        /* \"front/node_modules/@openzeppelin/contracts/token/ERC721/ERC721.sol\":2105:2121  _balances[owner] */\n      0xffffffffffffffffffffffffffffffffffffffff\n      and\n      0xffffffffffffffffffffffffffffffffffffffff\n      and\n      dup2\n      mstore\n      0x20\n      add\n      swap1\n      dup2\n      mstore\n      0x20\n      add\n      0x00\n      keccak256\n      sload\n        /* \"front/node_modules/@openzeppelin/contracts/token/ERC721/ERC721.sol\":2098:2121  return _balances[owner] */\n      swap1\n      pop\n        /* \"front/node_modules/@openzeppelin/contracts/token/ERC721/ERC721.sol\":1920:2128  function balanceOf(address owner) public view virtual returns (uint256) {... */\n      swap2\n      swap1\n      pop\n      jump\t// out\n        /* \"myNFT.sol\":890:1255  function getAllTokenURIs () public view returns(string[] memory){... */\n    tag_83:\n        /* \"myNFT.sol\":938:953  string[] memory */\n      0x60\n        /* \"myNFT.sol\":1029:1057  string[] memory totalURIsArr */\n      0x00\n        /* \"myNFT.sol\":1073:1084  totalSupply */\n      sload(0x07)\n        /* \"myNFT.sol\":1060:1085  new string[](totalSupply) */\n      0xffffffffffffffff\n      dup2\n      gt\n      iszero\n      tag_224\n      jumpi\n      tag_225\n      tag_160\n      jump\t// in\n    tag_225:\n    tag_224:\n      mload(0x40)\n      swap1\n      dup1\n      dup3\n      mstore\n      dup1\n      0x20\n      mul\n      0x20\n      add\n      dup3\n      add\n      0x40\n      mstore\n      dup1\n      iszero\n      tag_226\n      jumpi\n      dup2\n      0x20\n      add\n    tag_227:\n      0x60\n      dup2\n      mstore\n      0x20\n      add\n      swap1\n      0x01\n      swap1\n      sub\n      swap1\n      dup2\n      tag_227\n      jumpi\n      swap1\n      pop\n    tag_226:\n      pop\n        /* \"myNFT.sol\":1029:1085  string[] memory totalURIsArr = new string[](totalSupply) */\n      swap1\n      pop\n        /* \"myNFT.sol\":1103:1116  uint256 index */\n      0x00\n        /* \"myNFT.sol\":1098:1218  for (uint256 index = 0; index < totalSupply; index++) {... */\n    tag_228:\n        /* \"myNFT.sol\":1130:1141  totalSupply */\n      sload(0x07)\n        /* \"myNFT.sol\":1122:1127  index */\n      dup2\n        /* \"myNFT.sol\":1122:1141  index < totalSupply */\n      lt\n        /* \"myNFT.sol\":1098:1218  for (uint256 index = 0; index < totalSupply; index++) {... */\n      iszero\n      tag_229\n      jumpi\n        /* \"myNFT.sol\":1189:1199  _tokenURIs */\n      0x06\n        /* \"myNFT.sol\":1189:1206  _tokenURIs[index] */\n      0x00\n        /* \"myNFT.sol\":1200:1205  index */\n      dup3\n        /* \"myNFT.sol\":1189:1206  _tokenURIs[index] */\n      dup2\n      mstore\n      0x20\n      add\n      swap1\n      dup2\n      mstore\n      0x20\n      add\n      0x00\n      keccak256\n        /* \"myNFT.sol\":1167:1206  totalURIsArr[index] = _tokenURIs[index] */\n      dup1\n      sload\n      tag_231\n      swap1\n      tag_123\n      jump\t// in\n    tag_231:\n      dup1\n      0x1f\n      add\n      0x20\n      dup1\n      swap2\n      div\n      mul\n      0x20\n      add\n      mload(0x40)\n      swap1\n      dup2\n      add\n      0x40\n      mstore\n      dup1\n      swap3\n      swap2\n      swap1\n      dup2\n      dup2\n      mstore\n      0x20\n      add\n      dup3\n      dup1\n      sload\n      tag_232\n      swap1\n      tag_123\n      jump\t// in\n    tag_232:\n      dup1\n      iszero\n      tag_233\n      jumpi\n      dup1\n      0x1f\n      lt\n      tag_234\n      jumpi\n      0x0100\n      dup1\n      dup4\n      sload\n      div\n      mul\n      dup4\n      mstore\n      swap2\n      0x20\n      add\n      swap2\n      jump(tag_233)\n    tag_234:\n      dup3\n      add\n      swap2\n      swap1\n      0x00\n      mstore\n      keccak256(0x00, 0x20)\n      swap1\n    tag_235:\n      dup2\n      sload\n      dup2\n      mstore\n      swap1\n      0x01\n      add\n      swap1\n      0x20\n      add\n      dup1\n      dup4\n      gt\n      tag_235\n      jumpi\n      dup3\n      swap1\n      sub\n      0x1f\n      and\n      dup3\n      add\n      swap2\n    tag_233:\n      pop\n      pop\n      pop\n      pop\n      pop\n        /* \"myNFT.sol\":1167:1179  totalURIsArr */\n      dup3\n        /* \"myNFT.sol\":1180:1185  index */\n      dup3\n        /* \"myNFT.sol\":1167:1186  totalURIsArr[index] */\n      dup2\n      mload\n      dup2\n      lt\n      tag_236\n      jumpi\n      tag_237\n      tag_171\n      jump\t// in\n    tag_237:\n    tag_236:\n      0x20\n      mul\n      0x20\n      add\n      add\n        /* \"myNFT.sol\":1167:1206  totalURIsArr[index] = _tokenURIs[index] */\n      dup2\n      swap1\n      mstore\n      pop\n        /* \"myNFT.sol\":1143:1150  index++ */\n      dup1\n      dup1\n      tag_238\n      swap1\n      tag_176\n      jump\t// in\n    tag_238:\n      swap2\n      pop\n      pop\n        /* \"myNFT.sol\":1098:1218  for (uint256 index = 0; index < totalSupply; index++) {... */\n      jump(tag_228)\n    tag_229:\n      pop\n        /* \"myNFT.sol\":1235:1247  totalURIsArr */\n      dup1\n        /* \"myNFT.sol\":1228:1247  return totalURIsArr */\n      swap2\n      pop\n      pop\n        /* \"myNFT.sol\":890:1255  function getAllTokenURIs () public view returns(string[] memory){... */\n      swap1\n      jump\t// out\n        /* \"myNFT.sol\":3639:3969  function getSaleTokenId() public view returns(uint256[] memory){... */\n    tag_87:\n        /* \"myNFT.sol\":3685:3701  uint256[] memory */\n      0x60\n        /* \"myNFT.sol\":3723:3754  uint256[] memory sumbitTokenIds */\n      0x00\n        /* \"myNFT.sol\":3771:3778  salecnt */\n      sload(0x0a)\n        /* \"myNFT.sol\":3757:3779  new uint256[](salecnt) */\n      0xffffffffffffffff\n      dup2\n      gt\n      iszero\n      tag_240\n      jumpi\n      tag_241\n      tag_160\n      jump\t// in\n    tag_241:\n    tag_240:\n      mload(0x40)\n      swap1\n      dup1\n      dup3\n      mstore\n      dup1\n      0x20\n      mul\n      0x20\n      add\n      dup3\n      add\n      0x40\n      mstore\n      dup1\n      iszero\n      tag_242\n      jumpi\n      dup2\n      0x20\n      add\n      0x20\n      dup3\n      mul\n      dup1\n      calldatasize\n      dup4\n      calldatacopy\n      dup1\n      dup3\n      add\n      swap2\n      pop\n      pop\n      swap1\n      pop\n    tag_242:\n      pop\n        /* \"myNFT.sol\":3723:3779  uint256[] memory sumbitTokenIds = new uint256[](salecnt) */\n      swap1\n      pop\n        /* \"myNFT.sol\":3797:3810  uint256 index */\n      0x00\n        /* \"myNFT.sol\":3792:3928  for (uint256 index = 0; index < salecnt; index++) {... */\n    tag_243:\n        /* \"myNFT.sol\":3824:3831  salecnt */\n      sload(0x0a)\n        /* \"myNFT.sol\":3816:3821  index */\n      dup2\n        /* \"myNFT.sol\":3816:3831  index < salecnt */\n      lt\n        /* \"myNFT.sol\":3792:3928  for (uint256 index = 0; index < salecnt; index++) {... */\n      iszero\n      tag_244\n      jumpi\n        /* \"myNFT.sol\":3894:3909  sellingTokenIds */\n      0x09\n        /* \"myNFT.sol\":3910:3915  index */\n      dup2\n        /* \"myNFT.sol\":3894:3916  sellingTokenIds[index] */\n      dup2\n      sload\n      dup2\n      lt\n      tag_246\n      jumpi\n      tag_247\n      tag_171\n      jump\t// in\n    tag_247:\n    tag_246:\n      swap1\n      0x00\n      mstore\n      keccak256(0x00, 0x20)\n      add\n      sload\n        /* \"myNFT.sol\":3870:3884  sumbitTokenIds */\n      dup3\n        /* \"myNFT.sol\":3885:3890  index */\n      dup3\n        /* \"myNFT.sol\":3870:3891  sumbitTokenIds[index] */\n      dup2\n      mload\n      dup2\n      lt\n      tag_249\n      jumpi\n      tag_250\n      tag_171\n      jump\t// in\n    tag_250:\n    tag_249:\n      0x20\n      mul\n      0x20\n      add\n      add\n        /* \"myNFT.sol\":3870:3916  sumbitTokenIds[index] = sellingTokenIds[index] */\n      dup2\n      dup2\n      mstore\n      pop\n      pop\n        /* \"myNFT.sol\":3833:3840  index++ */\n      dup1\n      dup1\n      tag_251\n      swap1\n      tag_176\n      jump\t// in\n    tag_251:\n      swap2\n      pop\n      pop\n        /* \"myNFT.sol\":3792:3928  for (uint256 index = 0; index < salecnt; index++) {... */\n      jump(tag_243)\n    tag_244:\n      pop\n        /* \"myNFT.sol\":3945:3959  sumbitTokenIds */\n      dup1\n        /* \"myNFT.sol\":3938:3959  return sumbitTokenIds */\n      swap2\n      pop\n      pop\n        /* \"myNFT.sol\":3639:3969  function getSaleTokenId() public view returns(uint256[] memory){... */\n      swap1\n      jump\t// out\n        /* \"front/node_modules/@openzeppelin/contracts/token/ERC721/ERC721.sol\":2518:2611  function symbol() public view virtual returns (string memory) {... */\n    tag_90:\n        /* \"front/node_modules/@openzeppelin/contracts/token/ERC721/ERC721.sol\":2565:2578  string memory */\n      0x60\n        /* \"front/node_modules/@openzeppelin/contracts/token/ERC721/ERC721.sol\":2597:2604  _symbol */\n      0x01\n        /* \"front/node_modules/@openzeppelin/contracts/token/ERC721/ERC721.sol\":2590:2604  return _symbol */\n      dup1\n      sload\n      tag_253\n      swap1\n      tag_123\n      jump\t// in\n    tag_253:\n      dup1\n      0x1f\n      add\n      0x20\n      dup1\n      swap2\n      div\n      mul\n      0x20\n      add\n      mload(0x40)\n      swap1\n      dup2\n      add\n      0x40\n      mstore\n      dup1\n      swap3\n      swap2\n      swap1\n      dup2\n      dup2\n      mstore\n      0x20\n      add\n      dup3\n      dup1\n      sload\n      tag_254\n      swap1\n      tag_123\n      jump\t// in\n    tag_254:\n      dup1\n      iszero\n      tag_255\n      jumpi\n      dup1\n      0x1f\n      lt\n      tag_256\n      jumpi\n      0x0100\n      dup1\n      dup4\n      sload\n      div\n      mul\n      dup4\n      mstore\n      swap2\n      0x20\n      add\n      swap2\n      jump(tag_255)\n    tag_256:\n      dup3\n      add\n      swap2\n      swap1\n      0x00\n      mstore\n      keccak256(0x00, 0x20)\n      swap1\n    tag_257:\n      dup2\n      sload\n      dup2\n      mstore\n      swap1\n      0x01\n      add\n      swap1\n      0x20\n      add\n      dup1\n      dup4\n      gt\n      tag_257\n      jumpi\n      dup3\n      swap1\n      sub\n      0x1f\n      and\n      dup3\n      add\n      swap2\n    tag_255:\n      pop\n      pop\n      pop\n      pop\n      pop\n      swap1\n      pop\n        /* \"front/node_modules/@openzeppelin/contracts/token/ERC721/ERC721.sol\":2518:2611  function symbol() public view virtual returns (string memory) {... */\n      swap1\n      jump\t// out\n        /* \"myNFT.sol\":4032:4631  function getPrice() public view returns(uint256[] memory, uint256[] memory){... */\n    tag_93:\n        /* \"myNFT.sol\":4072:4088  uint256[] memory */\n      0x60\n        /* \"myNFT.sol\":4090:4106  uint256[] memory */\n      dup1\n        /* \"myNFT.sol\":4120:4151  uint256[] memory sumbitTokenIds */\n      0x00\n        /* \"myNFT.sol\":4168:4175  salecnt */\n      sload(0x0a)\n        /* \"myNFT.sol\":4154:4176  new uint256[](salecnt) */\n      0xffffffffffffffff\n      dup2\n      gt\n      iszero\n      tag_259\n      jumpi\n      tag_260\n      tag_160\n      jump\t// in\n    tag_260:\n    tag_259:\n      mload(0x40)\n      swap1\n      dup1\n      dup3\n      mstore\n      dup1\n      0x20\n      mul\n      0x20\n      add\n      dup3\n      add\n      0x40\n      mstore\n      dup1\n      iszero\n      tag_261\n      jumpi\n      dup2\n      0x20\n      add\n      0x20\n      dup3\n      mul\n      dup1\n      calldatasize\n      dup4\n      calldatacopy\n      dup1\n      dup3\n      add\n      swap2\n      pop\n      pop\n      swap1\n      pop\n    tag_261:\n      pop\n        /* \"myNFT.sol\":4120:4176  uint256[] memory sumbitTokenIds = new uint256[](salecnt) */\n      swap1\n      pop\n        /* \"myNFT.sol\":4194:4207  uint256 index */\n      0x00\n        /* \"myNFT.sol\":4189:4325  for (uint256 index = 0; index < salecnt; index++) {... */\n    tag_262:\n        /* \"myNFT.sol\":4221:4228  salecnt */\n      sload(0x0a)\n        /* \"myNFT.sol\":4213:4218  index */\n      dup2\n        /* \"myNFT.sol\":4213:4228  index < salecnt */\n      lt\n        /* \"myNFT.sol\":4189:4325  for (uint256 index = 0; index < salecnt; index++) {... */\n      iszero\n      tag_263\n      jumpi\n        /* \"myNFT.sol\":4291:4306  sellingTokenIds */\n      0x09\n        /* \"myNFT.sol\":4307:4312  index */\n      dup2\n        /* \"myNFT.sol\":4291:4313  sellingTokenIds[index] */\n      dup2\n      sload\n      dup2\n      lt\n      tag_265\n      jumpi\n      tag_266\n      tag_171\n      jump\t// in\n    tag_266:\n    tag_265:\n      swap1\n      0x00\n      mstore\n      keccak256(0x00, 0x20)\n      add\n      sload\n        /* \"myNFT.sol\":4267:4281  sumbitTokenIds */\n      dup3\n        /* \"myNFT.sol\":4282:4287  index */\n      dup3\n        /* \"myNFT.sol\":4267:4288  sumbitTokenIds[index] */\n      dup2\n      mload\n      dup2\n      lt\n      tag_268\n      jumpi\n      tag_269\n      tag_171\n      jump\t// in\n    tag_269:\n    tag_268:\n      0x20\n      mul\n      0x20\n      add\n      add\n        /* \"myNFT.sol\":4267:4313  sumbitTokenIds[index] = sellingTokenIds[index] */\n      dup2\n      dup2\n      mstore\n      pop\n      pop\n        /* \"myNFT.sol\":4230:4237  index++ */\n      dup1\n      dup1\n      tag_270\n      swap1\n      tag_176\n      jump\t// in\n    tag_270:\n      swap2\n      pop\n      pop\n        /* \"myNFT.sol\":4189:4325  for (uint256 index = 0; index < salecnt; index++) {... */\n      jump(tag_262)\n    tag_263:\n      pop\n        /* \"myNFT.sol\":4372:4402  uint256[] memory sellingPrices */\n      0x00\n        /* \"myNFT.sol\":4419:4426  salecnt */\n      sload(0x0a)\n        /* \"myNFT.sol\":4405:4427  new uint256[](salecnt) */\n      0xffffffffffffffff\n      dup2\n      gt\n      iszero\n      tag_271\n      jumpi\n      tag_272\n      tag_160\n      jump\t// in\n    tag_272:\n    tag_271:\n      mload(0x40)\n      swap1\n      dup1\n      dup3\n      mstore\n      dup1\n      0x20\n      mul\n      0x20\n      add\n      dup3\n      add\n      0x40\n      mstore\n      dup1\n      iszero\n      tag_273\n      jumpi\n      dup2\n      0x20\n      add\n      0x20\n      dup3\n      mul\n      dup1\n      calldatasize\n      dup4\n      calldatacopy\n      dup1\n      dup3\n      add\n      swap2\n      pop\n      pop\n      swap1\n      pop\n    tag_273:\n      pop\n        /* \"myNFT.sol\":4372:4427  uint256[] memory sellingPrices = new uint256[](salecnt) */\n      swap1\n      pop\n        /* \"myNFT.sol\":4445:4458  uint256 index */\n      0x00\n        /* \"myNFT.sol\":4440:4576  for (uint256 index = 0; index < salecnt; index++) {... */\n    tag_274:\n        /* \"myNFT.sol\":4472:4479  salecnt */\n      sload(0x0a)\n        /* \"myNFT.sol\":4464:4469  index */\n      dup2\n        /* \"myNFT.sol\":4464:4479  index < salecnt */\n      lt\n        /* \"myNFT.sol\":4440:4576  for (uint256 index = 0; index < salecnt; index++) {... */\n      iszero\n      tag_275\n      jumpi\n        /* \"myNFT.sol\":4528:4540  _tokenPrices */\n      0x08\n        /* \"myNFT.sol\":4528:4564  _tokenPrices[sellingTokenIds[index]] */\n      0x00\n        /* \"myNFT.sol\":4541:4556  sellingTokenIds */\n      0x09\n        /* \"myNFT.sol\":4557:4562  index */\n      dup4\n        /* \"myNFT.sol\":4541:4563  sellingTokenIds[index] */\n      dup2\n      sload\n      dup2\n      lt\n      tag_277\n      jumpi\n      tag_278\n      tag_171\n      jump\t// in\n    tag_278:\n    tag_277:\n      swap1\n      0x00\n      mstore\n      keccak256(0x00, 0x20)\n      add\n      sload\n        /* \"myNFT.sol\":4528:4564  _tokenPrices[sellingTokenIds[index]] */\n      dup2\n      mstore\n      0x20\n      add\n      swap1\n      dup2\n      mstore\n      0x20\n      add\n      0x00\n      keccak256\n      sload\n        /* \"myNFT.sol\":4505:4518  sellingPrices */\n      dup3\n        /* \"myNFT.sol\":4519:4524  index */\n      dup3\n        /* \"myNFT.sol\":4505:4525  sellingPrices[index] */\n      dup2\n      mload\n      dup2\n      lt\n      tag_280\n      jumpi\n      tag_281\n      tag_171\n      jump\t// in\n    tag_281:\n    tag_280:\n      0x20\n      mul\n      0x20\n      add\n      add\n        /* \"myNFT.sol\":4505:4564  sellingPrices[index] = _tokenPrices[sellingTokenIds[index]] */\n      dup2\n      dup2\n      mstore\n      pop\n      pop\n        /* \"myNFT.sol\":4481:4488  index++ */\n      dup1\n      dup1\n      tag_282\n      swap1\n      tag_176\n      jump\t// in\n    tag_282:\n      swap2\n      pop\n      pop\n        /* \"myNFT.sol\":4440:4576  for (uint256 index = 0; index < salecnt; index++) {... */\n      jump(tag_274)\n    tag_275:\n      pop\n        /* \"myNFT.sol\":4594:4607  sellingPrices */\n      dup1\n        /* \"myNFT.sol\":4608:4622  sumbitTokenIds */\n      dup3\n        /* \"myNFT.sol\":4586:4623  return (sellingPrices,sumbitTokenIds) */\n      swap4\n      pop\n      swap4\n      pop\n      pop\n      pop\n        /* \"myNFT.sol\":4032:4631  function getPrice() public view returns(uint256[] memory, uint256[] memory){... */\n      swap1\n      swap2\n      jump\t// out\n        /* \"front/node_modules/@openzeppelin/contracts/token/ERC721/ERC721.sol\":3718:3862  function setApprovalForAll(address operator, bool approved) public virtual {... */\n    tag_99:\n        /* \"front/node_modules/@openzeppelin/contracts/token/ERC721/ERC721.sol\":3803:3855  _setApprovalForAll(_msgSender(), operator, approved) */\n      tag_284\n        /* \"front/node_modules/@openzeppelin/contracts/token/ERC721/ERC721.sol\":3822:3834  _msgSender() */\n      tag_285\n        /* \"front/node_modules/@openzeppelin/contracts/token/ERC721/ERC721.sol\":3822:3832  _msgSender */\n      tag_136\n        /* \"front/node_modules/@openzeppelin/contracts/token/ERC721/ERC721.sol\":3822:3834  _msgSender() */\n      jump\t// in\n    tag_285:\n        /* \"front/node_modules/@openzeppelin/contracts/token/ERC721/ERC721.sol\":3836:3844  operator */\n      dup4\n        /* \"front/node_modules/@openzeppelin/contracts/token/ERC721/ERC721.sol\":3846:3854  approved */\n      dup4\n        /* \"front/node_modules/@openzeppelin/contracts/token/ERC721/ERC721.sol\":3803:3821  _setApprovalForAll */\n      tag_156\n        /* \"front/node_modules/@openzeppelin/contracts/token/ERC721/ERC721.sol\":3803:3855  _setApprovalForAll(_msgSender(), operator, approved) */\n      jump\t// in\n    tag_284:\n        /* \"front/node_modules/@openzeppelin/contracts/token/ERC721/ERC721.sol\":3718:3862  function setApprovalForAll(address operator, bool approved) public virtual {... */\n      pop\n      pop\n      jump\t// out\n        /* \"front/node_modules/@openzeppelin/contracts/token/ERC721/ERC721.sol\":4985:5193  function safeTransferFrom(address from, address to, uint256 tokenId, bytes memory data) public virtual {... */\n    tag_103:\n        /* \"front/node_modules/@openzeppelin/contracts/token/ERC721/ERC721.sol\":5098:5129  transferFrom(from, to, tokenId) */\n      tag_287\n        /* \"front/node_modules/@openzeppelin/contracts/token/ERC721/ERC721.sol\":5111:5115  from */\n      dup5\n        /* \"front/node_modules/@openzeppelin/contracts/token/ERC721/ERC721.sol\":5117:5119  to */\n      dup5\n        /* \"front/node_modules/@openzeppelin/contracts/token/ERC721/ERC721.sol\":5121:5128  tokenId */\n      dup5\n        /* \"front/node_modules/@openzeppelin/contracts/token/ERC721/ERC721.sol\":5098:5110  transferFrom */\n      tag_54\n        /* \"front/node_modules/@openzeppelin/contracts/token/ERC721/ERC721.sol\":5098:5129  transferFrom(from, to, tokenId) */\n      jump\t// in\n    tag_287:\n        /* \"front/node_modules/@openzeppelin/contracts/token/ERC721/ERC721.sol\":5139:5186  _checkOnERC721Received(from, to, tokenId, data) */\n      tag_288\n        /* \"front/node_modules/@openzeppelin/contracts/token/ERC721/ERC721.sol\":5162:5166  from */\n      dup5\n        /* \"front/node_modules/@openzeppelin/contracts/token/ERC721/ERC721.sol\":5168:5170  to */\n      dup5\n        /* \"front/node_modules/@openzeppelin/contracts/token/ERC721/ERC721.sol\":5172:5179  tokenId */\n      dup5\n        /* \"front/node_modules/@openzeppelin/contracts/token/ERC721/ERC721.sol\":5181:5185  data */\n      dup5\n        /* \"front/node_modules/@openzeppelin/contracts/token/ERC721/ERC721.sol\":5139:5161  _checkOnERC721Received */\n      tag_289\n        /* \"front/node_modules/@openzeppelin/contracts/token/ERC721/ERC721.sol\":5139:5186  _checkOnERC721Received(from, to, tokenId, data) */\n      jump\t// in\n    tag_288:\n        /* \"front/node_modules/@openzeppelin/contracts/token/ERC721/ERC721.sol\":4985:5193  function safeTransferFrom(address from, address to, uint256 tokenId, bytes memory data) public virtual {... */\n      pop\n      pop\n      pop\n      pop\n      jump\t// out\n        /* \"myNFT.sol\":1302:1396  function getTotalSupply () public view returns(uint256){... */\n    tag_105:\n        /* \"myNFT.sol\":1349:1356  uint256 */\n      0x00\n        /* \"myNFT.sol\":1377:1388  totalSupply */\n      sload(0x07)\n        /* \"myNFT.sol\":1370:1388  return totalSupply */\n      swap1\n      pop\n        /* \"myNFT.sol\":1302:1396  function getTotalSupply () public view returns(uint256){... */\n      swap1\n      jump\t// out\n        /* \"myNFT.sol\":529:724  function tokenURI(uint256 _tokenId) public view override returns (string memory){... */\n    tag_109:\n        /* \"myNFT.sol\":595:608  string memory */\n      0x60\n        /* \"myNFT.sol\":696:706  _tokenURIs */\n      0x06\n        /* \"myNFT.sol\":696:716  _tokenURIs[_tokenId] */\n      0x00\n        /* \"myNFT.sol\":707:715  _tokenId */\n      dup4\n        /* \"myNFT.sol\":696:716  _tokenURIs[_tokenId] */\n      dup2\n      mstore\n      0x20\n      add\n      swap1\n      dup2\n      mstore\n      0x20\n      add\n      0x00\n      keccak256\n        /* \"myNFT.sol\":689:716  return _tokenURIs[_tokenId] */\n      dup1\n      sload\n      tag_292\n      swap1\n      tag_123\n      jump\t// in\n    tag_292:\n      dup1\n      0x1f\n      add\n      0x20\n      dup1\n      swap2\n      div\n      mul\n      0x20\n      add\n      mload(0x40)\n      swap1\n      dup2\n      add\n      0x40\n      mstore\n      dup1\n      swap3\n      swap2\n      swap1\n      dup2\n      dup2\n      mstore\n      0x20\n      add\n      dup3\n      dup1\n      sload\n      tag_293\n      swap1\n      tag_123\n      jump\t// in\n    tag_293:\n      dup1\n      iszero\n      tag_294\n      jumpi\n      dup1\n      0x1f\n      lt\n      tag_295\n      jumpi\n      0x0100\n      dup1\n      dup4\n      sload\n      div\n      mul\n      dup4\n      mstore\n      swap2\n      0x20\n      add\n      swap2\n      jump(tag_294)\n    tag_295:\n      dup3\n      add\n      swap2\n      swap1\n      0x00\n      mstore\n      keccak256(0x00, 0x20)\n      swap1\n    tag_296:\n      dup2\n      sload\n      dup2\n      mstore\n      swap1\n      0x01\n      add\n      swap1\n      0x20\n      add\n      dup1\n      dup4\n      gt\n      tag_296\n      jumpi\n      dup3\n      swap1\n      sub\n      0x1f\n      and\n      dup3\n      add\n      swap2\n    tag_294:\n      pop\n      pop\n      pop\n      pop\n      pop\n      swap1\n      pop\n        /* \"myNFT.sol\":529:724  function tokenURI(uint256 _tokenId) public view override returns (string memory){... */\n      swap2\n      swap1\n      pop\n      jump\t// out\n        /* \"front/node_modules/@openzeppelin/contracts/token/ERC721/ERC721.sol\":3928:4081  function isApprovedForAll(address owner, address operator) public view virtual returns (bool) {... */\n    tag_114:\n        /* \"front/node_modules/@openzeppelin/contracts/token/ERC721/ERC721.sol\":4016:4020  bool */\n      0x00\n        /* \"front/node_modules/@openzeppelin/contracts/token/ERC721/ERC721.sol\":4039:4057  _operatorApprovals */\n      0x05\n        /* \"front/node_modules/@openzeppelin/contracts/token/ERC721/ERC721.sol\":4039:4064  _operatorApprovals[owner] */\n      0x00\n        /* \"front/node_modules/@openzeppelin/contracts/token/ERC721/ERC721.sol\":4058:4063  owner */\n      dup5\n        /* \"front/node_modules/@openzeppelin/contracts/token/ERC721/ERC721.sol\":4039:4064  _operatorApprovals[owner] */\n      0xffffffffffffffffffffffffffffffffffffffff\n      and\n      0xffffffffffffffffffffffffffffffffffffffff\n      and\n      dup2\n      mstore\n      0x20\n      add\n      swap1\n      dup2\n      mstore\n      0x20\n      add\n      0x00\n      keccak256\n        /* \"front/node_modules/@openzeppelin/contracts/token/ERC721/ERC721.sol\":4039:4074  _operatorApprovals[owner][operator] */\n      0x00\n        /* \"front/node_modules/@openzeppelin/contracts/token/ERC721/ERC721.sol\":4065:4073  operator */\n      dup4\n        /* \"front/node_modules/@openzeppelin/contracts/token/ERC721/ERC721.sol\":4039:4074  _operatorApprovals[owner][operator] */\n      0xffffffffffffffffffffffffffffffffffffffff\n      and\n      0xffffffffffffffffffffffffffffffffffffffff\n      and\n      dup2\n      mstore\n      0x20\n      add\n      swap1\n      dup2\n      mstore\n      0x20\n      add\n      0x00\n      keccak256\n      0x00\n      swap1\n      sload\n      swap1\n      0x0100\n      exp\n      swap1\n      div\n      0xff\n      and\n        /* \"front/node_modules/@openzeppelin/contracts/token/ERC721/ERC721.sol\":4032:4074  return _operatorApprovals[owner][operator] */\n      swap1\n      pop\n        /* \"front/node_modules/@openzeppelin/contracts/token/ERC721/ERC721.sol\":3928:4081  function isApprovedForAll(address owner, address operator) public view virtual returns (bool) {... */\n      swap3\n      swap2\n      pop\n      pop\n      jump\t// out\n        /* \"front/node_modules/@openzeppelin/contracts/utils/introspection/ERC165.sol\":762:908  function supportsInterface(bytes4 interfaceId) public view virtual returns (bool) {... */\n    tag_120:\n        /* \"front/node_modules/@openzeppelin/contracts/utils/introspection/ERC165.sol\":838:842  bool */\n      0x00\n        /* \"front/node_modules/@openzeppelin/contracts/utils/introspection/ERC165.sol\":876:901  type(IERC165).interfaceId */\n      0x01ffc9a700000000000000000000000000000000000000000000000000000000\n        /* \"front/node_modules/@openzeppelin/contracts/utils/introspection/ERC165.sol\":861:901  interfaceId == type(IERC165).interfaceId */\n      not(0xffffffffffffffffffffffffffffffffffffffffffffffffffffffff)\n      and\n        /* \"front/node_modules/@openzeppelin/contracts/utils/introspection/ERC165.sol\":861:872  interfaceId */\n      dup3\n        /* \"front/node_modules/@openzeppelin/contracts/utils/introspection/ERC165.sol\":861:901  interfaceId == type(IERC165).interfaceId */\n      not(0xffffffffffffffffffffffffffffffffffffffffffffffffffffffff)\n      and\n      eq\n        /* \"front/node_modules/@openzeppelin/contracts/utils/introspection/ERC165.sol\":854:901  return interfaceId == type(IERC165).interfaceId */\n      swap1\n      pop\n        /* \"front/node_modules/@openzeppelin/contracts/utils/introspection/ERC165.sol\":762:908  function supportsInterface(bytes4 interfaceId) public view virtual returns (bool) {... */\n      swap2\n      swap1\n      pop\n      jump\t// out\n        /* \"front/node_modules/@openzeppelin/contracts/token/ERC721/ERC721.sol\":16138:16379  function _requireOwned(uint256 tokenId) internal view returns (address) {... */\n    tag_130:\n        /* \"front/node_modules/@openzeppelin/contracts/token/ERC721/ERC721.sol\":16201:16208  address */\n      0x00\n        /* \"front/node_modules/@openzeppelin/contracts/token/ERC721/ERC721.sol\":16220:16233  address owner */\n      dup1\n        /* \"front/node_modules/@openzeppelin/contracts/token/ERC721/ERC721.sol\":16236:16253  _ownerOf(tokenId) */\n      tag_300\n        /* \"front/node_modules/@openzeppelin/contracts/token/ERC721/ERC721.sol\":16245:16252  tokenId */\n      dup4\n        /* \"front/node_modules/@openzeppelin/contracts/token/ERC721/ERC721.sol\":16236:16244  _ownerOf */\n      tag_166\n        /* \"front/node_modules/@openzeppelin/contracts/token/ERC721/ERC721.sol\":16236:16253  _ownerOf(tokenId) */\n      jump\t// in\n    tag_300:\n        /* \"front/node_modules/@openzeppelin/contracts/token/ERC721/ERC721.sol\":16220:16253  address owner = _ownerOf(tokenId) */\n      swap1\n      pop\n        /* \"front/node_modules/@openzeppelin/contracts/token/ERC721/ERC721.sol\":16284:16285  0 */\n      0x00\n        /* \"front/node_modules/@openzeppelin/contracts/token/ERC721/ERC721.sol\":16267:16286  owner == address(0) */\n      0xffffffffffffffffffffffffffffffffffffffff\n      and\n        /* \"front/node_modules/@openzeppelin/contracts/token/ERC721/ERC721.sol\":16267:16272  owner */\n      dup2\n        /* \"front/node_modules/@openzeppelin/contracts/token/ERC721/ERC721.sol\":16267:16286  owner == address(0) */\n      0xffffffffffffffffffffffffffffffffffffffff\n      and\n      sub\n        /* \"front/node_modules/@openzeppelin/contracts/token/ERC721/ERC721.sol\":16263:16351  if (owner == address(0)) {... */\n      tag_301\n      jumpi\n        /* \"front/node_modules/@openzeppelin/contracts/token/ERC721/ERC721.sol\":16332:16339  tokenId */\n      dup3\n        /* \"front/node_modules/@openzeppelin/contracts/token/ERC721/ERC721.sol\":16309:16340  ERC721NonexistentToken(tokenId) */\n      mload(0x40)\n      0x7e27328900000000000000000000000000000000000000000000000000000000\n      dup2\n      mstore\n      0x04\n      add\n      tag_302\n      swap2\n      swap1\n      tag_81\n      jump\t// in\n    tag_302:\n      mload(0x40)\n      dup1\n      swap2\n      sub\n      swap1\n      revert\n        /* \"front/node_modules/@openzeppelin/contracts/token/ERC721/ERC721.sol\":16263:16351  if (owner == address(0)) {... */\n    tag_301:\n        /* \"front/node_modules/@openzeppelin/contracts/token/ERC721/ERC721.sol\":16367:16372  owner */\n      dup1\n        /* \"front/node_modules/@openzeppelin/contracts/token/ERC721/ERC721.sol\":16360:16372  return owner */\n      swap2\n      pop\n      pop\n        /* \"front/node_modules/@openzeppelin/contracts/token/ERC721/ERC721.sol\":16138:16379  function _requireOwned(uint256 tokenId) internal view returns (address) {... */\n      swap2\n      swap1\n      pop\n      jump\t// out\n        /* \"front/node_modules/@openzeppelin/contracts/token/ERC721/ERC721.sol\":5938:6065  function _getApproved(uint256 tokenId) internal view virtual returns (address) {... */\n    tag_132:\n        /* \"front/node_modules/@openzeppelin/contracts/token/ERC721/ERC721.sol\":6008:6015  address */\n      0x00\n        /* \"front/node_modules/@openzeppelin/contracts/token/ERC721/ERC721.sol\":6034:6049  _tokenApprovals */\n      0x04\n        /* \"front/node_modules/@openzeppelin/contracts/token/ERC721/ERC721.sol\":6034:6058  _tokenApprovals[tokenId] */\n      0x00\n        /* \"front/node_modules/@openzeppelin/contracts/token/ERC721/ERC721.sol\":6050:6057  tokenId */\n      dup4\n        /* \"front/node_modules/@openzeppelin/contracts/token/ERC721/ERC721.sol\":6034:6058  _tokenApprovals[tokenId] */\n      dup2\n      mstore\n      0x20\n      add\n      swap1\n      dup2\n      mstore\n      0x20\n      add\n      0x00\n      keccak256\n      0x00\n      swap1\n      sload\n      swap1\n      0x0100\n      exp\n      swap1\n      div\n      0xffffffffffffffffffffffffffffffffffffffff\n      and\n        /* \"front/node_modules/@openzeppelin/contracts/token/ERC721/ERC721.sol\":6027:6058  return _tokenApprovals[tokenId] */\n      swap1\n      pop\n        /* \"front/node_modules/@openzeppelin/contracts/token/ERC721/ERC721.sol\":5938:6065  function _getApproved(uint256 tokenId) internal view virtual returns (address) {... */\n      swap2\n      swap1\n      pop\n      jump\t// out\n        /* \"front/node_modules/@openzeppelin/contracts/utils/Context.sol\":656:752  function _msgSender() internal view virtual returns (address) {... */\n    tag_136:\n        /* \"front/node_modules/@openzeppelin/contracts/utils/Context.sol\":709:716  address */\n      0x00\n        /* \"front/node_modules/@openzeppelin/contracts/utils/Context.sol\":735:745  msg.sender */\n      caller\n        /* \"front/node_modules/@openzeppelin/contracts/utils/Context.sol\":728:745  return msg.sender */\n      swap1\n      pop\n        /* \"front/node_modules/@openzeppelin/contracts/utils/Context.sol\":656:752  function _msgSender() internal view virtual returns (address) {... */\n      swap1\n      jump\t// out\n        /* \"front/node_modules/@openzeppelin/contracts/token/ERC721/ERC721.sol\":14418:14538  function _approve(address to, uint256 tokenId, address auth) internal {... */\n    tag_137:\n        /* \"front/node_modules/@openzeppelin/contracts/token/ERC721/ERC721.sol\":14498:14531  _approve(to, tokenId, auth, true) */\n      tag_306\n        /* \"front/node_modules/@openzeppelin/contracts/token/ERC721/ERC721.sol\":14507:14509  to */\n      dup4\n        /* \"front/node_modules/@openzeppelin/contracts/token/ERC721/ERC721.sol\":14511:14518  tokenId */\n      dup4\n        /* \"front/node_modules/@openzeppelin/contracts/token/ERC721/ERC721.sol\":14520:14524  auth */\n      dup4\n        /* \"front/node_modules/@openzeppelin/contracts/token/ERC721/ERC721.sol\":14526:14530  true */\n      0x01\n        /* \"front/node_modules/@openzeppelin/contracts/token/ERC721/ERC721.sol\":14498:14506  _approve */\n      tag_307\n        /* \"front/node_modules/@openzeppelin/contracts/token/ERC721/ERC721.sol\":14498:14531  _approve(to, tokenId, auth, true) */\n      jump\t// in\n    tag_306:\n        /* \"front/node_modules/@openzeppelin/contracts/token/ERC721/ERC721.sol\":14418:14538  function _approve(address to, uint256 tokenId, address auth) internal {... */\n      pop\n      pop\n      pop\n      jump\t// out\n        /* \"front/node_modules/@openzeppelin/contracts/token/ERC721/ERC721.sol\":9955:10282  function _mint(address to, uint256 tokenId) internal {... */\n    tag_142:\n        /* \"front/node_modules/@openzeppelin/contracts/token/ERC721/ERC721.sol\":10036:10037  0 */\n      0x00\n        /* \"front/node_modules/@openzeppelin/contracts/token/ERC721/ERC721.sol\":10022:10038  to == address(0) */\n      0xffffffffffffffffffffffffffffffffffffffff\n      and\n        /* \"front/node_modules/@openzeppelin/contracts/token/ERC721/ERC721.sol\":10022:10024  to */\n      dup3\n        /* \"front/node_modules/@openzeppelin/contracts/token/ERC721/ERC721.sol\":10022:10038  to == address(0) */\n      0xffffffffffffffffffffffffffffffffffffffff\n      and\n      sub\n        /* \"front/node_modules/@openzeppelin/contracts/token/ERC721/ERC721.sol\":10018:10105  if (to == address(0)) {... */\n      tag_309\n      jumpi\n        /* \"front/node_modules/@openzeppelin/contracts/token/ERC721/ERC721.sol\":10091:10092  0 */\n      0x00\n        /* \"front/node_modules/@openzeppelin/contracts/token/ERC721/ERC721.sol\":10061:10094  ERC721InvalidReceiver(address(0)) */\n      mload(0x40)\n      0x64a0ae9200000000000000000000000000000000000000000000000000000000\n      dup2\n      mstore\n      0x04\n      add\n      tag_310\n      swap2\n      swap1\n      tag_42\n      jump\t// in\n    tag_310:\n      mload(0x40)\n      dup1\n      swap2\n      sub\n      swap1\n      revert\n        /* \"front/node_modules/@openzeppelin/contracts/token/ERC721/ERC721.sol\":10018:10105  if (to == address(0)) {... */\n    tag_309:\n        /* \"front/node_modules/@openzeppelin/contracts/token/ERC721/ERC721.sol\":10114:10135  address previousOwner */\n      0x00\n        /* \"front/node_modules/@openzeppelin/contracts/token/ERC721/ERC721.sol\":10138:10170  _update(to, tokenId, address(0)) */\n      tag_311\n        /* \"front/node_modules/@openzeppelin/contracts/token/ERC721/ERC721.sol\":10146:10148  to */\n      dup4\n        /* \"front/node_modules/@openzeppelin/contracts/token/ERC721/ERC721.sol\":10150:10157  tokenId */\n      dup4\n        /* \"front/node_modules/@openzeppelin/contracts/token/ERC721/ERC721.sol\":10167:10168  0 */\n      0x00\n        /* \"front/node_modules/@openzeppelin/contracts/token/ERC721/ERC721.sol\":10138:10145  _update */\n      tag_150\n        /* \"front/node_modules/@openzeppelin/contracts/token/ERC721/ERC721.sol\":10138:10170  _update(to, tokenId, address(0)) */\n      jump\t// in\n    tag_311:\n        /* \"front/node_modules/@openzeppelin/contracts/token/ERC721/ERC721.sol\":10114:10170  address previousOwner = _update(to, tokenId, address(0)) */\n      swap1\n      pop\n        /* \"front/node_modules/@openzeppelin/contracts/token/ERC721/ERC721.sol\":10209:10210  0 */\n      0x00\n        /* \"front/node_modules/@openzeppelin/contracts/token/ERC721/ERC721.sol\":10184:10211  previousOwner != address(0) */\n      0xffffffffffffffffffffffffffffffffffffffff\n      and\n        /* \"front/node_modules/@openzeppelin/contracts/token/ERC721/ERC721.sol\":10184:10197  previousOwner */\n      dup2\n        /* \"front/node_modules/@openzeppelin/contracts/token/ERC721/ERC721.sol\":10184:10211  previousOwner != address(0) */\n      0xffffffffffffffffffffffffffffffffffffffff\n      and\n      eq\n        /* \"front/node_modules/@openzeppelin/contracts/token/ERC721/ERC721.sol\":10180:10276  if (previousOwner != address(0)) {... */\n      tag_312\n      jumpi\n        /* \"front/node_modules/@openzeppelin/contracts/token/ERC721/ERC721.sol\":10262:10263  0 */\n      0x00\n        /* \"front/node_modules/@openzeppelin/contracts/token/ERC721/ERC721.sol\":10234:10265  ERC721InvalidSender(address(0)) */\n      mload(0x40)\n      0x73c6ac6e00000000000000000000000000000000000000000000000000000000\n      dup2\n      mstore\n      0x04\n      add\n      tag_313\n      swap2\n      swap1\n      tag_42\n      jump\t// in\n    tag_313:\n      mload(0x40)\n      dup1\n      swap2\n      sub\n      swap1\n      revert\n        /* \"front/node_modules/@openzeppelin/contracts/token/ERC721/ERC721.sol\":10180:10276  if (previousOwner != address(0)) {... */\n    tag_312:\n        /* \"front/node_modules/@openzeppelin/contracts/token/ERC721/ERC721.sol\":10008:10282  {... */\n      pop\n        /* \"front/node_modules/@openzeppelin/contracts/token/ERC721/ERC721.sol\":9955:10282  function _mint(address to, uint256 tokenId) internal {... */\n      pop\n      pop\n      jump\t// out\n        /* \"front/node_modules/@openzeppelin/contracts/token/ERC721/ERC721.sol\":8838:9633  function _update(address to, uint256 tokenId, address auth) internal virtual returns (address) {... */\n    tag_150:\n        /* \"front/node_modules/@openzeppelin/contracts/token/ERC721/ERC721.sol\":8924:8931  address */\n      0x00\n        /* \"front/node_modules/@openzeppelin/contracts/token/ERC721/ERC721.sol\":8943:8955  address from */\n      dup1\n        /* \"front/node_modules/@openzeppelin/contracts/token/ERC721/ERC721.sol\":8958:8975  _ownerOf(tokenId) */\n      tag_315\n        /* \"front/node_modules/@openzeppelin/contracts/token/ERC721/ERC721.sol\":8967:8974  tokenId */\n      dup5\n        /* \"front/node_modules/@openzeppelin/contracts/token/ERC721/ERC721.sol\":8958:8966  _ownerOf */\n      tag_166\n        /* \"front/node_modules/@openzeppelin/contracts/token/ERC721/ERC721.sol\":8958:8975  _ownerOf(tokenId) */\n      jump\t// in\n    tag_315:\n        /* \"front/node_modules/@openzeppelin/contracts/token/ERC721/ERC721.sol\":8943:8975  address from = _ownerOf(tokenId) */\n      swap1\n      pop\n        /* \"front/node_modules/@openzeppelin/contracts/token/ERC721/ERC721.sol\":9051:9052  0 */\n      0x00\n        /* \"front/node_modules/@openzeppelin/contracts/token/ERC721/ERC721.sol\":9035:9053  auth != address(0) */\n      0xffffffffffffffffffffffffffffffffffffffff\n      and\n        /* \"front/node_modules/@openzeppelin/contracts/token/ERC721/ERC721.sol\":9035:9039  auth */\n      dup4\n        /* \"front/node_modules/@openzeppelin/contracts/token/ERC721/ERC721.sol\":9035:9053  auth != address(0) */\n      0xffffffffffffffffffffffffffffffffffffffff\n      and\n      eq\n        /* \"front/node_modules/@openzeppelin/contracts/token/ERC721/ERC721.sol\":9031:9117  if (auth != address(0)) {... */\n      tag_316\n      jumpi\n        /* \"front/node_modules/@openzeppelin/contracts/token/ERC721/ERC721.sol\":9069:9106  _checkAuthorized(from, auth, tokenId) */\n      tag_317\n        /* \"front/node_modules/@openzeppelin/contracts/token/ERC721/ERC721.sol\":9086:9090  from */\n      dup2\n        /* \"front/node_modules/@openzeppelin/contracts/token/ERC721/ERC721.sol\":9092:9096  auth */\n      dup5\n        /* \"front/node_modules/@openzeppelin/contracts/token/ERC721/ERC721.sol\":9098:9105  tokenId */\n      dup7\n        /* \"front/node_modules/@openzeppelin/contracts/token/ERC721/ERC721.sol\":9069:9085  _checkAuthorized */\n      tag_318\n        /* \"front/node_modules/@openzeppelin/contracts/token/ERC721/ERC721.sol\":9069:9106  _checkAuthorized(from, auth, tokenId) */\n      jump\t// in\n    tag_317:\n        /* \"front/node_modules/@openzeppelin/contracts/token/ERC721/ERC721.sol\":9031:9117  if (auth != address(0)) {... */\n    tag_316:\n        /* \"front/node_modules/@openzeppelin/contracts/token/ERC721/ERC721.sol\":9177:9178  0 */\n      0x00\n        /* \"front/node_modules/@openzeppelin/contracts/token/ERC721/ERC721.sol\":9161:9179  from != address(0) */\n      0xffffffffffffffffffffffffffffffffffffffff\n      and\n        /* \"front/node_modules/@openzeppelin/contracts/token/ERC721/ERC721.sol\":9161:9165  from */\n      dup2\n        /* \"front/node_modules/@openzeppelin/contracts/token/ERC721/ERC721.sol\":9161:9179  from != address(0) */\n      0xffffffffffffffffffffffffffffffffffffffff\n      and\n      eq\n        /* \"front/node_modules/@openzeppelin/contracts/token/ERC721/ERC721.sol\":9157:9413  if (from != address(0)) {... */\n      tag_319\n      jumpi\n        /* \"front/node_modules/@openzeppelin/contracts/token/ERC721/ERC721.sol\":9277:9325  _approve(address(0), tokenId, address(0), false) */\n      tag_320\n        /* \"front/node_modules/@openzeppelin/contracts/token/ERC721/ERC721.sol\":9294:9295  0 */\n      0x00\n        /* \"front/node_modules/@openzeppelin/contracts/token/ERC721/ERC721.sol\":9298:9305  tokenId */\n      dup6\n        /* \"front/node_modules/@openzeppelin/contracts/token/ERC721/ERC721.sol\":9315:9316  0 */\n      0x00\n        /* \"front/node_modules/@openzeppelin/contracts/token/ERC721/ERC721.sol\":9319:9324  false */\n      dup1\n        /* \"front/node_modules/@openzeppelin/contracts/token/ERC721/ERC721.sol\":9277:9285  _approve */\n      tag_307\n        /* \"front/node_modules/@openzeppelin/contracts/token/ERC721/ERC721.sol\":9277:9325  _approve(address(0), tokenId, address(0), false) */\n      jump\t// in\n    tag_320:\n        /* \"front/node_modules/@openzeppelin/contracts/token/ERC721/ERC721.sol\":9387:9388  1 */\n      0x01\n        /* \"front/node_modules/@openzeppelin/contracts/token/ERC721/ERC721.sol\":9368:9377  _balances */\n      0x03\n        /* \"front/node_modules/@openzeppelin/contracts/token/ERC721/ERC721.sol\":9368:9383  _balances[from] */\n      0x00\n        /* \"front/node_modules/@openzeppelin/contracts/token/ERC721/ERC721.sol\":9378:9382  from */\n      dup4\n        /* \"front/node_modules/@openzeppelin/contracts/token/ERC721/ERC721.sol\":9368:9383  _balances[from] */\n      0xffffffffffffffffffffffffffffffffffffffff\n      and\n      0xffffffffffffffffffffffffffffffffffffffff\n      and\n      dup2\n      mstore\n      0x20\n      add\n      swap1\n      dup2\n      mstore\n      0x20\n      add\n      0x00\n      keccak256\n      0x00\n        /* \"front/node_modules/@openzeppelin/contracts/token/ERC721/ERC721.sol\":9368:9388  _balances[from] -= 1 */\n      dup3\n      dup3\n      sload\n      sub\n      swap3\n      pop\n      pop\n      dup2\n      swap1\n      sstore\n      pop\n        /* \"front/node_modules/@openzeppelin/contracts/token/ERC721/ERC721.sol\":9157:9413  if (from != address(0)) {... */\n    tag_319:\n        /* \"front/node_modules/@openzeppelin/contracts/token/ERC721/ERC721.sol\":9441:9442  0 */\n      0x00\n        /* \"front/node_modules/@openzeppelin/contracts/token/ERC721/ERC721.sol\":9427:9443  to != address(0) */\n      0xffffffffffffffffffffffffffffffffffffffff\n      and\n        /* \"front/node_modules/@openzeppelin/contracts/token/ERC721/ERC721.sol\":9427:9429  to */\n      dup6\n        /* \"front/node_modules/@openzeppelin/contracts/token/ERC721/ERC721.sol\":9427:9443  to != address(0) */\n      0xffffffffffffffffffffffffffffffffffffffff\n      and\n      eq\n        /* \"front/node_modules/@openzeppelin/contracts/token/ERC721/ERC721.sol\":9423:9530  if (to != address(0)) {... */\n      tag_321\n      jumpi\n        /* \"front/node_modules/@openzeppelin/contracts/token/ERC721/ERC721.sol\":9504:9505  1 */\n      0x01\n        /* \"front/node_modules/@openzeppelin/contracts/token/ERC721/ERC721.sol\":9487:9496  _balances */\n      0x03\n        /* \"front/node_modules/@openzeppelin/contracts/token/ERC721/ERC721.sol\":9487:9500  _balances[to] */\n      0x00\n        /* \"front/node_modules/@openzeppelin/contracts/token/ERC721/ERC721.sol\":9497:9499  to */\n      dup8\n        /* \"front/node_modules/@openzeppelin/contracts/token/ERC721/ERC721.sol\":9487:9500  _balances[to] */\n      0xffffffffffffffffffffffffffffffffffffffff\n      and\n      0xffffffffffffffffffffffffffffffffffffffff\n      and\n      dup2\n      mstore\n      0x20\n      add\n      swap1\n      dup2\n      mstore\n      0x20\n      add\n      0x00\n      keccak256\n      0x00\n        /* \"front/node_modules/@openzeppelin/contracts/token/ERC721/ERC721.sol\":9487:9505  _balances[to] += 1 */\n      dup3\n      dup3\n      sload\n      add\n      swap3\n      pop\n      pop\n      dup2\n      swap1\n      sstore\n      pop\n        /* \"front/node_modules/@openzeppelin/contracts/token/ERC721/ERC721.sol\":9423:9530  if (to != address(0)) {... */\n    tag_321:\n        /* \"front/node_modules/@openzeppelin/contracts/token/ERC721/ERC721.sol\":9559:9561  to */\n      dup5\n        /* \"front/node_modules/@openzeppelin/contracts/token/ERC721/ERC721.sol\":9540:9547  _owners */\n      0x02\n        /* \"front/node_modules/@openzeppelin/contracts/token/ERC721/ERC721.sol\":9540:9556  _owners[tokenId] */\n      0x00\n        /* \"front/node_modules/@openzeppelin/contracts/token/ERC721/ERC721.sol\":9548:9555  tokenId */\n      dup7\n        /* \"front/node_modules/@openzeppelin/contracts/token/ERC721/ERC721.sol\":9540:9556  _owners[tokenId] */\n      dup2\n      mstore\n      0x20\n      add\n      swap1\n      dup2\n      mstore\n      0x20\n      add\n      0x00\n      keccak256\n      0x00\n        /* \"front/node_modules/@openzeppelin/contracts/token/ERC721/ERC721.sol\":9540:9561  _owners[tokenId] = to */\n      0x0100\n      exp\n      dup2\n      sload\n      dup2\n      0xffffffffffffffffffffffffffffffffffffffff\n      mul\n      not\n      and\n      swap1\n      dup4\n      0xffffffffffffffffffffffffffffffffffffffff\n      and\n      mul\n      or\n      swap1\n      sstore\n      pop\n        /* \"front/node_modules/@openzeppelin/contracts/token/ERC721/ERC721.sol\":9596:9603  tokenId */\n      dup4\n        /* \"front/node_modules/@openzeppelin/contracts/token/ERC721/ERC721.sol\":9592:9594  to */\n      dup6\n        /* \"front/node_modules/@openzeppelin/contracts/token/ERC721/ERC721.sol\":9577:9604  Transfer(from, to, tokenId) */\n      0xffffffffffffffffffffffffffffffffffffffff\n      and\n        /* \"front/node_modules/@openzeppelin/contracts/token/ERC721/ERC721.sol\":9586:9590  from */\n      dup3\n        /* \"front/node_modules/@openzeppelin/contracts/token/ERC721/ERC721.sol\":9577:9604  Transfer(from, to, tokenId) */\n      0xffffffffffffffffffffffffffffffffffffffff\n      and\n      0xddf252ad1be2c89b69c2b068fc378daa952ba7f163c4a11628f55a4df523b3ef\n      mload(0x40)\n      mload(0x40)\n      dup1\n      swap2\n      sub\n      swap1\n      log4\n        /* \"front/node_modules/@openzeppelin/contracts/token/ERC721/ERC721.sol\":9622:9626  from */\n      dup1\n        /* \"front/node_modules/@openzeppelin/contracts/token/ERC721/ERC721.sol\":9615:9626  return from */\n      swap2\n      pop\n      pop\n        /* \"front/node_modules/@openzeppelin/contracts/token/ERC721/ERC721.sol\":8838:9633  function _update(address to, uint256 tokenId, address auth) internal virtual returns (address) {... */\n      swap4\n      swap3\n      pop\n      pop\n      pop\n      jump\t// out\n        /* \"front/node_modules/@openzeppelin/contracts/token/ERC721/ERC721.sol\":15591:15903  function _setApprovalForAll(address owner, address operator, bool approved) internal virtual {... */\n    tag_156:\n        /* \"front/node_modules/@openzeppelin/contracts/token/ERC721/ERC721.sol\":15718:15719  0 */\n      0x00\n        /* \"front/node_modules/@openzeppelin/contracts/token/ERC721/ERC721.sol\":15698:15720  operator == address(0) */\n      0xffffffffffffffffffffffffffffffffffffffff\n      and\n        /* \"front/node_modules/@openzeppelin/contracts/token/ERC721/ERC721.sol\":15698:15706  operator */\n      dup3\n        /* \"front/node_modules/@openzeppelin/contracts/token/ERC721/ERC721.sol\":15698:15720  operator == address(0) */\n      0xffffffffffffffffffffffffffffffffffffffff\n      and\n      sub\n        /* \"front/node_modules/@openzeppelin/contracts/token/ERC721/ERC721.sol\":15694:15785  if (operator == address(0)) {... */\n      tag_323\n      jumpi\n        /* \"front/node_modules/@openzeppelin/contracts/token/ERC721/ERC721.sol\":15765:15773  operator */\n      dup2\n        /* \"front/node_modules/@openzeppelin/contracts/token/ERC721/ERC721.sol\":15743:15774  ERC721InvalidOperator(operator) */\n      mload(0x40)\n      0x5b08ba1800000000000000000000000000000000000000000000000000000000\n      dup2\n      mstore\n      0x04\n      add\n      tag_324\n      swap2\n      swap1\n      tag_42\n      jump\t// in\n    tag_324:\n      mload(0x40)\n      dup1\n      swap2\n      sub\n      swap1\n      revert\n        /* \"front/node_modules/@openzeppelin/contracts/token/ERC721/ERC721.sol\":15694:15785  if (operator == address(0)) {... */\n    tag_323:\n        /* \"front/node_modules/@openzeppelin/contracts/token/ERC721/ERC721.sol\":15832:15840  approved */\n      dup1\n        /* \"front/node_modules/@openzeppelin/contracts/token/ERC721/ERC721.sol\":15794:15812  _operatorApprovals */\n      0x05\n        /* \"front/node_modules/@openzeppelin/contracts/token/ERC721/ERC721.sol\":15794:15819  _operatorApprovals[owner] */\n      0x00\n        /* \"front/node_modules/@openzeppelin/contracts/token/ERC721/ERC721.sol\":15813:15818  owner */\n      dup6\n        /* \"front/node_modules/@openzeppelin/contracts/token/ERC721/ERC721.sol\":15794:15819  _operatorApprovals[owner] */\n      0xffffffffffffffffffffffffffffffffffffffff\n      and\n      0xffffffffffffffffffffffffffffffffffffffff\n      and\n      dup2\n      mstore\n      0x20\n      add\n      swap1\n      dup2\n      mstore\n      0x20\n      add\n      0x00\n      keccak256\n        /* \"front/node_modules/@openzeppelin/contracts/token/ERC721/ERC721.sol\":15794:15829  _operatorApprovals[owner][operator] */\n      0x00\n        /* \"front/node_modules/@openzeppelin/contracts/token/ERC721/ERC721.sol\":15820:15828  operator */\n      dup5\n        /* \"front/node_modules/@openzeppelin/contracts/token/ERC721/ERC721.sol\":15794:15829  _operatorApprovals[owner][operator] */\n      0xffffffffffffffffffffffffffffffffffffffff\n      and\n      0xffffffffffffffffffffffffffffffffffffffff\n      and\n      dup2\n      mstore\n      0x20\n      add\n      swap1\n      dup2\n      mstore\n      0x20\n      add\n      0x00\n      keccak256\n      0x00\n        /* \"front/node_modules/@openzeppelin/contracts/token/ERC721/ERC721.sol\":15794:15840  _operatorApprovals[owner][operator] = approved */\n      0x0100\n      exp\n      dup2\n      sload\n      dup2\n      0xff\n      mul\n      not\n      and\n      swap1\n      dup4\n      iszero\n      iszero\n      mul\n      or\n      swap1\n      sstore\n      pop\n        /* \"front/node_modules/@openzeppelin/contracts/token/ERC721/ERC721.sol\":15877:15885  operator */\n      dup2\n        /* \"front/node_modules/@openzeppelin/contracts/token/ERC721/ERC721.sol\":15855:15896  ApprovalForAll(owner, operator, approved) */\n      0xffffffffffffffffffffffffffffffffffffffff\n      and\n        /* \"front/node_modules/@openzeppelin/contracts/token/ERC721/ERC721.sol\":15870:15875  owner */\n      dup4\n        /* \"front/node_modules/@openzeppelin/contracts/token/ERC721/ERC721.sol\":15855:15896  ApprovalForAll(owner, operator, approved) */\n      0xffffffffffffffffffffffffffffffffffffffff\n      and\n      0x17307eab39ab6107e8899845ad3d59bd9653f200f220920489ca2b5937696c31\n        /* \"front/node_modules/@openzeppelin/contracts/token/ERC721/ERC721.sol\":15887:15895  approved */\n      dup4\n        /* \"front/node_modules/@openzeppelin/contracts/token/ERC721/ERC721.sol\":15855:15896  ApprovalForAll(owner, operator, approved) */\n      mload(0x40)\n      tag_325\n      swap2\n      swap1\n      tag_32\n      jump\t// in\n    tag_325:\n      mload(0x40)\n      dup1\n      swap2\n      sub\n      swap1\n      log3\n        /* \"front/node_modules/@openzeppelin/contracts/token/ERC721/ERC721.sol\":15591:15903  function _setApprovalForAll(address owner, address operator, bool approved) internal virtual {... */\n      pop\n      pop\n      pop\n      jump\t// out\n        /* \"front/node_modules/@openzeppelin/contracts/token/ERC721/ERC721.sol\":5707:5822  function _ownerOf(uint256 tokenId) internal view virtual returns (address) {... */\n    tag_166:\n        /* \"front/node_modules/@openzeppelin/contracts/token/ERC721/ERC721.sol\":5773:5780  address */\n      0x00\n        /* \"front/node_modules/@openzeppelin/contracts/token/ERC721/ERC721.sol\":5799:5806  _owners */\n      0x02\n        /* \"front/node_modules/@openzeppelin/contracts/token/ERC721/ERC721.sol\":5799:5815  _owners[tokenId] */\n      0x00\n        /* \"front/node_modules/@openzeppelin/contracts/token/ERC721/ERC721.sol\":5807:5814  tokenId */\n      dup4\n        /* \"front/node_modules/@openzeppelin/contracts/token/ERC721/ERC721.sol\":5799:5815  _owners[tokenId] */\n      dup2\n      mstore\n      0x20\n      add\n      swap1\n      dup2\n      mstore\n      0x20\n      add\n      0x00\n      keccak256\n      0x00\n      swap1\n      sload\n      swap1\n      0x0100\n      exp\n      swap1\n      div\n      0xffffffffffffffffffffffffffffffffffffffff\n      and\n        /* \"front/node_modules/@openzeppelin/contracts/token/ERC721/ERC721.sol\":5792:5815  return _owners[tokenId] */\n      swap1\n      pop\n        /* \"front/node_modules/@openzeppelin/contracts/token/ERC721/ERC721.sol\":5707:5822  function _ownerOf(uint256 tokenId) internal view virtual returns (address) {... */\n      swap2\n      swap1\n      pop\n      jump\t// out\n        /* \"front/node_modules/@openzeppelin/contracts/token/ERC721/ERC721.sol\":16918:17700  function _checkOnERC721Received(address from, address to, uint256 tokenId, bytes memory data) private {... */\n    tag_289:\n        /* \"front/node_modules/@openzeppelin/contracts/token/ERC721/ERC721.sol\":17051:17052  0 */\n      0x00\n        /* \"front/node_modules/@openzeppelin/contracts/token/ERC721/ERC721.sol\":17034:17036  to */\n      dup4\n        /* \"front/node_modules/@openzeppelin/contracts/token/ERC721/ERC721.sol\":17034:17048  to.code.length */\n      0xffffffffffffffffffffffffffffffffffffffff\n      and\n      extcodesize\n        /* \"front/node_modules/@openzeppelin/contracts/token/ERC721/ERC721.sol\":17034:17052  to.code.length > 0 */\n      gt\n        /* \"front/node_modules/@openzeppelin/contracts/token/ERC721/ERC721.sol\":17030:17694  if (to.code.length > 0) {... */\n      iszero\n      tag_328\n      jumpi\n        /* \"front/node_modules/@openzeppelin/contracts/token/ERC721/ERC721.sol\":17088:17090  to */\n      dup3\n        /* \"front/node_modules/@openzeppelin/contracts/token/ERC721/ERC721.sol\":17072:17108  IERC721Receiver(to).onERC721Received */\n      0xffffffffffffffffffffffffffffffffffffffff\n      and\n      0x150b7a02\n        /* \"front/node_modules/@openzeppelin/contracts/token/ERC721/ERC721.sol\":17109:17121  _msgSender() */\n      tag_329\n        /* \"front/node_modules/@openzeppelin/contracts/token/ERC721/ERC721.sol\":17109:17119  _msgSender */\n      tag_136\n        /* \"front/node_modules/@openzeppelin/contracts/token/ERC721/ERC721.sol\":17109:17121  _msgSender() */\n      jump\t// in\n    tag_329:\n        /* \"front/node_modules/@openzeppelin/contracts/token/ERC721/ERC721.sol\":17123:17127  from */\n      dup7\n        /* \"front/node_modules/@openzeppelin/contracts/token/ERC721/ERC721.sol\":17129:17136  tokenId */\n      dup6\n        /* \"front/node_modules/@openzeppelin/contracts/token/ERC721/ERC721.sol\":17138:17142  data */\n      dup6\n        /* \"front/node_modules/@openzeppelin/contracts/token/ERC721/ERC721.sol\":17072:17143  IERC721Receiver(to).onERC721Received(_msgSender(), from, tokenId, data) */\n      mload(0x40)\n      dup6\n      0xffffffff\n      and\n      0xe0\n      shl\n      dup2\n      mstore\n      0x04\n      add\n      tag_330\n      swap5\n      swap4\n      swap3\n      swap2\n      swap1\n      tag_331\n      jump\t// in\n    tag_330:\n      0x20\n      mload(0x40)\n      dup1\n      dup4\n      sub\n      dup2\n      0x00\n      dup8\n      gas\n      call\n      swap3\n      pop\n      pop\n      pop\n      dup1\n      iszero\n      tag_332\n      jumpi\n      pop\n      mload(0x40)\n      returndatasize\n      not(0x1f)\n      0x1f\n      dup3\n      add\n      and\n      dup3\n      add\n      dup1\n      0x40\n      mstore\n      pop\n      dup2\n      add\n      swap1\n      tag_333\n      swap2\n      swap1\n      tag_334\n      jump\t// in\n    tag_333:\n      0x01\n    tag_332:\n        /* \"front/node_modules/@openzeppelin/contracts/token/ERC721/ERC721.sol\":17068:17684  try IERC721Receiver(to).onERC721Received(_msgSender(), from, tokenId, data) returns (bytes4 retval) {... */\n      tag_335\n      jumpi\n      returndatasize\n      dup1\n      0x00\n      dup2\n      eq\n      tag_340\n      jumpi\n      mload(0x40)\n      swap2\n      pop\n      and(add(returndatasize, 0x3f), not(0x1f))\n      dup3\n      add\n      0x40\n      mstore\n      returndatasize\n      dup3\n      mstore\n      returndatasize\n      0x00\n      0x20\n      dup5\n      add\n      returndatacopy\n      jump(tag_339)\n    tag_340:\n      0x60\n      swap2\n      pop\n    tag_339:\n      pop\n        /* \"front/node_modules/@openzeppelin/contracts/token/ERC721/ERC721.sol\":17398:17399  0 */\n      0x00\n        /* \"front/node_modules/@openzeppelin/contracts/token/ERC721/ERC721.sol\":17381:17387  reason */\n      dup2\n        /* \"front/node_modules/@openzeppelin/contracts/token/ERC721/ERC721.sol\":17381:17394  reason.length */\n      mload\n        /* \"front/node_modules/@openzeppelin/contracts/token/ERC721/ERC721.sol\":17381:17399  reason.length == 0 */\n      sub\n        /* \"front/node_modules/@openzeppelin/contracts/token/ERC721/ERC721.sol\":17377:17670  if (reason.length == 0) {... */\n      tag_341\n      jumpi\n        /* \"front/node_modules/@openzeppelin/contracts/token/ERC721/ERC721.sol\":17452:17454  to */\n      dup4\n        /* \"front/node_modules/@openzeppelin/contracts/token/ERC721/ERC721.sol\":17430:17455  ERC721InvalidReceiver(to) */\n      mload(0x40)\n      0x64a0ae9200000000000000000000000000000000000000000000000000000000\n      dup2\n      mstore\n      0x04\n      add\n      tag_342\n      swap2\n      swap1\n      tag_42\n      jump\t// in\n    tag_342:\n      mload(0x40)\n      dup1\n      swap2\n      sub\n      swap1\n      revert\n        /* \"front/node_modules/@openzeppelin/contracts/token/ERC721/ERC721.sol\":17377:17670  if (reason.length == 0) {... */\n    tag_341:\n        /* \"front/node_modules/@openzeppelin/contracts/token/ERC721/ERC721.sol\":17622:17628  reason */\n      dup1\n        /* \"front/node_modules/@openzeppelin/contracts/token/ERC721/ERC721.sol\":17616:17629  mload(reason) */\n      mload\n        /* \"front/node_modules/@openzeppelin/contracts/token/ERC721/ERC721.sol\":17607:17613  reason */\n      dup2\n        /* \"front/node_modules/@openzeppelin/contracts/token/ERC721/ERC721.sol\":17603:17605  32 */\n      0x20\n        /* \"front/node_modules/@openzeppelin/contracts/token/ERC721/ERC721.sol\":17599:17614  add(32, reason) */\n      add\n        /* \"front/node_modules/@openzeppelin/contracts/token/ERC721/ERC721.sol\":17592:17630  revert(add(32, reason), mload(reason)) */\n      revert\n        /* \"front/node_modules/@openzeppelin/contracts/token/ERC721/ERC721.sol\":17068:17684  try IERC721Receiver(to).onERC721Received(_msgSender(), from, tokenId, data) returns (bytes4 retval) {... */\n    tag_335:\n        /* \"front/node_modules/@openzeppelin/contracts/token/ERC721/ERC721.sol\":17200:17241  IERC721Receiver.onERC721Received.selector */\n      shl(0xe0, 0x150b7a02)\n        /* \"front/node_modules/@openzeppelin/contracts/token/ERC721/ERC721.sol\":17190:17241  retval != IERC721Receiver.onERC721Received.selector */\n      not(0xffffffffffffffffffffffffffffffffffffffffffffffffffffffff)\n      and\n        /* \"front/node_modules/@openzeppelin/contracts/token/ERC721/ERC721.sol\":17190:17196  retval */\n      dup2\n        /* \"front/node_modules/@openzeppelin/contracts/token/ERC721/ERC721.sol\":17190:17241  retval != IERC721Receiver.onERC721Received.selector */\n      not(0xffffffffffffffffffffffffffffffffffffffffffffffffffffffff)\n      and\n      eq\n        /* \"front/node_modules/@openzeppelin/contracts/token/ERC721/ERC721.sol\":17186:17316  if (retval != IERC721Receiver.onERC721Received.selector) {... */\n      tag_345\n      jumpi\n        /* \"front/node_modules/@openzeppelin/contracts/token/ERC721/ERC721.sol\":17294:17296  to */\n      dup4\n        /* \"front/node_modules/@openzeppelin/contracts/token/ERC721/ERC721.sol\":17272:17297  ERC721InvalidReceiver(to) */\n      mload(0x40)\n      0x64a0ae9200000000000000000000000000000000000000000000000000000000\n      dup2\n      mstore\n      0x04\n      add\n      tag_346\n      swap2\n      swap1\n      tag_42\n      jump\t// in\n    tag_346:\n      mload(0x40)\n      dup1\n      swap2\n      sub\n      swap1\n      revert\n        /* \"front/node_modules/@openzeppelin/contracts/token/ERC721/ERC721.sol\":17186:17316  if (retval != IERC721Receiver.onERC721Received.selector) {... */\n    tag_345:\n        /* \"front/node_modules/@openzeppelin/contracts/token/ERC721/ERC721.sol\":17144:17330  returns (bytes4 retval) {... */\n      pop\n        /* \"front/node_modules/@openzeppelin/contracts/token/ERC721/ERC721.sol\":17030:17694  if (to.code.length > 0) {... */\n    tag_328:\n        /* \"front/node_modules/@openzeppelin/contracts/token/ERC721/ERC721.sol\":16918:17700  function _checkOnERC721Received(address from, address to, uint256 tokenId, bytes memory data) private {... */\n      pop\n      pop\n      pop\n      pop\n      jump\t// out\n        /* \"front/node_modules/@openzeppelin/contracts/token/ERC721/ERC721.sol\":14720:15382  function _approve(address to, uint256 tokenId, address auth, bool emitEvent) internal virtual {... */\n    tag_307:\n        /* \"front/node_modules/@openzeppelin/contracts/token/ERC721/ERC721.sol\":14880:14889  emitEvent */\n      dup1\n        /* \"front/node_modules/@openzeppelin/contracts/token/ERC721/ERC721.sol\":14880:14911  emitEvent || auth != address(0) */\n      dup1\n      tag_348\n      jumpi\n      pop\n        /* \"front/node_modules/@openzeppelin/contracts/token/ERC721/ERC721.sol\":14909:14910  0 */\n      0x00\n        /* \"front/node_modules/@openzeppelin/contracts/token/ERC721/ERC721.sol\":14893:14911  auth != address(0) */\n      0xffffffffffffffffffffffffffffffffffffffff\n      and\n        /* \"front/node_modules/@openzeppelin/contracts/token/ERC721/ERC721.sol\":14893:14897  auth */\n      dup3\n        /* \"front/node_modules/@openzeppelin/contracts/token/ERC721/ERC721.sol\":14893:14911  auth != address(0) */\n      0xffffffffffffffffffffffffffffffffffffffff\n      and\n      eq\n      iszero\n        /* \"front/node_modules/@openzeppelin/contracts/token/ERC721/ERC721.sol\":14880:14911  emitEvent || auth != address(0) */\n    tag_348:\n        /* \"front/node_modules/@openzeppelin/contracts/token/ERC721/ERC721.sol\":14876:15336  if (emitEvent || auth != address(0)) {... */\n      iszero\n      tag_349\n      jumpi\n        /* \"front/node_modules/@openzeppelin/contracts/token/ERC721/ERC721.sol\":14927:14940  address owner */\n      0x00\n        /* \"front/node_modules/@openzeppelin/contracts/token/ERC721/ERC721.sol\":14943:14965  _requireOwned(tokenId) */\n      tag_350\n        /* \"front/node_modules/@openzeppelin/contracts/token/ERC721/ERC721.sol\":14957:14964  tokenId */\n      dup5\n        /* \"front/node_modules/@openzeppelin/contracts/token/ERC721/ERC721.sol\":14943:14956  _requireOwned */\n      tag_130\n        /* \"front/node_modules/@openzeppelin/contracts/token/ERC721/ERC721.sol\":14943:14965  _requireOwned(tokenId) */\n      jump\t// in\n    tag_350:\n        /* \"front/node_modules/@openzeppelin/contracts/token/ERC721/ERC721.sol\":14927:14965  address owner = _requireOwned(tokenId) */\n      swap1\n      pop\n        /* \"front/node_modules/@openzeppelin/contracts/token/ERC721/ERC721.sol\":15109:15110  0 */\n      0x00\n        /* \"front/node_modules/@openzeppelin/contracts/token/ERC721/ERC721.sol\":15093:15111  auth != address(0) */\n      0xffffffffffffffffffffffffffffffffffffffff\n      and\n        /* \"front/node_modules/@openzeppelin/contracts/token/ERC721/ERC721.sol\":15093:15097  auth */\n      dup4\n        /* \"front/node_modules/@openzeppelin/contracts/token/ERC721/ERC721.sol\":15093:15111  auth != address(0) */\n      0xffffffffffffffffffffffffffffffffffffffff\n      and\n      eq\n      iszero\n        /* \"front/node_modules/@openzeppelin/contracts/token/ERC721/ERC721.sol\":15093:15128  auth != address(0) && owner != auth */\n      dup1\n      iszero\n      tag_351\n      jumpi\n      pop\n        /* \"front/node_modules/@openzeppelin/contracts/token/ERC721/ERC721.sol\":15124:15128  auth */\n      dup3\n        /* \"front/node_modules/@openzeppelin/contracts/token/ERC721/ERC721.sol\":15115:15128  owner != auth */\n      0xffffffffffffffffffffffffffffffffffffffff\n      and\n        /* \"front/node_modules/@openzeppelin/contracts/token/ERC721/ERC721.sol\":15115:15120  owner */\n      dup2\n        /* \"front/node_modules/@openzeppelin/contracts/token/ERC721/ERC721.sol\":15115:15128  owner != auth */\n      0xffffffffffffffffffffffffffffffffffffffff\n      and\n      eq\n      iszero\n        /* \"front/node_modules/@openzeppelin/contracts/token/ERC721/ERC721.sol\":15093:15128  auth != address(0) && owner != auth */\n    tag_351:\n        /* \"front/node_modules/@openzeppelin/contracts/token/ERC721/ERC721.sol\":15093:15162  auth != address(0) && owner != auth && !isApprovedForAll(owner, auth) */\n      dup1\n      iszero\n      tag_352\n      jumpi\n      pop\n        /* \"front/node_modules/@openzeppelin/contracts/token/ERC721/ERC721.sol\":15133:15162  isApprovedForAll(owner, auth) */\n      tag_353\n        /* \"front/node_modules/@openzeppelin/contracts/token/ERC721/ERC721.sol\":15150:15155  owner */\n      dup2\n        /* \"front/node_modules/@openzeppelin/contracts/token/ERC721/ERC721.sol\":15157:15161  auth */\n      dup5\n        /* \"front/node_modules/@openzeppelin/contracts/token/ERC721/ERC721.sol\":15133:15149  isApprovedForAll */\n      tag_114\n        /* \"front/node_modules/@openzeppelin/contracts/token/ERC721/ERC721.sol\":15133:15162  isApprovedForAll(owner, auth) */\n      jump\t// in\n    tag_353:\n        /* \"front/node_modules/@openzeppelin/contracts/token/ERC721/ERC721.sol\":15132:15162  !isApprovedForAll(owner, auth) */\n      iszero\n        /* \"front/node_modules/@openzeppelin/contracts/token/ERC721/ERC721.sol\":15093:15162  auth != address(0) && owner != auth && !isApprovedForAll(owner, auth) */\n    tag_352:\n        /* \"front/node_modules/@openzeppelin/contracts/token/ERC721/ERC721.sol\":15089:15231  if (auth != address(0) && owner != auth && !isApprovedForAll(owner, auth)) {... */\n      iszero\n      tag_354\n      jumpi\n        /* \"front/node_modules/@openzeppelin/contracts/token/ERC721/ERC721.sol\":15211:15215  auth */\n      dup3\n        /* \"front/node_modules/@openzeppelin/contracts/token/ERC721/ERC721.sol\":15189:15216  ERC721InvalidApprover(auth) */\n      mload(0x40)\n      0xa9fbf51f00000000000000000000000000000000000000000000000000000000\n      dup2\n      mstore\n      0x04\n      add\n      tag_355\n      swap2\n      swap1\n      tag_42\n      jump\t// in\n    tag_355:\n      mload(0x40)\n      dup1\n      swap2\n      sub\n      swap1\n      revert\n        /* \"front/node_modules/@openzeppelin/contracts/token/ERC721/ERC721.sol\":15089:15231  if (auth != address(0) && owner != auth && !isApprovedForAll(owner, auth)) {... */\n    tag_354:\n        /* \"front/node_modules/@openzeppelin/contracts/token/ERC721/ERC721.sol\":15249:15258  emitEvent */\n      dup2\n        /* \"front/node_modules/@openzeppelin/contracts/token/ERC721/ERC721.sol\":15245:15326  if (emitEvent) {... */\n      iszero\n      tag_356\n      jumpi\n        /* \"front/node_modules/@openzeppelin/contracts/token/ERC721/ERC721.sol\":15303:15310  tokenId */\n      dup4\n        /* \"front/node_modules/@openzeppelin/contracts/token/ERC721/ERC721.sol\":15299:15301  to */\n      dup6\n        /* \"front/node_modules/@openzeppelin/contracts/token/ERC721/ERC721.sol\":15283:15311  Approval(owner, to, tokenId) */\n      0xffffffffffffffffffffffffffffffffffffffff\n      and\n        /* \"front/node_modules/@openzeppelin/contracts/token/ERC721/ERC721.sol\":15292:15297  owner */\n      dup3\n        /* \"front/node_modules/@openzeppelin/contracts/token/ERC721/ERC721.sol\":15283:15311  Approval(owner, to, tokenId) */\n      0xffffffffffffffffffffffffffffffffffffffff\n      and\n      0x8c5be1e5ebec7d5bd14f71427d1e84f3dd0314c0f7b2291e5b200ac8c7c3b925\n      mload(0x40)\n      mload(0x40)\n      dup1\n      swap2\n      sub\n      swap1\n      log4\n        /* \"front/node_modules/@openzeppelin/contracts/token/ERC721/ERC721.sol\":15245:15326  if (emitEvent) {... */\n    tag_356:\n        /* \"front/node_modules/@openzeppelin/contracts/token/ERC721/ERC721.sol\":14913:15336  {... */\n      pop\n        /* \"front/node_modules/@openzeppelin/contracts/token/ERC721/ERC721.sol\":14876:15336  if (emitEvent || auth != address(0)) {... */\n    tag_349:\n        /* \"front/node_modules/@openzeppelin/contracts/token/ERC721/ERC721.sol\":15373:15375  to */\n      dup4\n        /* \"front/node_modules/@openzeppelin/contracts/token/ERC721/ERC721.sol\":15346:15361  _tokenApprovals */\n      0x04\n        /* \"front/node_modules/@openzeppelin/contracts/token/ERC721/ERC721.sol\":15346:15370  _tokenApprovals[tokenId] */\n      0x00\n        /* \"front/node_modules/@openzeppelin/contracts/token/ERC721/ERC721.sol\":15362:15369  tokenId */\n      dup6\n        /* \"front/node_modules/@openzeppelin/contracts/token/ERC721/ERC721.sol\":15346:15370  _tokenApprovals[tokenId] */\n      dup2\n      mstore\n      0x20\n      add\n      swap1\n      dup2\n      mstore\n      0x20\n      add\n      0x00\n      keccak256\n      0x00\n        /* \"front/node_modules/@openzeppelin/contracts/token/ERC721/ERC721.sol\":15346:15375  _tokenApprovals[tokenId] = to */\n      0x0100\n      exp\n      dup2\n      sload\n      dup2\n      0xffffffffffffffffffffffffffffffffffffffff\n      mul\n      not\n      and\n      swap1\n      dup4\n      0xffffffffffffffffffffffffffffffffffffffff\n      and\n      mul\n      or\n      swap1\n      sstore\n      pop\n        /* \"front/node_modules/@openzeppelin/contracts/token/ERC721/ERC721.sol\":14720:15382  function _approve(address to, uint256 tokenId, address auth, bool emitEvent) internal virtual {... */\n      pop\n      pop\n      pop\n      pop\n      jump\t// out\n        /* \"front/node_modules/@openzeppelin/contracts/token/ERC721/ERC721.sol\":7082:7450  function _checkAuthorized(address owner, address spender, uint256 tokenId) internal view virtual {... */\n    tag_318:\n        /* \"front/node_modules/@openzeppelin/contracts/token/ERC721/ERC721.sol\":7194:7232  _isAuthorized(owner, spender, tokenId) */\n      tag_358\n        /* \"front/node_modules/@openzeppelin/contracts/token/ERC721/ERC721.sol\":7208:7213  owner */\n      dup4\n        /* \"front/node_modules/@openzeppelin/contracts/token/ERC721/ERC721.sol\":7215:7222  spender */\n      dup4\n        /* \"front/node_modules/@openzeppelin/contracts/token/ERC721/ERC721.sol\":7224:7231  tokenId */\n      dup4\n        /* \"front/node_modules/@openzeppelin/contracts/token/ERC721/ERC721.sol\":7194:7207  _isAuthorized */\n      tag_359\n        /* \"front/node_modules/@openzeppelin/contracts/token/ERC721/ERC721.sol\":7194:7232  _isAuthorized(owner, spender, tokenId) */\n      jump\t// in\n    tag_358:\n        /* \"front/node_modules/@openzeppelin/contracts/token/ERC721/ERC721.sol\":7189:7444  if (!_isAuthorized(owner, spender, tokenId)) {... */\n      tag_360\n      jumpi\n        /* \"front/node_modules/@openzeppelin/contracts/token/ERC721/ERC721.sol\":7269:7270  0 */\n      0x00\n        /* \"front/node_modules/@openzeppelin/contracts/token/ERC721/ERC721.sol\":7252:7271  owner == address(0) */\n      0xffffffffffffffffffffffffffffffffffffffff\n      and\n        /* \"front/node_modules/@openzeppelin/contracts/token/ERC721/ERC721.sol\":7252:7257  owner */\n      dup4\n        /* \"front/node_modules/@openzeppelin/contracts/token/ERC721/ERC721.sol\":7252:7271  owner == address(0) */\n      0xffffffffffffffffffffffffffffffffffffffff\n      and\n      sub\n        /* \"front/node_modules/@openzeppelin/contracts/token/ERC721/ERC721.sol\":7248:7434  if (owner == address(0)) {... */\n      tag_361\n      jumpi\n        /* \"front/node_modules/@openzeppelin/contracts/token/ERC721/ERC721.sol\":7321:7328  tokenId */\n      dup1\n        /* \"front/node_modules/@openzeppelin/contracts/token/ERC721/ERC721.sol\":7298:7329  ERC721NonexistentToken(tokenId) */\n      mload(0x40)\n      0x7e27328900000000000000000000000000000000000000000000000000000000\n      dup2\n      mstore\n      0x04\n      add\n      tag_362\n      swap2\n      swap1\n      tag_81\n      jump\t// in\n    tag_362:\n      mload(0x40)\n      dup1\n      swap2\n      sub\n      swap1\n      revert\n        /* \"front/node_modules/@openzeppelin/contracts/token/ERC721/ERC721.sol\":7248:7434  if (owner == address(0)) {... */\n    tag_361:\n        /* \"front/node_modules/@openzeppelin/contracts/token/ERC721/ERC721.sol\":7402:7409  spender */\n      dup2\n        /* \"front/node_modules/@openzeppelin/contracts/token/ERC721/ERC721.sol\":7411:7418  tokenId */\n      dup2\n        /* \"front/node_modules/@openzeppelin/contracts/token/ERC721/ERC721.sol\":7375:7419  ERC721InsufficientApproval(spender, tokenId) */\n      mload(0x40)\n      0x177e802f00000000000000000000000000000000000000000000000000000000\n      dup2\n      mstore\n      0x04\n      add\n      tag_364\n      swap3\n      swap2\n      swap1\n      tag_365\n      jump\t// in\n    tag_364:\n      mload(0x40)\n      dup1\n      swap2\n      sub\n      swap1\n      revert\n        /* \"front/node_modules/@openzeppelin/contracts/token/ERC721/ERC721.sol\":7189:7444  if (!_isAuthorized(owner, spender, tokenId)) {... */\n    tag_360:\n        /* \"front/node_modules/@openzeppelin/contracts/token/ERC721/ERC721.sol\":7082:7450  function _checkAuthorized(address owner, address spender, uint256 tokenId) internal view virtual {... */\n      pop\n      pop\n      pop\n      jump\t// out\n        /* \"front/node_modules/@openzeppelin/contracts/token/ERC721/ERC721.sol\":6376:6648  function _isAuthorized(address owner, address spender, uint256 tokenId) internal view virtual returns (bool) {... */\n    tag_359:\n        /* \"front/node_modules/@openzeppelin/contracts/token/ERC721/ERC721.sol\":6479:6483  bool */\n      0x00\n        /* \"front/node_modules/@openzeppelin/contracts/token/ERC721/ERC721.sol\":6533:6534  0 */\n      dup1\n        /* \"front/node_modules/@openzeppelin/contracts/token/ERC721/ERC721.sol\":6514:6535  spender != address(0) */\n      0xffffffffffffffffffffffffffffffffffffffff\n      and\n        /* \"front/node_modules/@openzeppelin/contracts/token/ERC721/ERC721.sol\":6514:6521  spender */\n      dup4\n        /* \"front/node_modules/@openzeppelin/contracts/token/ERC721/ERC721.sol\":6514:6535  spender != address(0) */\n      0xffffffffffffffffffffffffffffffffffffffff\n      and\n      eq\n      iszero\n        /* \"front/node_modules/@openzeppelin/contracts/token/ERC721/ERC721.sol\":6514:6641  spender != address(0) &&... */\n      dup1\n      iszero\n      tag_367\n      jumpi\n      pop\n        /* \"front/node_modules/@openzeppelin/contracts/token/ERC721/ERC721.sol\":6561:6568  spender */\n      dup3\n        /* \"front/node_modules/@openzeppelin/contracts/token/ERC721/ERC721.sol\":6552:6568  owner == spender */\n      0xffffffffffffffffffffffffffffffffffffffff\n      and\n        /* \"front/node_modules/@openzeppelin/contracts/token/ERC721/ERC721.sol\":6552:6557  owner */\n      dup5\n        /* \"front/node_modules/@openzeppelin/contracts/token/ERC721/ERC721.sol\":6552:6568  owner == spender */\n      0xffffffffffffffffffffffffffffffffffffffff\n      and\n      eq\n        /* \"front/node_modules/@openzeppelin/contracts/token/ERC721/ERC721.sol\":6552:6604  owner == spender || isApprovedForAll(owner, spender) */\n      dup1\n      tag_368\n      jumpi\n      pop\n        /* \"front/node_modules/@openzeppelin/contracts/token/ERC721/ERC721.sol\":6572:6604  isApprovedForAll(owner, spender) */\n      tag_369\n        /* \"front/node_modules/@openzeppelin/contracts/token/ERC721/ERC721.sol\":6589:6594  owner */\n      dup5\n        /* \"front/node_modules/@openzeppelin/contracts/token/ERC721/ERC721.sol\":6596:6603  spender */\n      dup5\n        /* \"front/node_modules/@openzeppelin/contracts/token/ERC721/ERC721.sol\":6572:6588  isApprovedForAll */\n      tag_114\n        /* \"front/node_modules/@openzeppelin/contracts/token/ERC721/ERC721.sol\":6572:6604  isApprovedForAll(owner, spender) */\n      jump\t// in\n    tag_369:\n        /* \"front/node_modules/@openzeppelin/contracts/token/ERC721/ERC721.sol\":6552:6604  owner == spender || isApprovedForAll(owner, spender) */\n    tag_368:\n        /* \"front/node_modules/@openzeppelin/contracts/token/ERC721/ERC721.sol\":6552:6640  owner == spender || isApprovedForAll(owner, spender) || _getApproved(tokenId) == spender */\n      dup1\n      tag_370\n      jumpi\n      pop\n        /* \"front/node_modules/@openzeppelin/contracts/token/ERC721/ERC721.sol\":6633:6640  spender */\n      dup3\n        /* \"front/node_modules/@openzeppelin/contracts/token/ERC721/ERC721.sol\":6608:6640  _getApproved(tokenId) == spender */\n      0xffffffffffffffffffffffffffffffffffffffff\n      and\n        /* \"front/node_modules/@openzeppelin/contracts/token/ERC721/ERC721.sol\":6608:6629  _getApproved(tokenId) */\n      tag_371\n        /* \"front/node_modules/@openzeppelin/contracts/token/ERC721/ERC721.sol\":6621:6628  tokenId */\n      dup4\n        /* \"front/node_modules/@openzeppelin/contracts/token/ERC721/ERC721.sol\":6608:6620  _getApproved */\n      tag_132\n        /* \"front/node_modules/@openzeppelin/contracts/token/ERC721/ERC721.sol\":6608:6629  _getApproved(tokenId) */\n      jump\t// in\n    tag_371:\n        /* \"front/node_modules/@openzeppelin/contracts/token/ERC721/ERC721.sol\":6608:6640  _getApproved(tokenId) == spender */\n      0xffffffffffffffffffffffffffffffffffffffff\n      and\n      eq\n        /* \"front/node_modules/@openzeppelin/contracts/token/ERC721/ERC721.sol\":6552:6640  owner == spender || isApprovedForAll(owner, spender) || _getApproved(tokenId) == spender */\n    tag_370:\n        /* \"front/node_modules/@openzeppelin/contracts/token/ERC721/ERC721.sol\":6514:6641  spender != address(0) &&... */\n    tag_367:\n        /* \"front/node_modules/@openzeppelin/contracts/token/ERC721/ERC721.sol\":6495:6641  return... */\n      swap1\n      pop\n        /* \"front/node_modules/@openzeppelin/contracts/token/ERC721/ERC721.sol\":6376:6648  function _isAuthorized(address owner, address spender, uint256 tokenId) internal view virtual returns (bool) {... */\n      swap4\n      swap3\n      pop\n      pop\n      pop\n      jump\t// out\n    tag_183:\n      mload(0x40)\n      dup1\n      0x40\n      add\n      0x40\n      mstore\n      dup1\n      0x60\n      dup2\n      mstore\n      0x20\n      add\n      0x00\n      dup2\n      mstore\n      pop\n      swap1\n      jump\t// out\n        /* \"#utility.yul\":7:82   */\n    tag_372:\n        /* \"#utility.yul\":40:46   */\n      0x00\n        /* \"#utility.yul\":73:75   */\n      0x40\n        /* \"#utility.yul\":67:76   */\n      mload\n        /* \"#utility.yul\":57:76   */\n      swap1\n      pop\n        /* \"#utility.yul\":7:82   */\n      swap1\n      jump\t// out\n        /* \"#utility.yul\":88:205   */\n    tag_373:\n        /* \"#utility.yul\":197:198   */\n      0x00\n        /* \"#utility.yul\":194:195   */\n      dup1\n        /* \"#utility.yul\":187:199   */\n      revert\n        /* \"#utility.yul\":211:328   */\n    tag_374:\n        /* \"#utility.yul\":320:321   */\n      0x00\n        /* \"#utility.yul\":317:318   */\n      dup1\n        /* \"#utility.yul\":310:322   */\n      revert\n        /* \"#utility.yul\":334:483   */\n    tag_375:\n        /* \"#utility.yul\":370:377   */\n      0x00\n        /* \"#utility.yul\":410:476   */\n      0xffffffff00000000000000000000000000000000000000000000000000000000\n        /* \"#utility.yul\":403:408   */\n      dup3\n        /* \"#utility.yul\":399:477   */\n      and\n        /* \"#utility.yul\":388:477   */\n      swap1\n      pop\n        /* \"#utility.yul\":334:483   */\n      swap2\n      swap1\n      pop\n      jump\t// out\n        /* \"#utility.yul\":489:609   */\n    tag_376:\n        /* \"#utility.yul\":561:584   */\n      tag_456\n        /* \"#utility.yul\":578:583   */\n      dup2\n        /* \"#utility.yul\":561:584   */\n      tag_375\n      jump\t// in\n    tag_456:\n        /* \"#utility.yul\":554:559   */\n      dup2\n        /* \"#utility.yul\":551:585   */\n      eq\n        /* \"#utility.yul\":541:603   */\n      tag_457\n      jumpi\n        /* \"#utility.yul\":599:600   */\n      0x00\n        /* \"#utility.yul\":596:597   */\n      dup1\n        /* \"#utility.yul\":589:601   */\n      revert\n        /* \"#utility.yul\":541:603   */\n    tag_457:\n        /* \"#utility.yul\":489:609   */\n      pop\n      jump\t// out\n        /* \"#utility.yul\":615:752   */\n    tag_377:\n        /* \"#utility.yul\":660:665   */\n      0x00\n        /* \"#utility.yul\":698:704   */\n      dup2\n        /* \"#utility.yul\":685:705   */\n      calldataload\n        /* \"#utility.yul\":676:705   */\n      swap1\n      pop\n        /* \"#utility.yul\":714:746   */\n      tag_459\n        /* \"#utility.yul\":740:745   */\n      dup2\n        /* \"#utility.yul\":714:746   */\n      tag_376\n      jump\t// in\n    tag_459:\n        /* \"#utility.yul\":615:752   */\n      swap3\n      swap2\n      pop\n      pop\n      jump\t// out\n        /* \"#utility.yul\":758:1085   */\n    tag_29:\n        /* \"#utility.yul\":816:822   */\n      0x00\n        /* \"#utility.yul\":865:867   */\n      0x20\n        /* \"#utility.yul\":853:862   */\n      dup3\n        /* \"#utility.yul\":844:851   */\n      dup5\n        /* \"#utility.yul\":840:863   */\n      sub\n        /* \"#utility.yul\":836:868   */\n      slt\n        /* \"#utility.yul\":833:952   */\n      iszero\n      tag_461\n      jumpi\n        /* \"#utility.yul\":871:950   */\n      tag_462\n      tag_373\n      jump\t// in\n    tag_462:\n        /* \"#utility.yul\":833:952   */\n    tag_461:\n        /* \"#utility.yul\":991:992   */\n      0x00\n        /* \"#utility.yul\":1016:1068   */\n      tag_463\n        /* \"#utility.yul\":1060:1067   */\n      dup5\n        /* \"#utility.yul\":1051:1057   */\n      dup3\n        /* \"#utility.yul\":1040:1049   */\n      dup6\n        /* \"#utility.yul\":1036:1058   */\n      add\n        /* \"#utility.yul\":1016:1068   */\n      tag_377\n      jump\t// in\n    tag_463:\n        /* \"#utility.yul\":1006:1068   */\n      swap2\n      pop\n        /* \"#utility.yul\":962:1078   */\n      pop\n        /* \"#utility.yul\":758:1085   */\n      swap3\n      swap2\n      pop\n      pop\n      jump\t// out\n        /* \"#utility.yul\":1091:1181   */\n    tag_378:\n        /* \"#utility.yul\":1125:1132   */\n      0x00\n        /* \"#utility.yul\":1168:1173   */\n      dup2\n        /* \"#utility.yul\":1161:1174   */\n      iszero\n        /* \"#utility.yul\":1154:1175   */\n      iszero\n        /* \"#utility.yul\":1143:1175   */\n      swap1\n      pop\n        /* \"#utility.yul\":1091:1181   */\n      swap2\n      swap1\n      pop\n      jump\t// out\n        /* \"#utility.yul\":1187:1296   */\n    tag_379:\n        /* \"#utility.yul\":1268:1289   */\n      tag_466\n        /* \"#utility.yul\":1283:1288   */\n      dup2\n        /* \"#utility.yul\":1268:1289   */\n      tag_378\n      jump\t// in\n    tag_466:\n        /* \"#utility.yul\":1263:1266   */\n      dup3\n        /* \"#utility.yul\":1256:1290   */\n      mstore\n        /* \"#utility.yul\":1187:1296   */\n      pop\n      pop\n      jump\t// out\n        /* \"#utility.yul\":1302:1512   */\n    tag_32:\n        /* \"#utility.yul\":1389:1393   */\n      0x00\n        /* \"#utility.yul\":1427:1429   */\n      0x20\n        /* \"#utility.yul\":1416:1425   */\n      dup3\n        /* \"#utility.yul\":1412:1430   */\n      add\n        /* \"#utility.yul\":1404:1430   */\n      swap1\n      pop\n        /* \"#utility.yul\":1440:1505   */\n      tag_468\n        /* \"#utility.yul\":1502:1503   */\n      0x00\n        /* \"#utility.yul\":1491:1500   */\n      dup4\n        /* \"#utility.yul\":1487:1504   */\n      add\n        /* \"#utility.yul\":1478:1484   */\n      dup5\n        /* \"#utility.yul\":1440:1505   */\n      tag_379\n      jump\t// in\n    tag_468:\n        /* \"#utility.yul\":1302:1512   */\n      swap3\n      swap2\n      pop\n      pop\n      jump\t// out\n        /* \"#utility.yul\":1518:1617   */\n    tag_380:\n        /* \"#utility.yul\":1570:1576   */\n      0x00\n        /* \"#utility.yul\":1604:1609   */\n      dup2\n        /* \"#utility.yul\":1598:1610   */\n      mload\n        /* \"#utility.yul\":1588:1610   */\n      swap1\n      pop\n        /* \"#utility.yul\":1518:1617   */\n      swap2\n      swap1\n      pop\n      jump\t// out\n        /* \"#utility.yul\":1623:1792   */\n    tag_381:\n        /* \"#utility.yul\":1707:1718   */\n      0x00\n        /* \"#utility.yul\":1741:1747   */\n      dup3\n        /* \"#utility.yul\":1736:1739   */\n      dup3\n        /* \"#utility.yul\":1729:1748   */\n      mstore\n        /* \"#utility.yul\":1781:1785   */\n      0x20\n        /* \"#utility.yul\":1776:1779   */\n      dup3\n        /* \"#utility.yul\":1772:1786   */\n      add\n        /* \"#utility.yul\":1757:1786   */\n      swap1\n      pop\n        /* \"#utility.yul\":1623:1792   */\n      swap3\n      swap2\n      pop\n      pop\n      jump\t// out\n        /* \"#utility.yul\":1798:2044   */\n    tag_382:\n        /* \"#utility.yul\":1879:1880   */\n      0x00\n        /* \"#utility.yul\":1889:2002   */\n    tag_472:\n        /* \"#utility.yul\":1903:1909   */\n      dup4\n        /* \"#utility.yul\":1900:1901   */\n      dup2\n        /* \"#utility.yul\":1897:1910   */\n      lt\n        /* \"#utility.yul\":1889:2002   */\n      iszero\n      tag_474\n      jumpi\n        /* \"#utility.yul\":1988:1989   */\n      dup1\n        /* \"#utility.yul\":1983:1986   */\n      dup3\n        /* \"#utility.yul\":1979:1990   */\n      add\n        /* \"#utility.yul\":1973:1991   */\n      mload\n        /* \"#utility.yul\":1969:1970   */\n      dup2\n        /* \"#utility.yul\":1964:1967   */\n      dup5\n        /* \"#utility.yul\":1960:1971   */\n      add\n        /* \"#utility.yul\":1953:1992   */\n      mstore\n        /* \"#utility.yul\":1925:1927   */\n      0x20\n        /* \"#utility.yul\":1922:1923   */\n      dup2\n        /* \"#utility.yul\":1918:1928   */\n      add\n        /* \"#utility.yul\":1913:1928   */\n      swap1\n      pop\n        /* \"#utility.yul\":1889:2002   */\n      jump(tag_472)\n    tag_474:\n        /* \"#utility.yul\":2036:2037   */\n      0x00\n        /* \"#utility.yul\":2027:2033   */\n      dup5\n        /* \"#utility.yul\":2022:2025   */\n      dup5\n        /* \"#utility.yul\":2018:2034   */\n      add\n        /* \"#utility.yul\":2011:2038   */\n      mstore\n        /* \"#utility.yul\":1860:2044   */\n      pop\n        /* \"#utility.yul\":1798:2044   */\n      pop\n      pop\n      pop\n      jump\t// out\n        /* \"#utility.yul\":2050:2152   */\n    tag_383:\n        /* \"#utility.yul\":2091:2097   */\n      0x00\n        /* \"#utility.yul\":2142:2144   */\n      0x1f\n        /* \"#utility.yul\":2138:2145   */\n      not\n        /* \"#utility.yul\":2133:2135   */\n      0x1f\n        /* \"#utility.yul\":2126:2131   */\n      dup4\n        /* \"#utility.yul\":2122:2136   */\n      add\n        /* \"#utility.yul\":2118:2146   */\n      and\n        /* \"#utility.yul\":2108:2146   */\n      swap1\n      pop\n        /* \"#utility.yul\":2050:2152   */\n      swap2\n      swap1\n      pop\n      jump\t// out\n        /* \"#utility.yul\":2158:2535   */\n    tag_384:\n        /* \"#utility.yul\":2246:2249   */\n      0x00\n        /* \"#utility.yul\":2274:2313   */\n      tag_477\n        /* \"#utility.yul\":2307:2312   */\n      dup3\n        /* \"#utility.yul\":2274:2313   */\n      tag_380\n      jump\t// in\n    tag_477:\n        /* \"#utility.yul\":2329:2400   */\n      tag_478\n        /* \"#utility.yul\":2393:2399   */\n      dup2\n        /* \"#utility.yul\":2388:2391   */\n      dup6\n        /* \"#utility.yul\":2329:2400   */\n      tag_381\n      jump\t// in\n    tag_478:\n        /* \"#utility.yul\":2322:2400   */\n      swap4\n      pop\n        /* \"#utility.yul\":2409:2474   */\n      tag_479\n        /* \"#utility.yul\":2467:2473   */\n      dup2\n        /* \"#utility.yul\":2462:2465   */\n      dup6\n        /* \"#utility.yul\":2455:2459   */\n      0x20\n        /* \"#utility.yul\":2448:2453   */\n      dup7\n        /* \"#utility.yul\":2444:2460   */\n      add\n        /* \"#utility.yul\":2409:2474   */\n      tag_382\n      jump\t// in\n    tag_479:\n        /* \"#utility.yul\":2499:2528   */\n      tag_480\n        /* \"#utility.yul\":2521:2527   */\n      dup2\n        /* \"#utility.yul\":2499:2528   */\n      tag_383\n      jump\t// in\n    tag_480:\n        /* \"#utility.yul\":2494:2497   */\n      dup5\n        /* \"#utility.yul\":2490:2529   */\n      add\n        /* \"#utility.yul\":2483:2529   */\n      swap2\n      pop\n        /* \"#utility.yul\":2250:2535   */\n      pop\n        /* \"#utility.yul\":2158:2535   */\n      swap3\n      swap2\n      pop\n      pop\n      jump\t// out\n        /* \"#utility.yul\":2541:2854   */\n    tag_36:\n        /* \"#utility.yul\":2654:2658   */\n      0x00\n        /* \"#utility.yul\":2692:2694   */\n      0x20\n        /* \"#utility.yul\":2681:2690   */\n      dup3\n        /* \"#utility.yul\":2677:2695   */\n      add\n        /* \"#utility.yul\":2669:2695   */\n      swap1\n      pop\n        /* \"#utility.yul\":2741:2750   */\n      dup2\n        /* \"#utility.yul\":2735:2739   */\n      dup2\n        /* \"#utility.yul\":2731:2751   */\n      sub\n        /* \"#utility.yul\":2727:2728   */\n      0x00\n        /* \"#utility.yul\":2716:2725   */\n      dup4\n        /* \"#utility.yul\":2712:2729   */\n      add\n        /* \"#utility.yul\":2705:2752   */\n      mstore\n        /* \"#utility.yul\":2769:2847   */\n      tag_482\n        /* \"#utility.yul\":2842:2846   */\n      dup2\n        /* \"#utility.yul\":2833:2839   */\n      dup5\n        /* \"#utility.yul\":2769:2847   */\n      tag_384\n      jump\t// in\n    tag_482:\n        /* \"#utility.yul\":2761:2847   */\n      swap1\n      pop\n        /* \"#utility.yul\":2541:2854   */\n      swap3\n      swap2\n      pop\n      pop\n      jump\t// out\n        /* \"#utility.yul\":2860:2937   */\n    tag_385:\n        /* \"#utility.yul\":2897:2904   */\n      0x00\n        /* \"#utility.yul\":2926:2931   */\n      dup2\n        /* \"#utility.yul\":2915:2931   */\n      swap1\n      pop\n        /* \"#utility.yul\":2860:2937   */\n      swap2\n      swap1\n      pop\n      jump\t// out\n        /* \"#utility.yul\":2943:3065   */\n    tag_386:\n        /* \"#utility.yul\":3016:3040   */\n      tag_485\n        /* \"#utility.yul\":3034:3039   */\n      dup2\n        /* \"#utility.yul\":3016:3040   */\n      tag_385\n      jump\t// in\n    tag_485:\n        /* \"#utility.yul\":3009:3014   */\n      dup2\n        /* \"#utility.yul\":3006:3041   */\n      eq\n        /* \"#utility.yul\":2996:3059   */\n      tag_486\n      jumpi\n        /* \"#utility.yul\":3055:3056   */\n      0x00\n        /* \"#utility.yul\":3052:3053   */\n      dup1\n        /* \"#utility.yul\":3045:3057   */\n      revert\n        /* \"#utility.yul\":2996:3059   */\n    tag_486:\n        /* \"#utility.yul\":2943:3065   */\n      pop\n      jump\t// out\n        /* \"#utility.yul\":3071:3210   */\n    tag_387:\n        /* \"#utility.yul\":3117:3122   */\n      0x00\n        /* \"#utility.yul\":3155:3161   */\n      dup2\n        /* \"#utility.yul\":3142:3162   */\n      calldataload\n        /* \"#utility.yul\":3133:3162   */\n      swap1\n      pop\n        /* \"#utility.yul\":3171:3204   */\n      tag_488\n        /* \"#utility.yul\":3198:3203   */\n      dup2\n        /* \"#utility.yul\":3171:3204   */\n      tag_386\n      jump\t// in\n    tag_488:\n        /* \"#utility.yul\":3071:3210   */\n      swap3\n      swap2\n      pop\n      pop\n      jump\t// out\n        /* \"#utility.yul\":3216:3545   */\n    tag_39:\n        /* \"#utility.yul\":3275:3281   */\n      0x00\n        /* \"#utility.yul\":3324:3326   */\n      0x20\n        /* \"#utility.yul\":3312:3321   */\n      dup3\n        /* \"#utility.yul\":3303:3310   */\n      dup5\n        /* \"#utility.yul\":3299:3322   */\n      sub\n        /* \"#utility.yul\":3295:3327   */\n      slt\n        /* \"#utility.yul\":3292:3411   */\n      iszero\n      tag_490\n      jumpi\n        /* \"#utility.yul\":3330:3409   */\n      tag_491\n      tag_373\n      jump\t// in\n    tag_491:\n        /* \"#utility.yul\":3292:3411   */\n    tag_490:\n        /* \"#utility.yul\":3450:3451   */\n      0x00\n        /* \"#utility.yul\":3475:3528   */\n      tag_492\n        /* \"#utility.yul\":3520:3527   */\n      dup5\n        /* \"#utility.yul\":3511:3517   */\n      dup3\n        /* \"#utility.yul\":3500:3509   */\n      dup6\n        /* \"#utility.yul\":3496:3518   */\n      add\n        /* \"#utility.yul\":3475:3528   */\n      tag_387\n      jump\t// in\n    tag_492:\n        /* \"#utility.yul\":3465:3528   */\n      swap2\n      pop\n        /* \"#utility.yul\":3421:3538   */\n      pop\n        /* \"#utility.yul\":3216:3545   */\n      swap3\n      swap2\n      pop\n      pop\n      jump\t// out\n        /* \"#utility.yul\":3551:3677   */\n    tag_388:\n        /* \"#utility.yul\":3588:3595   */\n      0x00\n        /* \"#utility.yul\":3628:3670   */\n      0xffffffffffffffffffffffffffffffffffffffff\n        /* \"#utility.yul\":3621:3626   */\n      dup3\n        /* \"#utility.yul\":3617:3671   */\n      and\n        /* \"#utility.yul\":3606:3671   */\n      swap1\n      pop\n        /* \"#utility.yul\":3551:3677   */\n      swap2\n      swap1\n      pop\n      jump\t// out\n        /* \"#utility.yul\":3683:3779   */\n    tag_389:\n        /* \"#utility.yul\":3720:3727   */\n      0x00\n        /* \"#utility.yul\":3749:3773   */\n      tag_495\n        /* \"#utility.yul\":3767:3772   */\n      dup3\n        /* \"#utility.yul\":3749:3773   */\n      tag_388\n      jump\t// in\n    tag_495:\n        /* \"#utility.yul\":3738:3773   */\n      swap1\n      pop\n        /* \"#utility.yul\":3683:3779   */\n      swap2\n      swap1\n      pop\n      jump\t// out\n        /* \"#utility.yul\":3785:3903   */\n    tag_390:\n        /* \"#utility.yul\":3872:3896   */\n      tag_497\n        /* \"#utility.yul\":3890:3895   */\n      dup2\n        /* \"#utility.yul\":3872:3896   */\n      tag_389\n      jump\t// in\n    tag_497:\n        /* \"#utility.yul\":3867:3870   */\n      dup3\n        /* \"#utility.yul\":3860:3897   */\n      mstore\n        /* \"#utility.yul\":3785:3903   */\n      pop\n      pop\n      jump\t// out\n        /* \"#utility.yul\":3909:4131   */\n    tag_42:\n        /* \"#utility.yul\":4002:4006   */\n      0x00\n        /* \"#utility.yul\":4040:4042   */\n      0x20\n        /* \"#utility.yul\":4029:4038   */\n      dup3\n        /* \"#utility.yul\":4025:4043   */\n      add\n        /* \"#utility.yul\":4017:4043   */\n      swap1\n      pop\n        /* \"#utility.yul\":4053:4124   */\n      tag_499\n        /* \"#utility.yul\":4121:4122   */\n      0x00\n        /* \"#utility.yul\":4110:4119   */\n      dup4\n        /* \"#utility.yul\":4106:4123   */\n      add\n        /* \"#utility.yul\":4097:4103   */\n      dup5\n        /* \"#utility.yul\":4053:4124   */\n      tag_390\n      jump\t// in\n    tag_499:\n        /* \"#utility.yul\":3909:4131   */\n      swap3\n      swap2\n      pop\n      pop\n      jump\t// out\n        /* \"#utility.yul\":4137:4259   */\n    tag_391:\n        /* \"#utility.yul\":4210:4234   */\n      tag_501\n        /* \"#utility.yul\":4228:4233   */\n      dup2\n        /* \"#utility.yul\":4210:4234   */\n      tag_389\n      jump\t// in\n    tag_501:\n        /* \"#utility.yul\":4203:4208   */\n      dup2\n        /* \"#utility.yul\":4200:4235   */\n      eq\n        /* \"#utility.yul\":4190:4253   */\n      tag_502\n      jumpi\n        /* \"#utility.yul\":4249:4250   */\n      0x00\n        /* \"#utility.yul\":4246:4247   */\n      dup1\n        /* \"#utility.yul\":4239:4251   */\n      revert\n        /* \"#utility.yul\":4190:4253   */\n    tag_502:\n        /* \"#utility.yul\":4137:4259   */\n      pop\n      jump\t// out\n        /* \"#utility.yul\":4265:4404   */\n    tag_392:\n        /* \"#utility.yul\":4311:4316   */\n      0x00\n        /* \"#utility.yul\":4349:4355   */\n      dup2\n        /* \"#utility.yul\":4336:4356   */\n      calldataload\n        /* \"#utility.yul\":4327:4356   */\n      swap1\n      pop\n        /* \"#utility.yul\":4365:4398   */\n      tag_504\n        /* \"#utility.yul\":4392:4397   */\n      dup2\n        /* \"#utility.yul\":4365:4398   */\n      tag_391\n      jump\t// in\n    tag_504:\n        /* \"#utility.yul\":4265:4404   */\n      swap3\n      swap2\n      pop\n      pop\n      jump\t// out\n        /* \"#utility.yul\":4410:4884   */\n    tag_45:\n        /* \"#utility.yul\":4478:4484   */\n      0x00\n        /* \"#utility.yul\":4486:4492   */\n      dup1\n        /* \"#utility.yul\":4535:4537   */\n      0x40\n        /* \"#utility.yul\":4523:4532   */\n      dup4\n        /* \"#utility.yul\":4514:4521   */\n      dup6\n        /* \"#utility.yul\":4510:4533   */\n      sub\n        /* \"#utility.yul\":4506:4538   */\n      slt\n        /* \"#utility.yul\":4503:4622   */\n      iszero\n      tag_506\n      jumpi\n        /* \"#utility.yul\":4541:4620   */\n      tag_507\n      tag_373\n      jump\t// in\n    tag_507:\n        /* \"#utility.yul\":4503:4622   */\n    tag_506:\n        /* \"#utility.yul\":4661:4662   */\n      0x00\n        /* \"#utility.yul\":4686:4739   */\n      tag_508\n        /* \"#utility.yul\":4731:4738   */\n      dup6\n        /* \"#utility.yul\":4722:4728   */\n      dup3\n        /* \"#utility.yul\":4711:4720   */\n      dup7\n        /* \"#utility.yul\":4707:4729   */\n      add\n        /* \"#utility.yul\":4686:4739   */\n      tag_392\n      jump\t// in\n    tag_508:\n        /* \"#utility.yul\":4676:4739   */\n      swap3\n      pop\n        /* \"#utility.yul\":4632:4749   */\n      pop\n        /* \"#utility.yul\":4788:4790   */\n      0x20\n        /* \"#utility.yul\":4814:4867   */\n      tag_509\n        /* \"#utility.yul\":4859:4866   */\n      dup6\n        /* \"#utility.yul\":4850:4856   */\n      dup3\n        /* \"#utility.yul\":4839:4848   */\n      dup7\n        /* \"#utility.yul\":4835:4857   */\n      add\n        /* \"#utility.yul\":4814:4867   */\n      tag_387\n      jump\t// in\n    tag_509:\n        /* \"#utility.yul\":4804:4867   */\n      swap2\n      pop\n        /* \"#utility.yul\":4759:4877   */\n      pop\n        /* \"#utility.yul\":4410:4884   */\n      swap3\n      pop\n      swap3\n      swap1\n      pop\n      jump\t// out\n        /* \"#utility.yul\":4890:5007   */\n    tag_393:\n        /* \"#utility.yul\":4999:5000   */\n      0x00\n        /* \"#utility.yul\":4996:4997   */\n      dup1\n        /* \"#utility.yul\":4989:5001   */\n      revert\n        /* \"#utility.yul\":5013:5130   */\n    tag_394:\n        /* \"#utility.yul\":5122:5123   */\n      0x00\n        /* \"#utility.yul\":5119:5120   */\n      dup1\n        /* \"#utility.yul\":5112:5124   */\n      revert\n        /* \"#utility.yul\":5136:5316   */\n    tag_160:\n        /* \"#utility.yul\":5184:5261   */\n      0x4e487b7100000000000000000000000000000000000000000000000000000000\n        /* \"#utility.yul\":5181:5182   */\n      0x00\n        /* \"#utility.yul\":5174:5262   */\n      mstore\n        /* \"#utility.yul\":5281:5285   */\n      0x41\n        /* \"#utility.yul\":5278:5279   */\n      0x04\n        /* \"#utility.yul\":5271:5286   */\n      mstore\n        /* \"#utility.yul\":5305:5309   */\n      0x24\n        /* \"#utility.yul\":5302:5303   */\n      0x00\n        /* \"#utility.yul\":5295:5310   */\n      revert\n        /* \"#utility.yul\":5322:5603   */\n    tag_395:\n        /* \"#utility.yul\":5405:5432   */\n      tag_514\n        /* \"#utility.yul\":5427:5431   */\n      dup3\n        /* \"#utility.yul\":5405:5432   */\n      tag_383\n      jump\t// in\n    tag_514:\n        /* \"#utility.yul\":5397:5403   */\n      dup2\n        /* \"#utility.yul\":5393:5433   */\n      add\n        /* \"#utility.yul\":5535:5541   */\n      dup2\n        /* \"#utility.yul\":5523:5533   */\n      dup2\n        /* \"#utility.yul\":5520:5542   */\n      lt\n        /* \"#utility.yul\":5499:5517   */\n      0xffffffffffffffff\n        /* \"#utility.yul\":5487:5497   */\n      dup3\n        /* \"#utility.yul\":5484:5518   */\n      gt\n        /* \"#utility.yul\":5481:5543   */\n      or\n        /* \"#utility.yul\":5478:5566   */\n      iszero\n      tag_515\n      jumpi\n        /* \"#utility.yul\":5546:5564   */\n      tag_516\n      tag_160\n      jump\t// in\n    tag_516:\n        /* \"#utility.yul\":5478:5566   */\n    tag_515:\n        /* \"#utility.yul\":5586:5596   */\n      dup1\n        /* \"#utility.yul\":5582:5584   */\n      0x40\n        /* \"#utility.yul\":5575:5597   */\n      mstore\n        /* \"#utility.yul\":5365:5603   */\n      pop\n        /* \"#utility.yul\":5322:5603   */\n      pop\n      pop\n      jump\t// out\n        /* \"#utility.yul\":5609:5738   */\n    tag_396:\n        /* \"#utility.yul\":5643:5649   */\n      0x00\n        /* \"#utility.yul\":5670:5690   */\n      tag_518\n      tag_372\n      jump\t// in\n    tag_518:\n        /* \"#utility.yul\":5660:5690   */\n      swap1\n      pop\n        /* \"#utility.yul\":5699:5732   */\n      tag_519\n        /* \"#utility.yul\":5727:5731   */\n      dup3\n        /* \"#utility.yul\":5719:5725   */\n      dup3\n        /* \"#utility.yul\":5699:5732   */\n      tag_395\n      jump\t// in\n    tag_519:\n        /* \"#utility.yul\":5609:5738   */\n      swap2\n      swap1\n      pop\n      jump\t// out\n        /* \"#utility.yul\":5744:6052   */\n    tag_397:\n        /* \"#utility.yul\":5806:5810   */\n      0x00\n        /* \"#utility.yul\":5896:5914   */\n      0xffffffffffffffff\n        /* \"#utility.yul\":5888:5894   */\n      dup3\n        /* \"#utility.yul\":5885:5915   */\n      gt\n        /* \"#utility.yul\":5882:5938   */\n      iszero\n      tag_521\n      jumpi\n        /* \"#utility.yul\":5918:5936   */\n      tag_522\n      tag_160\n      jump\t// in\n    tag_522:\n        /* \"#utility.yul\":5882:5938   */\n    tag_521:\n        /* \"#utility.yul\":5956:5985   */\n      tag_523\n        /* \"#utility.yul\":5978:5984   */\n      dup3\n        /* \"#utility.yul\":5956:5985   */\n      tag_383\n      jump\t// in\n    tag_523:\n        /* \"#utility.yul\":5948:5985   */\n      swap1\n      pop\n        /* \"#utility.yul\":6040:6044   */\n      0x20\n        /* \"#utility.yul\":6034:6038   */\n      dup2\n        /* \"#utility.yul\":6030:6045   */\n      add\n        /* \"#utility.yul\":6022:6045   */\n      swap1\n      pop\n        /* \"#utility.yul\":5744:6052   */\n      swap2\n      swap1\n      pop\n      jump\t// out\n        /* \"#utility.yul\":6058:6204   */\n    tag_398:\n        /* \"#utility.yul\":6155:6161   */\n      dup3\n        /* \"#utility.yul\":6150:6153   */\n      dup2\n        /* \"#utility.yul\":6145:6148   */\n      dup4\n        /* \"#utility.yul\":6132:6162   */\n      calldatacopy\n        /* \"#utility.yul\":6196:6197   */\n      0x00\n        /* \"#utility.yul\":6187:6193   */\n      dup4\n        /* \"#utility.yul\":6182:6185   */\n      dup4\n        /* \"#utility.yul\":6178:6194   */\n      add\n        /* \"#utility.yul\":6171:6198   */\n      mstore\n        /* \"#utility.yul\":6058:6204   */\n      pop\n      pop\n      pop\n      jump\t// out\n        /* \"#utility.yul\":6210:6635   */\n    tag_399:\n        /* \"#utility.yul\":6288:6293   */\n      0x00\n        /* \"#utility.yul\":6313:6379   */\n      tag_526\n        /* \"#utility.yul\":6329:6378   */\n      tag_527\n        /* \"#utility.yul\":6371:6377   */\n      dup5\n        /* \"#utility.yul\":6329:6378   */\n      tag_397\n      jump\t// in\n    tag_527:\n        /* \"#utility.yul\":6313:6379   */\n      tag_396\n      jump\t// in\n    tag_526:\n        /* \"#utility.yul\":6304:6379   */\n      swap1\n      pop\n        /* \"#utility.yul\":6402:6408   */\n      dup3\n        /* \"#utility.yul\":6395:6400   */\n      dup2\n        /* \"#utility.yul\":6388:6409   */\n      mstore\n        /* \"#utility.yul\":6440:6444   */\n      0x20\n        /* \"#utility.yul\":6433:6438   */\n      dup2\n        /* \"#utility.yul\":6429:6445   */\n      add\n        /* \"#utility.yul\":6478:6481   */\n      dup5\n        /* \"#utility.yul\":6469:6475   */\n      dup5\n        /* \"#utility.yul\":6464:6467   */\n      dup5\n        /* \"#utility.yul\":6460:6476   */\n      add\n        /* \"#utility.yul\":6457:6482   */\n      gt\n        /* \"#utility.yul\":6454:6566   */\n      iszero\n      tag_528\n      jumpi\n        /* \"#utility.yul\":6485:6564   */\n      tag_529\n      tag_394\n      jump\t// in\n    tag_529:\n        /* \"#utility.yul\":6454:6566   */\n    tag_528:\n        /* \"#utility.yul\":6575:6629   */\n      tag_530\n        /* \"#utility.yul\":6622:6628   */\n      dup5\n        /* \"#utility.yul\":6617:6620   */\n      dup3\n        /* \"#utility.yul\":6612:6615   */\n      dup6\n        /* \"#utility.yul\":6575:6629   */\n      tag_398\n      jump\t// in\n    tag_530:\n        /* \"#utility.yul\":6294:6635   */\n      pop\n        /* \"#utility.yul\":6210:6635   */\n      swap4\n      swap3\n      pop\n      pop\n      pop\n      jump\t// out\n        /* \"#utility.yul\":6655:6995   */\n    tag_400:\n        /* \"#utility.yul\":6711:6716   */\n      0x00\n        /* \"#utility.yul\":6760:6763   */\n      dup3\n        /* \"#utility.yul\":6753:6757   */\n      0x1f\n        /* \"#utility.yul\":6745:6751   */\n      dup4\n        /* \"#utility.yul\":6741:6758   */\n      add\n        /* \"#utility.yul\":6737:6764   */\n      slt\n        /* \"#utility.yul\":6727:6849   */\n      tag_532\n      jumpi\n        /* \"#utility.yul\":6768:6847   */\n      tag_533\n      tag_393\n      jump\t// in\n    tag_533:\n        /* \"#utility.yul\":6727:6849   */\n    tag_532:\n        /* \"#utility.yul\":6885:6891   */\n      dup2\n        /* \"#utility.yul\":6872:6892   */\n      calldataload\n        /* \"#utility.yul\":6910:6989   */\n      tag_534\n        /* \"#utility.yul\":6985:6988   */\n      dup5\n        /* \"#utility.yul\":6977:6983   */\n      dup3\n        /* \"#utility.yul\":6970:6974   */\n      0x20\n        /* \"#utility.yul\":6962:6968   */\n      dup7\n        /* \"#utility.yul\":6958:6975   */\n      add\n        /* \"#utility.yul\":6910:6989   */\n      tag_399\n      jump\t// in\n    tag_534:\n        /* \"#utility.yul\":6901:6989   */\n      swap2\n      pop\n        /* \"#utility.yul\":6717:6995   */\n      pop\n        /* \"#utility.yul\":6655:6995   */\n      swap3\n      swap2\n      pop\n      pop\n      jump\t// out\n        /* \"#utility.yul\":7001:7510   */\n    tag_49:\n        /* \"#utility.yul\":7070:7076   */\n      0x00\n        /* \"#utility.yul\":7119:7121   */\n      0x20\n        /* \"#utility.yul\":7107:7116   */\n      dup3\n        /* \"#utility.yul\":7098:7105   */\n      dup5\n        /* \"#utility.yul\":7094:7117   */\n      sub\n        /* \"#utility.yul\":7090:7122   */\n      slt\n        /* \"#utility.yul\":7087:7206   */\n      iszero\n      tag_536\n      jumpi\n        /* \"#utility.yul\":7125:7204   */\n      tag_537\n      tag_373\n      jump\t// in\n    tag_537:\n        /* \"#utility.yul\":7087:7206   */\n    tag_536:\n        /* \"#utility.yul\":7273:7274   */\n      0x00\n        /* \"#utility.yul\":7262:7271   */\n      dup3\n        /* \"#utility.yul\":7258:7275   */\n      add\n        /* \"#utility.yul\":7245:7276   */\n      calldataload\n        /* \"#utility.yul\":7303:7321   */\n      0xffffffffffffffff\n        /* \"#utility.yul\":7295:7301   */\n      dup2\n        /* \"#utility.yul\":7292:7322   */\n      gt\n        /* \"#utility.yul\":7289:7406   */\n      iszero\n      tag_538\n      jumpi\n        /* \"#utility.yul\":7325:7404   */\n      tag_539\n      tag_374\n      jump\t// in\n    tag_539:\n        /* \"#utility.yul\":7289:7406   */\n    tag_538:\n        /* \"#utility.yul\":7430:7493   */\n      tag_540\n        /* \"#utility.yul\":7485:7492   */\n      dup5\n        /* \"#utility.yul\":7476:7482   */\n      dup3\n        /* \"#utility.yul\":7465:7474   */\n      dup6\n        /* \"#utility.yul\":7461:7483   */\n      add\n        /* \"#utility.yul\":7430:7493   */\n      tag_400\n      jump\t// in\n    tag_540:\n        /* \"#utility.yul\":7420:7493   */\n      swap2\n      pop\n        /* \"#utility.yul\":7216:7503   */\n      pop\n        /* \"#utility.yul\":7001:7510   */\n      swap3\n      swap2\n      pop\n      pop\n      jump\t// out\n        /* \"#utility.yul\":7516:8135   */\n    tag_53:\n        /* \"#utility.yul\":7593:7599   */\n      0x00\n        /* \"#utility.yul\":7601:7607   */\n      dup1\n        /* \"#utility.yul\":7609:7615   */\n      0x00\n        /* \"#utility.yul\":7658:7660   */\n      0x60\n        /* \"#utility.yul\":7646:7655   */\n      dup5\n        /* \"#utility.yul\":7637:7644   */\n      dup7\n        /* \"#utility.yul\":7633:7656   */\n      sub\n        /* \"#utility.yul\":7629:7661   */\n      slt\n        /* \"#utility.yul\":7626:7745   */\n      iszero\n      tag_542\n      jumpi\n        /* \"#utility.yul\":7664:7743   */\n      tag_543\n      tag_373\n      jump\t// in\n    tag_543:\n        /* \"#utility.yul\":7626:7745   */\n    tag_542:\n        /* \"#utility.yul\":7784:7785   */\n      0x00\n        /* \"#utility.yul\":7809:7862   */\n      tag_544\n        /* \"#utility.yul\":7854:7861   */\n      dup7\n        /* \"#utility.yul\":7845:7851   */\n      dup3\n        /* \"#utility.yul\":7834:7843   */\n      dup8\n        /* \"#utility.yul\":7830:7852   */\n      add\n        /* \"#utility.yul\":7809:7862   */\n      tag_392\n      jump\t// in\n    tag_544:\n        /* \"#utility.yul\":7799:7862   */\n      swap4\n      pop\n        /* \"#utility.yul\":7755:7872   */\n      pop\n        /* \"#utility.yul\":7911:7913   */\n      0x20\n        /* \"#utility.yul\":7937:7990   */\n      tag_545\n        /* \"#utility.yul\":7982:7989   */\n      dup7\n        /* \"#utility.yul\":7973:7979   */\n      dup3\n        /* \"#utility.yul\":7962:7971   */\n      dup8\n        /* \"#utility.yul\":7958:7980   */\n      add\n        /* \"#utility.yul\":7937:7990   */\n      tag_392\n      jump\t// in\n    tag_545:\n        /* \"#utility.yul\":7927:7990   */\n      swap3\n      pop\n        /* \"#utility.yul\":7882:8000   */\n      pop\n        /* \"#utility.yul\":8039:8041   */\n      0x40\n        /* \"#utility.yul\":8065:8118   */\n      tag_546\n        /* \"#utility.yul\":8110:8117   */\n      dup7\n        /* \"#utility.yul\":8101:8107   */\n      dup3\n        /* \"#utility.yul\":8090:8099   */\n      dup8\n        /* \"#utility.yul\":8086:8108   */\n      add\n        /* \"#utility.yul\":8065:8118   */\n      tag_387\n      jump\t// in\n    tag_546:\n        /* \"#utility.yul\":8055:8118   */\n      swap2\n      pop\n        /* \"#utility.yul\":8010:8128   */\n      pop\n        /* \"#utility.yul\":7516:8135   */\n      swap3\n      pop\n      swap3\n      pop\n      swap3\n      jump\t// out\n        /* \"#utility.yul\":8141:8257   */\n    tag_401:\n        /* \"#utility.yul\":8211:8232   */\n      tag_548\n        /* \"#utility.yul\":8226:8231   */\n      dup2\n        /* \"#utility.yul\":8211:8232   */\n      tag_378\n      jump\t// in\n    tag_548:\n        /* \"#utility.yul\":8204:8209   */\n      dup2\n        /* \"#utility.yul\":8201:8233   */\n      eq\n        /* \"#utility.yul\":8191:8251   */\n      tag_549\n      jumpi\n        /* \"#utility.yul\":8247:8248   */\n      0x00\n        /* \"#utility.yul\":8244:8245   */\n      dup1\n        /* \"#utility.yul\":8237:8249   */\n      revert\n        /* \"#utility.yul\":8191:8251   */\n    tag_549:\n        /* \"#utility.yul\":8141:8257   */\n      pop\n      jump\t// out\n        /* \"#utility.yul\":8263:8396   */\n    tag_402:\n        /* \"#utility.yul\":8306:8311   */\n      0x00\n        /* \"#utility.yul\":8344:8350   */\n      dup2\n        /* \"#utility.yul\":8331:8351   */\n      calldataload\n        /* \"#utility.yul\":8322:8351   */\n      swap1\n      pop\n        /* \"#utility.yul\":8360:8390   */\n      tag_551\n        /* \"#utility.yul\":8384:8389   */\n      dup2\n        /* \"#utility.yul\":8360:8390   */\n      tag_401\n      jump\t// in\n    tag_551:\n        /* \"#utility.yul\":8263:8396   */\n      swap3\n      swap2\n      pop\n      pop\n      jump\t// out\n        /* \"#utility.yul\":8402:9015   */\n    tag_57:\n        /* \"#utility.yul\":8476:8482   */\n      0x00\n        /* \"#utility.yul\":8484:8490   */\n      dup1\n        /* \"#utility.yul\":8492:8498   */\n      0x00\n        /* \"#utility.yul\":8541:8543   */\n      0x60\n        /* \"#utility.yul\":8529:8538   */\n      dup5\n        /* \"#utility.yul\":8520:8527   */\n      dup7\n        /* \"#utility.yul\":8516:8539   */\n      sub\n        /* \"#utility.yul\":8512:8544   */\n      slt\n        /* \"#utility.yul\":8509:8628   */\n      iszero\n      tag_553\n      jumpi\n        /* \"#utility.yul\":8547:8626   */\n      tag_554\n      tag_373\n      jump\t// in\n    tag_554:\n        /* \"#utility.yul\":8509:8628   */\n    tag_553:\n        /* \"#utility.yul\":8667:8668   */\n      0x00\n        /* \"#utility.yul\":8692:8745   */\n      tag_555\n        /* \"#utility.yul\":8737:8744   */\n      dup7\n        /* \"#utility.yul\":8728:8734   */\n      dup3\n        /* \"#utility.yul\":8717:8726   */\n      dup8\n        /* \"#utility.yul\":8713:8735   */\n      add\n        /* \"#utility.yul\":8692:8745   */\n      tag_392\n      jump\t// in\n    tag_555:\n        /* \"#utility.yul\":8682:8745   */\n      swap4\n      pop\n        /* \"#utility.yul\":8638:8755   */\n      pop\n        /* \"#utility.yul\":8794:8796   */\n      0x20\n        /* \"#utility.yul\":8820:8873   */\n      tag_556\n        /* \"#utility.yul\":8865:8872   */\n      dup7\n        /* \"#utility.yul\":8856:8862   */\n      dup3\n        /* \"#utility.yul\":8845:8854   */\n      dup8\n        /* \"#utility.yul\":8841:8863   */\n      add\n        /* \"#utility.yul\":8820:8873   */\n      tag_392\n      jump\t// in\n    tag_556:\n        /* \"#utility.yul\":8810:8873   */\n      swap3\n      pop\n        /* \"#utility.yul\":8765:8883   */\n      pop\n        /* \"#utility.yul\":8922:8924   */\n      0x40\n        /* \"#utility.yul\":8948:8998   */\n      tag_557\n        /* \"#utility.yul\":8990:8997   */\n      dup7\n        /* \"#utility.yul\":8981:8987   */\n      dup3\n        /* \"#utility.yul\":8970:8979   */\n      dup8\n        /* \"#utility.yul\":8966:8988   */\n      add\n        /* \"#utility.yul\":8948:8998   */\n      tag_402\n      jump\t// in\n    tag_557:\n        /* \"#utility.yul\":8938:8998   */\n      swap2\n      pop\n        /* \"#utility.yul\":8893:9008   */\n      pop\n        /* \"#utility.yul\":8402:9015   */\n      swap3\n      pop\n      swap3\n      pop\n      swap3\n      jump\t// out\n        /* \"#utility.yul\":9021:9162   */\n    tag_403:\n        /* \"#utility.yul\":9115:9121   */\n      0x00\n        /* \"#utility.yul\":9149:9154   */\n      dup2\n        /* \"#utility.yul\":9143:9155   */\n      mload\n        /* \"#utility.yul\":9133:9155   */\n      swap1\n      pop\n        /* \"#utility.yul\":9021:9162   */\n      swap2\n      swap1\n      pop\n      jump\t// out\n        /* \"#utility.yul\":9168:9379   */\n    tag_404:\n        /* \"#utility.yul\":9294:9305   */\n      0x00\n        /* \"#utility.yul\":9328:9334   */\n      dup3\n        /* \"#utility.yul\":9323:9326   */\n      dup3\n        /* \"#utility.yul\":9316:9335   */\n      mstore\n        /* \"#utility.yul\":9368:9372   */\n      0x20\n        /* \"#utility.yul\":9363:9366   */\n      dup3\n        /* \"#utility.yul\":9359:9373   */\n      add\n        /* \"#utility.yul\":9344:9373   */\n      swap1\n      pop\n        /* \"#utility.yul\":9168:9379   */\n      swap3\n      swap2\n      pop\n      pop\n      jump\t// out\n        /* \"#utility.yul\":9385:9544   */\n    tag_405:\n        /* \"#utility.yul\":9479:9483   */\n      0x00\n        /* \"#utility.yul\":9502:9505   */\n      dup2\n        /* \"#utility.yul\":9494:9505   */\n      swap1\n      pop\n        /* \"#utility.yul\":9532:9536   */\n      0x20\n        /* \"#utility.yul\":9527:9530   */\n      dup3\n        /* \"#utility.yul\":9523:9537   */\n      add\n        /* \"#utility.yul\":9515:9537   */\n      swap1\n      pop\n        /* \"#utility.yul\":9385:9544   */\n      swap2\n      swap1\n      pop\n      jump\t// out\n        /* \"#utility.yul\":9550:9709   */\n    tag_406:\n        /* \"#utility.yul\":9624:9635   */\n      0x00\n        /* \"#utility.yul\":9658:9664   */\n      dup3\n        /* \"#utility.yul\":9653:9656   */\n      dup3\n        /* \"#utility.yul\":9646:9665   */\n      mstore\n        /* \"#utility.yul\":9698:9702   */\n      0x20\n        /* \"#utility.yul\":9693:9696   */\n      dup3\n        /* \"#utility.yul\":9689:9703   */\n      add\n        /* \"#utility.yul\":9674:9703   */\n      swap1\n      pop\n        /* \"#utility.yul\":9550:9709   */\n      swap3\n      swap2\n      pop\n      pop\n      jump\t// out\n        /* \"#utility.yul\":9715:10072   */\n    tag_407:\n        /* \"#utility.yul\":9793:9796   */\n      0x00\n        /* \"#utility.yul\":9821:9860   */\n      tag_563\n        /* \"#utility.yul\":9854:9859   */\n      dup3\n        /* \"#utility.yul\":9821:9860   */\n      tag_380\n      jump\t// in\n    tag_563:\n        /* \"#utility.yul\":9876:9937   */\n      tag_564\n        /* \"#utility.yul\":9930:9936   */\n      dup2\n        /* \"#utility.yul\":9925:9928   */\n      dup6\n        /* \"#utility.yul\":9876:9937   */\n      tag_406\n      jump\t// in\n    tag_564:\n        /* \"#utility.yul\":9869:9937   */\n      swap4\n      pop\n        /* \"#utility.yul\":9946:10011   */\n      tag_565\n        /* \"#utility.yul\":10004:10010   */\n      dup2\n        /* \"#utility.yul\":9999:10002   */\n      dup6\n        /* \"#utility.yul\":9992:9996   */\n      0x20\n        /* \"#utility.yul\":9985:9990   */\n      dup7\n        /* \"#utility.yul\":9981:9997   */\n      add\n        /* \"#utility.yul\":9946:10011   */\n      tag_382\n      jump\t// in\n    tag_565:\n        /* \"#utility.yul\":10036:10065   */\n      tag_566\n        /* \"#utility.yul\":10058:10064   */\n      dup2\n        /* \"#utility.yul\":10036:10065   */\n      tag_383\n      jump\t// in\n    tag_566:\n        /* \"#utility.yul\":10031:10034   */\n      dup5\n        /* \"#utility.yul\":10027:10066   */\n      add\n        /* \"#utility.yul\":10020:10066   */\n      swap2\n      pop\n        /* \"#utility.yul\":9797:10072   */\n      pop\n        /* \"#utility.yul\":9715:10072   */\n      swap3\n      swap2\n      pop\n      pop\n      jump\t// out\n        /* \"#utility.yul\":10078:10186   */\n    tag_408:\n        /* \"#utility.yul\":10155:10179   */\n      tag_568\n        /* \"#utility.yul\":10173:10178   */\n      dup2\n        /* \"#utility.yul\":10155:10179   */\n      tag_385\n      jump\t// in\n    tag_568:\n        /* \"#utility.yul\":10150:10153   */\n      dup3\n        /* \"#utility.yul\":10143:10180   */\n      mstore\n        /* \"#utility.yul\":10078:10186   */\n      pop\n      pop\n      jump\t// out\n        /* \"#utility.yul\":10248:10854   */\n    tag_409:\n        /* \"#utility.yul\":10361:10364   */\n      0x00\n        /* \"#utility.yul\":10397:10401   */\n      0x40\n        /* \"#utility.yul\":10392:10395   */\n      dup4\n        /* \"#utility.yul\":10388:10402   */\n      add\n        /* \"#utility.yul\":10487:10491   */\n      0x00\n        /* \"#utility.yul\":10480:10485   */\n      dup4\n        /* \"#utility.yul\":10476:10492   */\n      add\n        /* \"#utility.yul\":10470:10493   */\n      mload\n        /* \"#utility.yul\":10540:10543   */\n      dup5\n        /* \"#utility.yul\":10534:10538   */\n      dup3\n        /* \"#utility.yul\":10530:10544   */\n      sub\n        /* \"#utility.yul\":10523:10527   */\n      0x00\n        /* \"#utility.yul\":10518:10521   */\n      dup7\n        /* \"#utility.yul\":10514:10528   */\n      add\n        /* \"#utility.yul\":10507:10545   */\n      mstore\n        /* \"#utility.yul\":10566:10639   */\n      tag_570\n        /* \"#utility.yul\":10634:10638   */\n      dup3\n        /* \"#utility.yul\":10620:10632   */\n      dup3\n        /* \"#utility.yul\":10566:10639   */\n      tag_407\n      jump\t// in\n    tag_570:\n        /* \"#utility.yul\":10558:10639   */\n      swap2\n      pop\n        /* \"#utility.yul\":10412:10650   */\n      pop\n        /* \"#utility.yul\":10735:10739   */\n      0x20\n        /* \"#utility.yul\":10728:10733   */\n      dup4\n        /* \"#utility.yul\":10724:10740   */\n      add\n        /* \"#utility.yul\":10718:10741   */\n      mload\n        /* \"#utility.yul\":10754:10817   */\n      tag_571\n        /* \"#utility.yul\":10811:10815   */\n      0x20\n        /* \"#utility.yul\":10806:10809   */\n      dup7\n        /* \"#utility.yul\":10802:10816   */\n      add\n        /* \"#utility.yul\":10788:10800   */\n      dup3\n        /* \"#utility.yul\":10754:10817   */\n      tag_408\n      jump\t// in\n    tag_571:\n        /* \"#utility.yul\":10660:10827   */\n      pop\n        /* \"#utility.yul\":10844:10848   */\n      dup1\n        /* \"#utility.yul\":10837:10848   */\n      swap2\n      pop\n        /* \"#utility.yul\":10366:10854   */\n      pop\n        /* \"#utility.yul\":10248:10854   */\n      swap3\n      swap2\n      pop\n      pop\n      jump\t// out\n        /* \"#utility.yul\":10860:11124   */\n    tag_410:\n        /* \"#utility.yul\":10983:10993   */\n      0x00\n        /* \"#utility.yul\":11018:11118   */\n      tag_573\n        /* \"#utility.yul\":11114:11117   */\n      dup4\n        /* \"#utility.yul\":11106:11112   */\n      dup4\n        /* \"#utility.yul\":11018:11118   */\n      tag_409\n      jump\t// in\n    tag_573:\n        /* \"#utility.yul\":11004:11118   */\n      swap1\n      pop\n        /* \"#utility.yul\":10860:11124   */\n      swap3\n      swap2\n      pop\n      pop\n      jump\t// out\n        /* \"#utility.yul\":11130:11270   */\n    tag_411:\n        /* \"#utility.yul\":11227:11231   */\n      0x00\n        /* \"#utility.yul\":11259:11263   */\n      0x20\n        /* \"#utility.yul\":11254:11257   */\n      dup3\n        /* \"#utility.yul\":11250:11264   */\n      add\n        /* \"#utility.yul\":11242:11264   */\n      swap1\n      pop\n        /* \"#utility.yul\":11130:11270   */\n      swap2\n      swap1\n      pop\n      jump\t// out\n        /* \"#utility.yul\":11336:12463   */\n    tag_412:\n        /* \"#utility.yul\":11509:11512   */\n      0x00\n        /* \"#utility.yul\":11538:11619   */\n      tag_576\n        /* \"#utility.yul\":11613:11618   */\n      dup3\n        /* \"#utility.yul\":11538:11619   */\n      tag_403\n      jump\t// in\n    tag_576:\n        /* \"#utility.yul\":11635:11748   */\n      tag_577\n        /* \"#utility.yul\":11741:11747   */\n      dup2\n        /* \"#utility.yul\":11736:11739   */\n      dup6\n        /* \"#utility.yul\":11635:11748   */\n      tag_404\n      jump\t// in\n    tag_577:\n        /* \"#utility.yul\":11628:11748   */\n      swap4\n      pop\n        /* \"#utility.yul\":11774:11777   */\n      dup4\n        /* \"#utility.yul\":11819:11823   */\n      0x20\n        /* \"#utility.yul\":11811:11817   */\n      dup3\n        /* \"#utility.yul\":11807:11824   */\n      mul\n        /* \"#utility.yul\":11802:11805   */\n      dup6\n        /* \"#utility.yul\":11798:11825   */\n      add\n        /* \"#utility.yul\":11849:11932   */\n      tag_578\n        /* \"#utility.yul\":11926:11931   */\n      dup6\n        /* \"#utility.yul\":11849:11932   */\n      tag_405\n      jump\t// in\n    tag_578:\n        /* \"#utility.yul\":11955:11962   */\n      dup1\n        /* \"#utility.yul\":11986:11987   */\n      0x00\n        /* \"#utility.yul\":11971:12418   */\n    tag_579:\n        /* \"#utility.yul\":11996:12002   */\n      dup6\n        /* \"#utility.yul\":11993:11994   */\n      dup2\n        /* \"#utility.yul\":11990:12003   */\n      lt\n        /* \"#utility.yul\":11971:12418   */\n      iszero\n      tag_581\n      jumpi\n        /* \"#utility.yul\":12067:12076   */\n      dup5\n        /* \"#utility.yul\":12061:12065   */\n      dup5\n        /* \"#utility.yul\":12057:12077   */\n      sub\n        /* \"#utility.yul\":12052:12055   */\n      dup10\n        /* \"#utility.yul\":12045:12078   */\n      mstore\n        /* \"#utility.yul\":12118:12124   */\n      dup2\n        /* \"#utility.yul\":12112:12125   */\n      mload\n        /* \"#utility.yul\":12146:12264   */\n      tag_582\n        /* \"#utility.yul\":12259:12263   */\n      dup6\n        /* \"#utility.yul\":12244:12257   */\n      dup3\n        /* \"#utility.yul\":12146:12264   */\n      tag_410\n      jump\t// in\n    tag_582:\n        /* \"#utility.yul\":12138:12264   */\n      swap5\n      pop\n        /* \"#utility.yul\":12287:12374   */\n      tag_583\n        /* \"#utility.yul\":12367:12373   */\n      dup4\n        /* \"#utility.yul\":12287:12374   */\n      tag_411\n      jump\t// in\n    tag_583:\n        /* \"#utility.yul\":12277:12374   */\n      swap3\n      pop\n        /* \"#utility.yul\":12403:12407   */\n      0x20\n        /* \"#utility.yul\":12398:12401   */\n      dup11\n        /* \"#utility.yul\":12394:12408   */\n      add\n        /* \"#utility.yul\":12387:12408   */\n      swap10\n      pop\n        /* \"#utility.yul\":12031:12418   */\n      pop\n        /* \"#utility.yul\":12018:12019   */\n      0x01\n        /* \"#utility.yul\":12015:12016   */\n      dup2\n        /* \"#utility.yul\":12011:12020   */\n      add\n        /* \"#utility.yul\":12006:12020   */\n      swap1\n      pop\n        /* \"#utility.yul\":11971:12418   */\n      jump(tag_579)\n    tag_581:\n        /* \"#utility.yul\":11975:11989   */\n      pop\n        /* \"#utility.yul\":12434:12438   */\n      dup3\n        /* \"#utility.yul\":12427:12438   */\n      swap8\n      pop\n        /* \"#utility.yul\":12454:12457   */\n      dup8\n        /* \"#utility.yul\":12447:12457   */\n      swap6\n      pop\n        /* \"#utility.yul\":11514:12463   */\n      pop\n      pop\n      pop\n      pop\n      pop\n        /* \"#utility.yul\":11336:12463   */\n      swap3\n      swap2\n      pop\n      pop\n      jump\t// out\n        /* \"#utility.yul\":12469:12950   */\n    tag_62:\n        /* \"#utility.yul\":12666:12670   */\n      0x00\n        /* \"#utility.yul\":12704:12706   */\n      0x20\n        /* \"#utility.yul\":12693:12702   */\n      dup3\n        /* \"#utility.yul\":12689:12707   */\n      add\n        /* \"#utility.yul\":12681:12707   */\n      swap1\n      pop\n        /* \"#utility.yul\":12753:12762   */\n      dup2\n        /* \"#utility.yul\":12747:12751   */\n      dup2\n        /* \"#utility.yul\":12743:12763   */\n      sub\n        /* \"#utility.yul\":12739:12740   */\n      0x00\n        /* \"#utility.yul\":12728:12737   */\n      dup4\n        /* \"#utility.yul\":12724:12741   */\n      add\n        /* \"#utility.yul\":12717:12764   */\n      mstore\n        /* \"#utility.yul\":12781:12943   */\n      tag_585\n        /* \"#utility.yul\":12938:12942   */\n      dup2\n        /* \"#utility.yul\":12929:12935   */\n      dup5\n        /* \"#utility.yul\":12781:12943   */\n      tag_412\n      jump\t// in\n    tag_585:\n        /* \"#utility.yul\":12773:12943   */\n      swap1\n      pop\n        /* \"#utility.yul\":12469:12950   */\n      swap3\n      swap2\n      pop\n      pop\n      jump\t// out\n        /* \"#utility.yul\":12956:13430   */\n    tag_68:\n        /* \"#utility.yul\":13024:13030   */\n      0x00\n        /* \"#utility.yul\":13032:13038   */\n      dup1\n        /* \"#utility.yul\":13081:13083   */\n      0x40\n        /* \"#utility.yul\":13069:13078   */\n      dup4\n        /* \"#utility.yul\":13060:13067   */\n      dup6\n        /* \"#utility.yul\":13056:13079   */\n      sub\n        /* \"#utility.yul\":13052:13084   */\n      slt\n        /* \"#utility.yul\":13049:13168   */\n      iszero\n      tag_587\n      jumpi\n        /* \"#utility.yul\":13087:13166   */\n      tag_588\n      tag_373\n      jump\t// in\n    tag_588:\n        /* \"#utility.yul\":13049:13168   */\n    tag_587:\n        /* \"#utility.yul\":13207:13208   */\n      0x00\n        /* \"#utility.yul\":13232:13285   */\n      tag_589\n        /* \"#utility.yul\":13277:13284   */\n      dup6\n        /* \"#utility.yul\":13268:13274   */\n      dup3\n        /* \"#utility.yul\":13257:13266   */\n      dup7\n        /* \"#utility.yul\":13253:13275   */\n      add\n        /* \"#utility.yul\":13232:13285   */\n      tag_387\n      jump\t// in\n    tag_589:\n        /* \"#utility.yul\":13222:13285   */\n      swap3\n      pop\n        /* \"#utility.yul\":13178:13295   */\n      pop\n        /* \"#utility.yul\":13334:13336   */\n      0x20\n        /* \"#utility.yul\":13360:13413   */\n      tag_590\n        /* \"#utility.yul\":13405:13412   */\n      dup6\n        /* \"#utility.yul\":13396:13402   */\n      dup3\n        /* \"#utility.yul\":13385:13394   */\n      dup7\n        /* \"#utility.yul\":13381:13403   */\n      add\n        /* \"#utility.yul\":13360:13413   */\n      tag_387\n      jump\t// in\n    tag_590:\n        /* \"#utility.yul\":13350:13413   */\n      swap2\n      pop\n        /* \"#utility.yul\":13305:13423   */\n      pop\n        /* \"#utility.yul\":12956:13430   */\n      swap3\n      pop\n      swap3\n      swap1\n      pop\n      jump\t// out\n        /* \"#utility.yul\":13436:13550   */\n    tag_413:\n        /* \"#utility.yul\":13503:13509   */\n      0x00\n        /* \"#utility.yul\":13537:13542   */\n      dup2\n        /* \"#utility.yul\":13531:13543   */\n      mload\n        /* \"#utility.yul\":13521:13543   */\n      swap1\n      pop\n        /* \"#utility.yul\":13436:13550   */\n      swap2\n      swap1\n      pop\n      jump\t// out\n        /* \"#utility.yul\":13556:13740   */\n    tag_414:\n        /* \"#utility.yul\":13655:13666   */\n      0x00\n        /* \"#utility.yul\":13689:13695   */\n      dup3\n        /* \"#utility.yul\":13684:13687   */\n      dup3\n        /* \"#utility.yul\":13677:13696   */\n      mstore\n        /* \"#utility.yul\":13729:13733   */\n      0x20\n        /* \"#utility.yul\":13724:13727   */\n      dup3\n        /* \"#utility.yul\":13720:13734   */\n      add\n        /* \"#utility.yul\":13705:13734   */\n      swap1\n      pop\n        /* \"#utility.yul\":13556:13740   */\n      swap3\n      swap2\n      pop\n      pop\n      jump\t// out\n        /* \"#utility.yul\":13746:13878   */\n    tag_415:\n        /* \"#utility.yul\":13813:13817   */\n      0x00\n        /* \"#utility.yul\":13836:13839   */\n      dup2\n        /* \"#utility.yul\":13828:13839   */\n      swap1\n      pop\n        /* \"#utility.yul\":13866:13870   */\n      0x20\n        /* \"#utility.yul\":13861:13864   */\n      dup3\n        /* \"#utility.yul\":13857:13871   */\n      add\n        /* \"#utility.yul\":13849:13871   */\n      swap1\n      pop\n        /* \"#utility.yul\":13746:13878   */\n      swap2\n      swap1\n      pop\n      jump\t// out\n        /* \"#utility.yul\":13884:14063   */\n    tag_416:\n        /* \"#utility.yul\":13953:13963   */\n      0x00\n        /* \"#utility.yul\":13974:14020   */\n      tag_595\n        /* \"#utility.yul\":14016:14019   */\n      dup4\n        /* \"#utility.yul\":14008:14014   */\n      dup4\n        /* \"#utility.yul\":13974:14020   */\n      tag_408\n      jump\t// in\n    tag_595:\n        /* \"#utility.yul\":14052:14056   */\n      0x20\n        /* \"#utility.yul\":14047:14050   */\n      dup4\n        /* \"#utility.yul\":14043:14057   */\n      add\n        /* \"#utility.yul\":14029:14057   */\n      swap1\n      pop\n        /* \"#utility.yul\":13884:14063   */\n      swap3\n      swap2\n      pop\n      pop\n      jump\t// out\n        /* \"#utility.yul\":14069:14182   */\n    tag_417:\n        /* \"#utility.yul\":14139:14143   */\n      0x00\n        /* \"#utility.yul\":14171:14175   */\n      0x20\n        /* \"#utility.yul\":14166:14169   */\n      dup3\n        /* \"#utility.yul\":14162:14176   */\n      add\n        /* \"#utility.yul\":14154:14176   */\n      swap1\n      pop\n        /* \"#utility.yul\":14069:14182   */\n      swap2\n      swap1\n      pop\n      jump\t// out\n        /* \"#utility.yul\":14218:14950   */\n    tag_418:\n        /* \"#utility.yul\":14337:14340   */\n      0x00\n        /* \"#utility.yul\":14366:14420   */\n      tag_598\n        /* \"#utility.yul\":14414:14419   */\n      dup3\n        /* \"#utility.yul\":14366:14420   */\n      tag_413\n      jump\t// in\n    tag_598:\n        /* \"#utility.yul\":14436:14522   */\n      tag_599\n        /* \"#utility.yul\":14515:14521   */\n      dup2\n        /* \"#utility.yul\":14510:14513   */\n      dup6\n        /* \"#utility.yul\":14436:14522   */\n      tag_414\n      jump\t// in\n    tag_599:\n        /* \"#utility.yul\":14429:14522   */\n      swap4\n      pop\n        /* \"#utility.yul\":14546:14602   */\n      tag_600\n        /* \"#utility.yul\":14596:14601   */\n      dup4\n        /* \"#utility.yul\":14546:14602   */\n      tag_415\n      jump\t// in\n    tag_600:\n        /* \"#utility.yul\":14625:14632   */\n      dup1\n        /* \"#utility.yul\":14656:14657   */\n      0x00\n        /* \"#utility.yul\":14641:14925   */\n    tag_601:\n        /* \"#utility.yul\":14666:14672   */\n      dup4\n        /* \"#utility.yul\":14663:14664   */\n      dup2\n        /* \"#utility.yul\":14660:14673   */\n      lt\n        /* \"#utility.yul\":14641:14925   */\n      iszero\n      tag_603\n      jumpi\n        /* \"#utility.yul\":14742:14748   */\n      dup2\n        /* \"#utility.yul\":14736:14749   */\n      mload\n        /* \"#utility.yul\":14769:14832   */\n      tag_604\n        /* \"#utility.yul\":14828:14831   */\n      dup9\n        /* \"#utility.yul\":14813:14826   */\n      dup3\n        /* \"#utility.yul\":14769:14832   */\n      tag_416\n      jump\t// in\n    tag_604:\n        /* \"#utility.yul\":14762:14832   */\n      swap8\n      pop\n        /* \"#utility.yul\":14855:14915   */\n      tag_605\n        /* \"#utility.yul\":14908:14914   */\n      dup4\n        /* \"#utility.yul\":14855:14915   */\n      tag_417\n      jump\t// in\n    tag_605:\n        /* \"#utility.yul\":14845:14915   */\n      swap3\n      pop\n        /* \"#utility.yul\":14701:14925   */\n      pop\n        /* \"#utility.yul\":14688:14689   */\n      0x01\n        /* \"#utility.yul\":14685:14686   */\n      dup2\n        /* \"#utility.yul\":14681:14690   */\n      add\n        /* \"#utility.yul\":14676:14690   */\n      swap1\n      pop\n        /* \"#utility.yul\":14641:14925   */\n      jump(tag_601)\n    tag_603:\n        /* \"#utility.yul\":14645:14659   */\n      pop\n        /* \"#utility.yul\":14941:14944   */\n      dup6\n        /* \"#utility.yul\":14934:14944   */\n      swap4\n      pop\n        /* \"#utility.yul\":14342:14950   */\n      pop\n      pop\n      pop\n        /* \"#utility.yul\":14218:14950   */\n      swap3\n      swap2\n      pop\n      pop\n      jump\t// out\n        /* \"#utility.yul\":14956:15329   */\n    tag_71:\n        /* \"#utility.yul\":15099:15103   */\n      0x00\n        /* \"#utility.yul\":15137:15139   */\n      0x20\n        /* \"#utility.yul\":15126:15135   */\n      dup3\n        /* \"#utility.yul\":15122:15140   */\n      add\n        /* \"#utility.yul\":15114:15140   */\n      swap1\n      pop\n        /* \"#utility.yul\":15186:15195   */\n      dup2\n        /* \"#utility.yul\":15180:15184   */\n      dup2\n        /* \"#utility.yul\":15176:15196   */\n      sub\n        /* \"#utility.yul\":15172:15173   */\n      0x00\n        /* \"#utility.yul\":15161:15170   */\n      dup4\n        /* \"#utility.yul\":15157:15174   */\n      add\n        /* \"#utility.yul\":15150:15197   */\n      mstore\n        /* \"#utility.yul\":15214:15322   */\n      tag_607\n        /* \"#utility.yul\":15317:15321   */\n      dup2\n        /* \"#utility.yul\":15308:15314   */\n      dup5\n        /* \"#utility.yul\":15214:15322   */\n      tag_418\n      jump\t// in\n    tag_607:\n        /* \"#utility.yul\":15206:15322   */\n      swap1\n      pop\n        /* \"#utility.yul\":14956:15329   */\n      swap3\n      swap2\n      pop\n      pop\n      jump\t// out\n        /* \"#utility.yul\":15335:15664   */\n    tag_78:\n        /* \"#utility.yul\":15394:15400   */\n      0x00\n        /* \"#utility.yul\":15443:15445   */\n      0x20\n        /* \"#utility.yul\":15431:15440   */\n      dup3\n        /* \"#utility.yul\":15422:15429   */\n      dup5\n        /* \"#utility.yul\":15418:15441   */\n      sub\n        /* \"#utility.yul\":15414:15446   */\n      slt\n        /* \"#utility.yul\":15411:15530   */\n      iszero\n      tag_609\n      jumpi\n        /* \"#utility.yul\":15449:15528   */\n      tag_610\n      tag_373\n      jump\t// in\n    tag_610:\n        /* \"#utility.yul\":15411:15530   */\n    tag_609:\n        /* \"#utility.yul\":15569:15570   */\n      0x00\n        /* \"#utility.yul\":15594:15647   */\n      tag_611\n        /* \"#utility.yul\":15639:15646   */\n      dup5\n        /* \"#utility.yul\":15630:15636   */\n      dup3\n        /* \"#utility.yul\":15619:15628   */\n      dup6\n        /* \"#utility.yul\":15615:15637   */\n      add\n        /* \"#utility.yul\":15594:15647   */\n      tag_392\n      jump\t// in\n    tag_611:\n        /* \"#utility.yul\":15584:15647   */\n      swap2\n      pop\n        /* \"#utility.yul\":15540:15657   */\n      pop\n        /* \"#utility.yul\":15335:15664   */\n      swap3\n      swap2\n      pop\n      pop\n      jump\t// out\n        /* \"#utility.yul\":15670:15788   */\n    tag_419:\n        /* \"#utility.yul\":15757:15781   */\n      tag_613\n        /* \"#utility.yul\":15775:15780   */\n      dup2\n        /* \"#utility.yul\":15757:15781   */\n      tag_385\n      jump\t// in\n    tag_613:\n        /* \"#utility.yul\":15752:15755   */\n      dup3\n        /* \"#utility.yul\":15745:15782   */\n      mstore\n        /* \"#utility.yul\":15670:15788   */\n      pop\n      pop\n      jump\t// out\n        /* \"#utility.yul\":15794:16016   */\n    tag_81:\n        /* \"#utility.yul\":15887:15891   */\n      0x00\n        /* \"#utility.yul\":15925:15927   */\n      0x20\n        /* \"#utility.yul\":15914:15923   */\n      dup3\n        /* \"#utility.yul\":15910:15928   */\n      add\n        /* \"#utility.yul\":15902:15928   */\n      swap1\n      pop\n        /* \"#utility.yul\":15938:16009   */\n      tag_615\n        /* \"#utility.yul\":16006:16007   */\n      0x00\n        /* \"#utility.yul\":15995:16004   */\n      dup4\n        /* \"#utility.yul\":15991:16008   */\n      add\n        /* \"#utility.yul\":15982:15988   */\n      dup5\n        /* \"#utility.yul\":15938:16009   */\n      tag_419\n      jump\t// in\n    tag_615:\n        /* \"#utility.yul\":15794:16016   */\n      swap3\n      swap2\n      pop\n      pop\n      jump\t// out\n        /* \"#utility.yul\":16022:16146   */\n    tag_420:\n        /* \"#utility.yul\":16099:16105   */\n      0x00\n        /* \"#utility.yul\":16133:16138   */\n      dup2\n        /* \"#utility.yul\":16127:16139   */\n      mload\n        /* \"#utility.yul\":16117:16139   */\n      swap1\n      pop\n        /* \"#utility.yul\":16022:16146   */\n      swap2\n      swap1\n      pop\n      jump\t// out\n        /* \"#utility.yul\":16152:16346   */\n    tag_421:\n        /* \"#utility.yul\":16261:16272   */\n      0x00\n        /* \"#utility.yul\":16295:16301   */\n      dup3\n        /* \"#utility.yul\":16290:16293   */\n      dup3\n        /* \"#utility.yul\":16283:16302   */\n      mstore\n        /* \"#utility.yul\":16335:16339   */\n      0x20\n        /* \"#utility.yul\":16330:16333   */\n      dup3\n        /* \"#utility.yul\":16326:16340   */\n      add\n        /* \"#utility.yul\":16311:16340   */\n      swap1\n      pop\n        /* \"#utility.yul\":16152:16346   */\n      swap3\n      swap2\n      pop\n      pop\n      jump\t// out\n        /* \"#utility.yul\":16352:16494   */\n    tag_422:\n        /* \"#utility.yul\":16429:16433   */\n      0x00\n        /* \"#utility.yul\":16452:16455   */\n      dup2\n        /* \"#utility.yul\":16444:16455   */\n      swap1\n      pop\n        /* \"#utility.yul\":16482:16486   */\n      0x20\n        /* \"#utility.yul\":16477:16480   */\n      dup3\n        /* \"#utility.yul\":16473:16487   */\n      add\n        /* \"#utility.yul\":16465:16487   */\n      swap1\n      pop\n        /* \"#utility.yul\":16352:16494   */\n      swap2\n      swap1\n      pop\n      jump\t// out\n        /* \"#utility.yul\":16500:16696   */\n    tag_423:\n        /* \"#utility.yul\":16589:16599   */\n      0x00\n        /* \"#utility.yul\":16624:16690   */\n      tag_620\n        /* \"#utility.yul\":16686:16689   */\n      dup4\n        /* \"#utility.yul\":16678:16684   */\n      dup4\n        /* \"#utility.yul\":16624:16690   */\n      tag_407\n      jump\t// in\n    tag_620:\n        /* \"#utility.yul\":16610:16690   */\n      swap1\n      pop\n        /* \"#utility.yul\":16500:16696   */\n      swap3\n      swap2\n      pop\n      pop\n      jump\t// out\n        /* \"#utility.yul\":16702:16825   */\n    tag_424:\n        /* \"#utility.yul\":16782:16786   */\n      0x00\n        /* \"#utility.yul\":16814:16818   */\n      0x20\n        /* \"#utility.yul\":16809:16812   */\n      dup3\n        /* \"#utility.yul\":16805:16819   */\n      add\n        /* \"#utility.yul\":16797:16819   */\n      swap1\n      pop\n        /* \"#utility.yul\":16702:16825   */\n      swap2\n      swap1\n      pop\n      jump\t// out\n        /* \"#utility.yul\":16859:17850   */\n    tag_425:\n        /* \"#utility.yul\":16998:17001   */\n      0x00\n        /* \"#utility.yul\":17027:17091   */\n      tag_623\n        /* \"#utility.yul\":17085:17090   */\n      dup3\n        /* \"#utility.yul\":17027:17091   */\n      tag_420\n      jump\t// in\n    tag_623:\n        /* \"#utility.yul\":17107:17203   */\n      tag_624\n        /* \"#utility.yul\":17196:17202   */\n      dup2\n        /* \"#utility.yul\":17191:17194   */\n      dup6\n        /* \"#utility.yul\":17107:17203   */\n      tag_421\n      jump\t// in\n    tag_624:\n        /* \"#utility.yul\":17100:17203   */\n      swap4\n      pop\n        /* \"#utility.yul\":17229:17232   */\n      dup4\n        /* \"#utility.yul\":17274:17278   */\n      0x20\n        /* \"#utility.yul\":17266:17272   */\n      dup3\n        /* \"#utility.yul\":17262:17279   */\n      mul\n        /* \"#utility.yul\":17257:17260   */\n      dup6\n        /* \"#utility.yul\":17253:17280   */\n      add\n        /* \"#utility.yul\":17304:17370   */\n      tag_625\n        /* \"#utility.yul\":17364:17369   */\n      dup6\n        /* \"#utility.yul\":17304:17370   */\n      tag_422\n      jump\t// in\n    tag_625:\n        /* \"#utility.yul\":17393:17400   */\n      dup1\n        /* \"#utility.yul\":17424:17425   */\n      0x00\n        /* \"#utility.yul\":17409:17805   */\n    tag_626:\n        /* \"#utility.yul\":17434:17440   */\n      dup6\n        /* \"#utility.yul\":17431:17432   */\n      dup2\n        /* \"#utility.yul\":17428:17441   */\n      lt\n        /* \"#utility.yul\":17409:17805   */\n      iszero\n      tag_628\n      jumpi\n        /* \"#utility.yul\":17505:17514   */\n      dup5\n        /* \"#utility.yul\":17499:17503   */\n      dup5\n        /* \"#utility.yul\":17495:17515   */\n      sub\n        /* \"#utility.yul\":17490:17493   */\n      dup10\n        /* \"#utility.yul\":17483:17516   */\n      mstore\n        /* \"#utility.yul\":17556:17562   */\n      dup2\n        /* \"#utility.yul\":17550:17563   */\n      mload\n        /* \"#utility.yul\":17584:17668   */\n      tag_629\n        /* \"#utility.yul\":17663:17667   */\n      dup6\n        /* \"#utility.yul\":17648:17661   */\n      dup3\n        /* \"#utility.yul\":17584:17668   */\n      tag_423\n      jump\t// in\n    tag_629:\n        /* \"#utility.yul\":17576:17668   */\n      swap5\n      pop\n        /* \"#utility.yul\":17691:17761   */\n      tag_630\n        /* \"#utility.yul\":17754:17760   */\n      dup4\n        /* \"#utility.yul\":17691:17761   */\n      tag_424\n      jump\t// in\n    tag_630:\n        /* \"#utility.yul\":17681:17761   */\n      swap3\n      pop\n        /* \"#utility.yul\":17790:17794   */\n      0x20\n        /* \"#utility.yul\":17785:17788   */\n      dup11\n        /* \"#utility.yul\":17781:17795   */\n      add\n        /* \"#utility.yul\":17774:17795   */\n      swap10\n      pop\n        /* \"#utility.yul\":17469:17805   */\n      pop\n        /* \"#utility.yul\":17456:17457   */\n      0x01\n        /* \"#utility.yul\":17453:17454   */\n      dup2\n        /* \"#utility.yul\":17449:17458   */\n      add\n        /* \"#utility.yul\":17444:17458   */\n      swap1\n      pop\n        /* \"#utility.yul\":17409:17805   */\n      jump(tag_626)\n    tag_628:\n        /* \"#utility.yul\":17413:17427   */\n      pop\n        /* \"#utility.yul\":17821:17825   */\n      dup3\n        /* \"#utility.yul\":17814:17825   */\n      swap8\n      pop\n        /* \"#utility.yul\":17841:17844   */\n      dup8\n        /* \"#utility.yul\":17834:17844   */\n      swap6\n      pop\n        /* \"#utility.yul\":17003:17850   */\n      pop\n      pop\n      pop\n      pop\n      pop\n        /* \"#utility.yul\":16859:17850   */\n      swap3\n      swap2\n      pop\n      pop\n      jump\t// out\n        /* \"#utility.yul\":17856:18269   */\n    tag_85:\n        /* \"#utility.yul\":18019:18023   */\n      0x00\n        /* \"#utility.yul\":18057:18059   */\n      0x20\n        /* \"#utility.yul\":18046:18055   */\n      dup3\n        /* \"#utility.yul\":18042:18060   */\n      add\n        /* \"#utility.yul\":18034:18060   */\n      swap1\n      pop\n        /* \"#utility.yul\":18106:18115   */\n      dup2\n        /* \"#utility.yul\":18100:18104   */\n      dup2\n        /* \"#utility.yul\":18096:18116   */\n      sub\n        /* \"#utility.yul\":18092:18093   */\n      0x00\n        /* \"#utility.yul\":18081:18090   */\n      dup4\n        /* \"#utility.yul\":18077:18094   */\n      add\n        /* \"#utility.yul\":18070:18117   */\n      mstore\n        /* \"#utility.yul\":18134:18262   */\n      tag_632\n        /* \"#utility.yul\":18257:18261   */\n      dup2\n        /* \"#utility.yul\":18248:18254   */\n      dup5\n        /* \"#utility.yul\":18134:18262   */\n      tag_425\n      jump\t// in\n    tag_632:\n        /* \"#utility.yul\":18126:18262   */\n      swap1\n      pop\n        /* \"#utility.yul\":17856:18269   */\n      swap3\n      swap2\n      pop\n      pop\n      jump\t// out\n        /* \"#utility.yul\":18275:18909   */\n    tag_95:\n        /* \"#utility.yul\":18496:18500   */\n      0x00\n        /* \"#utility.yul\":18534:18536   */\n      0x40\n        /* \"#utility.yul\":18523:18532   */\n      dup3\n        /* \"#utility.yul\":18519:18537   */\n      add\n        /* \"#utility.yul\":18511:18537   */\n      swap1\n      pop\n        /* \"#utility.yul\":18583:18592   */\n      dup2\n        /* \"#utility.yul\":18577:18581   */\n      dup2\n        /* \"#utility.yul\":18573:18593   */\n      sub\n        /* \"#utility.yul\":18569:18570   */\n      0x00\n        /* \"#utility.yul\":18558:18567   */\n      dup4\n        /* \"#utility.yul\":18554:18571   */\n      add\n        /* \"#utility.yul\":18547:18594   */\n      mstore\n        /* \"#utility.yul\":18611:18719   */\n      tag_634\n        /* \"#utility.yul\":18714:18718   */\n      dup2\n        /* \"#utility.yul\":18705:18711   */\n      dup6\n        /* \"#utility.yul\":18611:18719   */\n      tag_418\n      jump\t// in\n    tag_634:\n        /* \"#utility.yul\":18603:18719   */\n      swap1\n      pop\n        /* \"#utility.yul\":18766:18775   */\n      dup2\n        /* \"#utility.yul\":18760:18764   */\n      dup2\n        /* \"#utility.yul\":18756:18776   */\n      sub\n        /* \"#utility.yul\":18751:18753   */\n      0x20\n        /* \"#utility.yul\":18740:18749   */\n      dup4\n        /* \"#utility.yul\":18736:18754   */\n      add\n        /* \"#utility.yul\":18729:18777   */\n      mstore\n        /* \"#utility.yul\":18794:18902   */\n      tag_635\n        /* \"#utility.yul\":18897:18901   */\n      dup2\n        /* \"#utility.yul\":18888:18894   */\n      dup5\n        /* \"#utility.yul\":18794:18902   */\n      tag_418\n      jump\t// in\n    tag_635:\n        /* \"#utility.yul\":18786:18902   */\n      swap1\n      pop\n        /* \"#utility.yul\":18275:18909   */\n      swap4\n      swap3\n      pop\n      pop\n      pop\n      jump\t// out\n        /* \"#utility.yul\":18915:19383   */\n    tag_98:\n        /* \"#utility.yul\":18980:18986   */\n      0x00\n        /* \"#utility.yul\":18988:18994   */\n      dup1\n        /* \"#utility.yul\":19037:19039   */\n      0x40\n        /* \"#utility.yul\":19025:19034   */\n      dup4\n        /* \"#utility.yul\":19016:19023   */\n      dup6\n        /* \"#utility.yul\":19012:19035   */\n      sub\n        /* \"#utility.yul\":19008:19040   */\n      slt\n        /* \"#utility.yul\":19005:19124   */\n      iszero\n      tag_637\n      jumpi\n        /* \"#utility.yul\":19043:19122   */\n      tag_638\n      tag_373\n      jump\t// in\n    tag_638:\n        /* \"#utility.yul\":19005:19124   */\n    tag_637:\n        /* \"#utility.yul\":19163:19164   */\n      0x00\n        /* \"#utility.yul\":19188:19241   */\n      tag_639\n        /* \"#utility.yul\":19233:19240   */\n      dup6\n        /* \"#utility.yul\":19224:19230   */\n      dup3\n        /* \"#utility.yul\":19213:19222   */\n      dup7\n        /* \"#utility.yul\":19209:19231   */\n      add\n        /* \"#utility.yul\":19188:19241   */\n      tag_392\n      jump\t// in\n    tag_639:\n        /* \"#utility.yul\":19178:19241   */\n      swap3\n      pop\n        /* \"#utility.yul\":19134:19251   */\n      pop\n        /* \"#utility.yul\":19290:19292   */\n      0x20\n        /* \"#utility.yul\":19316:19366   */\n      tag_640\n        /* \"#utility.yul\":19358:19365   */\n      dup6\n        /* \"#utility.yul\":19349:19355   */\n      dup3\n        /* \"#utility.yul\":19338:19347   */\n      dup7\n        /* \"#utility.yul\":19334:19356   */\n      add\n        /* \"#utility.yul\":19316:19366   */\n      tag_402\n      jump\t// in\n    tag_640:\n        /* \"#utility.yul\":19306:19366   */\n      swap2\n      pop\n        /* \"#utility.yul\":19261:19376   */\n      pop\n        /* \"#utility.yul\":18915:19383   */\n      swap3\n      pop\n      swap3\n      swap1\n      pop\n      jump\t// out\n        /* \"#utility.yul\":19389:19696   */\n    tag_426:\n        /* \"#utility.yul\":19450:19454   */\n      0x00\n        /* \"#utility.yul\":19540:19558   */\n      0xffffffffffffffff\n        /* \"#utility.yul\":19532:19538   */\n      dup3\n        /* \"#utility.yul\":19529:19559   */\n      gt\n        /* \"#utility.yul\":19526:19582   */\n      iszero\n      tag_642\n      jumpi\n        /* \"#utility.yul\":19562:19580   */\n      tag_643\n      tag_160\n      jump\t// in\n    tag_643:\n        /* \"#utility.yul\":19526:19582   */\n    tag_642:\n        /* \"#utility.yul\":19600:19629   */\n      tag_644\n        /* \"#utility.yul\":19622:19628   */\n      dup3\n        /* \"#utility.yul\":19600:19629   */\n      tag_383\n      jump\t// in\n    tag_644:\n        /* \"#utility.yul\":19592:19629   */\n      swap1\n      pop\n        /* \"#utility.yul\":19684:19688   */\n      0x20\n        /* \"#utility.yul\":19678:19682   */\n      dup2\n        /* \"#utility.yul\":19674:19689   */\n      add\n        /* \"#utility.yul\":19666:19689   */\n      swap1\n      pop\n        /* \"#utility.yul\":19389:19696   */\n      swap2\n      swap1\n      pop\n      jump\t// out\n        /* \"#utility.yul\":19702:20125   */\n    tag_427:\n        /* \"#utility.yul\":19779:19784   */\n      0x00\n        /* \"#utility.yul\":19804:19869   */\n      tag_646\n        /* \"#utility.yul\":19820:19868   */\n      tag_647\n        /* \"#utility.yul\":19861:19867   */\n      dup5\n        /* \"#utility.yul\":19820:19868   */\n      tag_426\n      jump\t// in\n    tag_647:\n        /* \"#utility.yul\":19804:19869   */\n      tag_396\n      jump\t// in\n    tag_646:\n        /* \"#utility.yul\":19795:19869   */\n      swap1\n      pop\n        /* \"#utility.yul\":19892:19898   */\n      dup3\n        /* \"#utility.yul\":19885:19890   */\n      dup2\n        /* \"#utility.yul\":19878:19899   */\n      mstore\n        /* \"#utility.yul\":19930:19934   */\n      0x20\n        /* \"#utility.yul\":19923:19928   */\n      dup2\n        /* \"#utility.yul\":19919:19935   */\n      add\n        /* \"#utility.yul\":19968:19971   */\n      dup5\n        /* \"#utility.yul\":19959:19965   */\n      dup5\n        /* \"#utility.yul\":19954:19957   */\n      dup5\n        /* \"#utility.yul\":19950:19966   */\n      add\n        /* \"#utility.yul\":19947:19972   */\n      gt\n        /* \"#utility.yul\":19944:20056   */\n      iszero\n      tag_648\n      jumpi\n        /* \"#utility.yul\":19975:20054   */\n      tag_649\n      tag_394\n      jump\t// in\n    tag_649:\n        /* \"#utility.yul\":19944:20056   */\n    tag_648:\n        /* \"#utility.yul\":20065:20119   */\n      tag_650\n        /* \"#utility.yul\":20112:20118   */\n      dup5\n        /* \"#utility.yul\":20107:20110   */\n      dup3\n        /* \"#utility.yul\":20102:20105   */\n      dup6\n        /* \"#utility.yul\":20065:20119   */\n      tag_398\n      jump\t// in\n    tag_650:\n        /* \"#utility.yul\":19785:20125   */\n      pop\n        /* \"#utility.yul\":19702:20125   */\n      swap4\n      swap3\n      pop\n      pop\n      pop\n      jump\t// out\n        /* \"#utility.yul\":20144:20482   */\n    tag_428:\n        /* \"#utility.yul\":20199:20204   */\n      0x00\n        /* \"#utility.yul\":20248:20251   */\n      dup3\n        /* \"#utility.yul\":20241:20245   */\n      0x1f\n        /* \"#utility.yul\":20233:20239   */\n      dup4\n        /* \"#utility.yul\":20229:20246   */\n      add\n        /* \"#utility.yul\":20225:20252   */\n      slt\n        /* \"#utility.yul\":20215:20337   */\n      tag_652\n      jumpi\n        /* \"#utility.yul\":20256:20335   */\n      tag_653\n      tag_393\n      jump\t// in\n    tag_653:\n        /* \"#utility.yul\":20215:20337   */\n    tag_652:\n        /* \"#utility.yul\":20373:20379   */\n      dup2\n        /* \"#utility.yul\":20360:20380   */\n      calldataload\n        /* \"#utility.yul\":20398:20476   */\n      tag_654\n        /* \"#utility.yul\":20472:20475   */\n      dup5\n        /* \"#utility.yul\":20464:20470   */\n      dup3\n        /* \"#utility.yul\":20457:20461   */\n      0x20\n        /* \"#utility.yul\":20449:20455   */\n      dup7\n        /* \"#utility.yul\":20445:20462   */\n      add\n        /* \"#utility.yul\":20398:20476   */\n      tag_427\n      jump\t// in\n    tag_654:\n        /* \"#utility.yul\":20389:20476   */\n      swap2\n      pop\n        /* \"#utility.yul\":20205:20482   */\n      pop\n        /* \"#utility.yul\":20144:20482   */\n      swap3\n      swap2\n      pop\n      pop\n      jump\t// out\n        /* \"#utility.yul\":20488:21431   */\n    tag_102:\n        /* \"#utility.yul\":20583:20589   */\n      0x00\n        /* \"#utility.yul\":20591:20597   */\n      dup1\n        /* \"#utility.yul\":20599:20605   */\n      0x00\n        /* \"#utility.yul\":20607:20613   */\n      dup1\n        /* \"#utility.yul\":20656:20659   */\n      0x80\n        /* \"#utility.yul\":20644:20653   */\n      dup6\n        /* \"#utility.yul\":20635:20642   */\n      dup8\n        /* \"#utility.yul\":20631:20654   */\n      sub\n        /* \"#utility.yul\":20627:20660   */\n      slt\n        /* \"#utility.yul\":20624:20744   */\n      iszero\n      tag_656\n      jumpi\n        /* \"#utility.yul\":20663:20742   */\n      tag_657\n      tag_373\n      jump\t// in\n    tag_657:\n        /* \"#utility.yul\":20624:20744   */\n    tag_656:\n        /* \"#utility.yul\":20783:20784   */\n      0x00\n        /* \"#utility.yul\":20808:20861   */\n      tag_658\n        /* \"#utility.yul\":20853:20860   */\n      dup8\n        /* \"#utility.yul\":20844:20850   */\n      dup3\n        /* \"#utility.yul\":20833:20842   */\n      dup9\n        /* \"#utility.yul\":20829:20851   */\n      add\n        /* \"#utility.yul\":20808:20861   */\n      tag_392\n      jump\t// in\n    tag_658:\n        /* \"#utility.yul\":20798:20861   */\n      swap5\n      pop\n        /* \"#utility.yul\":20754:20871   */\n      pop\n        /* \"#utility.yul\":20910:20912   */\n      0x20\n        /* \"#utility.yul\":20936:20989   */\n      tag_659\n        /* \"#utility.yul\":20981:20988   */\n      dup8\n        /* \"#utility.yul\":20972:20978   */\n      dup3\n        /* \"#utility.yul\":20961:20970   */\n      dup9\n        /* \"#utility.yul\":20957:20979   */\n      add\n        /* \"#utility.yul\":20936:20989   */\n      tag_392\n      jump\t// in\n    tag_659:\n        /* \"#utility.yul\":20926:20989   */\n      swap4\n      pop\n        /* \"#utility.yul\":20881:20999   */\n      pop\n        /* \"#utility.yul\":21038:21040   */\n      0x40\n        /* \"#utility.yul\":21064:21117   */\n      tag_660\n        /* \"#utility.yul\":21109:21116   */\n      dup8\n        /* \"#utility.yul\":21100:21106   */\n      dup3\n        /* \"#utility.yul\":21089:21098   */\n      dup9\n        /* \"#utility.yul\":21085:21107   */\n      add\n        /* \"#utility.yul\":21064:21117   */\n      tag_387\n      jump\t// in\n    tag_660:\n        /* \"#utility.yul\":21054:21117   */\n      swap3\n      pop\n        /* \"#utility.yul\":21009:21127   */\n      pop\n        /* \"#utility.yul\":21194:21196   */\n      0x60\n        /* \"#utility.yul\":21183:21192   */\n      dup6\n        /* \"#utility.yul\":21179:21197   */\n      add\n        /* \"#utility.yul\":21166:21198   */\n      calldataload\n        /* \"#utility.yul\":21225:21243   */\n      0xffffffffffffffff\n        /* \"#utility.yul\":21217:21223   */\n      dup2\n        /* \"#utility.yul\":21214:21244   */\n      gt\n        /* \"#utility.yul\":21211:21328   */\n      iszero\n      tag_661\n      jumpi\n        /* \"#utility.yul\":21247:21326   */\n      tag_662\n      tag_374\n      jump\t// in\n    tag_662:\n        /* \"#utility.yul\":21211:21328   */\n    tag_661:\n        /* \"#utility.yul\":21352:21414   */\n      tag_663\n        /* \"#utility.yul\":21406:21413   */\n      dup8\n        /* \"#utility.yul\":21397:21403   */\n      dup3\n        /* \"#utility.yul\":21386:21395   */\n      dup9\n        /* \"#utility.yul\":21382:21404   */\n      add\n        /* \"#utility.yul\":21352:21414   */\n      tag_428\n      jump\t// in\n    tag_663:\n        /* \"#utility.yul\":21342:21414   */\n      swap2\n      pop\n        /* \"#utility.yul\":21137:21424   */\n      pop\n        /* \"#utility.yul\":20488:21431   */\n      swap3\n      swap6\n      swap2\n      swap5\n      pop\n      swap3\n      pop\n      jump\t// out\n        /* \"#utility.yul\":21437:21911   */\n    tag_113:\n        /* \"#utility.yul\":21505:21511   */\n      0x00\n        /* \"#utility.yul\":21513:21519   */\n      dup1\n        /* \"#utility.yul\":21562:21564   */\n      0x40\n        /* \"#utility.yul\":21550:21559   */\n      dup4\n        /* \"#utility.yul\":21541:21548   */\n      dup6\n        /* \"#utility.yul\":21537:21560   */\n      sub\n        /* \"#utility.yul\":21533:21565   */\n      slt\n        /* \"#utility.yul\":21530:21649   */\n      iszero\n      tag_665\n      jumpi\n        /* \"#utility.yul\":21568:21647   */\n      tag_666\n      tag_373\n      jump\t// in\n    tag_666:\n        /* \"#utility.yul\":21530:21649   */\n    tag_665:\n        /* \"#utility.yul\":21688:21689   */\n      0x00\n        /* \"#utility.yul\":21713:21766   */\n      tag_667\n        /* \"#utility.yul\":21758:21765   */\n      dup6\n        /* \"#utility.yul\":21749:21755   */\n      dup3\n        /* \"#utility.yul\":21738:21747   */\n      dup7\n        /* \"#utility.yul\":21734:21756   */\n      add\n        /* \"#utility.yul\":21713:21766   */\n      tag_392\n      jump\t// in\n    tag_667:\n        /* \"#utility.yul\":21703:21766   */\n      swap3\n      pop\n        /* \"#utility.yul\":21659:21776   */\n      pop\n        /* \"#utility.yul\":21815:21817   */\n      0x20\n        /* \"#utility.yul\":21841:21894   */\n      tag_668\n        /* \"#utility.yul\":21886:21893   */\n      dup6\n        /* \"#utility.yul\":21877:21883   */\n      dup3\n        /* \"#utility.yul\":21866:21875   */\n      dup7\n        /* \"#utility.yul\":21862:21884   */\n      add\n        /* \"#utility.yul\":21841:21894   */\n      tag_392\n      jump\t// in\n    tag_668:\n        /* \"#utility.yul\":21831:21894   */\n      swap2\n      pop\n        /* \"#utility.yul\":21786:21904   */\n      pop\n        /* \"#utility.yul\":21437:21911   */\n      swap3\n      pop\n      swap3\n      swap1\n      pop\n      jump\t// out\n        /* \"#utility.yul\":21917:22097   */\n    tag_429:\n        /* \"#utility.yul\":21965:22042   */\n      0x4e487b7100000000000000000000000000000000000000000000000000000000\n        /* \"#utility.yul\":21962:21963   */\n      0x00\n        /* \"#utility.yul\":21955:22043   */\n      mstore\n        /* \"#utility.yul\":22062:22066   */\n      0x22\n        /* \"#utility.yul\":22059:22060   */\n      0x04\n        /* \"#utility.yul\":22052:22067   */\n      mstore\n        /* \"#utility.yul\":22086:22090   */\n      0x24\n        /* \"#utility.yul\":22083:22084   */\n      0x00\n        /* \"#utility.yul\":22076:22091   */\n      revert\n        /* \"#utility.yul\":22103:22423   */\n    tag_123:\n        /* \"#utility.yul\":22147:22153   */\n      0x00\n        /* \"#utility.yul\":22184:22185   */\n      0x02\n        /* \"#utility.yul\":22178:22182   */\n      dup3\n        /* \"#utility.yul\":22174:22186   */\n      div\n        /* \"#utility.yul\":22164:22186   */\n      swap1\n      pop\n        /* \"#utility.yul\":22231:22232   */\n      0x01\n        /* \"#utility.yul\":22225:22229   */\n      dup3\n        /* \"#utility.yul\":22221:22233   */\n      and\n        /* \"#utility.yul\":22252:22270   */\n      dup1\n        /* \"#utility.yul\":22242:22323   */\n      tag_671\n      jumpi\n        /* \"#utility.yul\":22308:22312   */\n      0x7f\n        /* \"#utility.yul\":22300:22306   */\n      dup3\n        /* \"#utility.yul\":22296:22313   */\n      and\n        /* \"#utility.yul\":22286:22313   */\n      swap2\n      pop\n        /* \"#utility.yul\":22242:22323   */\n    tag_671:\n        /* \"#utility.yul\":22370:22372   */\n      0x20\n        /* \"#utility.yul\":22362:22368   */\n      dup3\n        /* \"#utility.yul\":22359:22373   */\n      lt\n        /* \"#utility.yul\":22339:22357   */\n      dup2\n        /* \"#utility.yul\":22336:22374   */\n      sub\n        /* \"#utility.yul\":22333:22417   */\n      tag_672\n      jumpi\n        /* \"#utility.yul\":22389:22407   */\n      tag_673\n      tag_429\n      jump\t// in\n    tag_673:\n        /* \"#utility.yul\":22333:22417   */\n    tag_672:\n        /* \"#utility.yul\":22154:22423   */\n      pop\n        /* \"#utility.yul\":22103:22423   */\n      swap2\n      swap1\n      pop\n      jump\t// out\n        /* \"#utility.yul\":22429:22570   */\n    tag_430:\n        /* \"#utility.yul\":22478:22482   */\n      0x00\n        /* \"#utility.yul\":22501:22504   */\n      dup2\n        /* \"#utility.yul\":22493:22504   */\n      swap1\n      pop\n        /* \"#utility.yul\":22524:22527   */\n      dup2\n        /* \"#utility.yul\":22521:22522   */\n      0x00\n        /* \"#utility.yul\":22514:22528   */\n      mstore\n        /* \"#utility.yul\":22558:22562   */\n      0x20\n        /* \"#utility.yul\":22555:22556   */\n      0x00\n        /* \"#utility.yul\":22545:22563   */\n      keccak256\n        /* \"#utility.yul\":22537:22563   */\n      swap1\n      pop\n        /* \"#utility.yul\":22429:22570   */\n      swap2\n      swap1\n      pop\n      jump\t// out\n        /* \"#utility.yul\":22576:22669   */\n    tag_431:\n        /* \"#utility.yul\":22613:22619   */\n      0x00\n        /* \"#utility.yul\":22660:22662   */\n      0x20\n        /* \"#utility.yul\":22655:22657   */\n      0x1f\n        /* \"#utility.yul\":22648:22653   */\n      dup4\n        /* \"#utility.yul\":22644:22658   */\n      add\n        /* \"#utility.yul\":22640:22663   */\n      div\n        /* \"#utility.yul\":22630:22663   */\n      swap1\n      pop\n        /* \"#utility.yul\":22576:22669   */\n      swap2\n      swap1\n      pop\n      jump\t// out\n        /* \"#utility.yul\":22675:22782   */\n    tag_432:\n        /* \"#utility.yul\":22719:22727   */\n      0x00\n        /* \"#utility.yul\":22769:22774   */\n      dup3\n        /* \"#utility.yul\":22763:22767   */\n      dup3\n        /* \"#utility.yul\":22759:22775   */\n      shl\n        /* \"#utility.yul\":22738:22775   */\n      swap1\n      pop\n        /* \"#utility.yul\":22675:22782   */\n      swap3\n      swap2\n      pop\n      pop\n      jump\t// out\n        /* \"#utility.yul\":22788:23181   */\n    tag_433:\n        /* \"#utility.yul\":22857:22863   */\n      0x00\n        /* \"#utility.yul\":22907:22908   */\n      0x08\n        /* \"#utility.yul\":22895:22905   */\n      dup4\n        /* \"#utility.yul\":22891:22909   */\n      mul\n        /* \"#utility.yul\":22930:23027   */\n      tag_678\n        /* \"#utility.yul\":22960:23026   */\n      0xffffffffffffffffffffffffffffffffffffffffffffffffffffffffffffffff\n        /* \"#utility.yul\":22949:22958   */\n      dup3\n        /* \"#utility.yul\":22930:23027   */\n      tag_432\n      jump\t// in\n    tag_678:\n        /* \"#utility.yul\":23048:23087   */\n      tag_679\n        /* \"#utility.yul\":23078:23086   */\n      dup7\n        /* \"#utility.yul\":23067:23076   */\n      dup4\n        /* \"#utility.yul\":23048:23087   */\n      tag_432\n      jump\t// in\n    tag_679:\n        /* \"#utility.yul\":23036:23087   */\n      swap6\n      pop\n        /* \"#utility.yul\":23120:23124   */\n      dup1\n        /* \"#utility.yul\":23116:23125   */\n      not\n        /* \"#utility.yul\":23109:23114   */\n      dup5\n        /* \"#utility.yul\":23105:23126   */\n      and\n        /* \"#utility.yul\":23096:23126   */\n      swap4\n      pop\n        /* \"#utility.yul\":23169:23173   */\n      dup1\n        /* \"#utility.yul\":23159:23167   */\n      dup7\n        /* \"#utility.yul\":23155:23174   */\n      and\n        /* \"#utility.yul\":23148:23153   */\n      dup5\n        /* \"#utility.yul\":23145:23175   */\n      or\n        /* \"#utility.yul\":23135:23175   */\n      swap3\n      pop\n        /* \"#utility.yul\":22864:23181   */\n      pop\n      pop\n        /* \"#utility.yul\":22788:23181   */\n      swap4\n      swap3\n      pop\n      pop\n      pop\n      jump\t// out\n        /* \"#utility.yul\":23187:23247   */\n    tag_434:\n        /* \"#utility.yul\":23215:23218   */\n      0x00\n        /* \"#utility.yul\":23236:23241   */\n      dup2\n        /* \"#utility.yul\":23229:23241   */\n      swap1\n      pop\n        /* \"#utility.yul\":23187:23247   */\n      swap2\n      swap1\n      pop\n      jump\t// out\n        /* \"#utility.yul\":23253:23395   */\n    tag_435:\n        /* \"#utility.yul\":23303:23312   */\n      0x00\n        /* \"#utility.yul\":23336:23389   */\n      tag_682\n        /* \"#utility.yul\":23354:23388   */\n      tag_683\n        /* \"#utility.yul\":23363:23387   */\n      tag_684\n        /* \"#utility.yul\":23381:23386   */\n      dup5\n        /* \"#utility.yul\":23363:23387   */\n      tag_385\n      jump\t// in\n    tag_684:\n        /* \"#utility.yul\":23354:23388   */\n      tag_434\n      jump\t// in\n    tag_683:\n        /* \"#utility.yul\":23336:23389   */\n      tag_385\n      jump\t// in\n    tag_682:\n        /* \"#utility.yul\":23323:23389   */\n      swap1\n      pop\n        /* \"#utility.yul\":23253:23395   */\n      swap2\n      swap1\n      pop\n      jump\t// out\n        /* \"#utility.yul\":23401:23476   */\n    tag_436:\n        /* \"#utility.yul\":23444:23447   */\n      0x00\n        /* \"#utility.yul\":23465:23470   */\n      dup2\n        /* \"#utility.yul\":23458:23470   */\n      swap1\n      pop\n        /* \"#utility.yul\":23401:23476   */\n      swap2\n      swap1\n      pop\n      jump\t// out\n        /* \"#utility.yul\":23482:23751   */\n    tag_437:\n        /* \"#utility.yul\":23592:23631   */\n      tag_687\n        /* \"#utility.yul\":23623:23630   */\n      dup4\n        /* \"#utility.yul\":23592:23631   */\n      tag_435\n      jump\t// in\n    tag_687:\n        /* \"#utility.yul\":23653:23744   */\n      tag_688\n        /* \"#utility.yul\":23702:23743   */\n      tag_689\n        /* \"#utility.yul\":23726:23742   */\n      dup3\n        /* \"#utility.yul\":23702:23743   */\n      tag_436\n      jump\t// in\n    tag_689:\n        /* \"#utility.yul\":23694:23700   */\n      dup5\n        /* \"#utility.yul\":23687:23691   */\n      dup5\n        /* \"#utility.yul\":23681:23692   */\n      sload\n        /* \"#utility.yul\":23653:23744   */\n      tag_433\n      jump\t// in\n    tag_688:\n        /* \"#utility.yul\":23647:23651   */\n      dup3\n        /* \"#utility.yul\":23640:23745   */\n      sstore\n        /* \"#utility.yul\":23558:23751   */\n      pop\n        /* \"#utility.yul\":23482:23751   */\n      pop\n      pop\n      pop\n      jump\t// out\n        /* \"#utility.yul\":23757:23830   */\n    tag_438:\n        /* \"#utility.yul\":23802:23805   */\n      0x00\n        /* \"#utility.yul\":23757:23830   */\n      swap1\n      jump\t// out\n        /* \"#utility.yul\":23836:24025   */\n    tag_439:\n        /* \"#utility.yul\":23913:23945   */\n      tag_692\n      tag_438\n      jump\t// in\n    tag_692:\n        /* \"#utility.yul\":23954:24019   */\n      tag_693\n        /* \"#utility.yul\":24012:24018   */\n      dup2\n        /* \"#utility.yul\":24004:24010   */\n      dup5\n        /* \"#utility.yul\":23998:24002   */\n      dup5\n        /* \"#utility.yul\":23954:24019   */\n      tag_437\n      jump\t// in\n    tag_693:\n        /* \"#utility.yul\":23889:24025   */\n      pop\n        /* \"#utility.yul\":23836:24025   */\n      pop\n      pop\n      jump\t// out\n        /* \"#utility.yul\":24031:24217   */\n    tag_440:\n        /* \"#utility.yul\":24091:24211   */\n    tag_695:\n        /* \"#utility.yul\":24108:24111   */\n      dup2\n        /* \"#utility.yul\":24101:24106   */\n      dup2\n        /* \"#utility.yul\":24098:24112   */\n      lt\n        /* \"#utility.yul\":24091:24211   */\n      iszero\n      tag_697\n      jumpi\n        /* \"#utility.yul\":24162:24201   */\n      tag_698\n        /* \"#utility.yul\":24199:24200   */\n      0x00\n        /* \"#utility.yul\":24192:24197   */\n      dup3\n        /* \"#utility.yul\":24162:24201   */\n      tag_439\n      jump\t// in\n    tag_698:\n        /* \"#utility.yul\":24135:24136   */\n      0x01\n        /* \"#utility.yul\":24128:24133   */\n      dup2\n        /* \"#utility.yul\":24124:24137   */\n      add\n        /* \"#utility.yul\":24115:24137   */\n      swap1\n      pop\n        /* \"#utility.yul\":24091:24211   */\n      jump(tag_695)\n    tag_697:\n        /* \"#utility.yul\":24031:24217   */\n      pop\n      pop\n      jump\t// out\n        /* \"#utility.yul\":24223:24766   */\n    tag_441:\n        /* \"#utility.yul\":24324:24326   */\n      0x1f\n        /* \"#utility.yul\":24319:24322   */\n      dup3\n        /* \"#utility.yul\":24316:24327   */\n      gt\n        /* \"#utility.yul\":24313:24759   */\n      iszero\n      tag_700\n      jumpi\n        /* \"#utility.yul\":24358:24396   */\n      tag_701\n        /* \"#utility.yul\":24390:24395   */\n      dup2\n        /* \"#utility.yul\":24358:24396   */\n      tag_430\n      jump\t// in\n    tag_701:\n        /* \"#utility.yul\":24442:24471   */\n      tag_702\n        /* \"#utility.yul\":24460:24470   */\n      dup5\n        /* \"#utility.yul\":24442:24471   */\n      tag_431\n      jump\t// in\n    tag_702:\n        /* \"#utility.yul\":24432:24440   */\n      dup2\n        /* \"#utility.yul\":24428:24472   */\n      add\n        /* \"#utility.yul\":24625:24627   */\n      0x20\n        /* \"#utility.yul\":24613:24623   */\n      dup6\n        /* \"#utility.yul\":24610:24628   */\n      lt\n        /* \"#utility.yul\":24607:24656   */\n      iszero\n      tag_703\n      jumpi\n        /* \"#utility.yul\":24646:24654   */\n      dup2\n        /* \"#utility.yul\":24631:24654   */\n      swap1\n      pop\n        /* \"#utility.yul\":24607:24656   */\n    tag_703:\n        /* \"#utility.yul\":24669:24749   */\n      tag_704\n        /* \"#utility.yul\":24725:24747   */\n      tag_705\n        /* \"#utility.yul\":24743:24746   */\n      dup6\n        /* \"#utility.yul\":24725:24747   */\n      tag_431\n      jump\t// in\n    tag_705:\n        /* \"#utility.yul\":24715:24723   */\n      dup4\n        /* \"#utility.yul\":24711:24748   */\n      add\n        /* \"#utility.yul\":24698:24709   */\n      dup3\n        /* \"#utility.yul\":24669:24749   */\n      tag_440\n      jump\t// in\n    tag_704:\n        /* \"#utility.yul\":24328:24759   */\n      pop\n      pop\n        /* \"#utility.yul\":24313:24759   */\n    tag_700:\n        /* \"#utility.yul\":24223:24766   */\n      pop\n      pop\n      pop\n      jump\t// out\n        /* \"#utility.yul\":24772:24889   */\n    tag_442:\n        /* \"#utility.yul\":24826:24834   */\n      0x00\n        /* \"#utility.yul\":24876:24881   */\n      dup3\n        /* \"#utility.yul\":24870:24874   */\n      dup3\n        /* \"#utility.yul\":24866:24882   */\n      shr\n        /* \"#utility.yul\":24845:24882   */\n      swap1\n      pop\n        /* \"#utility.yul\":24772:24889   */\n      swap3\n      swap2\n      pop\n      pop\n      jump\t// out\n        /* \"#utility.yul\":24895:25064   */\n    tag_443:\n        /* \"#utility.yul\":24939:24945   */\n      0x00\n        /* \"#utility.yul\":24972:25023   */\n      tag_708\n        /* \"#utility.yul\":25020:25021   */\n      0x00\n        /* \"#utility.yul\":25016:25022   */\n      not\n        /* \"#utility.yul\":25008:25013   */\n      dup5\n        /* \"#utility.yul\":25005:25006   */\n      0x08\n        /* \"#utility.yul\":25001:25014   */\n      mul\n        /* \"#utility.yul\":24972:25023   */\n      tag_442\n      jump\t// in\n    tag_708:\n        /* \"#utility.yul\":24968:25024   */\n      not\n        /* \"#utility.yul\":25053:25057   */\n      dup1\n        /* \"#utility.yul\":25047:25051   */\n      dup4\n        /* \"#utility.yul\":25043:25058   */\n      and\n        /* \"#utility.yul\":25033:25058   */\n      swap2\n      pop\n        /* \"#utility.yul\":24946:25064   */\n      pop\n        /* \"#utility.yul\":24895:25064   */\n      swap3\n      swap2\n      pop\n      pop\n      jump\t// out\n        /* \"#utility.yul\":25069:25364   */\n    tag_444:\n        /* \"#utility.yul\":25145:25149   */\n      0x00\n        /* \"#utility.yul\":25291:25320   */\n      tag_710\n        /* \"#utility.yul\":25316:25319   */\n      dup4\n        /* \"#utility.yul\":25310:25314   */\n      dup4\n        /* \"#utility.yul\":25291:25320   */\n      tag_443\n      jump\t// in\n    tag_710:\n        /* \"#utility.yul\":25283:25320   */\n      swap2\n      pop\n        /* \"#utility.yul\":25353:25356   */\n      dup3\n        /* \"#utility.yul\":25350:25351   */\n      0x02\n        /* \"#utility.yul\":25346:25357   */\n      mul\n        /* \"#utility.yul\":25340:25344   */\n      dup3\n        /* \"#utility.yul\":25337:25358   */\n      or\n        /* \"#utility.yul\":25329:25358   */\n      swap1\n      pop\n        /* \"#utility.yul\":25069:25364   */\n      swap3\n      swap2\n      pop\n      pop\n      jump\t// out\n        /* \"#utility.yul\":25369:26764   */\n    tag_140:\n        /* \"#utility.yul\":25486:25523   */\n      tag_712\n        /* \"#utility.yul\":25519:25522   */\n      dup3\n        /* \"#utility.yul\":25486:25523   */\n      tag_380\n      jump\t// in\n    tag_712:\n        /* \"#utility.yul\":25588:25606   */\n      0xffffffffffffffff\n        /* \"#utility.yul\":25580:25586   */\n      dup2\n        /* \"#utility.yul\":25577:25607   */\n      gt\n        /* \"#utility.yul\":25574:25630   */\n      iszero\n      tag_713\n      jumpi\n        /* \"#utility.yul\":25610:25628   */\n      tag_714\n      tag_160\n      jump\t// in\n    tag_714:\n        /* \"#utility.yul\":25574:25630   */\n    tag_713:\n        /* \"#utility.yul\":25654:25692   */\n      tag_715\n        /* \"#utility.yul\":25686:25690   */\n      dup3\n        /* \"#utility.yul\":25680:25691   */\n      sload\n        /* \"#utility.yul\":25654:25692   */\n      tag_123\n      jump\t// in\n    tag_715:\n        /* \"#utility.yul\":25739:25806   */\n      tag_716\n        /* \"#utility.yul\":25799:25805   */\n      dup3\n        /* \"#utility.yul\":25791:25797   */\n      dup3\n        /* \"#utility.yul\":25785:25789   */\n      dup6\n        /* \"#utility.yul\":25739:25806   */\n      tag_441\n      jump\t// in\n    tag_716:\n        /* \"#utility.yul\":25833:25834   */\n      0x00\n        /* \"#utility.yul\":25857:25861   */\n      0x20\n        /* \"#utility.yul\":25844:25861   */\n      swap1\n      pop\n        /* \"#utility.yul\":25889:25891   */\n      0x1f\n        /* \"#utility.yul\":25881:25887   */\n      dup4\n        /* \"#utility.yul\":25878:25892   */\n      gt\n        /* \"#utility.yul\":25906:25907   */\n      0x01\n        /* \"#utility.yul\":25901:26519   */\n      dup2\n      eq\n      tag_718\n      jumpi\n        /* \"#utility.yul\":26563:26564   */\n      0x00\n        /* \"#utility.yul\":26580:26586   */\n      dup5\n        /* \"#utility.yul\":26577:26654   */\n      iszero\n      tag_719\n      jumpi\n        /* \"#utility.yul\":26629:26638   */\n      dup3\n        /* \"#utility.yul\":26624:26627   */\n      dup8\n        /* \"#utility.yul\":26620:26639   */\n      add\n        /* \"#utility.yul\":26614:26640   */\n      mload\n        /* \"#utility.yul\":26605:26640   */\n      swap1\n      pop\n        /* \"#utility.yul\":26577:26654   */\n    tag_719:\n        /* \"#utility.yul\":26680:26747   */\n      tag_720\n        /* \"#utility.yul\":26740:26746   */\n      dup6\n        /* \"#utility.yul\":26733:26738   */\n      dup3\n        /* \"#utility.yul\":26680:26747   */\n      tag_444\n      jump\t// in\n    tag_720:\n        /* \"#utility.yul\":26674:26678   */\n      dup7\n        /* \"#utility.yul\":26667:26748   */\n      sstore\n        /* \"#utility.yul\":26536:26758   */\n      pop\n        /* \"#utility.yul\":25871:26758   */\n      jump(tag_717)\n        /* \"#utility.yul\":25901:26519   */\n    tag_718:\n        /* \"#utility.yul\":25953:25957   */\n      0x1f\n        /* \"#utility.yul\":25949:25958   */\n      not\n        /* \"#utility.yul\":25941:25947   */\n      dup5\n        /* \"#utility.yul\":25937:25959   */\n      and\n        /* \"#utility.yul\":25987:26024   */\n      tag_721\n        /* \"#utility.yul\":26019:26023   */\n      dup7\n        /* \"#utility.yul\":25987:26024   */\n      tag_430\n      jump\t// in\n    tag_721:\n        /* \"#utility.yul\":26046:26047   */\n      0x00\n        /* \"#utility.yul\":26060:26268   */\n    tag_722:\n        /* \"#utility.yul\":26074:26081   */\n      dup3\n        /* \"#utility.yul\":26071:26072   */\n      dup2\n        /* \"#utility.yul\":26068:26082   */\n      lt\n        /* \"#utility.yul\":26060:26268   */\n      iszero\n      tag_724\n      jumpi\n        /* \"#utility.yul\":26153:26162   */\n      dup5\n        /* \"#utility.yul\":26148:26151   */\n      dup10\n        /* \"#utility.yul\":26144:26163   */\n      add\n        /* \"#utility.yul\":26138:26164   */\n      mload\n        /* \"#utility.yul\":26130:26136   */\n      dup3\n        /* \"#utility.yul\":26123:26165   */\n      sstore\n        /* \"#utility.yul\":26204:26205   */\n      0x01\n        /* \"#utility.yul\":26196:26202   */\n      dup3\n        /* \"#utility.yul\":26192:26206   */\n      add\n        /* \"#utility.yul\":26182:26206   */\n      swap2\n      pop\n        /* \"#utility.yul\":26251:26253   */\n      0x20\n        /* \"#utility.yul\":26240:26249   */\n      dup6\n        /* \"#utility.yul\":26236:26254   */\n      add\n        /* \"#utility.yul\":26223:26254   */\n      swap5\n      pop\n        /* \"#utility.yul\":26097:26101   */\n      0x20\n        /* \"#utility.yul\":26094:26095   */\n      dup2\n        /* \"#utility.yul\":26090:26102   */\n      add\n        /* \"#utility.yul\":26085:26102   */\n      swap1\n      pop\n        /* \"#utility.yul\":26060:26268   */\n      jump(tag_722)\n    tag_724:\n        /* \"#utility.yul\":26296:26302   */\n      dup7\n        /* \"#utility.yul\":26287:26294   */\n      dup4\n        /* \"#utility.yul\":26284:26303   */\n      lt\n        /* \"#utility.yul\":26281:26460   */\n      iszero\n      tag_725\n      jumpi\n        /* \"#utility.yul\":26354:26363   */\n      dup5\n        /* \"#utility.yul\":26349:26352   */\n      dup10\n        /* \"#utility.yul\":26345:26364   */\n      add\n        /* \"#utility.yul\":26339:26365   */\n      mload\n        /* \"#utility.yul\":26397:26445   */\n      tag_726\n        /* \"#utility.yul\":26439:26443   */\n      0x1f\n        /* \"#utility.yul\":26431:26437   */\n      dup10\n        /* \"#utility.yul\":26427:26444   */\n      and\n        /* \"#utility.yul\":26416:26425   */\n      dup3\n        /* \"#utility.yul\":26397:26445   */\n      tag_443\n      jump\t// in\n    tag_726:\n        /* \"#utility.yul\":26389:26395   */\n      dup4\n        /* \"#utility.yul\":26382:26446   */\n      sstore\n        /* \"#utility.yul\":26304:26460   */\n      pop\n        /* \"#utility.yul\":26281:26460   */\n    tag_725:\n        /* \"#utility.yul\":26506:26507   */\n      0x01\n        /* \"#utility.yul\":26502:26503   */\n      0x02\n        /* \"#utility.yul\":26494:26500   */\n      dup9\n        /* \"#utility.yul\":26490:26504   */\n      mul\n        /* \"#utility.yul\":26486:26508   */\n      add\n        /* \"#utility.yul\":26480:26484   */\n      dup9\n        /* \"#utility.yul\":26473:26509   */\n      sstore\n        /* \"#utility.yul\":25908:26519   */\n      pop\n      pop\n      pop\n        /* \"#utility.yul\":25871:26758   */\n    tag_717:\n      pop\n        /* \"#utility.yul\":25461:26764   */\n      pop\n      pop\n      pop\n        /* \"#utility.yul\":25369:26764   */\n      pop\n      pop\n      jump\t// out\n        /* \"#utility.yul\":26770:26950   */\n    tag_445:\n        /* \"#utility.yul\":26818:26895   */\n      0x4e487b7100000000000000000000000000000000000000000000000000000000\n        /* \"#utility.yul\":26815:26816   */\n      0x00\n        /* \"#utility.yul\":26808:26896   */\n      mstore\n        /* \"#utility.yul\":26915:26919   */\n      0x11\n        /* \"#utility.yul\":26912:26913   */\n      0x04\n        /* \"#utility.yul\":26905:26920   */\n      mstore\n        /* \"#utility.yul\":26939:26943   */\n      0x24\n        /* \"#utility.yul\":26936:26937   */\n      0x00\n        /* \"#utility.yul\":26929:26944   */\n      revert\n        /* \"#utility.yul\":26956:27147   */\n    tag_144:\n        /* \"#utility.yul\":26996:26999   */\n      0x00\n        /* \"#utility.yul\":27015:27035   */\n      tag_729\n        /* \"#utility.yul\":27033:27034   */\n      dup3\n        /* \"#utility.yul\":27015:27035   */\n      tag_385\n      jump\t// in\n    tag_729:\n        /* \"#utility.yul\":27010:27035   */\n      swap2\n      pop\n        /* \"#utility.yul\":27049:27069   */\n      tag_730\n        /* \"#utility.yul\":27067:27068   */\n      dup4\n        /* \"#utility.yul\":27049:27069   */\n      tag_385\n      jump\t// in\n    tag_730:\n        /* \"#utility.yul\":27044:27069   */\n      swap3\n      pop\n        /* \"#utility.yul\":27092:27093   */\n      dup3\n        /* \"#utility.yul\":27089:27090   */\n      dup3\n        /* \"#utility.yul\":27085:27094   */\n      add\n        /* \"#utility.yul\":27078:27094   */\n      swap1\n      pop\n        /* \"#utility.yul\":27113:27116   */\n      dup1\n        /* \"#utility.yul\":27110:27111   */\n      dup3\n        /* \"#utility.yul\":27107:27117   */\n      gt\n        /* \"#utility.yul\":27104:27140   */\n      iszero\n      tag_731\n      jumpi\n        /* \"#utility.yul\":27120:27138   */\n      tag_732\n      tag_445\n      jump\t// in\n    tag_732:\n        /* \"#utility.yul\":27104:27140   */\n    tag_731:\n        /* \"#utility.yul\":26956:27147   */\n      swap3\n      swap2\n      pop\n      pop\n      jump\t// out\n        /* \"#utility.yul\":27153:27595   */\n    tag_153:\n        /* \"#utility.yul\":27302:27306   */\n      0x00\n        /* \"#utility.yul\":27340:27342   */\n      0x60\n        /* \"#utility.yul\":27329:27338   */\n      dup3\n        /* \"#utility.yul\":27325:27343   */\n      add\n        /* \"#utility.yul\":27317:27343   */\n      swap1\n      pop\n        /* \"#utility.yul\":27353:27424   */\n      tag_734\n        /* \"#utility.yul\":27421:27422   */\n      0x00\n        /* \"#utility.yul\":27410:27419   */\n      dup4\n        /* \"#utility.yul\":27406:27423   */\n      add\n        /* \"#utility.yul\":27397:27403   */\n      dup7\n        /* \"#utility.yul\":27353:27424   */\n      tag_390\n      jump\t// in\n    tag_734:\n        /* \"#utility.yul\":27434:27506   */\n      tag_735\n        /* \"#utility.yul\":27502:27504   */\n      0x20\n        /* \"#utility.yul\":27491:27500   */\n      dup4\n        /* \"#utility.yul\":27487:27505   */\n      add\n        /* \"#utility.yul\":27478:27484   */\n      dup6\n        /* \"#utility.yul\":27434:27506   */\n      tag_419\n      jump\t// in\n    tag_735:\n        /* \"#utility.yul\":27516:27588   */\n      tag_736\n        /* \"#utility.yul\":27584:27586   */\n      0x40\n        /* \"#utility.yul\":27573:27582   */\n      dup4\n        /* \"#utility.yul\":27569:27587   */\n      add\n        /* \"#utility.yul\":27560:27566   */\n      dup5\n        /* \"#utility.yul\":27516:27588   */\n      tag_390\n      jump\t// in\n    tag_736:\n        /* \"#utility.yul\":27153:27595   */\n      swap5\n      swap4\n      pop\n      pop\n      pop\n      pop\n      jump\t// out\n        /* \"#utility.yul\":27601:27781   */\n    tag_171:\n        /* \"#utility.yul\":27649:27726   */\n      0x4e487b7100000000000000000000000000000000000000000000000000000000\n        /* \"#utility.yul\":27646:27647   */\n      0x00\n        /* \"#utility.yul\":27639:27727   */\n      mstore\n        /* \"#utility.yul\":27746:27750   */\n      0x32\n        /* \"#utility.yul\":27743:27744   */\n      0x04\n        /* \"#utility.yul\":27736:27751   */\n      mstore\n        /* \"#utility.yul\":27770:27774   */\n      0x24\n        /* \"#utility.yul\":27767:27768   */\n      0x00\n        /* \"#utility.yul\":27760:27775   */\n      revert\n        /* \"#utility.yul\":27787:28020   */\n    tag_176:\n        /* \"#utility.yul\":27826:27829   */\n      0x00\n        /* \"#utility.yul\":27849:27873   */\n      tag_739\n        /* \"#utility.yul\":27867:27872   */\n      dup3\n        /* \"#utility.yul\":27849:27873   */\n      tag_385\n      jump\t// in\n    tag_739:\n        /* \"#utility.yul\":27840:27873   */\n      swap2\n      pop\n        /* \"#utility.yul\":27895:27961   */\n      0xffffffffffffffffffffffffffffffffffffffffffffffffffffffffffffffff\n        /* \"#utility.yul\":27888:27893   */\n      dup3\n        /* \"#utility.yul\":27885:27962   */\n      sub\n        /* \"#utility.yul\":27882:27985   */\n      tag_740\n      jumpi\n        /* \"#utility.yul\":27965:27983   */\n      tag_741\n      tag_445\n      jump\t// in\n    tag_741:\n        /* \"#utility.yul\":27882:27985   */\n    tag_740:\n        /* \"#utility.yul\":28012:28013   */\n      0x01\n        /* \"#utility.yul\":28005:28010   */\n      dup3\n        /* \"#utility.yul\":28001:28014   */\n      add\n        /* \"#utility.yul\":27994:28014   */\n      swap1\n      pop\n        /* \"#utility.yul\":27787:28020   */\n      swap2\n      swap1\n      pop\n      jump\t// out\n        /* \"#utility.yul\":28026:28124   */\n    tag_446:\n        /* \"#utility.yul\":28077:28083   */\n      0x00\n        /* \"#utility.yul\":28111:28116   */\n      dup2\n        /* \"#utility.yul\":28105:28117   */\n      mload\n        /* \"#utility.yul\":28095:28117   */\n      swap1\n      pop\n        /* \"#utility.yul\":28026:28124   */\n      swap2\n      swap1\n      pop\n      jump\t// out\n        /* \"#utility.yul\":28130:28298   */\n    tag_447:\n        /* \"#utility.yul\":28213:28224   */\n      0x00\n        /* \"#utility.yul\":28247:28253   */\n      dup3\n        /* \"#utility.yul\":28242:28245   */\n      dup3\n        /* \"#utility.yul\":28235:28254   */\n      mstore\n        /* \"#utility.yul\":28287:28291   */\n      0x20\n        /* \"#utility.yul\":28282:28285   */\n      dup3\n        /* \"#utility.yul\":28278:28292   */\n      add\n        /* \"#utility.yul\":28263:28292   */\n      swap1\n      pop\n        /* \"#utility.yul\":28130:28298   */\n      swap3\n      swap2\n      pop\n      pop\n      jump\t// out\n        /* \"#utility.yul\":28304:28677   */\n    tag_448:\n        /* \"#utility.yul\":28390:28393   */\n      0x00\n        /* \"#utility.yul\":28418:28456   */\n      tag_745\n        /* \"#utility.yul\":28450:28455   */\n      dup3\n        /* \"#utility.yul\":28418:28456   */\n      tag_446\n      jump\t// in\n    tag_745:\n        /* \"#utility.yul\":28472:28542   */\n      tag_746\n        /* \"#utility.yul\":28535:28541   */\n      dup2\n        /* \"#utility.yul\":28530:28533   */\n      dup6\n        /* \"#utility.yul\":28472:28542   */\n      tag_447\n      jump\t// in\n    tag_746:\n        /* \"#utility.yul\":28465:28542   */\n      swap4\n      pop\n        /* \"#utility.yul\":28551:28616   */\n      tag_747\n        /* \"#utility.yul\":28609:28615   */\n      dup2\n        /* \"#utility.yul\":28604:28607   */\n      dup6\n        /* \"#utility.yul\":28597:28601   */\n      0x20\n        /* \"#utility.yul\":28590:28595   */\n      dup7\n        /* \"#utility.yul\":28586:28602   */\n      add\n        /* \"#utility.yul\":28551:28616   */\n      tag_382\n      jump\t// in\n    tag_747:\n        /* \"#utility.yul\":28641:28670   */\n      tag_748\n        /* \"#utility.yul\":28663:28669   */\n      dup2\n        /* \"#utility.yul\":28641:28670   */\n      tag_383\n      jump\t// in\n    tag_748:\n        /* \"#utility.yul\":28636:28639   */\n      dup5\n        /* \"#utility.yul\":28632:28671   */\n      add\n        /* \"#utility.yul\":28625:28671   */\n      swap2\n      pop\n        /* \"#utility.yul\":28394:28677   */\n      pop\n        /* \"#utility.yul\":28304:28677   */\n      swap3\n      swap2\n      pop\n      pop\n      jump\t// out\n        /* \"#utility.yul\":28683:29323   */\n    tag_331:\n        /* \"#utility.yul\":28878:28882   */\n      0x00\n        /* \"#utility.yul\":28916:28919   */\n      0x80\n        /* \"#utility.yul\":28905:28914   */\n      dup3\n        /* \"#utility.yul\":28901:28920   */\n      add\n        /* \"#utility.yul\":28893:28920   */\n      swap1\n      pop\n        /* \"#utility.yul\":28930:29001   */\n      tag_750\n        /* \"#utility.yul\":28998:28999   */\n      0x00\n        /* \"#utility.yul\":28987:28996   */\n      dup4\n        /* \"#utility.yul\":28983:29000   */\n      add\n        /* \"#utility.yul\":28974:28980   */\n      dup8\n        /* \"#utility.yul\":28930:29001   */\n      tag_390\n      jump\t// in\n    tag_750:\n        /* \"#utility.yul\":29011:29083   */\n      tag_751\n        /* \"#utility.yul\":29079:29081   */\n      0x20\n        /* \"#utility.yul\":29068:29077   */\n      dup4\n        /* \"#utility.yul\":29064:29082   */\n      add\n        /* \"#utility.yul\":29055:29061   */\n      dup7\n        /* \"#utility.yul\":29011:29083   */\n      tag_390\n      jump\t// in\n    tag_751:\n        /* \"#utility.yul\":29093:29165   */\n      tag_752\n        /* \"#utility.yul\":29161:29163   */\n      0x40\n        /* \"#utility.yul\":29150:29159   */\n      dup4\n        /* \"#utility.yul\":29146:29164   */\n      add\n        /* \"#utility.yul\":29137:29143   */\n      dup6\n        /* \"#utility.yul\":29093:29165   */\n      tag_419\n      jump\t// in\n    tag_752:\n        /* \"#utility.yul\":29212:29221   */\n      dup2\n        /* \"#utility.yul\":29206:29210   */\n      dup2\n        /* \"#utility.yul\":29202:29222   */\n      sub\n        /* \"#utility.yul\":29197:29199   */\n      0x60\n        /* \"#utility.yul\":29186:29195   */\n      dup4\n        /* \"#utility.yul\":29182:29200   */\n      add\n        /* \"#utility.yul\":29175:29223   */\n      mstore\n        /* \"#utility.yul\":29240:29316   */\n      tag_753\n        /* \"#utility.yul\":29311:29315   */\n      dup2\n        /* \"#utility.yul\":29302:29308   */\n      dup5\n        /* \"#utility.yul\":29240:29316   */\n      tag_448\n      jump\t// in\n    tag_753:\n        /* \"#utility.yul\":29232:29316   */\n      swap1\n      pop\n        /* \"#utility.yul\":28683:29323   */\n      swap6\n      swap5\n      pop\n      pop\n      pop\n      pop\n      pop\n      jump\t// out\n        /* \"#utility.yul\":29329:29470   */\n    tag_449:\n        /* \"#utility.yul\":29385:29390   */\n      0x00\n        /* \"#utility.yul\":29416:29422   */\n      dup2\n        /* \"#utility.yul\":29410:29423   */\n      mload\n        /* \"#utility.yul\":29401:29423   */\n      swap1\n      pop\n        /* \"#utility.yul\":29432:29464   */\n      tag_755\n        /* \"#utility.yul\":29458:29463   */\n      dup2\n        /* \"#utility.yul\":29432:29464   */\n      tag_376\n      jump\t// in\n    tag_755:\n        /* \"#utility.yul\":29329:29470   */\n      swap3\n      swap2\n      pop\n      pop\n      jump\t// out\n        /* \"#utility.yul\":29476:29825   */\n    tag_334:\n        /* \"#utility.yul\":29545:29551   */\n      0x00\n        /* \"#utility.yul\":29594:29596   */\n      0x20\n        /* \"#utility.yul\":29582:29591   */\n      dup3\n        /* \"#utility.yul\":29573:29580   */\n      dup5\n        /* \"#utility.yul\":29569:29592   */\n      sub\n        /* \"#utility.yul\":29565:29597   */\n      slt\n        /* \"#utility.yul\":29562:29681   */\n      iszero\n      tag_757\n      jumpi\n        /* \"#utility.yul\":29600:29679   */\n      tag_758\n      tag_373\n      jump\t// in\n    tag_758:\n        /* \"#utility.yul\":29562:29681   */\n    tag_757:\n        /* \"#utility.yul\":29720:29721   */\n      0x00\n        /* \"#utility.yul\":29745:29808   */\n      tag_759\n        /* \"#utility.yul\":29800:29807   */\n      dup5\n        /* \"#utility.yul\":29791:29797   */\n      dup3\n        /* \"#utility.yul\":29780:29789   */\n      dup6\n        /* \"#utility.yul\":29776:29798   */\n      add\n        /* \"#utility.yul\":29745:29808   */\n      tag_449\n      jump\t// in\n    tag_759:\n        /* \"#utility.yul\":29735:29808   */\n      swap2\n      pop\n        /* \"#utility.yul\":29691:29818   */\n      pop\n        /* \"#utility.yul\":29476:29825   */\n      swap3\n      swap2\n      pop\n      pop\n      jump\t// out\n        /* \"#utility.yul\":29831:30163   */\n    tag_365:\n        /* \"#utility.yul\":29952:29956   */\n      0x00\n        /* \"#utility.yul\":29990:29992   */\n      0x40\n        /* \"#utility.yul\":29979:29988   */\n      dup3\n        /* \"#utility.yul\":29975:29993   */\n      add\n        /* \"#utility.yul\":29967:29993   */\n      swap1\n      pop\n        /* \"#utility.yul\":30003:30074   */\n      tag_761\n        /* \"#utility.yul\":30071:30072   */\n      0x00\n        /* \"#utility.yul\":30060:30069   */\n      dup4\n        /* \"#utility.yul\":30056:30073   */\n      add\n        /* \"#utility.yul\":30047:30053   */\n      dup6\n        /* \"#utility.yul\":30003:30074   */\n      tag_390\n      jump\t// in\n    tag_761:\n        /* \"#utility.yul\":30084:30156   */\n      tag_762\n        /* \"#utility.yul\":30152:30154   */\n      0x20\n        /* \"#utility.yul\":30141:30150   */\n      dup4\n        /* \"#utility.yul\":30137:30155   */\n      add\n        /* \"#utility.yul\":30128:30134   */\n      dup5\n        /* \"#utility.yul\":30084:30156   */\n      tag_419\n      jump\t// in\n    tag_762:\n        /* \"#utility.yul\":29831:30163   */\n      swap4\n      swap3\n      pop\n      pop\n      pop\n      jump\t// out\n\n    auxdata: 0xa2646970667358221220638d56f892055678c754cb2f77796e6dca07e80a3014f394035b20edff1c7a7764736f6c63430008140033\n}\n",
				"bytecode": {
					"linkReferences": {},
					"object": "60806040525f6007555f600a5534801562000018575f80fd5b506040516200311b3803806200311b83398181016040528101906200003e9190620001f2565b8181815f9081620000509190620004ac565b508060019081620000629190620004ac565b505050505062000590565b5f604051905090565b5f80fd5b5f80fd5b5f80fd5b5f80fd5b5f601f19601f8301169050919050565b7f4e487b71000000000000000000000000000000000000000000000000000000005f52604160045260245ffd5b620000ce8262000086565b810181811067ffffffffffffffff82111715620000f057620000ef62000096565b5b80604052505050565b5f620001046200006d565b9050620001128282620000c3565b919050565b5f67ffffffffffffffff82111562000134576200013362000096565b5b6200013f8262000086565b9050602081019050919050565b5f5b838110156200016b5780820151818401526020810190506200014e565b5f8484015250505050565b5f6200018c620001868462000117565b620000f9565b905082815260208101848484011115620001ab57620001aa62000082565b5b620001b88482856200014c565b509392505050565b5f82601f830112620001d757620001d66200007e565b5b8151620001e984826020860162000176565b91505092915050565b5f80604083850312156200020b576200020a62000076565b5b5f83015167ffffffffffffffff8111156200022b576200022a6200007a565b5b6200023985828601620001c0565b925050602083015167ffffffffffffffff8111156200025d576200025c6200007a565b5b6200026b85828601620001c0565b9150509250929050565b5f81519050919050565b7f4e487b71000000000000000000000000000000000000000000000000000000005f52602260045260245ffd5b5f6002820490506001821680620002c457607f821691505b602082108103620002da57620002d96200027f565b5b50919050565b5f819050815f5260205f209050919050565b5f6020601f8301049050919050565b5f82821b905092915050565b5f600883026200033e7fffffffffffffffffffffffffffffffffffffffffffffffffffffffffffffffff8262000301565b6200034a868362000301565b95508019841693508086168417925050509392505050565b5f819050919050565b5f819050919050565b5f620003946200038e620003888462000362565b6200036b565b62000362565b9050919050565b5f819050919050565b620003af8362000374565b620003c7620003be826200039b565b8484546200030d565b825550505050565b5f90565b620003dd620003cf565b620003ea818484620003a4565b505050565b5b818110156200041157620004055f82620003d3565b600181019050620003f0565b5050565b601f82111562000460576200042a81620002e0565b6200043584620002f2565b8101602085101562000445578190505b6200045d6200045485620002f2565b830182620003ef565b50505b505050565b5f82821c905092915050565b5f620004825f198460080262000465565b1980831691505092915050565b5f6200049c838362000471565b9150826002028217905092915050565b620004b78262000275565b67ffffffffffffffff811115620004d357620004d262000096565b5b620004df8254620002ac565b620004ec82828562000415565b5f60209050601f83116001811462000522575f84156200050d578287015190505b6200051985826200048f565b86555062000588565b601f1984166200053286620002e0565b5f5b828110156200055b5784890151825560018201915060208501945060208101905062000534565b868310156200057b578489015162000577601f89168262000471565b8355505b6001600288020188555050505b505050505050565b612b7d806200059e5f395ff3fe608060405234801561000f575f80fd5b5060043610610135575f3560e01c80636352211e116100b657806398d5fdca1161007a57806398d5fdca1461034b578063a22cb4651461036a578063b88d4fde14610386578063c4e41b22146103a2578063c87b56dd146103c0578063e985e9c5146103f057610135565b80636352211e1461029157806370a08231146102c157806389fde7af146102f1578063916790171461030f57806395d89b411461032d57610135565b806323b872dd116100fd57806323b872dd146101ef57806329d6724e1461020b578063304a7a4b1461022757806342842e0e1461024557806362a464d81461026157610135565b806301ffc9a71461013957806306fdde0314610169578063081812fc14610187578063095ea7b3146101b75780630bdc9008146101d3575b5f80fd5b610153600480360381019061014e9190611ca1565b610420565b6040516101609190611ce6565b60405180910390f35b610171610501565b60405161017e9190611d89565b60405180910390f35b6101a1600480360381019061019c9190611ddc565b610590565b6040516101ae9190611e46565b60405180910390f35b6101d160048036038101906101cc9190611e89565b6105ab565b005b6101ed60048036038101906101e89190611ff3565b6105c1565b005b6102096004803603810190610204919061203a565b61060a565b005b610225600480360381019061022091906120b4565b610709565b005b61022f610719565b60405161023c9190612250565b60405180910390f35b61025f600480360381019061025a919061203a565b610ab8565b005b61027b60048036038101906102769190612270565b610ad7565b6040516102889190612356565b60405180910390f35b6102ab60048036038101906102a69190611ddc565b610b32565b6040516102b89190611e46565b60405180910390f35b6102db60048036038101906102d69190612376565b610b43565b6040516102e891906123b0565b60405180910390f35b6102f9610bf9565b6040516103069190612484565b60405180910390f35b610317610d2b565b6040516103249190612356565b60405180910390f35b610335610dde565b6040516103429190611d89565b60405180910390f35b610353610e6e565b6040516103619291906124a4565b60405180910390f35b610384600480360381019061037f91906124d9565b610fe2565b005b6103a0600480360381019061039b91906125b5565b610ff8565b005b6103aa611015565b6040516103b791906123b0565b60405180910390f35b6103da60048036038101906103d59190611ddc565b61101e565b6040516103e79190611d89565b60405180910390f35b61040a60048036038101906104059190612635565b6110bf565b6040516104179190611ce6565b60405180910390f35b5f7f80ac58cd000000000000000000000000000000000000000000000000000000007bffffffffffffffffffffffffffffffffffffffffffffffffffffffff1916827bffffffffffffffffffffffffffffffffffffffffffffffffffffffff191614806104ea57507f5b5e139f000000000000000000000000000000000000000000000000000000007bffffffffffffffffffffffffffffffffffffffffffffffffffffffff1916827bffffffffffffffffffffffffffffffffffffffffffffffffffffffff1916145b806104fa57506104f98261114d565b5b9050919050565b60605f805461050f906126a0565b80601f016020809104026020016040519081016040528092919081815260200182805461053b906126a0565b80156105865780601f1061055d57610100808354040283529160200191610586565b820191905f5260205f20905b81548152906001019060200180831161056957829003601f168201915b5050505050905090565b5f61059a826111b6565b506105a48261123c565b9050919050565b6105bd82826105b8611275565b61127c565b5050565b8060065f60075481526020019081526020015f2090816105e1919061286d565b506105ee3360075461128e565b600160075f8282546106009190612969565b9250508190555050565b5f73ffffffffffffffffffffffffffffffffffffffff168273ffffffffffffffffffffffffffffffffffffffff160361067a575f6040517f64a0ae920000000000000000000000000000000000000000000000000000000081526004016106719190611e46565b60405180910390fd5b5f61068d8383610688611275565b611381565b90508373ffffffffffffffffffffffffffffffffffffffff168173ffffffffffffffffffffffffffffffffffffffff1614610703578382826040517f64283d7b0000000000000000000000000000000000000000000000000000000081526004016106fa9392919061299c565b60405180910390fd5b50505050565b61071483838361158c565b505050565b60605f60075467ffffffffffffffff81111561073857610737611ecf565b5b6040519080825280602002602001820160405280156107665781602001602082028036833780820191505090505b5090505f805b600754811015610822573373ffffffffffffffffffffffffffffffffffffffff16610796826116f5565b73ffffffffffffffffffffffffffffffffffffffff160361080f575f81036107df576103e78382815181106107ce576107cd6129d1565b5b602002602001018181525050610800565b808382815181106107f3576107f26129d1565b5b6020026020010181815250505b818061080b906129fe565b9250505b808061081a906129fe565b91505061076c565b505f60075467ffffffffffffffff8111156108405761083f611ecf565b5b60405190808252806020026020018201604052801561087957816020015b610866611c22565b81526020019060019003908161085e5790505b5090505f5b600754811015610aae575f84828151811061089c5761089b6129d1565b5b602002602001015114610a9b576103e78482815181106108bf576108be6129d1565b5b60200260200101510361099b57604051806040016040528060065f8081526020019081526020015f2080546108f3906126a0565b80601f016020809104026020016040519081016040528092919081815260200182805461091f906126a0565b801561096a5780601f106109415761010080835404028352916020019161096a565b820191905f5260205f20905b81548152906001019060200180831161094d57829003601f168201915b505050505081526020015f81525082828151811061098b5761098a6129d1565b5b6020026020010181905250610a9a565b604051806040016040528060065f8785815181106109bc576109bb6129d1565b5b602002602001015181526020019081526020015f2080546109dc906126a0565b80601f0160208091040260200160405190810160405280929190818152602001828054610a08906126a0565b8015610a535780601f10610a2a57610100808354040283529160200191610a53565b820191905f5260205f20905b815481529060010190602001808311610a3657829003601f168201915b50505050508152602001858381518110610a7057610a6f6129d1565b5b6020026020010151815250828281518110610a8e57610a8d6129d1565b5b60200260200101819052505b5b8080610aa6906129fe565b91505061087e565b5080935050505090565b610ad283838360405180602001604052805f815250610ff8565b505050565b60608160085f8581526020019081526020015f2081905550600983908060018154018082558091505060019003905f5260205f20015f9091909190915055600a5f815480929190610b27906129fe565b919050555092915050565b5f610b3c826111b6565b9050919050565b5f8073ffffffffffffffffffffffffffffffffffffffff168273ffffffffffffffffffffffffffffffffffffffff1603610bb4575f6040517f89c62b64000000000000000000000000000000000000000000000000000000008152600401610bab9190611e46565b60405180910390fd5b60035f8373ffffffffffffffffffffffffffffffffffffffff1673ffffffffffffffffffffffffffffffffffffffff1681526020019081526020015f20549050919050565b60605f60075467ffffffffffffffff811115610c1857610c17611ecf565b5b604051908082528060200260200182016040528015610c4b57816020015b6060815260200190600190039081610c365790505b5090505f5b600754811015610d235760065f8281526020019081526020015f208054610c76906126a0565b80601f0160208091040260200160405190810160405280929190818152602001828054610ca2906126a0565b8015610ced5780601f10610cc457610100808354040283529160200191610ced565b820191905f5260205f20905b815481529060010190602001808311610cd057829003601f168201915b5050505050828281518110610d0557610d046129d1565b5b60200260200101819052508080610d1b906129fe565b915050610c50565b508091505090565b60605f600a5467ffffffffffffffff811115610d4a57610d49611ecf565b5b604051908082528060200260200182016040528015610d785781602001602082028036833780820191505090505b5090505f5b600a54811015610dd65760098181548110610d9b57610d9a6129d1565b5b905f5260205f200154828281518110610db757610db66129d1565b5b6020026020010181815250508080610dce906129fe565b915050610d7d565b508091505090565b606060018054610ded906126a0565b80601f0160208091040260200160405190810160405280929190818152602001828054610e19906126a0565b8015610e645780601f10610e3b57610100808354040283529160200191610e64565b820191905f5260205f20905b815481529060010190602001808311610e4757829003601f168201915b5050505050905090565b6060805f600a5467ffffffffffffffff811115610e8e57610e8d611ecf565b5b604051908082528060200260200182016040528015610ebc5781602001602082028036833780820191505090505b5090505f5b600a54811015610f1a5760098181548110610edf57610ede6129d1565b5b905f5260205f200154828281518110610efb57610efa6129d1565b5b6020026020010181815250508080610f12906129fe565b915050610ec1565b505f600a5467ffffffffffffffff811115610f3857610f37611ecf565b5b604051908082528060200260200182016040528015610f665781602001602082028036833780820191505090505b5090505f5b600a54811015610fd55760085f60098381548110610f8c57610f8b6129d1565b5b905f5260205f20015481526020019081526020015f2054828281518110610fb657610fb56129d1565b5b6020026020010181815250508080610fcd906129fe565b915050610f6b565b5080829350935050509091565b610ff4610fed611275565b838361158c565b5050565b61100384848461060a565b61100f8484848461172e565b50505050565b5f600754905090565b606060065f8381526020019081526020015f20805461103c906126a0565b80601f0160208091040260200160405190810160405280929190818152602001828054611068906126a0565b80156110b35780601f1061108a576101008083540402835291602001916110b3565b820191905f5260205f20905b81548152906001019060200180831161109657829003601f168201915b50505050509050919050565b5f60055f8473ffffffffffffffffffffffffffffffffffffffff1673ffffffffffffffffffffffffffffffffffffffff1681526020019081526020015f205f8373ffffffffffffffffffffffffffffffffffffffff1673ffffffffffffffffffffffffffffffffffffffff1681526020019081526020015f205f9054906101000a900460ff16905092915050565b5f7f01ffc9a7000000000000000000000000000000000000000000000000000000007bffffffffffffffffffffffffffffffffffffffffffffffffffffffff1916827bffffffffffffffffffffffffffffffffffffffffffffffffffffffff1916149050919050565b5f806111c1836116f5565b90505f73ffffffffffffffffffffffffffffffffffffffff168173ffffffffffffffffffffffffffffffffffffffff160361123357826040517f7e27328900000000000000000000000000000000000000000000000000000000815260040161122a91906123b0565b60405180910390fd5b80915050919050565b5f60045f8381526020019081526020015f205f9054906101000a900473ffffffffffffffffffffffffffffffffffffffff169050919050565b5f33905090565b61128983838360016118e0565b505050565b5f73ffffffffffffffffffffffffffffffffffffffff168273ffffffffffffffffffffffffffffffffffffffff16036112fe575f6040517f64a0ae920000000000000000000000000000000000000000000000000000000081526004016112f59190611e46565b60405180910390fd5b5f61130a83835f611381565b90505f73ffffffffffffffffffffffffffffffffffffffff168173ffffffffffffffffffffffffffffffffffffffff161461137c575f6040517f73c6ac6e0000000000000000000000000000000000000000000000000000000081526004016113739190611e46565b60405180910390fd5b505050565b5f8061138c846116f5565b90505f73ffffffffffffffffffffffffffffffffffffffff168373ffffffffffffffffffffffffffffffffffffffff16146113cd576113cc818486611a9f565b5b5f73ffffffffffffffffffffffffffffffffffffffff168173ffffffffffffffffffffffffffffffffffffffff16146114585761140c5f855f806118e0565b600160035f8373ffffffffffffffffffffffffffffffffffffffff1673ffffffffffffffffffffffffffffffffffffffff1681526020019081526020015f205f82825403925050819055505b5f73ffffffffffffffffffffffffffffffffffffffff168573ffffffffffffffffffffffffffffffffffffffff16146114d757600160035f8773ffffffffffffffffffffffffffffffffffffffff1673ffffffffffffffffffffffffffffffffffffffff1681526020019081526020015f205f82825401925050819055505b8460025f8681526020019081526020015f205f6101000a81548173ffffffffffffffffffffffffffffffffffffffff021916908373ffffffffffffffffffffffffffffffffffffffff160217905550838573ffffffffffffffffffffffffffffffffffffffff168273ffffffffffffffffffffffffffffffffffffffff167fddf252ad1be2c89b69c2b068fc378daa952ba7f163c4a11628f55a4df523b3ef60405160405180910390a4809150509392505050565b5f73ffffffffffffffffffffffffffffffffffffffff168273ffffffffffffffffffffffffffffffffffffffff16036115fc57816040517f5b08ba180000000000000000000000000000000000000000000000000000000081526004016115f39190611e46565b60405180910390fd5b8060055f8573ffffffffffffffffffffffffffffffffffffffff1673ffffffffffffffffffffffffffffffffffffffff1681526020019081526020015f205f8473ffffffffffffffffffffffffffffffffffffffff1673ffffffffffffffffffffffffffffffffffffffff1681526020019081526020015f205f6101000a81548160ff0219169083151502179055508173ffffffffffffffffffffffffffffffffffffffff168373ffffffffffffffffffffffffffffffffffffffff167f17307eab39ab6107e8899845ad3d59bd9653f200f220920489ca2b5937696c31836040516116e89190611ce6565b60405180910390a3505050565b5f60025f8381526020019081526020015f205f9054906101000a900473ffffffffffffffffffffffffffffffffffffffff169050919050565b5f8373ffffffffffffffffffffffffffffffffffffffff163b11156118da578273ffffffffffffffffffffffffffffffffffffffff1663150b7a02611771611275565b8685856040518563ffffffff1660e01b81526004016117939493929190612a97565b6020604051808303815f875af19250505080156117ce57506040513d601f19601f820116820180604052508101906117cb9190612af5565b60015b61184f573d805f81146117fc576040519150601f19603f3d011682016040523d82523d5f602084013e611801565b606091505b505f81510361184757836040517f64a0ae9200000000000000000000000000000000000000000000000000000000815260040161183e9190611e46565b60405180910390fd5b805181602001fd5b63150b7a0260e01b7bffffffffffffffffffffffffffffffffffffffffffffffffffffffff1916817bffffffffffffffffffffffffffffffffffffffffffffffffffffffff1916146118d857836040517f64a0ae920000000000000000000000000000000000000000000000000000000081526004016118cf9190611e46565b60405180910390fd5b505b50505050565b808061191857505f73ffffffffffffffffffffffffffffffffffffffff168273ffffffffffffffffffffffffffffffffffffffff1614155b15611a4a575f611927846111b6565b90505f73ffffffffffffffffffffffffffffffffffffffff168373ffffffffffffffffffffffffffffffffffffffff161415801561199157508273ffffffffffffffffffffffffffffffffffffffff168173ffffffffffffffffffffffffffffffffffffffff1614155b80156119a457506119a281846110bf565b155b156119e657826040517fa9fbf51f0000000000000000000000000000000000000000000000000000000081526004016119dd9190611e46565b60405180910390fd5b8115611a4857838573ffffffffffffffffffffffffffffffffffffffff168273ffffffffffffffffffffffffffffffffffffffff167f8c5be1e5ebec7d5bd14f71427d1e84f3dd0314c0f7b2291e5b200ac8c7c3b92560405160405180910390a45b505b8360045f8581526020019081526020015f205f6101000a81548173ffffffffffffffffffffffffffffffffffffffff021916908373ffffffffffffffffffffffffffffffffffffffff16021790555050505050565b611aaa838383611b62565b611b5d575f73ffffffffffffffffffffffffffffffffffffffff168373ffffffffffffffffffffffffffffffffffffffff1603611b1e57806040517f7e273289000000000000000000000000000000000000000000000000000000008152600401611b1591906123b0565b60405180910390fd5b81816040517f177e802f000000000000000000000000000000000000000000000000000000008152600401611b54929190612b20565b60405180910390fd5b505050565b5f8073ffffffffffffffffffffffffffffffffffffffff168373ffffffffffffffffffffffffffffffffffffffff1614158015611c1957508273ffffffffffffffffffffffffffffffffffffffff168473ffffffffffffffffffffffffffffffffffffffff161480611bda5750611bd984846110bf565b5b80611c1857508273ffffffffffffffffffffffffffffffffffffffff16611c008361123c565b73ffffffffffffffffffffffffffffffffffffffff16145b5b90509392505050565b6040518060400160405280606081526020015f81525090565b5f604051905090565b5f80fd5b5f80fd5b5f7fffffffff0000000000000000000000000000000000000000000000000000000082169050919050565b611c8081611c4c565b8114611c8a575f80fd5b50565b5f81359050611c9b81611c77565b92915050565b5f60208284031215611cb657611cb5611c44565b5b5f611cc384828501611c8d565b91505092915050565b5f8115159050919050565b611ce081611ccc565b82525050565b5f602082019050611cf95f830184611cd7565b92915050565b5f81519050919050565b5f82825260208201905092915050565b5f5b83811015611d36578082015181840152602081019050611d1b565b5f8484015250505050565b5f601f19601f8301169050919050565b5f611d5b82611cff565b611d658185611d09565b9350611d75818560208601611d19565b611d7e81611d41565b840191505092915050565b5f6020820190508181035f830152611da18184611d51565b905092915050565b5f819050919050565b611dbb81611da9565b8114611dc5575f80fd5b50565b5f81359050611dd681611db2565b92915050565b5f60208284031215611df157611df0611c44565b5b5f611dfe84828501611dc8565b91505092915050565b5f73ffffffffffffffffffffffffffffffffffffffff82169050919050565b5f611e3082611e07565b9050919050565b611e4081611e26565b82525050565b5f602082019050611e595f830184611e37565b92915050565b611e6881611e26565b8114611e72575f80fd5b50565b5f81359050611e8381611e5f565b92915050565b5f8060408385031215611e9f57611e9e611c44565b5b5f611eac85828601611e75565b9250506020611ebd85828601611dc8565b9150509250929050565b5f80fd5b5f80fd5b7f4e487b71000000000000000000000000000000000000000000000000000000005f52604160045260245ffd5b611f0582611d41565b810181811067ffffffffffffffff82111715611f2457611f23611ecf565b5b80604052505050565b5f611f36611c3b565b9050611f428282611efc565b919050565b5f67ffffffffffffffff821115611f6157611f60611ecf565b5b611f6a82611d41565b9050602081019050919050565b828183375f83830152505050565b5f611f97611f9284611f47565b611f2d565b905082815260208101848484011115611fb357611fb2611ecb565b5b611fbe848285611f77565b509392505050565b5f82601f830112611fda57611fd9611ec7565b5b8135611fea848260208601611f85565b91505092915050565b5f6020828403121561200857612007611c44565b5b5f82013567ffffffffffffffff81111561202557612024611c48565b5b61203184828501611fc6565b91505092915050565b5f805f6060848603121561205157612050611c44565b5b5f61205e86828701611e75565b935050602061206f86828701611e75565b925050604061208086828701611dc8565b9150509250925092565b61209381611ccc565b811461209d575f80fd5b50565b5f813590506120ae8161208a565b92915050565b5f805f606084860312156120cb576120ca611c44565b5b5f6120d886828701611e75565b93505060206120e986828701611e75565b92505060406120fa868287016120a0565b9150509250925092565b5f81519050919050565b5f82825260208201905092915050565b5f819050602082019050919050565b5f82825260208201905092915050565b5f61214782611cff565b612151818561212d565b9350612161818560208601611d19565b61216a81611d41565b840191505092915050565b61217e81611da9565b82525050565b5f604083015f8301518482035f86015261219e828261213d565b91505060208301516121b36020860182612175565b508091505092915050565b5f6121c98383612184565b905092915050565b5f602082019050919050565b5f6121e782612104565b6121f1818561210e565b9350836020820285016122038561211e565b805f5b8581101561223e578484038952815161221f85826121be565b945061222a836121d1565b925060208a01995050600181019050612206565b50829750879550505050505092915050565b5f6020820190508181035f83015261226881846121dd565b905092915050565b5f806040838503121561228657612285611c44565b5b5f61229385828601611dc8565b92505060206122a485828601611dc8565b9150509250929050565b5f81519050919050565b5f82825260208201905092915050565b5f819050602082019050919050565b5f6122e28383612175565b60208301905092915050565b5f602082019050919050565b5f612304826122ae565b61230e81856122b8565b9350612319836122c8565b805f5b8381101561234957815161233088826122d7565b975061233b836122ee565b92505060018101905061231c565b5085935050505092915050565b5f6020820190508181035f83015261236e81846122fa565b905092915050565b5f6020828403121561238b5761238a611c44565b5b5f61239884828501611e75565b91505092915050565b6123aa81611da9565b82525050565b5f6020820190506123c35f8301846123a1565b92915050565b5f81519050919050565b5f82825260208201905092915050565b5f819050602082019050919050565b5f6123fd838361213d565b905092915050565b5f602082019050919050565b5f61241b826123c9565b61242581856123d3565b935083602082028501612437856123e3565b805f5b85811015612472578484038952815161245385826123f2565b945061245e83612405565b925060208a0199505060018101905061243a565b50829750879550505050505092915050565b5f6020820190508181035f83015261249c8184612411565b905092915050565b5f6040820190508181035f8301526124bc81856122fa565b905081810360208301526124d081846122fa565b90509392505050565b5f80604083850312156124ef576124ee611c44565b5b5f6124fc85828601611e75565b925050602061250d858286016120a0565b9150509250929050565b5f67ffffffffffffffff82111561253157612530611ecf565b5b61253a82611d41565b9050602081019050919050565b5f61255961255484612517565b611f2d565b90508281526020810184848401111561257557612574611ecb565b5b612580848285611f77565b509392505050565b5f82601f83011261259c5761259b611ec7565b5b81356125ac848260208601612547565b91505092915050565b5f805f80608085870312156125cd576125cc611c44565b5b5f6125da87828801611e75565b94505060206125eb87828801611e75565b93505060406125fc87828801611dc8565b925050606085013567ffffffffffffffff81111561261d5761261c611c48565b5b61262987828801612588565b91505092959194509250565b5f806040838503121561264b5761264a611c44565b5b5f61265885828601611e75565b925050602061266985828601611e75565b9150509250929050565b7f4e487b71000000000000000000000000000000000000000000000000000000005f52602260045260245ffd5b5f60028204905060018216806126b757607f821691505b6020821081036126ca576126c9612673565b5b50919050565b5f819050815f5260205f209050919050565b5f6020601f8301049050919050565b5f82821b905092915050565b5f6008830261272c7fffffffffffffffffffffffffffffffffffffffffffffffffffffffffffffffff826126f1565b61273686836126f1565b95508019841693508086168417925050509392505050565b5f819050919050565b5f61277161276c61276784611da9565b61274e565b611da9565b9050919050565b5f819050919050565b61278a83612757565b61279e61279682612778565b8484546126fd565b825550505050565b5f90565b6127b26127a6565b6127bd818484612781565b505050565b5b818110156127e0576127d55f826127aa565b6001810190506127c3565b5050565b601f821115612825576127f6816126d0565b6127ff846126e2565b8101602085101561280e578190505b61282261281a856126e2565b8301826127c2565b50505b505050565b5f82821c905092915050565b5f6128455f198460080261282a565b1980831691505092915050565b5f61285d8383612836565b9150826002028217905092915050565b61287682611cff565b67ffffffffffffffff81111561288f5761288e611ecf565b5b61289982546126a0565b6128a48282856127e4565b5f60209050601f8311600181146128d5575f84156128c3578287015190505b6128cd8582612852565b865550612934565b601f1984166128e3866126d0565b5f5b8281101561290a578489015182556001820191506020850194506020810190506128e5565b868310156129275784890151612923601f891682612836565b8355505b6001600288020188555050505b505050505050565b7f4e487b71000000000000000000000000000000000000000000000000000000005f52601160045260245ffd5b5f61297382611da9565b915061297e83611da9565b92508282019050808211156129965761299561293c565b5b92915050565b5f6060820190506129af5f830186611e37565b6129bc60208301856123a1565b6129c96040830184611e37565b949350505050565b7f4e487b71000000000000000000000000000000000000000000000000000000005f52603260045260245ffd5b5f612a0882611da9565b91507fffffffffffffffffffffffffffffffffffffffffffffffffffffffffffffffff8203612a3a57612a3961293c565b5b600182019050919050565b5f81519050919050565b5f82825260208201905092915050565b5f612a6982612a45565b612a738185612a4f565b9350612a83818560208601611d19565b612a8c81611d41565b840191505092915050565b5f608082019050612aaa5f830187611e37565b612ab76020830186611e37565b612ac460408301856123a1565b8181036060830152612ad68184612a5f565b905095945050505050565b5f81519050612aef81611c77565b92915050565b5f60208284031215612b0a57612b09611c44565b5b5f612b1784828501612ae1565b91505092915050565b5f604082019050612b335f830185611e37565b612b4060208301846123a1565b939250505056fea2646970667358221220638d56f892055678c754cb2f77796e6dca07e80a3014f394035b20edff1c7a7764736f6c63430008140033",
					"opcodes": "PUSH1 0x80 PUSH1 0x40 MSTORE PUSH0 PUSH1 0x7 SSTORE PUSH0 PUSH1 0xA SSTORE CALLVALUE DUP1 ISZERO PUSH3 0x18 JUMPI PUSH0 DUP1 REVERT JUMPDEST POP PUSH1 0x40 MLOAD PUSH3 0x311B CODESIZE SUB DUP1 PUSH3 0x311B DUP4 CODECOPY DUP2 DUP2 ADD PUSH1 0x40 MSTORE DUP2 ADD SWAP1 PUSH3 0x3E SWAP2 SWAP1 PUSH3 0x1F2 JUMP JUMPDEST DUP2 DUP2 DUP2 PUSH0 SWAP1 DUP2 PUSH3 0x50 SWAP2 SWAP1 PUSH3 0x4AC JUMP JUMPDEST POP DUP1 PUSH1 0x1 SWAP1 DUP2 PUSH3 0x62 SWAP2 SWAP1 PUSH3 0x4AC JUMP JUMPDEST POP POP POP POP POP PUSH3 0x590 JUMP JUMPDEST PUSH0 PUSH1 0x40 MLOAD SWAP1 POP SWAP1 JUMP JUMPDEST PUSH0 DUP1 REVERT JUMPDEST PUSH0 DUP1 REVERT JUMPDEST PUSH0 DUP1 REVERT JUMPDEST PUSH0 DUP1 REVERT JUMPDEST PUSH0 PUSH1 0x1F NOT PUSH1 0x1F DUP4 ADD AND SWAP1 POP SWAP2 SWAP1 POP JUMP JUMPDEST PUSH32 0x4E487B7100000000000000000000000000000000000000000000000000000000 PUSH0 MSTORE PUSH1 0x41 PUSH1 0x4 MSTORE PUSH1 0x24 PUSH0 REVERT JUMPDEST PUSH3 0xCE DUP3 PUSH3 0x86 JUMP JUMPDEST DUP2 ADD DUP2 DUP2 LT PUSH8 0xFFFFFFFFFFFFFFFF DUP3 GT OR ISZERO PUSH3 0xF0 JUMPI PUSH3 0xEF PUSH3 0x96 JUMP JUMPDEST JUMPDEST DUP1 PUSH1 0x40 MSTORE POP POP POP JUMP JUMPDEST PUSH0 PUSH3 0x104 PUSH3 0x6D JUMP JUMPDEST SWAP1 POP PUSH3 0x112 DUP3 DUP3 PUSH3 0xC3 JUMP JUMPDEST SWAP2 SWAP1 POP JUMP JUMPDEST PUSH0 PUSH8 0xFFFFFFFFFFFFFFFF DUP3 GT ISZERO PUSH3 0x134 JUMPI PUSH3 0x133 PUSH3 0x96 JUMP JUMPDEST JUMPDEST PUSH3 0x13F DUP3 PUSH3 0x86 JUMP JUMPDEST SWAP1 POP PUSH1 0x20 DUP2 ADD SWAP1 POP SWAP2 SWAP1 POP JUMP JUMPDEST PUSH0 JUMPDEST DUP4 DUP2 LT ISZERO PUSH3 0x16B JUMPI DUP1 DUP3 ADD MLOAD DUP2 DUP5 ADD MSTORE PUSH1 0x20 DUP2 ADD SWAP1 POP PUSH3 0x14E JUMP JUMPDEST PUSH0 DUP5 DUP5 ADD MSTORE POP POP POP POP JUMP JUMPDEST PUSH0 PUSH3 0x18C PUSH3 0x186 DUP5 PUSH3 0x117 JUMP JUMPDEST PUSH3 0xF9 JUMP JUMPDEST SWAP1 POP DUP3 DUP2 MSTORE PUSH1 0x20 DUP2 ADD DUP5 DUP5 DUP5 ADD GT ISZERO PUSH3 0x1AB JUMPI PUSH3 0x1AA PUSH3 0x82 JUMP JUMPDEST JUMPDEST PUSH3 0x1B8 DUP5 DUP3 DUP6 PUSH3 0x14C JUMP JUMPDEST POP SWAP4 SWAP3 POP POP POP JUMP JUMPDEST PUSH0 DUP3 PUSH1 0x1F DUP4 ADD SLT PUSH3 0x1D7 JUMPI PUSH3 0x1D6 PUSH3 0x7E JUMP JUMPDEST JUMPDEST DUP2 MLOAD PUSH3 0x1E9 DUP5 DUP3 PUSH1 0x20 DUP7 ADD PUSH3 0x176 JUMP JUMPDEST SWAP2 POP POP SWAP3 SWAP2 POP POP JUMP JUMPDEST PUSH0 DUP1 PUSH1 0x40 DUP4 DUP6 SUB SLT ISZERO PUSH3 0x20B JUMPI PUSH3 0x20A PUSH3 0x76 JUMP JUMPDEST JUMPDEST PUSH0 DUP4 ADD MLOAD PUSH8 0xFFFFFFFFFFFFFFFF DUP2 GT ISZERO PUSH3 0x22B JUMPI PUSH3 0x22A PUSH3 0x7A JUMP JUMPDEST JUMPDEST PUSH3 0x239 DUP6 DUP3 DUP7 ADD PUSH3 0x1C0 JUMP JUMPDEST SWAP3 POP POP PUSH1 0x20 DUP4 ADD MLOAD PUSH8 0xFFFFFFFFFFFFFFFF DUP2 GT ISZERO PUSH3 0x25D JUMPI PUSH3 0x25C PUSH3 0x7A JUMP JUMPDEST JUMPDEST PUSH3 0x26B DUP6 DUP3 DUP7 ADD PUSH3 0x1C0 JUMP JUMPDEST SWAP2 POP POP SWAP3 POP SWAP3 SWAP1 POP JUMP JUMPDEST PUSH0 DUP2 MLOAD SWAP1 POP SWAP2 SWAP1 POP JUMP JUMPDEST PUSH32 0x4E487B7100000000000000000000000000000000000000000000000000000000 PUSH0 MSTORE PUSH1 0x22 PUSH1 0x4 MSTORE PUSH1 0x24 PUSH0 REVERT JUMPDEST PUSH0 PUSH1 0x2 DUP3 DIV SWAP1 POP PUSH1 0x1 DUP3 AND DUP1 PUSH3 0x2C4 JUMPI PUSH1 0x7F DUP3 AND SWAP2 POP JUMPDEST PUSH1 0x20 DUP3 LT DUP2 SUB PUSH3 0x2DA JUMPI PUSH3 0x2D9 PUSH3 0x27F JUMP JUMPDEST JUMPDEST POP SWAP2 SWAP1 POP JUMP JUMPDEST PUSH0 DUP2 SWAP1 POP DUP2 PUSH0 MSTORE PUSH1 0x20 PUSH0 KECCAK256 SWAP1 POP SWAP2 SWAP1 POP JUMP JUMPDEST PUSH0 PUSH1 0x20 PUSH1 0x1F DUP4 ADD DIV SWAP1 POP SWAP2 SWAP1 POP JUMP JUMPDEST PUSH0 DUP3 DUP3 SHL SWAP1 POP SWAP3 SWAP2 POP POP JUMP JUMPDEST PUSH0 PUSH1 0x8 DUP4 MUL PUSH3 0x33E PUSH32 0xFFFFFFFFFFFFFFFFFFFFFFFFFFFFFFFFFFFFFFFFFFFFFFFFFFFFFFFFFFFFFFFF DUP3 PUSH3 0x301 JUMP JUMPDEST PUSH3 0x34A DUP7 DUP4 PUSH3 0x301 JUMP JUMPDEST SWAP6 POP DUP1 NOT DUP5 AND SWAP4 POP DUP1 DUP7 AND DUP5 OR SWAP3 POP POP POP SWAP4 SWAP3 POP POP POP JUMP JUMPDEST PUSH0 DUP2 SWAP1 POP SWAP2 SWAP1 POP JUMP JUMPDEST PUSH0 DUP2 SWAP1 POP SWAP2 SWAP1 POP JUMP JUMPDEST PUSH0 PUSH3 0x394 PUSH3 0x38E PUSH3 0x388 DUP5 PUSH3 0x362 JUMP JUMPDEST PUSH3 0x36B JUMP JUMPDEST PUSH3 0x362 JUMP JUMPDEST SWAP1 POP SWAP2 SWAP1 POP JUMP JUMPDEST PUSH0 DUP2 SWAP1 POP SWAP2 SWAP1 POP JUMP JUMPDEST PUSH3 0x3AF DUP4 PUSH3 0x374 JUMP JUMPDEST PUSH3 0x3C7 PUSH3 0x3BE DUP3 PUSH3 0x39B JUMP JUMPDEST DUP5 DUP5 SLOAD PUSH3 0x30D JUMP JUMPDEST DUP3 SSTORE POP POP POP POP JUMP JUMPDEST PUSH0 SWAP1 JUMP JUMPDEST PUSH3 0x3DD PUSH3 0x3CF JUMP JUMPDEST PUSH3 0x3EA DUP2 DUP5 DUP5 PUSH3 0x3A4 JUMP JUMPDEST POP POP POP JUMP JUMPDEST JUMPDEST DUP2 DUP2 LT ISZERO PUSH3 0x411 JUMPI PUSH3 0x405 PUSH0 DUP3 PUSH3 0x3D3 JUMP JUMPDEST PUSH1 0x1 DUP2 ADD SWAP1 POP PUSH3 0x3F0 JUMP JUMPDEST POP POP JUMP JUMPDEST PUSH1 0x1F DUP3 GT ISZERO PUSH3 0x460 JUMPI PUSH3 0x42A DUP2 PUSH3 0x2E0 JUMP JUMPDEST PUSH3 0x435 DUP5 PUSH3 0x2F2 JUMP JUMPDEST DUP2 ADD PUSH1 0x20 DUP6 LT ISZERO PUSH3 0x445 JUMPI DUP2 SWAP1 POP JUMPDEST PUSH3 0x45D PUSH3 0x454 DUP6 PUSH3 0x2F2 JUMP JUMPDEST DUP4 ADD DUP3 PUSH3 0x3EF JUMP JUMPDEST POP POP JUMPDEST POP POP POP JUMP JUMPDEST PUSH0 DUP3 DUP3 SHR SWAP1 POP SWAP3 SWAP2 POP POP JUMP JUMPDEST PUSH0 PUSH3 0x482 PUSH0 NOT DUP5 PUSH1 0x8 MUL PUSH3 0x465 JUMP JUMPDEST NOT DUP1 DUP4 AND SWAP2 POP POP SWAP3 SWAP2 POP POP JUMP JUMPDEST PUSH0 PUSH3 0x49C DUP4 DUP4 PUSH3 0x471 JUMP JUMPDEST SWAP2 POP DUP3 PUSH1 0x2 MUL DUP3 OR SWAP1 POP SWAP3 SWAP2 POP POP JUMP JUMPDEST PUSH3 0x4B7 DUP3 PUSH3 0x275 JUMP JUMPDEST PUSH8 0xFFFFFFFFFFFFFFFF DUP2 GT ISZERO PUSH3 0x4D3 JUMPI PUSH3 0x4D2 PUSH3 0x96 JUMP JUMPDEST JUMPDEST PUSH3 0x4DF DUP3 SLOAD PUSH3 0x2AC JUMP JUMPDEST PUSH3 0x4EC DUP3 DUP3 DUP6 PUSH3 0x415 JUMP JUMPDEST PUSH0 PUSH1 0x20 SWAP1 POP PUSH1 0x1F DUP4 GT PUSH1 0x1 DUP2 EQ PUSH3 0x522 JUMPI PUSH0 DUP5 ISZERO PUSH3 0x50D JUMPI DUP3 DUP8 ADD MLOAD SWAP1 POP JUMPDEST PUSH3 0x519 DUP6 DUP3 PUSH3 0x48F JUMP JUMPDEST DUP7 SSTORE POP PUSH3 0x588 JUMP JUMPDEST PUSH1 0x1F NOT DUP5 AND PUSH3 0x532 DUP7 PUSH3 0x2E0 JUMP JUMPDEST PUSH0 JUMPDEST DUP3 DUP2 LT ISZERO PUSH3 0x55B JUMPI DUP5 DUP10 ADD MLOAD DUP3 SSTORE PUSH1 0x1 DUP3 ADD SWAP2 POP PUSH1 0x20 DUP6 ADD SWAP5 POP PUSH1 0x20 DUP2 ADD SWAP1 POP PUSH3 0x534 JUMP JUMPDEST DUP7 DUP4 LT ISZERO PUSH3 0x57B JUMPI DUP5 DUP10 ADD MLOAD PUSH3 0x577 PUSH1 0x1F DUP10 AND DUP3 PUSH3 0x471 JUMP JUMPDEST DUP4 SSTORE POP JUMPDEST PUSH1 0x1 PUSH1 0x2 DUP9 MUL ADD DUP9 SSTORE POP POP POP JUMPDEST POP POP POP POP POP POP JUMP JUMPDEST PUSH2 0x2B7D DUP1 PUSH3 0x59E PUSH0 CODECOPY PUSH0 RETURN INVALID PUSH1 0x80 PUSH1 0x40 MSTORE CALLVALUE DUP1 ISZERO PUSH2 0xF JUMPI PUSH0 DUP1 REVERT JUMPDEST POP PUSH1 0x4 CALLDATASIZE LT PUSH2 0x135 JUMPI PUSH0 CALLDATALOAD PUSH1 0xE0 SHR DUP1 PUSH4 0x6352211E GT PUSH2 0xB6 JUMPI DUP1 PUSH4 0x98D5FDCA GT PUSH2 0x7A JUMPI DUP1 PUSH4 0x98D5FDCA EQ PUSH2 0x34B JUMPI DUP1 PUSH4 0xA22CB465 EQ PUSH2 0x36A JUMPI DUP1 PUSH4 0xB88D4FDE EQ PUSH2 0x386 JUMPI DUP1 PUSH4 0xC4E41B22 EQ PUSH2 0x3A2 JUMPI DUP1 PUSH4 0xC87B56DD EQ PUSH2 0x3C0 JUMPI DUP1 PUSH4 0xE985E9C5 EQ PUSH2 0x3F0 JUMPI PUSH2 0x135 JUMP JUMPDEST DUP1 PUSH4 0x6352211E EQ PUSH2 0x291 JUMPI DUP1 PUSH4 0x70A08231 EQ PUSH2 0x2C1 JUMPI DUP1 PUSH4 0x89FDE7AF EQ PUSH2 0x2F1 JUMPI DUP1 PUSH4 0x91679017 EQ PUSH2 0x30F JUMPI DUP1 PUSH4 0x95D89B41 EQ PUSH2 0x32D JUMPI PUSH2 0x135 JUMP JUMPDEST DUP1 PUSH4 0x23B872DD GT PUSH2 0xFD JUMPI DUP1 PUSH4 0x23B872DD EQ PUSH2 0x1EF JUMPI DUP1 PUSH4 0x29D6724E EQ PUSH2 0x20B JUMPI DUP1 PUSH4 0x304A7A4B EQ PUSH2 0x227 JUMPI DUP1 PUSH4 0x42842E0E EQ PUSH2 0x245 JUMPI DUP1 PUSH4 0x62A464D8 EQ PUSH2 0x261 JUMPI PUSH2 0x135 JUMP JUMPDEST DUP1 PUSH4 0x1FFC9A7 EQ PUSH2 0x139 JUMPI DUP1 PUSH4 0x6FDDE03 EQ PUSH2 0x169 JUMPI DUP1 PUSH4 0x81812FC EQ PUSH2 0x187 JUMPI DUP1 PUSH4 0x95EA7B3 EQ PUSH2 0x1B7 JUMPI DUP1 PUSH4 0xBDC9008 EQ PUSH2 0x1D3 JUMPI JUMPDEST PUSH0 DUP1 REVERT JUMPDEST PUSH2 0x153 PUSH1 0x4 DUP1 CALLDATASIZE SUB DUP2 ADD SWAP1 PUSH2 0x14E SWAP2 SWAP1 PUSH2 0x1CA1 JUMP JUMPDEST PUSH2 0x420 JUMP JUMPDEST PUSH1 0x40 MLOAD PUSH2 0x160 SWAP2 SWAP1 PUSH2 0x1CE6 JUMP JUMPDEST PUSH1 0x40 MLOAD DUP1 SWAP2 SUB SWAP1 RETURN JUMPDEST PUSH2 0x171 PUSH2 0x501 JUMP JUMPDEST PUSH1 0x40 MLOAD PUSH2 0x17E SWAP2 SWAP1 PUSH2 0x1D89 JUMP JUMPDEST PUSH1 0x40 MLOAD DUP1 SWAP2 SUB SWAP1 RETURN JUMPDEST PUSH2 0x1A1 PUSH1 0x4 DUP1 CALLDATASIZE SUB DUP2 ADD SWAP1 PUSH2 0x19C SWAP2 SWAP1 PUSH2 0x1DDC JUMP JUMPDEST PUSH2 0x590 JUMP JUMPDEST PUSH1 0x40 MLOAD PUSH2 0x1AE SWAP2 SWAP1 PUSH2 0x1E46 JUMP JUMPDEST PUSH1 0x40 MLOAD DUP1 SWAP2 SUB SWAP1 RETURN JUMPDEST PUSH2 0x1D1 PUSH1 0x4 DUP1 CALLDATASIZE SUB DUP2 ADD SWAP1 PUSH2 0x1CC SWAP2 SWAP1 PUSH2 0x1E89 JUMP JUMPDEST PUSH2 0x5AB JUMP JUMPDEST STOP JUMPDEST PUSH2 0x1ED PUSH1 0x4 DUP1 CALLDATASIZE SUB DUP2 ADD SWAP1 PUSH2 0x1E8 SWAP2 SWAP1 PUSH2 0x1FF3 JUMP JUMPDEST PUSH2 0x5C1 JUMP JUMPDEST STOP JUMPDEST PUSH2 0x209 PUSH1 0x4 DUP1 CALLDATASIZE SUB DUP2 ADD SWAP1 PUSH2 0x204 SWAP2 SWAP1 PUSH2 0x203A JUMP JUMPDEST PUSH2 0x60A JUMP JUMPDEST STOP JUMPDEST PUSH2 0x225 PUSH1 0x4 DUP1 CALLDATASIZE SUB DUP2 ADD SWAP1 PUSH2 0x220 SWAP2 SWAP1 PUSH2 0x20B4 JUMP JUMPDEST PUSH2 0x709 JUMP JUMPDEST STOP JUMPDEST PUSH2 0x22F PUSH2 0x719 JUMP JUMPDEST PUSH1 0x40 MLOAD PUSH2 0x23C SWAP2 SWAP1 PUSH2 0x2250 JUMP JUMPDEST PUSH1 0x40 MLOAD DUP1 SWAP2 SUB SWAP1 RETURN JUMPDEST PUSH2 0x25F PUSH1 0x4 DUP1 CALLDATASIZE SUB DUP2 ADD SWAP1 PUSH2 0x25A SWAP2 SWAP1 PUSH2 0x203A JUMP JUMPDEST PUSH2 0xAB8 JUMP JUMPDEST STOP JUMPDEST PUSH2 0x27B PUSH1 0x4 DUP1 CALLDATASIZE SUB DUP2 ADD SWAP1 PUSH2 0x276 SWAP2 SWAP1 PUSH2 0x2270 JUMP JUMPDEST PUSH2 0xAD7 JUMP JUMPDEST PUSH1 0x40 MLOAD PUSH2 0x288 SWAP2 SWAP1 PUSH2 0x2356 JUMP JUMPDEST PUSH1 0x40 MLOAD DUP1 SWAP2 SUB SWAP1 RETURN JUMPDEST PUSH2 0x2AB PUSH1 0x4 DUP1 CALLDATASIZE SUB DUP2 ADD SWAP1 PUSH2 0x2A6 SWAP2 SWAP1 PUSH2 0x1DDC JUMP JUMPDEST PUSH2 0xB32 JUMP JUMPDEST PUSH1 0x40 MLOAD PUSH2 0x2B8 SWAP2 SWAP1 PUSH2 0x1E46 JUMP JUMPDEST PUSH1 0x40 MLOAD DUP1 SWAP2 SUB SWAP1 RETURN JUMPDEST PUSH2 0x2DB PUSH1 0x4 DUP1 CALLDATASIZE SUB DUP2 ADD SWAP1 PUSH2 0x2D6 SWAP2 SWAP1 PUSH2 0x2376 JUMP JUMPDEST PUSH2 0xB43 JUMP JUMPDEST PUSH1 0x40 MLOAD PUSH2 0x2E8 SWAP2 SWAP1 PUSH2 0x23B0 JUMP JUMPDEST PUSH1 0x40 MLOAD DUP1 SWAP2 SUB SWAP1 RETURN JUMPDEST PUSH2 0x2F9 PUSH2 0xBF9 JUMP JUMPDEST PUSH1 0x40 MLOAD PUSH2 0x306 SWAP2 SWAP1 PUSH2 0x2484 JUMP JUMPDEST PUSH1 0x40 MLOAD DUP1 SWAP2 SUB SWAP1 RETURN JUMPDEST PUSH2 0x317 PUSH2 0xD2B JUMP JUMPDEST PUSH1 0x40 MLOAD PUSH2 0x324 SWAP2 SWAP1 PUSH2 0x2356 JUMP JUMPDEST PUSH1 0x40 MLOAD DUP1 SWAP2 SUB SWAP1 RETURN JUMPDEST PUSH2 0x335 PUSH2 0xDDE JUMP JUMPDEST PUSH1 0x40 MLOAD PUSH2 0x342 SWAP2 SWAP1 PUSH2 0x1D89 JUMP JUMPDEST PUSH1 0x40 MLOAD DUP1 SWAP2 SUB SWAP1 RETURN JUMPDEST PUSH2 0x353 PUSH2 0xE6E JUMP JUMPDEST PUSH1 0x40 MLOAD PUSH2 0x361 SWAP3 SWAP2 SWAP1 PUSH2 0x24A4 JUMP JUMPDEST PUSH1 0x40 MLOAD DUP1 SWAP2 SUB SWAP1 RETURN JUMPDEST PUSH2 0x384 PUSH1 0x4 DUP1 CALLDATASIZE SUB DUP2 ADD SWAP1 PUSH2 0x37F SWAP2 SWAP1 PUSH2 0x24D9 JUMP JUMPDEST PUSH2 0xFE2 JUMP JUMPDEST STOP JUMPDEST PUSH2 0x3A0 PUSH1 0x4 DUP1 CALLDATASIZE SUB DUP2 ADD SWAP1 PUSH2 0x39B SWAP2 SWAP1 PUSH2 0x25B5 JUMP JUMPDEST PUSH2 0xFF8 JUMP JUMPDEST STOP JUMPDEST PUSH2 0x3AA PUSH2 0x1015 JUMP JUMPDEST PUSH1 0x40 MLOAD PUSH2 0x3B7 SWAP2 SWAP1 PUSH2 0x23B0 JUMP JUMPDEST PUSH1 0x40 MLOAD DUP1 SWAP2 SUB SWAP1 RETURN JUMPDEST PUSH2 0x3DA PUSH1 0x4 DUP1 CALLDATASIZE SUB DUP2 ADD SWAP1 PUSH2 0x3D5 SWAP2 SWAP1 PUSH2 0x1DDC JUMP JUMPDEST PUSH2 0x101E JUMP JUMPDEST PUSH1 0x40 MLOAD PUSH2 0x3E7 SWAP2 SWAP1 PUSH2 0x1D89 JUMP JUMPDEST PUSH1 0x40 MLOAD DUP1 SWAP2 SUB SWAP1 RETURN JUMPDEST PUSH2 0x40A PUSH1 0x4 DUP1 CALLDATASIZE SUB DUP2 ADD SWAP1 PUSH2 0x405 SWAP2 SWAP1 PUSH2 0x2635 JUMP JUMPDEST PUSH2 0x10BF JUMP JUMPDEST PUSH1 0x40 MLOAD PUSH2 0x417 SWAP2 SWAP1 PUSH2 0x1CE6 JUMP JUMPDEST PUSH1 0x40 MLOAD DUP1 SWAP2 SUB SWAP1 RETURN JUMPDEST PUSH0 PUSH32 0x80AC58CD00000000000000000000000000000000000000000000000000000000 PUSH28 0xFFFFFFFFFFFFFFFFFFFFFFFFFFFFFFFFFFFFFFFFFFFFFFFFFFFFFFFF NOT AND DUP3 PUSH28 0xFFFFFFFFFFFFFFFFFFFFFFFFFFFFFFFFFFFFFFFFFFFFFFFFFFFFFFFF NOT AND EQ DUP1 PUSH2 0x4EA JUMPI POP PUSH32 0x5B5E139F00000000000000000000000000000000000000000000000000000000 PUSH28 0xFFFFFFFFFFFFFFFFFFFFFFFFFFFFFFFFFFFFFFFFFFFFFFFFFFFFFFFF NOT AND DUP3 PUSH28 0xFFFFFFFFFFFFFFFFFFFFFFFFFFFFFFFFFFFFFFFFFFFFFFFFFFFFFFFF NOT AND EQ JUMPDEST DUP1 PUSH2 0x4FA JUMPI POP PUSH2 0x4F9 DUP3 PUSH2 0x114D JUMP JUMPDEST JUMPDEST SWAP1 POP SWAP2 SWAP1 POP JUMP JUMPDEST PUSH1 0x60 PUSH0 DUP1 SLOAD PUSH2 0x50F SWAP1 PUSH2 0x26A0 JUMP JUMPDEST DUP1 PUSH1 0x1F ADD PUSH1 0x20 DUP1 SWAP2 DIV MUL PUSH1 0x20 ADD PUSH1 0x40 MLOAD SWAP1 DUP2 ADD PUSH1 0x40 MSTORE DUP1 SWAP3 SWAP2 SWAP1 DUP2 DUP2 MSTORE PUSH1 0x20 ADD DUP3 DUP1 SLOAD PUSH2 0x53B SWAP1 PUSH2 0x26A0 JUMP JUMPDEST DUP1 ISZERO PUSH2 0x586 JUMPI DUP1 PUSH1 0x1F LT PUSH2 0x55D JUMPI PUSH2 0x100 DUP1 DUP4 SLOAD DIV MUL DUP4 MSTORE SWAP2 PUSH1 0x20 ADD SWAP2 PUSH2 0x586 JUMP JUMPDEST DUP3 ADD SWAP2 SWAP1 PUSH0 MSTORE PUSH1 0x20 PUSH0 KECCAK256 SWAP1 JUMPDEST DUP2 SLOAD DUP2 MSTORE SWAP1 PUSH1 0x1 ADD SWAP1 PUSH1 0x20 ADD DUP1 DUP4 GT PUSH2 0x569 JUMPI DUP3 SWAP1 SUB PUSH1 0x1F AND DUP3 ADD SWAP2 JUMPDEST POP POP POP POP POP SWAP1 POP SWAP1 JUMP JUMPDEST PUSH0 PUSH2 0x59A DUP3 PUSH2 0x11B6 JUMP JUMPDEST POP PUSH2 0x5A4 DUP3 PUSH2 0x123C JUMP JUMPDEST SWAP1 POP SWAP2 SWAP1 POP JUMP JUMPDEST PUSH2 0x5BD DUP3 DUP3 PUSH2 0x5B8 PUSH2 0x1275 JUMP JUMPDEST PUSH2 0x127C JUMP JUMPDEST POP POP JUMP JUMPDEST DUP1 PUSH1 0x6 PUSH0 PUSH1 0x7 SLOAD DUP2 MSTORE PUSH1 0x20 ADD SWAP1 DUP2 MSTORE PUSH1 0x20 ADD PUSH0 KECCAK256 SWAP1 DUP2 PUSH2 0x5E1 SWAP2 SWAP1 PUSH2 0x286D JUMP JUMPDEST POP PUSH2 0x5EE CALLER PUSH1 0x7 SLOAD PUSH2 0x128E JUMP JUMPDEST PUSH1 0x1 PUSH1 0x7 PUSH0 DUP3 DUP3 SLOAD PUSH2 0x600 SWAP2 SWAP1 PUSH2 0x2969 JUMP JUMPDEST SWAP3 POP POP DUP2 SWAP1 SSTORE POP POP JUMP JUMPDEST PUSH0 PUSH20 0xFFFFFFFFFFFFFFFFFFFFFFFFFFFFFFFFFFFFFFFF AND DUP3 PUSH20 0xFFFFFFFFFFFFFFFFFFFFFFFFFFFFFFFFFFFFFFFF AND SUB PUSH2 0x67A JUMPI PUSH0 PUSH1 0x40 MLOAD PUSH32 0x64A0AE9200000000000000000000000000000000000000000000000000000000 DUP2 MSTORE PUSH1 0x4 ADD PUSH2 0x671 SWAP2 SWAP1 PUSH2 0x1E46 JUMP JUMPDEST PUSH1 0x40 MLOAD DUP1 SWAP2 SUB SWAP1 REVERT JUMPDEST PUSH0 PUSH2 0x68D DUP4 DUP4 PUSH2 0x688 PUSH2 0x1275 JUMP JUMPDEST PUSH2 0x1381 JUMP JUMPDEST SWAP1 POP DUP4 PUSH20 0xFFFFFFFFFFFFFFFFFFFFFFFFFFFFFFFFFFFFFFFF AND DUP2 PUSH20 0xFFFFFFFFFFFFFFFFFFFFFFFFFFFFFFFFFFFFFFFF AND EQ PUSH2 0x703 JUMPI DUP4 DUP3 DUP3 PUSH1 0x40 MLOAD PUSH32 0x64283D7B00000000000000000000000000000000000000000000000000000000 DUP2 MSTORE PUSH1 0x4 ADD PUSH2 0x6FA SWAP4 SWAP3 SWAP2 SWAP1 PUSH2 0x299C JUMP JUMPDEST PUSH1 0x40 MLOAD DUP1 SWAP2 SUB SWAP1 REVERT JUMPDEST POP POP POP POP JUMP JUMPDEST PUSH2 0x714 DUP4 DUP4 DUP4 PUSH2 0x158C JUMP JUMPDEST POP POP POP JUMP JUMPDEST PUSH1 0x60 PUSH0 PUSH1 0x7 SLOAD PUSH8 0xFFFFFFFFFFFFFFFF DUP2 GT ISZERO PUSH2 0x738 JUMPI PUSH2 0x737 PUSH2 0x1ECF JUMP JUMPDEST JUMPDEST PUSH1 0x40 MLOAD SWAP1 DUP1 DUP3 MSTORE DUP1 PUSH1 0x20 MUL PUSH1 0x20 ADD DUP3 ADD PUSH1 0x40 MSTORE DUP1 ISZERO PUSH2 0x766 JUMPI DUP2 PUSH1 0x20 ADD PUSH1 0x20 DUP3 MUL DUP1 CALLDATASIZE DUP4 CALLDATACOPY DUP1 DUP3 ADD SWAP2 POP POP SWAP1 POP JUMPDEST POP SWAP1 POP PUSH0 DUP1 JUMPDEST PUSH1 0x7 SLOAD DUP2 LT ISZERO PUSH2 0x822 JUMPI CALLER PUSH20 0xFFFFFFFFFFFFFFFFFFFFFFFFFFFFFFFFFFFFFFFF AND PUSH2 0x796 DUP3 PUSH2 0x16F5 JUMP JUMPDEST PUSH20 0xFFFFFFFFFFFFFFFFFFFFFFFFFFFFFFFFFFFFFFFF AND SUB PUSH2 0x80F JUMPI PUSH0 DUP2 SUB PUSH2 0x7DF JUMPI PUSH2 0x3E7 DUP4 DUP3 DUP2 MLOAD DUP2 LT PUSH2 0x7CE JUMPI PUSH2 0x7CD PUSH2 0x29D1 JUMP JUMPDEST JUMPDEST PUSH1 0x20 MUL PUSH1 0x20 ADD ADD DUP2 DUP2 MSTORE POP POP PUSH2 0x800 JUMP JUMPDEST DUP1 DUP4 DUP3 DUP2 MLOAD DUP2 LT PUSH2 0x7F3 JUMPI PUSH2 0x7F2 PUSH2 0x29D1 JUMP JUMPDEST JUMPDEST PUSH1 0x20 MUL PUSH1 0x20 ADD ADD DUP2 DUP2 MSTORE POP POP JUMPDEST DUP2 DUP1 PUSH2 0x80B SWAP1 PUSH2 0x29FE JUMP JUMPDEST SWAP3 POP POP JUMPDEST DUP1 DUP1 PUSH2 0x81A SWAP1 PUSH2 0x29FE JUMP JUMPDEST SWAP2 POP POP PUSH2 0x76C JUMP JUMPDEST POP PUSH0 PUSH1 0x7 SLOAD PUSH8 0xFFFFFFFFFFFFFFFF DUP2 GT ISZERO PUSH2 0x840 JUMPI PUSH2 0x83F PUSH2 0x1ECF JUMP JUMPDEST JUMPDEST PUSH1 0x40 MLOAD SWAP1 DUP1 DUP3 MSTORE DUP1 PUSH1 0x20 MUL PUSH1 0x20 ADD DUP3 ADD PUSH1 0x40 MSTORE DUP1 ISZERO PUSH2 0x879 JUMPI DUP2 PUSH1 0x20 ADD JUMPDEST PUSH2 0x866 PUSH2 0x1C22 JUMP JUMPDEST DUP2 MSTORE PUSH1 0x20 ADD SWAP1 PUSH1 0x1 SWAP1 SUB SWAP1 DUP2 PUSH2 0x85E JUMPI SWAP1 POP JUMPDEST POP SWAP1 POP PUSH0 JUMPDEST PUSH1 0x7 SLOAD DUP2 LT ISZERO PUSH2 0xAAE JUMPI PUSH0 DUP5 DUP3 DUP2 MLOAD DUP2 LT PUSH2 0x89C JUMPI PUSH2 0x89B PUSH2 0x29D1 JUMP JUMPDEST JUMPDEST PUSH1 0x20 MUL PUSH1 0x20 ADD ADD MLOAD EQ PUSH2 0xA9B JUMPI PUSH2 0x3E7 DUP5 DUP3 DUP2 MLOAD DUP2 LT PUSH2 0x8BF JUMPI PUSH2 0x8BE PUSH2 0x29D1 JUMP JUMPDEST JUMPDEST PUSH1 0x20 MUL PUSH1 0x20 ADD ADD MLOAD SUB PUSH2 0x99B JUMPI PUSH1 0x40 MLOAD DUP1 PUSH1 0x40 ADD PUSH1 0x40 MSTORE DUP1 PUSH1 0x6 PUSH0 DUP1 DUP2 MSTORE PUSH1 0x20 ADD SWAP1 DUP2 MSTORE PUSH1 0x20 ADD PUSH0 KECCAK256 DUP1 SLOAD PUSH2 0x8F3 SWAP1 PUSH2 0x26A0 JUMP JUMPDEST DUP1 PUSH1 0x1F ADD PUSH1 0x20 DUP1 SWAP2 DIV MUL PUSH1 0x20 ADD PUSH1 0x40 MLOAD SWAP1 DUP2 ADD PUSH1 0x40 MSTORE DUP1 SWAP3 SWAP2 SWAP1 DUP2 DUP2 MSTORE PUSH1 0x20 ADD DUP3 DUP1 SLOAD PUSH2 0x91F SWAP1 PUSH2 0x26A0 JUMP JUMPDEST DUP1 ISZERO PUSH2 0x96A JUMPI DUP1 PUSH1 0x1F LT PUSH2 0x941 JUMPI PUSH2 0x100 DUP1 DUP4 SLOAD DIV MUL DUP4 MSTORE SWAP2 PUSH1 0x20 ADD SWAP2 PUSH2 0x96A JUMP JUMPDEST DUP3 ADD SWAP2 SWAP1 PUSH0 MSTORE PUSH1 0x20 PUSH0 KECCAK256 SWAP1 JUMPDEST DUP2 SLOAD DUP2 MSTORE SWAP1 PUSH1 0x1 ADD SWAP1 PUSH1 0x20 ADD DUP1 DUP4 GT PUSH2 0x94D JUMPI DUP3 SWAP1 SUB PUSH1 0x1F AND DUP3 ADD SWAP2 JUMPDEST POP POP POP POP POP DUP2 MSTORE PUSH1 0x20 ADD PUSH0 DUP2 MSTORE POP DUP3 DUP3 DUP2 MLOAD DUP2 LT PUSH2 0x98B JUMPI PUSH2 0x98A PUSH2 0x29D1 JUMP JUMPDEST JUMPDEST PUSH1 0x20 MUL PUSH1 0x20 ADD ADD DUP2 SWAP1 MSTORE POP PUSH2 0xA9A JUMP JUMPDEST PUSH1 0x40 MLOAD DUP1 PUSH1 0x40 ADD PUSH1 0x40 MSTORE DUP1 PUSH1 0x6 PUSH0 DUP8 DUP6 DUP2 MLOAD DUP2 LT PUSH2 0x9BC JUMPI PUSH2 0x9BB PUSH2 0x29D1 JUMP JUMPDEST JUMPDEST PUSH1 0x20 MUL PUSH1 0x20 ADD ADD MLOAD DUP2 MSTORE PUSH1 0x20 ADD SWAP1 DUP2 MSTORE PUSH1 0x20 ADD PUSH0 KECCAK256 DUP1 SLOAD PUSH2 0x9DC SWAP1 PUSH2 0x26A0 JUMP JUMPDEST DUP1 PUSH1 0x1F ADD PUSH1 0x20 DUP1 SWAP2 DIV MUL PUSH1 0x20 ADD PUSH1 0x40 MLOAD SWAP1 DUP2 ADD PUSH1 0x40 MSTORE DUP1 SWAP3 SWAP2 SWAP1 DUP2 DUP2 MSTORE PUSH1 0x20 ADD DUP3 DUP1 SLOAD PUSH2 0xA08 SWAP1 PUSH2 0x26A0 JUMP JUMPDEST DUP1 ISZERO PUSH2 0xA53 JUMPI DUP1 PUSH1 0x1F LT PUSH2 0xA2A JUMPI PUSH2 0x100 DUP1 DUP4 SLOAD DIV MUL DUP4 MSTORE SWAP2 PUSH1 0x20 ADD SWAP2 PUSH2 0xA53 JUMP JUMPDEST DUP3 ADD SWAP2 SWAP1 PUSH0 MSTORE PUSH1 0x20 PUSH0 KECCAK256 SWAP1 JUMPDEST DUP2 SLOAD DUP2 MSTORE SWAP1 PUSH1 0x1 ADD SWAP1 PUSH1 0x20 ADD DUP1 DUP4 GT PUSH2 0xA36 JUMPI DUP3 SWAP1 SUB PUSH1 0x1F AND DUP3 ADD SWAP2 JUMPDEST POP POP POP POP POP DUP2 MSTORE PUSH1 0x20 ADD DUP6 DUP4 DUP2 MLOAD DUP2 LT PUSH2 0xA70 JUMPI PUSH2 0xA6F PUSH2 0x29D1 JUMP JUMPDEST JUMPDEST PUSH1 0x20 MUL PUSH1 0x20 ADD ADD MLOAD DUP2 MSTORE POP DUP3 DUP3 DUP2 MLOAD DUP2 LT PUSH2 0xA8E JUMPI PUSH2 0xA8D PUSH2 0x29D1 JUMP JUMPDEST JUMPDEST PUSH1 0x20 MUL PUSH1 0x20 ADD ADD DUP2 SWAP1 MSTORE POP JUMPDEST JUMPDEST DUP1 DUP1 PUSH2 0xAA6 SWAP1 PUSH2 0x29FE JUMP JUMPDEST SWAP2 POP POP PUSH2 0x87E JUMP JUMPDEST POP DUP1 SWAP4 POP POP POP POP SWAP1 JUMP JUMPDEST PUSH2 0xAD2 DUP4 DUP4 DUP4 PUSH1 0x40 MLOAD DUP1 PUSH1 0x20 ADD PUSH1 0x40 MSTORE DUP1 PUSH0 DUP2 MSTORE POP PUSH2 0xFF8 JUMP JUMPDEST POP POP POP JUMP JUMPDEST PUSH1 0x60 DUP2 PUSH1 0x8 PUSH0 DUP6 DUP2 MSTORE PUSH1 0x20 ADD SWAP1 DUP2 MSTORE PUSH1 0x20 ADD PUSH0 KECCAK256 DUP2 SWAP1 SSTORE POP PUSH1 0x9 DUP4 SWAP1 DUP1 PUSH1 0x1 DUP2 SLOAD ADD DUP1 DUP3 SSTORE DUP1 SWAP2 POP POP PUSH1 0x1 SWAP1 SUB SWAP1 PUSH0 MSTORE PUSH1 0x20 PUSH0 KECCAK256 ADD PUSH0 SWAP1 SWAP2 SWAP1 SWAP2 SWAP1 SWAP2 POP SSTORE PUSH1 0xA PUSH0 DUP2 SLOAD DUP1 SWAP3 SWAP2 SWAP1 PUSH2 0xB27 SWAP1 PUSH2 0x29FE JUMP JUMPDEST SWAP2 SWAP1 POP SSTORE POP SWAP3 SWAP2 POP POP JUMP JUMPDEST PUSH0 PUSH2 0xB3C DUP3 PUSH2 0x11B6 JUMP JUMPDEST SWAP1 POP SWAP2 SWAP1 POP JUMP JUMPDEST PUSH0 DUP1 PUSH20 0xFFFFFFFFFFFFFFFFFFFFFFFFFFFFFFFFFFFFFFFF AND DUP3 PUSH20 0xFFFFFFFFFFFFFFFFFFFFFFFFFFFFFFFFFFFFFFFF AND SUB PUSH2 0xBB4 JUMPI PUSH0 PUSH1 0x40 MLOAD PUSH32 0x89C62B6400000000000000000000000000000000000000000000000000000000 DUP2 MSTORE PUSH1 0x4 ADD PUSH2 0xBAB SWAP2 SWAP1 PUSH2 0x1E46 JUMP JUMPDEST PUSH1 0x40 MLOAD DUP1 SWAP2 SUB SWAP1 REVERT JUMPDEST PUSH1 0x3 PUSH0 DUP4 PUSH20 0xFFFFFFFFFFFFFFFFFFFFFFFFFFFFFFFFFFFFFFFF AND PUSH20 0xFFFFFFFFFFFFFFFFFFFFFFFFFFFFFFFFFFFFFFFF AND DUP2 MSTORE PUSH1 0x20 ADD SWAP1 DUP2 MSTORE PUSH1 0x20 ADD PUSH0 KECCAK256 SLOAD SWAP1 POP SWAP2 SWAP1 POP JUMP JUMPDEST PUSH1 0x60 PUSH0 PUSH1 0x7 SLOAD PUSH8 0xFFFFFFFFFFFFFFFF DUP2 GT ISZERO PUSH2 0xC18 JUMPI PUSH2 0xC17 PUSH2 0x1ECF JUMP JUMPDEST JUMPDEST PUSH1 0x40 MLOAD SWAP1 DUP1 DUP3 MSTORE DUP1 PUSH1 0x20 MUL PUSH1 0x20 ADD DUP3 ADD PUSH1 0x40 MSTORE DUP1 ISZERO PUSH2 0xC4B JUMPI DUP2 PUSH1 0x20 ADD JUMPDEST PUSH1 0x60 DUP2 MSTORE PUSH1 0x20 ADD SWAP1 PUSH1 0x1 SWAP1 SUB SWAP1 DUP2 PUSH2 0xC36 JUMPI SWAP1 POP JUMPDEST POP SWAP1 POP PUSH0 JUMPDEST PUSH1 0x7 SLOAD DUP2 LT ISZERO PUSH2 0xD23 JUMPI PUSH1 0x6 PUSH0 DUP3 DUP2 MSTORE PUSH1 0x20 ADD SWAP1 DUP2 MSTORE PUSH1 0x20 ADD PUSH0 KECCAK256 DUP1 SLOAD PUSH2 0xC76 SWAP1 PUSH2 0x26A0 JUMP JUMPDEST DUP1 PUSH1 0x1F ADD PUSH1 0x20 DUP1 SWAP2 DIV MUL PUSH1 0x20 ADD PUSH1 0x40 MLOAD SWAP1 DUP2 ADD PUSH1 0x40 MSTORE DUP1 SWAP3 SWAP2 SWAP1 DUP2 DUP2 MSTORE PUSH1 0x20 ADD DUP3 DUP1 SLOAD PUSH2 0xCA2 SWAP1 PUSH2 0x26A0 JUMP JUMPDEST DUP1 ISZERO PUSH2 0xCED JUMPI DUP1 PUSH1 0x1F LT PUSH2 0xCC4 JUMPI PUSH2 0x100 DUP1 DUP4 SLOAD DIV MUL DUP4 MSTORE SWAP2 PUSH1 0x20 ADD SWAP2 PUSH2 0xCED JUMP JUMPDEST DUP3 ADD SWAP2 SWAP1 PUSH0 MSTORE PUSH1 0x20 PUSH0 KECCAK256 SWAP1 JUMPDEST DUP2 SLOAD DUP2 MSTORE SWAP1 PUSH1 0x1 ADD SWAP1 PUSH1 0x20 ADD DUP1 DUP4 GT PUSH2 0xCD0 JUMPI DUP3 SWAP1 SUB PUSH1 0x1F AND DUP3 ADD SWAP2 JUMPDEST POP POP POP POP POP DUP3 DUP3 DUP2 MLOAD DUP2 LT PUSH2 0xD05 JUMPI PUSH2 0xD04 PUSH2 0x29D1 JUMP JUMPDEST JUMPDEST PUSH1 0x20 MUL PUSH1 0x20 ADD ADD DUP2 SWAP1 MSTORE POP DUP1 DUP1 PUSH2 0xD1B SWAP1 PUSH2 0x29FE JUMP JUMPDEST SWAP2 POP POP PUSH2 0xC50 JUMP JUMPDEST POP DUP1 SWAP2 POP POP SWAP1 JUMP JUMPDEST PUSH1 0x60 PUSH0 PUSH1 0xA SLOAD PUSH8 0xFFFFFFFFFFFFFFFF DUP2 GT ISZERO PUSH2 0xD4A JUMPI PUSH2 0xD49 PUSH2 0x1ECF JUMP JUMPDEST JUMPDEST PUSH1 0x40 MLOAD SWAP1 DUP1 DUP3 MSTORE DUP1 PUSH1 0x20 MUL PUSH1 0x20 ADD DUP3 ADD PUSH1 0x40 MSTORE DUP1 ISZERO PUSH2 0xD78 JUMPI DUP2 PUSH1 0x20 ADD PUSH1 0x20 DUP3 MUL DUP1 CALLDATASIZE DUP4 CALLDATACOPY DUP1 DUP3 ADD SWAP2 POP POP SWAP1 POP JUMPDEST POP SWAP1 POP PUSH0 JUMPDEST PUSH1 0xA SLOAD DUP2 LT ISZERO PUSH2 0xDD6 JUMPI PUSH1 0x9 DUP2 DUP2 SLOAD DUP2 LT PUSH2 0xD9B JUMPI PUSH2 0xD9A PUSH2 0x29D1 JUMP JUMPDEST JUMPDEST SWAP1 PUSH0 MSTORE PUSH1 0x20 PUSH0 KECCAK256 ADD SLOAD DUP3 DUP3 DUP2 MLOAD DUP2 LT PUSH2 0xDB7 JUMPI PUSH2 0xDB6 PUSH2 0x29D1 JUMP JUMPDEST JUMPDEST PUSH1 0x20 MUL PUSH1 0x20 ADD ADD DUP2 DUP2 MSTORE POP POP DUP1 DUP1 PUSH2 0xDCE SWAP1 PUSH2 0x29FE JUMP JUMPDEST SWAP2 POP POP PUSH2 0xD7D JUMP JUMPDEST POP DUP1 SWAP2 POP POP SWAP1 JUMP JUMPDEST PUSH1 0x60 PUSH1 0x1 DUP1 SLOAD PUSH2 0xDED SWAP1 PUSH2 0x26A0 JUMP JUMPDEST DUP1 PUSH1 0x1F ADD PUSH1 0x20 DUP1 SWAP2 DIV MUL PUSH1 0x20 ADD PUSH1 0x40 MLOAD SWAP1 DUP2 ADD PUSH1 0x40 MSTORE DUP1 SWAP3 SWAP2 SWAP1 DUP2 DUP2 MSTORE PUSH1 0x20 ADD DUP3 DUP1 SLOAD PUSH2 0xE19 SWAP1 PUSH2 0x26A0 JUMP JUMPDEST DUP1 ISZERO PUSH2 0xE64 JUMPI DUP1 PUSH1 0x1F LT PUSH2 0xE3B JUMPI PUSH2 0x100 DUP1 DUP4 SLOAD DIV MUL DUP4 MSTORE SWAP2 PUSH1 0x20 ADD SWAP2 PUSH2 0xE64 JUMP JUMPDEST DUP3 ADD SWAP2 SWAP1 PUSH0 MSTORE PUSH1 0x20 PUSH0 KECCAK256 SWAP1 JUMPDEST DUP2 SLOAD DUP2 MSTORE SWAP1 PUSH1 0x1 ADD SWAP1 PUSH1 0x20 ADD DUP1 DUP4 GT PUSH2 0xE47 JUMPI DUP3 SWAP1 SUB PUSH1 0x1F AND DUP3 ADD SWAP2 JUMPDEST POP POP POP POP POP SWAP1 POP SWAP1 JUMP JUMPDEST PUSH1 0x60 DUP1 PUSH0 PUSH1 0xA SLOAD PUSH8 0xFFFFFFFFFFFFFFFF DUP2 GT ISZERO PUSH2 0xE8E JUMPI PUSH2 0xE8D PUSH2 0x1ECF JUMP JUMPDEST JUMPDEST PUSH1 0x40 MLOAD SWAP1 DUP1 DUP3 MSTORE DUP1 PUSH1 0x20 MUL PUSH1 0x20 ADD DUP3 ADD PUSH1 0x40 MSTORE DUP1 ISZERO PUSH2 0xEBC JUMPI DUP2 PUSH1 0x20 ADD PUSH1 0x20 DUP3 MUL DUP1 CALLDATASIZE DUP4 CALLDATACOPY DUP1 DUP3 ADD SWAP2 POP POP SWAP1 POP JUMPDEST POP SWAP1 POP PUSH0 JUMPDEST PUSH1 0xA SLOAD DUP2 LT ISZERO PUSH2 0xF1A JUMPI PUSH1 0x9 DUP2 DUP2 SLOAD DUP2 LT PUSH2 0xEDF JUMPI PUSH2 0xEDE PUSH2 0x29D1 JUMP JUMPDEST JUMPDEST SWAP1 PUSH0 MSTORE PUSH1 0x20 PUSH0 KECCAK256 ADD SLOAD DUP3 DUP3 DUP2 MLOAD DUP2 LT PUSH2 0xEFB JUMPI PUSH2 0xEFA PUSH2 0x29D1 JUMP JUMPDEST JUMPDEST PUSH1 0x20 MUL PUSH1 0x20 ADD ADD DUP2 DUP2 MSTORE POP POP DUP1 DUP1 PUSH2 0xF12 SWAP1 PUSH2 0x29FE JUMP JUMPDEST SWAP2 POP POP PUSH2 0xEC1 JUMP JUMPDEST POP PUSH0 PUSH1 0xA SLOAD PUSH8 0xFFFFFFFFFFFFFFFF DUP2 GT ISZERO PUSH2 0xF38 JUMPI PUSH2 0xF37 PUSH2 0x1ECF JUMP JUMPDEST JUMPDEST PUSH1 0x40 MLOAD SWAP1 DUP1 DUP3 MSTORE DUP1 PUSH1 0x20 MUL PUSH1 0x20 ADD DUP3 ADD PUSH1 0x40 MSTORE DUP1 ISZERO PUSH2 0xF66 JUMPI DUP2 PUSH1 0x20 ADD PUSH1 0x20 DUP3 MUL DUP1 CALLDATASIZE DUP4 CALLDATACOPY DUP1 DUP3 ADD SWAP2 POP POP SWAP1 POP JUMPDEST POP SWAP1 POP PUSH0 JUMPDEST PUSH1 0xA SLOAD DUP2 LT ISZERO PUSH2 0xFD5 JUMPI PUSH1 0x8 PUSH0 PUSH1 0x9 DUP4 DUP2 SLOAD DUP2 LT PUSH2 0xF8C JUMPI PUSH2 0xF8B PUSH2 0x29D1 JUMP JUMPDEST JUMPDEST SWAP1 PUSH0 MSTORE PUSH1 0x20 PUSH0 KECCAK256 ADD SLOAD DUP2 MSTORE PUSH1 0x20 ADD SWAP1 DUP2 MSTORE PUSH1 0x20 ADD PUSH0 KECCAK256 SLOAD DUP3 DUP3 DUP2 MLOAD DUP2 LT PUSH2 0xFB6 JUMPI PUSH2 0xFB5 PUSH2 0x29D1 JUMP JUMPDEST JUMPDEST PUSH1 0x20 MUL PUSH1 0x20 ADD ADD DUP2 DUP2 MSTORE POP POP DUP1 DUP1 PUSH2 0xFCD SWAP1 PUSH2 0x29FE JUMP JUMPDEST SWAP2 POP POP PUSH2 0xF6B JUMP JUMPDEST POP DUP1 DUP3 SWAP4 POP SWAP4 POP POP POP SWAP1 SWAP2 JUMP JUMPDEST PUSH2 0xFF4 PUSH2 0xFED PUSH2 0x1275 JUMP JUMPDEST DUP4 DUP4 PUSH2 0x158C JUMP JUMPDEST POP POP JUMP JUMPDEST PUSH2 0x1003 DUP5 DUP5 DUP5 PUSH2 0x60A JUMP JUMPDEST PUSH2 0x100F DUP5 DUP5 DUP5 DUP5 PUSH2 0x172E JUMP JUMPDEST POP POP POP POP JUMP JUMPDEST PUSH0 PUSH1 0x7 SLOAD SWAP1 POP SWAP1 JUMP JUMPDEST PUSH1 0x60 PUSH1 0x6 PUSH0 DUP4 DUP2 MSTORE PUSH1 0x20 ADD SWAP1 DUP2 MSTORE PUSH1 0x20 ADD PUSH0 KECCAK256 DUP1 SLOAD PUSH2 0x103C SWAP1 PUSH2 0x26A0 JUMP JUMPDEST DUP1 PUSH1 0x1F ADD PUSH1 0x20 DUP1 SWAP2 DIV MUL PUSH1 0x20 ADD PUSH1 0x40 MLOAD SWAP1 DUP2 ADD PUSH1 0x40 MSTORE DUP1 SWAP3 SWAP2 SWAP1 DUP2 DUP2 MSTORE PUSH1 0x20 ADD DUP3 DUP1 SLOAD PUSH2 0x1068 SWAP1 PUSH2 0x26A0 JUMP JUMPDEST DUP1 ISZERO PUSH2 0x10B3 JUMPI DUP1 PUSH1 0x1F LT PUSH2 0x108A JUMPI PUSH2 0x100 DUP1 DUP4 SLOAD DIV MUL DUP4 MSTORE SWAP2 PUSH1 0x20 ADD SWAP2 PUSH2 0x10B3 JUMP JUMPDEST DUP3 ADD SWAP2 SWAP1 PUSH0 MSTORE PUSH1 0x20 PUSH0 KECCAK256 SWAP1 JUMPDEST DUP2 SLOAD DUP2 MSTORE SWAP1 PUSH1 0x1 ADD SWAP1 PUSH1 0x20 ADD DUP1 DUP4 GT PUSH2 0x1096 JUMPI DUP3 SWAP1 SUB PUSH1 0x1F AND DUP3 ADD SWAP2 JUMPDEST POP POP POP POP POP SWAP1 POP SWAP2 SWAP1 POP JUMP JUMPDEST PUSH0 PUSH1 0x5 PUSH0 DUP5 PUSH20 0xFFFFFFFFFFFFFFFFFFFFFFFFFFFFFFFFFFFFFFFF AND PUSH20 0xFFFFFFFFFFFFFFFFFFFFFFFFFFFFFFFFFFFFFFFF AND DUP2 MSTORE PUSH1 0x20 ADD SWAP1 DUP2 MSTORE PUSH1 0x20 ADD PUSH0 KECCAK256 PUSH0 DUP4 PUSH20 0xFFFFFFFFFFFFFFFFFFFFFFFFFFFFFFFFFFFFFFFF AND PUSH20 0xFFFFFFFFFFFFFFFFFFFFFFFFFFFFFFFFFFFFFFFF AND DUP2 MSTORE PUSH1 0x20 ADD SWAP1 DUP2 MSTORE PUSH1 0x20 ADD PUSH0 KECCAK256 PUSH0 SWAP1 SLOAD SWAP1 PUSH2 0x100 EXP SWAP1 DIV PUSH1 0xFF AND SWAP1 POP SWAP3 SWAP2 POP POP JUMP JUMPDEST PUSH0 PUSH32 0x1FFC9A700000000000000000000000000000000000000000000000000000000 PUSH28 0xFFFFFFFFFFFFFFFFFFFFFFFFFFFFFFFFFFFFFFFFFFFFFFFFFFFFFFFF NOT AND DUP3 PUSH28 0xFFFFFFFFFFFFFFFFFFFFFFFFFFFFFFFFFFFFFFFFFFFFFFFFFFFFFFFF NOT AND EQ SWAP1 POP SWAP2 SWAP1 POP JUMP JUMPDEST PUSH0 DUP1 PUSH2 0x11C1 DUP4 PUSH2 0x16F5 JUMP JUMPDEST SWAP1 POP PUSH0 PUSH20 0xFFFFFFFFFFFFFFFFFFFFFFFFFFFFFFFFFFFFFFFF AND DUP2 PUSH20 0xFFFFFFFFFFFFFFFFFFFFFFFFFFFFFFFFFFFFFFFF AND SUB PUSH2 0x1233 JUMPI DUP3 PUSH1 0x40 MLOAD PUSH32 0x7E27328900000000000000000000000000000000000000000000000000000000 DUP2 MSTORE PUSH1 0x4 ADD PUSH2 0x122A SWAP2 SWAP1 PUSH2 0x23B0 JUMP JUMPDEST PUSH1 0x40 MLOAD DUP1 SWAP2 SUB SWAP1 REVERT JUMPDEST DUP1 SWAP2 POP POP SWAP2 SWAP1 POP JUMP JUMPDEST PUSH0 PUSH1 0x4 PUSH0 DUP4 DUP2 MSTORE PUSH1 0x20 ADD SWAP1 DUP2 MSTORE PUSH1 0x20 ADD PUSH0 KECCAK256 PUSH0 SWAP1 SLOAD SWAP1 PUSH2 0x100 EXP SWAP1 DIV PUSH20 0xFFFFFFFFFFFFFFFFFFFFFFFFFFFFFFFFFFFFFFFF AND SWAP1 POP SWAP2 SWAP1 POP JUMP JUMPDEST PUSH0 CALLER SWAP1 POP SWAP1 JUMP JUMPDEST PUSH2 0x1289 DUP4 DUP4 DUP4 PUSH1 0x1 PUSH2 0x18E0 JUMP JUMPDEST POP POP POP JUMP JUMPDEST PUSH0 PUSH20 0xFFFFFFFFFFFFFFFFFFFFFFFFFFFFFFFFFFFFFFFF AND DUP3 PUSH20 0xFFFFFFFFFFFFFFFFFFFFFFFFFFFFFFFFFFFFFFFF AND SUB PUSH2 0x12FE JUMPI PUSH0 PUSH1 0x40 MLOAD PUSH32 0x64A0AE9200000000000000000000000000000000000000000000000000000000 DUP2 MSTORE PUSH1 0x4 ADD PUSH2 0x12F5 SWAP2 SWAP1 PUSH2 0x1E46 JUMP JUMPDEST PUSH1 0x40 MLOAD DUP1 SWAP2 SUB SWAP1 REVERT JUMPDEST PUSH0 PUSH2 0x130A DUP4 DUP4 PUSH0 PUSH2 0x1381 JUMP JUMPDEST SWAP1 POP PUSH0 PUSH20 0xFFFFFFFFFFFFFFFFFFFFFFFFFFFFFFFFFFFFFFFF AND DUP2 PUSH20 0xFFFFFFFFFFFFFFFFFFFFFFFFFFFFFFFFFFFFFFFF AND EQ PUSH2 0x137C JUMPI PUSH0 PUSH1 0x40 MLOAD PUSH32 0x73C6AC6E00000000000000000000000000000000000000000000000000000000 DUP2 MSTORE PUSH1 0x4 ADD PUSH2 0x1373 SWAP2 SWAP1 PUSH2 0x1E46 JUMP JUMPDEST PUSH1 0x40 MLOAD DUP1 SWAP2 SUB SWAP1 REVERT JUMPDEST POP POP POP JUMP JUMPDEST PUSH0 DUP1 PUSH2 0x138C DUP5 PUSH2 0x16F5 JUMP JUMPDEST SWAP1 POP PUSH0 PUSH20 0xFFFFFFFFFFFFFFFFFFFFFFFFFFFFFFFFFFFFFFFF AND DUP4 PUSH20 0xFFFFFFFFFFFFFFFFFFFFFFFFFFFFFFFFFFFFFFFF AND EQ PUSH2 0x13CD JUMPI PUSH2 0x13CC DUP2 DUP5 DUP7 PUSH2 0x1A9F JUMP JUMPDEST JUMPDEST PUSH0 PUSH20 0xFFFFFFFFFFFFFFFFFFFFFFFFFFFFFFFFFFFFFFFF AND DUP2 PUSH20 0xFFFFFFFFFFFFFFFFFFFFFFFFFFFFFFFFFFFFFFFF AND EQ PUSH2 0x1458 JUMPI PUSH2 0x140C PUSH0 DUP6 PUSH0 DUP1 PUSH2 0x18E0 JUMP JUMPDEST PUSH1 0x1 PUSH1 0x3 PUSH0 DUP4 PUSH20 0xFFFFFFFFFFFFFFFFFFFFFFFFFFFFFFFFFFFFFFFF AND PUSH20 0xFFFFFFFFFFFFFFFFFFFFFFFFFFFFFFFFFFFFFFFF AND DUP2 MSTORE PUSH1 0x20 ADD SWAP1 DUP2 MSTORE PUSH1 0x20 ADD PUSH0 KECCAK256 PUSH0 DUP3 DUP3 SLOAD SUB SWAP3 POP POP DUP2 SWAP1 SSTORE POP JUMPDEST PUSH0 PUSH20 0xFFFFFFFFFFFFFFFFFFFFFFFFFFFFFFFFFFFFFFFF AND DUP6 PUSH20 0xFFFFFFFFFFFFFFFFFFFFFFFFFFFFFFFFFFFFFFFF AND EQ PUSH2 0x14D7 JUMPI PUSH1 0x1 PUSH1 0x3 PUSH0 DUP8 PUSH20 0xFFFFFFFFFFFFFFFFFFFFFFFFFFFFFFFFFFFFFFFF AND PUSH20 0xFFFFFFFFFFFFFFFFFFFFFFFFFFFFFFFFFFFFFFFF AND DUP2 MSTORE PUSH1 0x20 ADD SWAP1 DUP2 MSTORE PUSH1 0x20 ADD PUSH0 KECCAK256 PUSH0 DUP3 DUP3 SLOAD ADD SWAP3 POP POP DUP2 SWAP1 SSTORE POP JUMPDEST DUP5 PUSH1 0x2 PUSH0 DUP7 DUP2 MSTORE PUSH1 0x20 ADD SWAP1 DUP2 MSTORE PUSH1 0x20 ADD PUSH0 KECCAK256 PUSH0 PUSH2 0x100 EXP DUP2 SLOAD DUP2 PUSH20 0xFFFFFFFFFFFFFFFFFFFFFFFFFFFFFFFFFFFFFFFF MUL NOT AND SWAP1 DUP4 PUSH20 0xFFFFFFFFFFFFFFFFFFFFFFFFFFFFFFFFFFFFFFFF AND MUL OR SWAP1 SSTORE POP DUP4 DUP6 PUSH20 0xFFFFFFFFFFFFFFFFFFFFFFFFFFFFFFFFFFFFFFFF AND DUP3 PUSH20 0xFFFFFFFFFFFFFFFFFFFFFFFFFFFFFFFFFFFFFFFF AND PUSH32 0xDDF252AD1BE2C89B69C2B068FC378DAA952BA7F163C4A11628F55A4DF523B3EF PUSH1 0x40 MLOAD PUSH1 0x40 MLOAD DUP1 SWAP2 SUB SWAP1 LOG4 DUP1 SWAP2 POP POP SWAP4 SWAP3 POP POP POP JUMP JUMPDEST PUSH0 PUSH20 0xFFFFFFFFFFFFFFFFFFFFFFFFFFFFFFFFFFFFFFFF AND DUP3 PUSH20 0xFFFFFFFFFFFFFFFFFFFFFFFFFFFFFFFFFFFFFFFF AND SUB PUSH2 0x15FC JUMPI DUP2 PUSH1 0x40 MLOAD PUSH32 0x5B08BA1800000000000000000000000000000000000000000000000000000000 DUP2 MSTORE PUSH1 0x4 ADD PUSH2 0x15F3 SWAP2 SWAP1 PUSH2 0x1E46 JUMP JUMPDEST PUSH1 0x40 MLOAD DUP1 SWAP2 SUB SWAP1 REVERT JUMPDEST DUP1 PUSH1 0x5 PUSH0 DUP6 PUSH20 0xFFFFFFFFFFFFFFFFFFFFFFFFFFFFFFFFFFFFFFFF AND PUSH20 0xFFFFFFFFFFFFFFFFFFFFFFFFFFFFFFFFFFFFFFFF AND DUP2 MSTORE PUSH1 0x20 ADD SWAP1 DUP2 MSTORE PUSH1 0x20 ADD PUSH0 KECCAK256 PUSH0 DUP5 PUSH20 0xFFFFFFFFFFFFFFFFFFFFFFFFFFFFFFFFFFFFFFFF AND PUSH20 0xFFFFFFFFFFFFFFFFFFFFFFFFFFFFFFFFFFFFFFFF AND DUP2 MSTORE PUSH1 0x20 ADD SWAP1 DUP2 MSTORE PUSH1 0x20 ADD PUSH0 KECCAK256 PUSH0 PUSH2 0x100 EXP DUP2 SLOAD DUP2 PUSH1 0xFF MUL NOT AND SWAP1 DUP4 ISZERO ISZERO MUL OR SWAP1 SSTORE POP DUP2 PUSH20 0xFFFFFFFFFFFFFFFFFFFFFFFFFFFFFFFFFFFFFFFF AND DUP4 PUSH20 0xFFFFFFFFFFFFFFFFFFFFFFFFFFFFFFFFFFFFFFFF AND PUSH32 0x17307EAB39AB6107E8899845AD3D59BD9653F200F220920489CA2B5937696C31 DUP4 PUSH1 0x40 MLOAD PUSH2 0x16E8 SWAP2 SWAP1 PUSH2 0x1CE6 JUMP JUMPDEST PUSH1 0x40 MLOAD DUP1 SWAP2 SUB SWAP1 LOG3 POP POP POP JUMP JUMPDEST PUSH0 PUSH1 0x2 PUSH0 DUP4 DUP2 MSTORE PUSH1 0x20 ADD SWAP1 DUP2 MSTORE PUSH1 0x20 ADD PUSH0 KECCAK256 PUSH0 SWAP1 SLOAD SWAP1 PUSH2 0x100 EXP SWAP1 DIV PUSH20 0xFFFFFFFFFFFFFFFFFFFFFFFFFFFFFFFFFFFFFFFF AND SWAP1 POP SWAP2 SWAP1 POP JUMP JUMPDEST PUSH0 DUP4 PUSH20 0xFFFFFFFFFFFFFFFFFFFFFFFFFFFFFFFFFFFFFFFF AND EXTCODESIZE GT ISZERO PUSH2 0x18DA JUMPI DUP3 PUSH20 0xFFFFFFFFFFFFFFFFFFFFFFFFFFFFFFFFFFFFFFFF AND PUSH4 0x150B7A02 PUSH2 0x1771 PUSH2 0x1275 JUMP JUMPDEST DUP7 DUP6 DUP6 PUSH1 0x40 MLOAD DUP6 PUSH4 0xFFFFFFFF AND PUSH1 0xE0 SHL DUP2 MSTORE PUSH1 0x4 ADD PUSH2 0x1793 SWAP5 SWAP4 SWAP3 SWAP2 SWAP1 PUSH2 0x2A97 JUMP JUMPDEST PUSH1 0x20 PUSH1 0x40 MLOAD DUP1 DUP4 SUB DUP2 PUSH0 DUP8 GAS CALL SWAP3 POP POP POP DUP1 ISZERO PUSH2 0x17CE JUMPI POP PUSH1 0x40 MLOAD RETURNDATASIZE PUSH1 0x1F NOT PUSH1 0x1F DUP3 ADD AND DUP3 ADD DUP1 PUSH1 0x40 MSTORE POP DUP2 ADD SWAP1 PUSH2 0x17CB SWAP2 SWAP1 PUSH2 0x2AF5 JUMP JUMPDEST PUSH1 0x1 JUMPDEST PUSH2 0x184F JUMPI RETURNDATASIZE DUP1 PUSH0 DUP2 EQ PUSH2 0x17FC JUMPI PUSH1 0x40 MLOAD SWAP2 POP PUSH1 0x1F NOT PUSH1 0x3F RETURNDATASIZE ADD AND DUP3 ADD PUSH1 0x40 MSTORE RETURNDATASIZE DUP3 MSTORE RETURNDATASIZE PUSH0 PUSH1 0x20 DUP5 ADD RETURNDATACOPY PUSH2 0x1801 JUMP JUMPDEST PUSH1 0x60 SWAP2 POP JUMPDEST POP PUSH0 DUP2 MLOAD SUB PUSH2 0x1847 JUMPI DUP4 PUSH1 0x40 MLOAD PUSH32 0x64A0AE9200000000000000000000000000000000000000000000000000000000 DUP2 MSTORE PUSH1 0x4 ADD PUSH2 0x183E SWAP2 SWAP1 PUSH2 0x1E46 JUMP JUMPDEST PUSH1 0x40 MLOAD DUP1 SWAP2 SUB SWAP1 REVERT JUMPDEST DUP1 MLOAD DUP2 PUSH1 0x20 ADD REVERT JUMPDEST PUSH4 0x150B7A02 PUSH1 0xE0 SHL PUSH28 0xFFFFFFFFFFFFFFFFFFFFFFFFFFFFFFFFFFFFFFFFFFFFFFFFFFFFFFFF NOT AND DUP2 PUSH28 0xFFFFFFFFFFFFFFFFFFFFFFFFFFFFFFFFFFFFFFFFFFFFFFFFFFFFFFFF NOT AND EQ PUSH2 0x18D8 JUMPI DUP4 PUSH1 0x40 MLOAD PUSH32 0x64A0AE9200000000000000000000000000000000000000000000000000000000 DUP2 MSTORE PUSH1 0x4 ADD PUSH2 0x18CF SWAP2 SWAP1 PUSH2 0x1E46 JUMP JUMPDEST PUSH1 0x40 MLOAD DUP1 SWAP2 SUB SWAP1 REVERT JUMPDEST POP JUMPDEST POP POP POP POP JUMP JUMPDEST DUP1 DUP1 PUSH2 0x1918 JUMPI POP PUSH0 PUSH20 0xFFFFFFFFFFFFFFFFFFFFFFFFFFFFFFFFFFFFFFFF AND DUP3 PUSH20 0xFFFFFFFFFFFFFFFFFFFFFFFFFFFFFFFFFFFFFFFF AND EQ ISZERO JUMPDEST ISZERO PUSH2 0x1A4A JUMPI PUSH0 PUSH2 0x1927 DUP5 PUSH2 0x11B6 JUMP JUMPDEST SWAP1 POP PUSH0 PUSH20 0xFFFFFFFFFFFFFFFFFFFFFFFFFFFFFFFFFFFFFFFF AND DUP4 PUSH20 0xFFFFFFFFFFFFFFFFFFFFFFFFFFFFFFFFFFFFFFFF AND EQ ISZERO DUP1 ISZERO PUSH2 0x1991 JUMPI POP DUP3 PUSH20 0xFFFFFFFFFFFFFFFFFFFFFFFFFFFFFFFFFFFFFFFF AND DUP2 PUSH20 0xFFFFFFFFFFFFFFFFFFFFFFFFFFFFFFFFFFFFFFFF AND EQ ISZERO JUMPDEST DUP1 ISZERO PUSH2 0x19A4 JUMPI POP PUSH2 0x19A2 DUP2 DUP5 PUSH2 0x10BF JUMP JUMPDEST ISZERO JUMPDEST ISZERO PUSH2 0x19E6 JUMPI DUP3 PUSH1 0x40 MLOAD PUSH32 0xA9FBF51F00000000000000000000000000000000000000000000000000000000 DUP2 MSTORE PUSH1 0x4 ADD PUSH2 0x19DD SWAP2 SWAP1 PUSH2 0x1E46 JUMP JUMPDEST PUSH1 0x40 MLOAD DUP1 SWAP2 SUB SWAP1 REVERT JUMPDEST DUP2 ISZERO PUSH2 0x1A48 JUMPI DUP4 DUP6 PUSH20 0xFFFFFFFFFFFFFFFFFFFFFFFFFFFFFFFFFFFFFFFF AND DUP3 PUSH20 0xFFFFFFFFFFFFFFFFFFFFFFFFFFFFFFFFFFFFFFFF AND PUSH32 0x8C5BE1E5EBEC7D5BD14F71427D1E84F3DD0314C0F7B2291E5B200AC8C7C3B925 PUSH1 0x40 MLOAD PUSH1 0x40 MLOAD DUP1 SWAP2 SUB SWAP1 LOG4 JUMPDEST POP JUMPDEST DUP4 PUSH1 0x4 PUSH0 DUP6 DUP2 MSTORE PUSH1 0x20 ADD SWAP1 DUP2 MSTORE PUSH1 0x20 ADD PUSH0 KECCAK256 PUSH0 PUSH2 0x100 EXP DUP2 SLOAD DUP2 PUSH20 0xFFFFFFFFFFFFFFFFFFFFFFFFFFFFFFFFFFFFFFFF MUL NOT AND SWAP1 DUP4 PUSH20 0xFFFFFFFFFFFFFFFFFFFFFFFFFFFFFFFFFFFFFFFF AND MUL OR SWAP1 SSTORE POP POP POP POP POP JUMP JUMPDEST PUSH2 0x1AAA DUP4 DUP4 DUP4 PUSH2 0x1B62 JUMP JUMPDEST PUSH2 0x1B5D JUMPI PUSH0 PUSH20 0xFFFFFFFFFFFFFFFFFFFFFFFFFFFFFFFFFFFFFFFF AND DUP4 PUSH20 0xFFFFFFFFFFFFFFFFFFFFFFFFFFFFFFFFFFFFFFFF AND SUB PUSH2 0x1B1E JUMPI DUP1 PUSH1 0x40 MLOAD PUSH32 0x7E27328900000000000000000000000000000000000000000000000000000000 DUP2 MSTORE PUSH1 0x4 ADD PUSH2 0x1B15 SWAP2 SWAP1 PUSH2 0x23B0 JUMP JUMPDEST PUSH1 0x40 MLOAD DUP1 SWAP2 SUB SWAP1 REVERT JUMPDEST DUP2 DUP2 PUSH1 0x40 MLOAD PUSH32 0x177E802F00000000000000000000000000000000000000000000000000000000 DUP2 MSTORE PUSH1 0x4 ADD PUSH2 0x1B54 SWAP3 SWAP2 SWAP1 PUSH2 0x2B20 JUMP JUMPDEST PUSH1 0x40 MLOAD DUP1 SWAP2 SUB SWAP1 REVERT JUMPDEST POP POP POP JUMP JUMPDEST PUSH0 DUP1 PUSH20 0xFFFFFFFFFFFFFFFFFFFFFFFFFFFFFFFFFFFFFFFF AND DUP4 PUSH20 0xFFFFFFFFFFFFFFFFFFFFFFFFFFFFFFFFFFFFFFFF AND EQ ISZERO DUP1 ISZERO PUSH2 0x1C19 JUMPI POP DUP3 PUSH20 0xFFFFFFFFFFFFFFFFFFFFFFFFFFFFFFFFFFFFFFFF AND DUP5 PUSH20 0xFFFFFFFFFFFFFFFFFFFFFFFFFFFFFFFFFFFFFFFF AND EQ DUP1 PUSH2 0x1BDA JUMPI POP PUSH2 0x1BD9 DUP5 DUP5 PUSH2 0x10BF JUMP JUMPDEST JUMPDEST DUP1 PUSH2 0x1C18 JUMPI POP DUP3 PUSH20 0xFFFFFFFFFFFFFFFFFFFFFFFFFFFFFFFFFFFFFFFF AND PUSH2 0x1C00 DUP4 PUSH2 0x123C JUMP JUMPDEST PUSH20 0xFFFFFFFFFFFFFFFFFFFFFFFFFFFFFFFFFFFFFFFF AND EQ JUMPDEST JUMPDEST SWAP1 POP SWAP4 SWAP3 POP POP POP JUMP JUMPDEST PUSH1 0x40 MLOAD DUP1 PUSH1 0x40 ADD PUSH1 0x40 MSTORE DUP1 PUSH1 0x60 DUP2 MSTORE PUSH1 0x20 ADD PUSH0 DUP2 MSTORE POP SWAP1 JUMP JUMPDEST PUSH0 PUSH1 0x40 MLOAD SWAP1 POP SWAP1 JUMP JUMPDEST PUSH0 DUP1 REVERT JUMPDEST PUSH0 DUP1 REVERT JUMPDEST PUSH0 PUSH32 0xFFFFFFFF00000000000000000000000000000000000000000000000000000000 DUP3 AND SWAP1 POP SWAP2 SWAP1 POP JUMP JUMPDEST PUSH2 0x1C80 DUP2 PUSH2 0x1C4C JUMP JUMPDEST DUP2 EQ PUSH2 0x1C8A JUMPI PUSH0 DUP1 REVERT JUMPDEST POP JUMP JUMPDEST PUSH0 DUP2 CALLDATALOAD SWAP1 POP PUSH2 0x1C9B DUP2 PUSH2 0x1C77 JUMP JUMPDEST SWAP3 SWAP2 POP POP JUMP JUMPDEST PUSH0 PUSH1 0x20 DUP3 DUP5 SUB SLT ISZERO PUSH2 0x1CB6 JUMPI PUSH2 0x1CB5 PUSH2 0x1C44 JUMP JUMPDEST JUMPDEST PUSH0 PUSH2 0x1CC3 DUP5 DUP3 DUP6 ADD PUSH2 0x1C8D JUMP JUMPDEST SWAP2 POP POP SWAP3 SWAP2 POP POP JUMP JUMPDEST PUSH0 DUP2 ISZERO ISZERO SWAP1 POP SWAP2 SWAP1 POP JUMP JUMPDEST PUSH2 0x1CE0 DUP2 PUSH2 0x1CCC JUMP JUMPDEST DUP3 MSTORE POP POP JUMP JUMPDEST PUSH0 PUSH1 0x20 DUP3 ADD SWAP1 POP PUSH2 0x1CF9 PUSH0 DUP4 ADD DUP5 PUSH2 0x1CD7 JUMP JUMPDEST SWAP3 SWAP2 POP POP JUMP JUMPDEST PUSH0 DUP2 MLOAD SWAP1 POP SWAP2 SWAP1 POP JUMP JUMPDEST PUSH0 DUP3 DUP3 MSTORE PUSH1 0x20 DUP3 ADD SWAP1 POP SWAP3 SWAP2 POP POP JUMP JUMPDEST PUSH0 JUMPDEST DUP4 DUP2 LT ISZERO PUSH2 0x1D36 JUMPI DUP1 DUP3 ADD MLOAD DUP2 DUP5 ADD MSTORE PUSH1 0x20 DUP2 ADD SWAP1 POP PUSH2 0x1D1B JUMP JUMPDEST PUSH0 DUP5 DUP5 ADD MSTORE POP POP POP POP JUMP JUMPDEST PUSH0 PUSH1 0x1F NOT PUSH1 0x1F DUP4 ADD AND SWAP1 POP SWAP2 SWAP1 POP JUMP JUMPDEST PUSH0 PUSH2 0x1D5B DUP3 PUSH2 0x1CFF JUMP JUMPDEST PUSH2 0x1D65 DUP2 DUP6 PUSH2 0x1D09 JUMP JUMPDEST SWAP4 POP PUSH2 0x1D75 DUP2 DUP6 PUSH1 0x20 DUP7 ADD PUSH2 0x1D19 JUMP JUMPDEST PUSH2 0x1D7E DUP2 PUSH2 0x1D41 JUMP JUMPDEST DUP5 ADD SWAP2 POP POP SWAP3 SWAP2 POP POP JUMP JUMPDEST PUSH0 PUSH1 0x20 DUP3 ADD SWAP1 POP DUP2 DUP2 SUB PUSH0 DUP4 ADD MSTORE PUSH2 0x1DA1 DUP2 DUP5 PUSH2 0x1D51 JUMP JUMPDEST SWAP1 POP SWAP3 SWAP2 POP POP JUMP JUMPDEST PUSH0 DUP2 SWAP1 POP SWAP2 SWAP1 POP JUMP JUMPDEST PUSH2 0x1DBB DUP2 PUSH2 0x1DA9 JUMP JUMPDEST DUP2 EQ PUSH2 0x1DC5 JUMPI PUSH0 DUP1 REVERT JUMPDEST POP JUMP JUMPDEST PUSH0 DUP2 CALLDATALOAD SWAP1 POP PUSH2 0x1DD6 DUP2 PUSH2 0x1DB2 JUMP JUMPDEST SWAP3 SWAP2 POP POP JUMP JUMPDEST PUSH0 PUSH1 0x20 DUP3 DUP5 SUB SLT ISZERO PUSH2 0x1DF1 JUMPI PUSH2 0x1DF0 PUSH2 0x1C44 JUMP JUMPDEST JUMPDEST PUSH0 PUSH2 0x1DFE DUP5 DUP3 DUP6 ADD PUSH2 0x1DC8 JUMP JUMPDEST SWAP2 POP POP SWAP3 SWAP2 POP POP JUMP JUMPDEST PUSH0 PUSH20 0xFFFFFFFFFFFFFFFFFFFFFFFFFFFFFFFFFFFFFFFF DUP3 AND SWAP1 POP SWAP2 SWAP1 POP JUMP JUMPDEST PUSH0 PUSH2 0x1E30 DUP3 PUSH2 0x1E07 JUMP JUMPDEST SWAP1 POP SWAP2 SWAP1 POP JUMP JUMPDEST PUSH2 0x1E40 DUP2 PUSH2 0x1E26 JUMP JUMPDEST DUP3 MSTORE POP POP JUMP JUMPDEST PUSH0 PUSH1 0x20 DUP3 ADD SWAP1 POP PUSH2 0x1E59 PUSH0 DUP4 ADD DUP5 PUSH2 0x1E37 JUMP JUMPDEST SWAP3 SWAP2 POP POP JUMP JUMPDEST PUSH2 0x1E68 DUP2 PUSH2 0x1E26 JUMP JUMPDEST DUP2 EQ PUSH2 0x1E72 JUMPI PUSH0 DUP1 REVERT JUMPDEST POP JUMP JUMPDEST PUSH0 DUP2 CALLDATALOAD SWAP1 POP PUSH2 0x1E83 DUP2 PUSH2 0x1E5F JUMP JUMPDEST SWAP3 SWAP2 POP POP JUMP JUMPDEST PUSH0 DUP1 PUSH1 0x40 DUP4 DUP6 SUB SLT ISZERO PUSH2 0x1E9F JUMPI PUSH2 0x1E9E PUSH2 0x1C44 JUMP JUMPDEST JUMPDEST PUSH0 PUSH2 0x1EAC DUP6 DUP3 DUP7 ADD PUSH2 0x1E75 JUMP JUMPDEST SWAP3 POP POP PUSH1 0x20 PUSH2 0x1EBD DUP6 DUP3 DUP7 ADD PUSH2 0x1DC8 JUMP JUMPDEST SWAP2 POP POP SWAP3 POP SWAP3 SWAP1 POP JUMP JUMPDEST PUSH0 DUP1 REVERT JUMPDEST PUSH0 DUP1 REVERT JUMPDEST PUSH32 0x4E487B7100000000000000000000000000000000000000000000000000000000 PUSH0 MSTORE PUSH1 0x41 PUSH1 0x4 MSTORE PUSH1 0x24 PUSH0 REVERT JUMPDEST PUSH2 0x1F05 DUP3 PUSH2 0x1D41 JUMP JUMPDEST DUP2 ADD DUP2 DUP2 LT PUSH8 0xFFFFFFFFFFFFFFFF DUP3 GT OR ISZERO PUSH2 0x1F24 JUMPI PUSH2 0x1F23 PUSH2 0x1ECF JUMP JUMPDEST JUMPDEST DUP1 PUSH1 0x40 MSTORE POP POP POP JUMP JUMPDEST PUSH0 PUSH2 0x1F36 PUSH2 0x1C3B JUMP JUMPDEST SWAP1 POP PUSH2 0x1F42 DUP3 DUP3 PUSH2 0x1EFC JUMP JUMPDEST SWAP2 SWAP1 POP JUMP JUMPDEST PUSH0 PUSH8 0xFFFFFFFFFFFFFFFF DUP3 GT ISZERO PUSH2 0x1F61 JUMPI PUSH2 0x1F60 PUSH2 0x1ECF JUMP JUMPDEST JUMPDEST PUSH2 0x1F6A DUP3 PUSH2 0x1D41 JUMP JUMPDEST SWAP1 POP PUSH1 0x20 DUP2 ADD SWAP1 POP SWAP2 SWAP1 POP JUMP JUMPDEST DUP3 DUP2 DUP4 CALLDATACOPY PUSH0 DUP4 DUP4 ADD MSTORE POP POP POP JUMP JUMPDEST PUSH0 PUSH2 0x1F97 PUSH2 0x1F92 DUP5 PUSH2 0x1F47 JUMP JUMPDEST PUSH2 0x1F2D JUMP JUMPDEST SWAP1 POP DUP3 DUP2 MSTORE PUSH1 0x20 DUP2 ADD DUP5 DUP5 DUP5 ADD GT ISZERO PUSH2 0x1FB3 JUMPI PUSH2 0x1FB2 PUSH2 0x1ECB JUMP JUMPDEST JUMPDEST PUSH2 0x1FBE DUP5 DUP3 DUP6 PUSH2 0x1F77 JUMP JUMPDEST POP SWAP4 SWAP3 POP POP POP JUMP JUMPDEST PUSH0 DUP3 PUSH1 0x1F DUP4 ADD SLT PUSH2 0x1FDA JUMPI PUSH2 0x1FD9 PUSH2 0x1EC7 JUMP JUMPDEST JUMPDEST DUP2 CALLDATALOAD PUSH2 0x1FEA DUP5 DUP3 PUSH1 0x20 DUP7 ADD PUSH2 0x1F85 JUMP JUMPDEST SWAP2 POP POP SWAP3 SWAP2 POP POP JUMP JUMPDEST PUSH0 PUSH1 0x20 DUP3 DUP5 SUB SLT ISZERO PUSH2 0x2008 JUMPI PUSH2 0x2007 PUSH2 0x1C44 JUMP JUMPDEST JUMPDEST PUSH0 DUP3 ADD CALLDATALOAD PUSH8 0xFFFFFFFFFFFFFFFF DUP2 GT ISZERO PUSH2 0x2025 JUMPI PUSH2 0x2024 PUSH2 0x1C48 JUMP JUMPDEST JUMPDEST PUSH2 0x2031 DUP5 DUP3 DUP6 ADD PUSH2 0x1FC6 JUMP JUMPDEST SWAP2 POP POP SWAP3 SWAP2 POP POP JUMP JUMPDEST PUSH0 DUP1 PUSH0 PUSH1 0x60 DUP5 DUP7 SUB SLT ISZERO PUSH2 0x2051 JUMPI PUSH2 0x2050 PUSH2 0x1C44 JUMP JUMPDEST JUMPDEST PUSH0 PUSH2 0x205E DUP7 DUP3 DUP8 ADD PUSH2 0x1E75 JUMP JUMPDEST SWAP4 POP POP PUSH1 0x20 PUSH2 0x206F DUP7 DUP3 DUP8 ADD PUSH2 0x1E75 JUMP JUMPDEST SWAP3 POP POP PUSH1 0x40 PUSH2 0x2080 DUP7 DUP3 DUP8 ADD PUSH2 0x1DC8 JUMP JUMPDEST SWAP2 POP POP SWAP3 POP SWAP3 POP SWAP3 JUMP JUMPDEST PUSH2 0x2093 DUP2 PUSH2 0x1CCC JUMP JUMPDEST DUP2 EQ PUSH2 0x209D JUMPI PUSH0 DUP1 REVERT JUMPDEST POP JUMP JUMPDEST PUSH0 DUP2 CALLDATALOAD SWAP1 POP PUSH2 0x20AE DUP2 PUSH2 0x208A JUMP JUMPDEST SWAP3 SWAP2 POP POP JUMP JUMPDEST PUSH0 DUP1 PUSH0 PUSH1 0x60 DUP5 DUP7 SUB SLT ISZERO PUSH2 0x20CB JUMPI PUSH2 0x20CA PUSH2 0x1C44 JUMP JUMPDEST JUMPDEST PUSH0 PUSH2 0x20D8 DUP7 DUP3 DUP8 ADD PUSH2 0x1E75 JUMP JUMPDEST SWAP4 POP POP PUSH1 0x20 PUSH2 0x20E9 DUP7 DUP3 DUP8 ADD PUSH2 0x1E75 JUMP JUMPDEST SWAP3 POP POP PUSH1 0x40 PUSH2 0x20FA DUP7 DUP3 DUP8 ADD PUSH2 0x20A0 JUMP JUMPDEST SWAP2 POP POP SWAP3 POP SWAP3 POP SWAP3 JUMP JUMPDEST PUSH0 DUP2 MLOAD SWAP1 POP SWAP2 SWAP1 POP JUMP JUMPDEST PUSH0 DUP3 DUP3 MSTORE PUSH1 0x20 DUP3 ADD SWAP1 POP SWAP3 SWAP2 POP POP JUMP JUMPDEST PUSH0 DUP2 SWAP1 POP PUSH1 0x20 DUP3 ADD SWAP1 POP SWAP2 SWAP1 POP JUMP JUMPDEST PUSH0 DUP3 DUP3 MSTORE PUSH1 0x20 DUP3 ADD SWAP1 POP SWAP3 SWAP2 POP POP JUMP JUMPDEST PUSH0 PUSH2 0x2147 DUP3 PUSH2 0x1CFF JUMP JUMPDEST PUSH2 0x2151 DUP2 DUP6 PUSH2 0x212D JUMP JUMPDEST SWAP4 POP PUSH2 0x2161 DUP2 DUP6 PUSH1 0x20 DUP7 ADD PUSH2 0x1D19 JUMP JUMPDEST PUSH2 0x216A DUP2 PUSH2 0x1D41 JUMP JUMPDEST DUP5 ADD SWAP2 POP POP SWAP3 SWAP2 POP POP JUMP JUMPDEST PUSH2 0x217E DUP2 PUSH2 0x1DA9 JUMP JUMPDEST DUP3 MSTORE POP POP JUMP JUMPDEST PUSH0 PUSH1 0x40 DUP4 ADD PUSH0 DUP4 ADD MLOAD DUP5 DUP3 SUB PUSH0 DUP7 ADD MSTORE PUSH2 0x219E DUP3 DUP3 PUSH2 0x213D JUMP JUMPDEST SWAP2 POP POP PUSH1 0x20 DUP4 ADD MLOAD PUSH2 0x21B3 PUSH1 0x20 DUP7 ADD DUP3 PUSH2 0x2175 JUMP JUMPDEST POP DUP1 SWAP2 POP POP SWAP3 SWAP2 POP POP JUMP JUMPDEST PUSH0 PUSH2 0x21C9 DUP4 DUP4 PUSH2 0x2184 JUMP JUMPDEST SWAP1 POP SWAP3 SWAP2 POP POP JUMP JUMPDEST PUSH0 PUSH1 0x20 DUP3 ADD SWAP1 POP SWAP2 SWAP1 POP JUMP JUMPDEST PUSH0 PUSH2 0x21E7 DUP3 PUSH2 0x2104 JUMP JUMPDEST PUSH2 0x21F1 DUP2 DUP6 PUSH2 0x210E JUMP JUMPDEST SWAP4 POP DUP4 PUSH1 0x20 DUP3 MUL DUP6 ADD PUSH2 0x2203 DUP6 PUSH2 0x211E JUMP JUMPDEST DUP1 PUSH0 JUMPDEST DUP6 DUP2 LT ISZERO PUSH2 0x223E JUMPI DUP5 DUP5 SUB DUP10 MSTORE DUP2 MLOAD PUSH2 0x221F DUP6 DUP3 PUSH2 0x21BE JUMP JUMPDEST SWAP5 POP PUSH2 0x222A DUP4 PUSH2 0x21D1 JUMP JUMPDEST SWAP3 POP PUSH1 0x20 DUP11 ADD SWAP10 POP POP PUSH1 0x1 DUP2 ADD SWAP1 POP PUSH2 0x2206 JUMP JUMPDEST POP DUP3 SWAP8 POP DUP8 SWAP6 POP POP POP POP POP POP SWAP3 SWAP2 POP POP JUMP JUMPDEST PUSH0 PUSH1 0x20 DUP3 ADD SWAP1 POP DUP2 DUP2 SUB PUSH0 DUP4 ADD MSTORE PUSH2 0x2268 DUP2 DUP5 PUSH2 0x21DD JUMP JUMPDEST SWAP1 POP SWAP3 SWAP2 POP POP JUMP JUMPDEST PUSH0 DUP1 PUSH1 0x40 DUP4 DUP6 SUB SLT ISZERO PUSH2 0x2286 JUMPI PUSH2 0x2285 PUSH2 0x1C44 JUMP JUMPDEST JUMPDEST PUSH0 PUSH2 0x2293 DUP6 DUP3 DUP7 ADD PUSH2 0x1DC8 JUMP JUMPDEST SWAP3 POP POP PUSH1 0x20 PUSH2 0x22A4 DUP6 DUP3 DUP7 ADD PUSH2 0x1DC8 JUMP JUMPDEST SWAP2 POP POP SWAP3 POP SWAP3 SWAP1 POP JUMP JUMPDEST PUSH0 DUP2 MLOAD SWAP1 POP SWAP2 SWAP1 POP JUMP JUMPDEST PUSH0 DUP3 DUP3 MSTORE PUSH1 0x20 DUP3 ADD SWAP1 POP SWAP3 SWAP2 POP POP JUMP JUMPDEST PUSH0 DUP2 SWAP1 POP PUSH1 0x20 DUP3 ADD SWAP1 POP SWAP2 SWAP1 POP JUMP JUMPDEST PUSH0 PUSH2 0x22E2 DUP4 DUP4 PUSH2 0x2175 JUMP JUMPDEST PUSH1 0x20 DUP4 ADD SWAP1 POP SWAP3 SWAP2 POP POP JUMP JUMPDEST PUSH0 PUSH1 0x20 DUP3 ADD SWAP1 POP SWAP2 SWAP1 POP JUMP JUMPDEST PUSH0 PUSH2 0x2304 DUP3 PUSH2 0x22AE JUMP JUMPDEST PUSH2 0x230E DUP2 DUP6 PUSH2 0x22B8 JUMP JUMPDEST SWAP4 POP PUSH2 0x2319 DUP4 PUSH2 0x22C8 JUMP JUMPDEST DUP1 PUSH0 JUMPDEST DUP4 DUP2 LT ISZERO PUSH2 0x2349 JUMPI DUP2 MLOAD PUSH2 0x2330 DUP9 DUP3 PUSH2 0x22D7 JUMP JUMPDEST SWAP8 POP PUSH2 0x233B DUP4 PUSH2 0x22EE JUMP JUMPDEST SWAP3 POP POP PUSH1 0x1 DUP2 ADD SWAP1 POP PUSH2 0x231C JUMP JUMPDEST POP DUP6 SWAP4 POP POP POP POP SWAP3 SWAP2 POP POP JUMP JUMPDEST PUSH0 PUSH1 0x20 DUP3 ADD SWAP1 POP DUP2 DUP2 SUB PUSH0 DUP4 ADD MSTORE PUSH2 0x236E DUP2 DUP5 PUSH2 0x22FA JUMP JUMPDEST SWAP1 POP SWAP3 SWAP2 POP POP JUMP JUMPDEST PUSH0 PUSH1 0x20 DUP3 DUP5 SUB SLT ISZERO PUSH2 0x238B JUMPI PUSH2 0x238A PUSH2 0x1C44 JUMP JUMPDEST JUMPDEST PUSH0 PUSH2 0x2398 DUP5 DUP3 DUP6 ADD PUSH2 0x1E75 JUMP JUMPDEST SWAP2 POP POP SWAP3 SWAP2 POP POP JUMP JUMPDEST PUSH2 0x23AA DUP2 PUSH2 0x1DA9 JUMP JUMPDEST DUP3 MSTORE POP POP JUMP JUMPDEST PUSH0 PUSH1 0x20 DUP3 ADD SWAP1 POP PUSH2 0x23C3 PUSH0 DUP4 ADD DUP5 PUSH2 0x23A1 JUMP JUMPDEST SWAP3 SWAP2 POP POP JUMP JUMPDEST PUSH0 DUP2 MLOAD SWAP1 POP SWAP2 SWAP1 POP JUMP JUMPDEST PUSH0 DUP3 DUP3 MSTORE PUSH1 0x20 DUP3 ADD SWAP1 POP SWAP3 SWAP2 POP POP JUMP JUMPDEST PUSH0 DUP2 SWAP1 POP PUSH1 0x20 DUP3 ADD SWAP1 POP SWAP2 SWAP1 POP JUMP JUMPDEST PUSH0 PUSH2 0x23FD DUP4 DUP4 PUSH2 0x213D JUMP JUMPDEST SWAP1 POP SWAP3 SWAP2 POP POP JUMP JUMPDEST PUSH0 PUSH1 0x20 DUP3 ADD SWAP1 POP SWAP2 SWAP1 POP JUMP JUMPDEST PUSH0 PUSH2 0x241B DUP3 PUSH2 0x23C9 JUMP JUMPDEST PUSH2 0x2425 DUP2 DUP6 PUSH2 0x23D3 JUMP JUMPDEST SWAP4 POP DUP4 PUSH1 0x20 DUP3 MUL DUP6 ADD PUSH2 0x2437 DUP6 PUSH2 0x23E3 JUMP JUMPDEST DUP1 PUSH0 JUMPDEST DUP6 DUP2 LT ISZERO PUSH2 0x2472 JUMPI DUP5 DUP5 SUB DUP10 MSTORE DUP2 MLOAD PUSH2 0x2453 DUP6 DUP3 PUSH2 0x23F2 JUMP JUMPDEST SWAP5 POP PUSH2 0x245E DUP4 PUSH2 0x2405 JUMP JUMPDEST SWAP3 POP PUSH1 0x20 DUP11 ADD SWAP10 POP POP PUSH1 0x1 DUP2 ADD SWAP1 POP PUSH2 0x243A JUMP JUMPDEST POP DUP3 SWAP8 POP DUP8 SWAP6 POP POP POP POP POP POP SWAP3 SWAP2 POP POP JUMP JUMPDEST PUSH0 PUSH1 0x20 DUP3 ADD SWAP1 POP DUP2 DUP2 SUB PUSH0 DUP4 ADD MSTORE PUSH2 0x249C DUP2 DUP5 PUSH2 0x2411 JUMP JUMPDEST SWAP1 POP SWAP3 SWAP2 POP POP JUMP JUMPDEST PUSH0 PUSH1 0x40 DUP3 ADD SWAP1 POP DUP2 DUP2 SUB PUSH0 DUP4 ADD MSTORE PUSH2 0x24BC DUP2 DUP6 PUSH2 0x22FA JUMP JUMPDEST SWAP1 POP DUP2 DUP2 SUB PUSH1 0x20 DUP4 ADD MSTORE PUSH2 0x24D0 DUP2 DUP5 PUSH2 0x22FA JUMP JUMPDEST SWAP1 POP SWAP4 SWAP3 POP POP POP JUMP JUMPDEST PUSH0 DUP1 PUSH1 0x40 DUP4 DUP6 SUB SLT ISZERO PUSH2 0x24EF JUMPI PUSH2 0x24EE PUSH2 0x1C44 JUMP JUMPDEST JUMPDEST PUSH0 PUSH2 0x24FC DUP6 DUP3 DUP7 ADD PUSH2 0x1E75 JUMP JUMPDEST SWAP3 POP POP PUSH1 0x20 PUSH2 0x250D DUP6 DUP3 DUP7 ADD PUSH2 0x20A0 JUMP JUMPDEST SWAP2 POP POP SWAP3 POP SWAP3 SWAP1 POP JUMP JUMPDEST PUSH0 PUSH8 0xFFFFFFFFFFFFFFFF DUP3 GT ISZERO PUSH2 0x2531 JUMPI PUSH2 0x2530 PUSH2 0x1ECF JUMP JUMPDEST JUMPDEST PUSH2 0x253A DUP3 PUSH2 0x1D41 JUMP JUMPDEST SWAP1 POP PUSH1 0x20 DUP2 ADD SWAP1 POP SWAP2 SWAP1 POP JUMP JUMPDEST PUSH0 PUSH2 0x2559 PUSH2 0x2554 DUP5 PUSH2 0x2517 JUMP JUMPDEST PUSH2 0x1F2D JUMP JUMPDEST SWAP1 POP DUP3 DUP2 MSTORE PUSH1 0x20 DUP2 ADD DUP5 DUP5 DUP5 ADD GT ISZERO PUSH2 0x2575 JUMPI PUSH2 0x2574 PUSH2 0x1ECB JUMP JUMPDEST JUMPDEST PUSH2 0x2580 DUP5 DUP3 DUP6 PUSH2 0x1F77 JUMP JUMPDEST POP SWAP4 SWAP3 POP POP POP JUMP JUMPDEST PUSH0 DUP3 PUSH1 0x1F DUP4 ADD SLT PUSH2 0x259C JUMPI PUSH2 0x259B PUSH2 0x1EC7 JUMP JUMPDEST JUMPDEST DUP2 CALLDATALOAD PUSH2 0x25AC DUP5 DUP3 PUSH1 0x20 DUP7 ADD PUSH2 0x2547 JUMP JUMPDEST SWAP2 POP POP SWAP3 SWAP2 POP POP JUMP JUMPDEST PUSH0 DUP1 PUSH0 DUP1 PUSH1 0x80 DUP6 DUP8 SUB SLT ISZERO PUSH2 0x25CD JUMPI PUSH2 0x25CC PUSH2 0x1C44 JUMP JUMPDEST JUMPDEST PUSH0 PUSH2 0x25DA DUP8 DUP3 DUP9 ADD PUSH2 0x1E75 JUMP JUMPDEST SWAP5 POP POP PUSH1 0x20 PUSH2 0x25EB DUP8 DUP3 DUP9 ADD PUSH2 0x1E75 JUMP JUMPDEST SWAP4 POP POP PUSH1 0x40 PUSH2 0x25FC DUP8 DUP3 DUP9 ADD PUSH2 0x1DC8 JUMP JUMPDEST SWAP3 POP POP PUSH1 0x60 DUP6 ADD CALLDATALOAD PUSH8 0xFFFFFFFFFFFFFFFF DUP2 GT ISZERO PUSH2 0x261D JUMPI PUSH2 0x261C PUSH2 0x1C48 JUMP JUMPDEST JUMPDEST PUSH2 0x2629 DUP8 DUP3 DUP9 ADD PUSH2 0x2588 JUMP JUMPDEST SWAP2 POP POP SWAP3 SWAP6 SWAP2 SWAP5 POP SWAP3 POP JUMP JUMPDEST PUSH0 DUP1 PUSH1 0x40 DUP4 DUP6 SUB SLT ISZERO PUSH2 0x264B JUMPI PUSH2 0x264A PUSH2 0x1C44 JUMP JUMPDEST JUMPDEST PUSH0 PUSH2 0x2658 DUP6 DUP3 DUP7 ADD PUSH2 0x1E75 JUMP JUMPDEST SWAP3 POP POP PUSH1 0x20 PUSH2 0x2669 DUP6 DUP3 DUP7 ADD PUSH2 0x1E75 JUMP JUMPDEST SWAP2 POP POP SWAP3 POP SWAP3 SWAP1 POP JUMP JUMPDEST PUSH32 0x4E487B7100000000000000000000000000000000000000000000000000000000 PUSH0 MSTORE PUSH1 0x22 PUSH1 0x4 MSTORE PUSH1 0x24 PUSH0 REVERT JUMPDEST PUSH0 PUSH1 0x2 DUP3 DIV SWAP1 POP PUSH1 0x1 DUP3 AND DUP1 PUSH2 0x26B7 JUMPI PUSH1 0x7F DUP3 AND SWAP2 POP JUMPDEST PUSH1 0x20 DUP3 LT DUP2 SUB PUSH2 0x26CA JUMPI PUSH2 0x26C9 PUSH2 0x2673 JUMP JUMPDEST JUMPDEST POP SWAP2 SWAP1 POP JUMP JUMPDEST PUSH0 DUP2 SWAP1 POP DUP2 PUSH0 MSTORE PUSH1 0x20 PUSH0 KECCAK256 SWAP1 POP SWAP2 SWAP1 POP JUMP JUMPDEST PUSH0 PUSH1 0x20 PUSH1 0x1F DUP4 ADD DIV SWAP1 POP SWAP2 SWAP1 POP JUMP JUMPDEST PUSH0 DUP3 DUP3 SHL SWAP1 POP SWAP3 SWAP2 POP POP JUMP JUMPDEST PUSH0 PUSH1 0x8 DUP4 MUL PUSH2 0x272C PUSH32 0xFFFFFFFFFFFFFFFFFFFFFFFFFFFFFFFFFFFFFFFFFFFFFFFFFFFFFFFFFFFFFFFF DUP3 PUSH2 0x26F1 JUMP JUMPDEST PUSH2 0x2736 DUP7 DUP4 PUSH2 0x26F1 JUMP JUMPDEST SWAP6 POP DUP1 NOT DUP5 AND SWAP4 POP DUP1 DUP7 AND DUP5 OR SWAP3 POP POP POP SWAP4 SWAP3 POP POP POP JUMP JUMPDEST PUSH0 DUP2 SWAP1 POP SWAP2 SWAP1 POP JUMP JUMPDEST PUSH0 PUSH2 0x2771 PUSH2 0x276C PUSH2 0x2767 DUP5 PUSH2 0x1DA9 JUMP JUMPDEST PUSH2 0x274E JUMP JUMPDEST PUSH2 0x1DA9 JUMP JUMPDEST SWAP1 POP SWAP2 SWAP1 POP JUMP JUMPDEST PUSH0 DUP2 SWAP1 POP SWAP2 SWAP1 POP JUMP JUMPDEST PUSH2 0x278A DUP4 PUSH2 0x2757 JUMP JUMPDEST PUSH2 0x279E PUSH2 0x2796 DUP3 PUSH2 0x2778 JUMP JUMPDEST DUP5 DUP5 SLOAD PUSH2 0x26FD JUMP JUMPDEST DUP3 SSTORE POP POP POP POP JUMP JUMPDEST PUSH0 SWAP1 JUMP JUMPDEST PUSH2 0x27B2 PUSH2 0x27A6 JUMP JUMPDEST PUSH2 0x27BD DUP2 DUP5 DUP5 PUSH2 0x2781 JUMP JUMPDEST POP POP POP JUMP JUMPDEST JUMPDEST DUP2 DUP2 LT ISZERO PUSH2 0x27E0 JUMPI PUSH2 0x27D5 PUSH0 DUP3 PUSH2 0x27AA JUMP JUMPDEST PUSH1 0x1 DUP2 ADD SWAP1 POP PUSH2 0x27C3 JUMP JUMPDEST POP POP JUMP JUMPDEST PUSH1 0x1F DUP3 GT ISZERO PUSH2 0x2825 JUMPI PUSH2 0x27F6 DUP2 PUSH2 0x26D0 JUMP JUMPDEST PUSH2 0x27FF DUP5 PUSH2 0x26E2 JUMP JUMPDEST DUP2 ADD PUSH1 0x20 DUP6 LT ISZERO PUSH2 0x280E JUMPI DUP2 SWAP1 POP JUMPDEST PUSH2 0x2822 PUSH2 0x281A DUP6 PUSH2 0x26E2 JUMP JUMPDEST DUP4 ADD DUP3 PUSH2 0x27C2 JUMP JUMPDEST POP POP JUMPDEST POP POP POP JUMP JUMPDEST PUSH0 DUP3 DUP3 SHR SWAP1 POP SWAP3 SWAP2 POP POP JUMP JUMPDEST PUSH0 PUSH2 0x2845 PUSH0 NOT DUP5 PUSH1 0x8 MUL PUSH2 0x282A JUMP JUMPDEST NOT DUP1 DUP4 AND SWAP2 POP POP SWAP3 SWAP2 POP POP JUMP JUMPDEST PUSH0 PUSH2 0x285D DUP4 DUP4 PUSH2 0x2836 JUMP JUMPDEST SWAP2 POP DUP3 PUSH1 0x2 MUL DUP3 OR SWAP1 POP SWAP3 SWAP2 POP POP JUMP JUMPDEST PUSH2 0x2876 DUP3 PUSH2 0x1CFF JUMP JUMPDEST PUSH8 0xFFFFFFFFFFFFFFFF DUP2 GT ISZERO PUSH2 0x288F JUMPI PUSH2 0x288E PUSH2 0x1ECF JUMP JUMPDEST JUMPDEST PUSH2 0x2899 DUP3 SLOAD PUSH2 0x26A0 JUMP JUMPDEST PUSH2 0x28A4 DUP3 DUP3 DUP6 PUSH2 0x27E4 JUMP JUMPDEST PUSH0 PUSH1 0x20 SWAP1 POP PUSH1 0x1F DUP4 GT PUSH1 0x1 DUP2 EQ PUSH2 0x28D5 JUMPI PUSH0 DUP5 ISZERO PUSH2 0x28C3 JUMPI DUP3 DUP8 ADD MLOAD SWAP1 POP JUMPDEST PUSH2 0x28CD DUP6 DUP3 PUSH2 0x2852 JUMP JUMPDEST DUP7 SSTORE POP PUSH2 0x2934 JUMP JUMPDEST PUSH1 0x1F NOT DUP5 AND PUSH2 0x28E3 DUP7 PUSH2 0x26D0 JUMP JUMPDEST PUSH0 JUMPDEST DUP3 DUP2 LT ISZERO PUSH2 0x290A JUMPI DUP5 DUP10 ADD MLOAD DUP3 SSTORE PUSH1 0x1 DUP3 ADD SWAP2 POP PUSH1 0x20 DUP6 ADD SWAP5 POP PUSH1 0x20 DUP2 ADD SWAP1 POP PUSH2 0x28E5 JUMP JUMPDEST DUP7 DUP4 LT ISZERO PUSH2 0x2927 JUMPI DUP5 DUP10 ADD MLOAD PUSH2 0x2923 PUSH1 0x1F DUP10 AND DUP3 PUSH2 0x2836 JUMP JUMPDEST DUP4 SSTORE POP JUMPDEST PUSH1 0x1 PUSH1 0x2 DUP9 MUL ADD DUP9 SSTORE POP POP POP JUMPDEST POP POP POP POP POP POP JUMP JUMPDEST PUSH32 0x4E487B7100000000000000000000000000000000000000000000000000000000 PUSH0 MSTORE PUSH1 0x11 PUSH1 0x4 MSTORE PUSH1 0x24 PUSH0 REVERT JUMPDEST PUSH0 PUSH2 0x2973 DUP3 PUSH2 0x1DA9 JUMP JUMPDEST SWAP2 POP PUSH2 0x297E DUP4 PUSH2 0x1DA9 JUMP JUMPDEST SWAP3 POP DUP3 DUP3 ADD SWAP1 POP DUP1 DUP3 GT ISZERO PUSH2 0x2996 JUMPI PUSH2 0x2995 PUSH2 0x293C JUMP JUMPDEST JUMPDEST SWAP3 SWAP2 POP POP JUMP JUMPDEST PUSH0 PUSH1 0x60 DUP3 ADD SWAP1 POP PUSH2 0x29AF PUSH0 DUP4 ADD DUP7 PUSH2 0x1E37 JUMP JUMPDEST PUSH2 0x29BC PUSH1 0x20 DUP4 ADD DUP6 PUSH2 0x23A1 JUMP JUMPDEST PUSH2 0x29C9 PUSH1 0x40 DUP4 ADD DUP5 PUSH2 0x1E37 JUMP JUMPDEST SWAP5 SWAP4 POP POP POP POP JUMP JUMPDEST PUSH32 0x4E487B7100000000000000000000000000000000000000000000000000000000 PUSH0 MSTORE PUSH1 0x32 PUSH1 0x4 MSTORE PUSH1 0x24 PUSH0 REVERT JUMPDEST PUSH0 PUSH2 0x2A08 DUP3 PUSH2 0x1DA9 JUMP JUMPDEST SWAP2 POP PUSH32 0xFFFFFFFFFFFFFFFFFFFFFFFFFFFFFFFFFFFFFFFFFFFFFFFFFFFFFFFFFFFFFFFF DUP3 SUB PUSH2 0x2A3A JUMPI PUSH2 0x2A39 PUSH2 0x293C JUMP JUMPDEST JUMPDEST PUSH1 0x1 DUP3 ADD SWAP1 POP SWAP2 SWAP1 POP JUMP JUMPDEST PUSH0 DUP2 MLOAD SWAP1 POP SWAP2 SWAP1 POP JUMP JUMPDEST PUSH0 DUP3 DUP3 MSTORE PUSH1 0x20 DUP3 ADD SWAP1 POP SWAP3 SWAP2 POP POP JUMP JUMPDEST PUSH0 PUSH2 0x2A69 DUP3 PUSH2 0x2A45 JUMP JUMPDEST PUSH2 0x2A73 DUP2 DUP6 PUSH2 0x2A4F JUMP JUMPDEST SWAP4 POP PUSH2 0x2A83 DUP2 DUP6 PUSH1 0x20 DUP7 ADD PUSH2 0x1D19 JUMP JUMPDEST PUSH2 0x2A8C DUP2 PUSH2 0x1D41 JUMP JUMPDEST DUP5 ADD SWAP2 POP POP SWAP3 SWAP2 POP POP JUMP JUMPDEST PUSH0 PUSH1 0x80 DUP3 ADD SWAP1 POP PUSH2 0x2AAA PUSH0 DUP4 ADD DUP8 PUSH2 0x1E37 JUMP JUMPDEST PUSH2 0x2AB7 PUSH1 0x20 DUP4 ADD DUP7 PUSH2 0x1E37 JUMP JUMPDEST PUSH2 0x2AC4 PUSH1 0x40 DUP4 ADD DUP6 PUSH2 0x23A1 JUMP JUMPDEST DUP2 DUP2 SUB PUSH1 0x60 DUP4 ADD MSTORE PUSH2 0x2AD6 DUP2 DUP5 PUSH2 0x2A5F JUMP JUMPDEST SWAP1 POP SWAP6 SWAP5 POP POP POP POP POP JUMP JUMPDEST PUSH0 DUP2 MLOAD SWAP1 POP PUSH2 0x2AEF DUP2 PUSH2 0x1C77 JUMP JUMPDEST SWAP3 SWAP2 POP POP JUMP JUMPDEST PUSH0 PUSH1 0x20 DUP3 DUP5 SUB SLT ISZERO PUSH2 0x2B0A JUMPI PUSH2 0x2B09 PUSH2 0x1C44 JUMP JUMPDEST JUMPDEST PUSH0 PUSH2 0x2B17 DUP5 DUP3 DUP6 ADD PUSH2 0x2AE1 JUMP JUMPDEST SWAP2 POP POP SWAP3 SWAP2 POP POP JUMP JUMPDEST PUSH0 PUSH1 0x40 DUP3 ADD SWAP1 POP PUSH2 0x2B33 PUSH0 DUP4 ADD DUP6 PUSH2 0x1E37 JUMP JUMPDEST PUSH2 0x2B40 PUSH1 0x20 DUP4 ADD DUP5 PUSH2 0x23A1 JUMP JUMPDEST SWAP4 SWAP3 POP POP POP JUMP INVALID LOG2 PUSH5 0x6970667358 0x22 SLT KECCAK256 PUSH4 0x8D56F892 SDIV JUMP PUSH25 0xC754CB2F77796E6DCA07E80A3014F394035B20EDFF1C7A7764 PUSH20 0x6F6C634300081400330000000000000000000000 "
				},
				"gasEstimates": {
					"creation": {
						"codeDepositCost": "2226600",
						"executionCost": "infinite",
						"totalCost": "infinite"
					},
					"external": {
						"NftsaleSumbit(uint256,uint256)": "infinite",
						"approve(address,uint256)": "infinite",
						"balanceOf(address)": "infinite",
						"getAllTokenURIs()": "infinite",
						"getApproved(uint256)": "infinite",
						"getMyNftTokenId()": "infinite",
						"getPrice()": "infinite",
						"getSaleTokenId()": "infinite",
						"getTotalSupply()": "2520",
						"isApprovedForAll(address,address)": "infinite",
						"minting(string)": "infinite",
						"name()": "infinite",
						"ownerOf(uint256)": "infinite",
						"safeTransferFrom(address,address,uint256)": "infinite",
						"safeTransferFrom(address,address,uint256,bytes)": "infinite",
						"setAppAll(address,address,bool)": "infinite",
						"setApprovalForAll(address,bool)": "infinite",
						"supportsInterface(bytes4)": "787",
						"symbol()": "infinite",
						"tokenURI(uint256)": "infinite",
						"transferFrom(address,address,uint256)": "infinite"
					},
					"internal": {
						"_baseURI()": "infinite"
					}
				},
				"methodIdentifiers": {
					"NftsaleSumbit(uint256,uint256)": "62a464d8",
					"approve(address,uint256)": "095ea7b3",
					"balanceOf(address)": "70a08231",
					"getAllTokenURIs()": "89fde7af",
					"getApproved(uint256)": "081812fc",
					"getMyNftTokenId()": "304a7a4b",
					"getPrice()": "98d5fdca",
					"getSaleTokenId()": "91679017",
					"getTotalSupply()": "c4e41b22",
					"isApprovedForAll(address,address)": "e985e9c5",
					"minting(string)": "0bdc9008",
					"name()": "06fdde03",
					"ownerOf(uint256)": "6352211e",
					"safeTransferFrom(address,address,uint256)": "42842e0e",
					"safeTransferFrom(address,address,uint256,bytes)": "b88d4fde",
					"setAppAll(address,address,bool)": "29d6724e",
					"setApprovalForAll(address,bool)": "a22cb465",
					"supportsInterface(bytes4)": "01ffc9a7",
					"symbol()": "95d89b41",
					"tokenURI(uint256)": "c87b56dd",
					"transferFrom(address,address,uint256)": "23b872dd"
				}
			},
			"storageLayout": {
				"storage": [
					{
						"astId": 169,
						"contract": "myNFT.sol:MyNFT",
						"label": "_name",
						"offset": 0,
						"slot": "0",
						"type": "t_string_storage"
					},
					{
						"astId": 171,
						"contract": "myNFT.sol:MyNFT",
						"label": "_symbol",
						"offset": 0,
						"slot": "1",
						"type": "t_string_storage"
					},
					{
						"astId": 175,
						"contract": "myNFT.sol:MyNFT",
						"label": "_owners",
						"offset": 0,
						"slot": "2",
						"type": "t_mapping(t_uint256,t_address)"
					},
					{
						"astId": 179,
						"contract": "myNFT.sol:MyNFT",
						"label": "_balances",
						"offset": 0,
						"slot": "3",
						"type": "t_mapping(t_address,t_uint256)"
					},
					{
						"astId": 183,
						"contract": "myNFT.sol:MyNFT",
						"label": "_tokenApprovals",
						"offset": 0,
						"slot": "4",
						"type": "t_mapping(t_uint256,t_address)"
					},
					{
						"astId": 189,
						"contract": "myNFT.sol:MyNFT",
						"label": "_operatorApprovals",
						"offset": 0,
						"slot": "5",
						"type": "t_mapping(t_address,t_mapping(t_address,t_bool))"
					},
					{
						"astId": 2801,
						"contract": "myNFT.sol:MyNFT",
						"label": "_tokenURIs",
						"offset": 0,
						"slot": "6",
						"type": "t_mapping(t_uint256,t_string_storage)"
					},
					{
						"astId": 2804,
						"contract": "myNFT.sol:MyNFT",
						"label": "totalSupply",
						"offset": 0,
						"slot": "7",
						"type": "t_uint256"
					},
					{
						"astId": 3037,
						"contract": "myNFT.sol:MyNFT",
						"label": "_tokenPrices",
						"offset": 0,
						"slot": "8",
						"type": "t_mapping(t_uint256,t_uint256)"
					},
					{
						"astId": 3040,
						"contract": "myNFT.sol:MyNFT",
						"label": "sellingTokenIds",
						"offset": 0,
						"slot": "9",
						"type": "t_array(t_uint256)dyn_storage"
					},
					{
						"astId": 3043,
						"contract": "myNFT.sol:MyNFT",
						"label": "salecnt",
						"offset": 0,
						"slot": "10",
						"type": "t_uint256"
					}
				],
				"types": {
					"t_address": {
						"encoding": "inplace",
						"label": "address",
						"numberOfBytes": "20"
					},
					"t_array(t_uint256)dyn_storage": {
						"base": "t_uint256",
						"encoding": "dynamic_array",
						"label": "uint256[]",
						"numberOfBytes": "32"
					},
					"t_bool": {
						"encoding": "inplace",
						"label": "bool",
						"numberOfBytes": "1"
					},
					"t_mapping(t_address,t_bool)": {
						"encoding": "mapping",
						"key": "t_address",
						"label": "mapping(address => bool)",
						"numberOfBytes": "32",
						"value": "t_bool"
					},
					"t_mapping(t_address,t_mapping(t_address,t_bool))": {
						"encoding": "mapping",
						"key": "t_address",
						"label": "mapping(address => mapping(address => bool))",
						"numberOfBytes": "32",
						"value": "t_mapping(t_address,t_bool)"
					},
					"t_mapping(t_address,t_uint256)": {
						"encoding": "mapping",
						"key": "t_address",
						"label": "mapping(address => uint256)",
						"numberOfBytes": "32",
						"value": "t_uint256"
					},
					"t_mapping(t_uint256,t_address)": {
						"encoding": "mapping",
						"key": "t_uint256",
						"label": "mapping(uint256 => address)",
						"numberOfBytes": "32",
						"value": "t_address"
					},
					"t_mapping(t_uint256,t_string_storage)": {
						"encoding": "mapping",
						"key": "t_uint256",
						"label": "mapping(uint256 => string)",
						"numberOfBytes": "32",
						"value": "t_string_storage"
					},
					"t_mapping(t_uint256,t_uint256)": {
						"encoding": "mapping",
						"key": "t_uint256",
						"label": "mapping(uint256 => uint256)",
						"numberOfBytes": "32",
						"value": "t_uint256"
					},
					"t_string_storage": {
						"encoding": "bytes",
						"label": "string",
						"numberOfBytes": "32"
					},
					"t_uint256": {
						"encoding": "inplace",
						"label": "uint256",
						"numberOfBytes": "32"
					}
				}
			},
			"userdoc": {
				"kind": "user",
				"methods": {},
				"version": 1
			}
		}
	}
}